{"abi":[{"type":"constructor","inputs":[],"stateMutability":"nonpayable"},{"type":"function","name":"DEFAULT_ADMIN_ROLE","inputs":[],"outputs":[{"name":"","type":"bytes32","internalType":"bytes32"}],"stateMutability":"view"},{"type":"function","name":"EMERGENCY_ROLE","inputs":[],"outputs":[{"name":"","type":"bytes32","internalType":"bytes32"}],"stateMutability":"view"},{"type":"function","name":"MINTER_ROLE","inputs":[],"outputs":[{"name":"","type":"bytes32","internalType":"bytes32"}],"stateMutability":"view"},{"type":"function","name":"PARAMETER_ROLE","inputs":[],"outputs":[{"name":"","type":"bytes32","internalType":"bytes32"}],"stateMutability":"view"},{"type":"function","name":"PAUSER_ROLE","inputs":[],"outputs":[{"name":"","type":"bytes32","internalType":"bytes32"}],"stateMutability":"view"},{"type":"function","name":"PROXY_ADMIN_ROLE","inputs":[],"outputs":[{"name":"","type":"bytes32","internalType":"bytes32"}],"stateMutability":"view"},{"type":"function","name":"UPGRADER_ROLE","inputs":[],"outputs":[{"name":"","type":"bytes32","internalType":"bytes32"}],"stateMutability":"view"},{"type":"function","name":"getRoleAdmin","inputs":[{"name":"role","type":"bytes32","internalType":"bytes32"}],"outputs":[{"name":"","type":"bytes32","internalType":"bytes32"}],"stateMutability":"view"},{"type":"function","name":"getRoleMember","inputs":[{"name":"role","type":"bytes32","internalType":"bytes32"},{"name":"index","type":"uint256","internalType":"uint256"}],"outputs":[{"name":"","type":"address","internalType":"address"}],"stateMutability":"view"},{"type":"function","name":"getRoleMemberCount","inputs":[{"name":"role","type":"bytes32","internalType":"bytes32"}],"outputs":[{"name":"","type":"uint256","internalType":"uint256"}],"stateMutability":"view"},{"type":"function","name":"getRoleMembersPaginated","inputs":[{"name":"role","type":"bytes32","internalType":"bytes32"},{"name":"offset","type":"uint256","internalType":"uint256"},{"name":"limit","type":"uint256","internalType":"uint256"}],"outputs":[{"name":"page","type":"address[]","internalType":"address[]"},{"name":"totalMembers","type":"uint256","internalType":"uint256"}],"stateMutability":"view"},{"type":"function","name":"grantRole","inputs":[{"name":"role","type":"bytes32","internalType":"bytes32"},{"name":"account","type":"address","internalType":"address"}],"outputs":[],"stateMutability":"nonpayable"},{"type":"function","name":"hasRole","inputs":[{"name":"role","type":"bytes32","internalType":"bytes32"},{"name":"account","type":"address","internalType":"address"}],"outputs":[{"name":"","type":"bool","internalType":"bool"}],"stateMutability":"view"},{"type":"function","name":"initialize","inputs":[{"name":"admin","type":"address","internalType":"address"}],"outputs":[],"stateMutability":"nonpayable"},{"type":"function","name":"renounceRole","inputs":[{"name":"role","type":"bytes32","internalType":"bytes32"}],"outputs":[],"stateMutability":"nonpayable"},{"type":"function","name":"revokeRole","inputs":[{"name":"role","type":"bytes32","internalType":"bytes32"},{"name":"account","type":"address","internalType":"address"}],"outputs":[],"stateMutability":"nonpayable"},{"type":"function","name":"setRoleAdmin","inputs":[{"name":"role","type":"bytes32","internalType":"bytes32"},{"name":"adminRole","type":"bytes32","internalType":"bytes32"}],"outputs":[],"stateMutability":"nonpayable"},{"type":"event","name":"Initialized","inputs":[{"name":"version","type":"uint8","indexed":false,"internalType":"uint8"}],"anonymous":false},{"type":"event","name":"RoleAdminChanged","inputs":[{"name":"role","type":"bytes32","indexed":true,"internalType":"bytes32"},{"name":"previousAdminRole","type":"bytes32","indexed":true,"internalType":"bytes32"},{"name":"newAdminRole","type":"bytes32","indexed":true,"internalType":"bytes32"}],"anonymous":false},{"type":"event","name":"RoleGranted","inputs":[{"name":"role","type":"bytes32","indexed":true,"internalType":"bytes32"},{"name":"account","type":"address","indexed":true,"internalType":"address"},{"name":"sender","type":"address","indexed":true,"internalType":"address"}],"anonymous":false},{"type":"event","name":"RoleRevoked","inputs":[{"name":"role","type":"bytes32","indexed":true,"internalType":"bytes32"},{"name":"account","type":"address","indexed":true,"internalType":"address"},{"name":"sender","type":"address","indexed":true,"internalType":"address"}],"anonymous":false},{"type":"error","name":"AC_AccountInvalid","inputs":[]},{"type":"error","name":"AC_CannotRemoveLastAdmin","inputs":[]},{"type":"error","name":"AC_IndexOutOfBounds","inputs":[{"name":"index","type":"uint256","internalType":"uint256"},{"name":"length","type":"uint256","internalType":"uint256"}]},{"type":"error","name":"AC_RoleCannotBeZero","inputs":[]},{"type":"error","name":"AC_SenderMissingAdminRole","inputs":[{"name":"adminRole","type":"bytes32","internalType":"bytes32"}]},{"type":"error","name":"InvalidAmount","inputs":[]},{"type":"error","name":"ZeroAddress","inputs":[{"name":"context","type":"string","internalType":"string"}]}],"bytecode":{"object":"0x6080806040523460bd576000549060ff8260081c16606b575060ff808216036031575b60405161112190816100c38239f35b60ff90811916176000557f7f26b83ff96e1f2b6a682f133852f6798a09c465da95921460cefb3847402498602060405160ff8152a1386022565b62461bcd60e51b815260206004820152602760248201527f496e697469616c697a61626c653a20636f6e747261637420697320696e697469604482015266616c697a696e6760c81b6064820152608490fd5b600080fdfe6080604052600436101561001257600080fd5b60003560e01c80631e4e009114610c6a57806320df435914610c2f578063248a9ca314610c035780632f2ff15d14610a775780635d0e82bc146109fe578063691afd63146109c357806382f3a000146109885780638bb9c5bf146109275780639010d07c146108a257806391d1485414610846578063a217fddf1461082a578063c4d66de8146102d4578063ca15c873146102a8578063d53913931461026d578063d547741f14610152578063e63ab1e9146101175763f72c0d8b146100d757600080fd5b346101125760003660031901126101125760206040517f189ab7a9244df0848122154315af71fe140f3db0fe014031783b0946b8c9d2e38152f35b600080fd5b346101125760003660031901126101125760206040517f65d7a28e3265b37a6474929f336521b332c1681b933f6cb9f3376673440d862a8152f35b346101125760403660031901126101125760043561016e610d36565b6001600160a01b0381161561025c578160005260026020526040600020548015808091610253575b1561023457505060005b600081815260016020908152604080832033845290915290205460ff1615610220575081610217576000805260036020527f3617319a054d772f909f7c479a2cebe5066e836a939412e32403c99029b92eff54600110156102065761020491610ee9565b005b63b32b7b7760e01b60005260046000fd5b61020491610ee9565b63251b467b60e21b60005260045260246000fd5b8315908161024b575b50156101a0575060006101a0565b90508461023d565b50831515610196565b63758d5ba760e11b60005260046000fd5b346101125760003660031901126101125760206040517f9f2df0fed2c77648de5860a4cc508cd0818c85b8b8a1ab4ceeef8d981c8956a68152f35b346101125760203660031901126101125760043560005260036020526020604060002054604051908152f35b34610112576020366003190112610112576004356001600160a01b038116808203610112576000549160ff8360081c16159283809461081d575b8015610806575b156107aa5760ff19811660011760005583610798575b50811561076a57600080805260026020527fac33ff75c19e70fe83507db0d683fd3465c996598dc972688b7ace676c89077b805490829055816000805160206110cc8339815191528180a460008281527fa6eef7e35abe7026729641147f7915573c7e97b47efa546f5f6e3230263bcb49602052604090205460ff1615610651575b50507f189ab7a9244df0848122154315af71fe140f3db0fe014031783b0946b8c9d2e3600081815260026020527f5482ce787c10f743b3012848791e6ccbba62695e9c5f15725fc4588abbd7478680549082905590916000805160206110cc8339815191528380a47f795eb25cb2b1be6e10a101fd5278394bdeaa6cda3086183d0982b3254e030c1a600081815260026020527f3829e31a37a80e05ba2805e07cc3f24d52da272da0b36b296904a60745acf5b080549082905590916000805160206110cc8339815191528380a47fbf233dd2aafeb4d50879c4aa5c81e96d92f6e6945c906a58f9f2d1c1631b4b26600081815260026020527f28c9ec68e4eea38d712bc1c550e52514f6bac036cf8b0f0ed19d6ac21930dd8c80549082905590916000805160206110cc8339815191528380a47f65d7a28e3265b37a6474929f336521b332c1681b933f6cb9f3376673440d862a600081815260026020527faa2c41c8db999cab41dbf71397ccd99cf3349690c12e02929b93abbcc53e5b9380549082905590916000805160206110cc8339815191528380a47f17d57ed1a1d10c36bff7484e6bb95371a28422a7baabf93343b1965f53f83fa0600081815260026020527fb0b925837eaf5e5f67969f291ec313d62814a5da99ba9a83bd3c8260c098148a80549082905590916000805160206110cc8339815191528380a47f9f2df0fed2c77648de5860a4cc508cd0818c85b8b8a1ab4ceeef8d981c8956a6600081815260026020527fe92eadb4de1de763eeedd9ccebd7087c81985f684bbab225db3364a6dfaedc5380549082905590916000805160206110cc8339815191528380a461061957005b61ff0019600054166000557f7f26b83ff96e1f2b6a682f133852f6798a09c465da95921460cefb3847402498602060405160018152a1005b60008281527fa6eef7e35abe7026729641147f7915573c7e97b47efa546f5f6e3230263bcb4960209081526040808320805460ff191660011790557f3617319a054d772f909f7c479a2cebe5066e836a939412e32403c99029b92eff80547f17ef568e3e12ab5b9c7254a8d58478811de00f9e6eb34345acd53bf8fd09d3ec845291842082905592805260039091529190600160401b831015610754578261070191600161072595018155610d87565b81546001600160a01b0393841660039290921b91821b9390911b1916919091179055565b339060007f2f8788117e7eff1d82e926ec794901d17c78024a50270940304540a733656f0d8180a481806103ad565b634e487b7160e01b600052604160045260246000fd5b60405163eac0d38960e01b815260206004820152600560248201526430b236b4b760d91b6044820152606490fd5b61ffff1916610101176000558361032b565b60405162461bcd60e51b815260206004820152602e60248201527f496e697469616c697a61626c653a20636f6e747261637420697320616c72656160448201526d191e481a5b9a5d1a585b1a5e995960921b6064820152608490fd5b50303b1580156103155750600160ff821614610315565b50600160ff82161061030e565b3461011257600036600319011261011257602060405160008152f35b346101125760403660031901126101125761085f610d36565b6001600160a01b0381161561025c57600435600052600160205260406000209060018060a01b0316600052602052602060ff604060002054166040519015158152f35b346101125760403660031901126101125760043560243590806000526003602052604060002054821015610901576020916108e891600052600383526040600020610d87565b905460405160039290921b1c6001600160a01b03168152f35b60005260036020526040600020549063e8095f3d60e01b60005260045260245260446000fd5b34610112576020366003190112610112576004358061097f576000805260036020527f3617319a054d772f909f7c479a2cebe5066e836a939412e32403c99029b92eff546001101561020657610204905b3390610ee9565b61020490610978565b346101125760003660031901126101125760206040517f795eb25cb2b1be6e10a101fd5278394bdeaa6cda3086183d0982b3254e030c1a8152f35b346101125760003660031901126101125760206040517f17d57ed1a1d10c36bff7484e6bb95371a28422a7baabf93343b1965f53f83fa08152f35b3461011257606036600319011261011257610a20604435602435600435610db5565b9060405190604082019260408352815180945260206060840192016000945b808610610a5457505082935060208301520390f35b81516001600160a01b031684526001959095019460209384019390910190610a3f565b3461011257604036600319011261011257600435610a93610d36565b6001600160a01b03811690811561025c578260005260026020526040600020548015808091610bfa575b15610bdb57505060005b600081815260016020908152604080832033845290915290205460ff16156102205750821580610bd5575b610bc45782600052600160205260406000208260005260205260ff6040600020541615610b1b57005b8260005260016020526040600020826000526020526040600020600160ff19825416179055826000526003602052604060002054836000526004602052604060002083600052602052604060002055826000526003602052604060002090815491600160401b8310156107545782610701916001610b9b95018155610d87565b33917f2f8788117e7eff1d82e926ec794901d17c78024a50270940304540a733656f0d600080a4005b638942231960e01b60005260046000fd5b15610af2565b84159081610bf2575b5015610ac757506000610ac7565b905085610be4565b50841515610abd565b346101125760203660031901126101125760043560005260026020526020604060002054604051908152f35b346101125760003660031901126101125760206040517fbf233dd2aafeb4d50879c4aa5c81e96d92f6e6945c906a58f9f2d1c1631b4b268152f35b346101125760403660031901126101125760043560243590806000526002602052604060002054801590818092610d2d575b15610d28575060005b821580928193610d20575b50610d18575b600081815260016020908152604080832033845290915290205460ff161561022057508080610d0f575b50610bc457600081815260026020526040812080549084905591906000805160206110cc8339815191529080a4005b90501583610ce0565b506000610cb6565b905085610cb0565b610ca5565b50821515610c9c565b602435906001600160a01b038216820361011257565b67ffffffffffffffff81116107545760051b60200190565b91908203918211610d7157565b634e487b7160e01b600052601160045260246000fd5b8054821015610d9f5760005260206000200190600090565b634e487b7160e01b600052603260045260246000fd5b9291928315610ed8576000526003602052604060002080549384831015610e935780610de18487610d64565b1015610e8d5750610df28285610d64565b905b610dfd82610d4c565b6040519390601f01601f1916840167ffffffffffffffff81118582101761075457604052828452601f19610e3084610d4c565b0136602086013760005b838110610e4957505050509190565b808201808311610d7157610e5d9084610d87565b9054865160039290921b1c6001600160a01b03169190811015610d9f5760019160208260051b8801015201610e3a565b90610df4565b5050604051905060006020820182811067ffffffffffffffff821117610ec457604052815260003660208301379190565b634e487b7160e01b82526041600452602482fd5b63162908e360e11b60005260046000fd5b806000526001602052604060002060018060a01b03831660005260205260ff60406000205416610f17575050565b60008181526001602090815260408083206001600160a01b03861684528252808320805460ff191690558383526003909152902054610fa7575b806000526004602052604060002060018060a01b03831660005260205260006040812055339160018060a01b0316907ff6391f5c32d9c69d2a47ea670b442974b53935d1edc7fd64eb21e047a839171b600080a4565b806000526004602052604060002060018060a01b0383166000526020526040600020548160005260036020526040600020548110610fe6575b50610f51565b8160005260036020526040600020546000198101908111610d7157808203611060575b505080600052600360205260406000208054801561104a5760001901906110308282610d87565b81549060018060a01b039060031b1b191690555538610fe0565b634e487b7160e01b600052603160045260246000fd5b611077908360005260036020526040600020610d87565b60018060a01b0391549060031b1c168260005260036020526110a181610701846040600020610d87565b82600052600460205260406000209060018060a01b0316600052602052604060002055388061100956febd79b86ffe0ab8e8776151514217cd7cacd52c909f66475c3af44e129f0b00ffa264697066735822122078369e0b7feef34bcb1032d220cb65d4ed99eda49e24ddefc0f5c3ccf2b0c93c64736f6c634300081c0033","linkReferences":{}},"methodIdentifiers":{"DEFAULT_ADMIN_ROLE()":"a217fddf","EMERGENCY_ROLE()":"20df4359","MINTER_ROLE()":"d5391393","PARAMETER_ROLE()":"691afd63","PAUSER_ROLE()":"e63ab1e9","PROXY_ADMIN_ROLE()":"82f3a000","UPGRADER_ROLE()":"f72c0d8b","getRoleAdmin(bytes32)":"248a9ca3","getRoleMember(bytes32,uint256)":"9010d07c","getRoleMemberCount(bytes32)":"ca15c873","getRoleMembersPaginated(bytes32,uint256,uint256)":"5d0e82bc","grantRole(bytes32,address)":"2f2ff15d","hasRole(bytes32,address)":"91d14854","initialize(address)":"c4d66de8","renounceRole(bytes32)":"8bb9c5bf","revokeRole(bytes32,address)":"d547741f","setRoleAdmin(bytes32,bytes32)":"1e4e0091"},"id":0}