{"abi":[{"type":"constructor","inputs":[],"stateMutability":"nonpayable"},{"type":"function","name":"accessControl","inputs":[],"outputs":[{"name":"","type":"address","internalType":"contract AccessControl"}],"stateMutability":"view"},{"type":"function","name":"contractExists","inputs":[{"name":"name","type":"string","internalType":"string"}],"outputs":[{"name":"exists_","type":"bool","internalType":"bool"},{"name":"isActive_","type":"bool","internalType":"bool"}],"stateMutability":"view"},{"type":"function","name":"getContractAddress","inputs":[{"name":"name","type":"string","internalType":"string"}],"outputs":[{"name":"","type":"address","internalType":"address"}],"stateMutability":"view"},{"type":"function","name":"getContractCount","inputs":[],"outputs":[{"name":"count_","type":"uint256","internalType":"uint256"}],"stateMutability":"view"},{"type":"function","name":"getContractInfo","inputs":[{"name":"name","type":"string","internalType":"string"}],"outputs":[{"name":"contractAddress_","type":"address","internalType":"address"},{"name":"contractType_","type":"string","internalType":"string"},{"name":"version_","type":"string","internalType":"string"},{"name":"active_","type":"bool","internalType":"bool"},{"name":"registrationTime_","type":"uint256","internalType":"uint256"},{"name":"registrar_","type":"address","internalType":"address"}],"stateMutability":"view"},{"type":"function","name":"getContractName","inputs":[{"name":"contractAddress_","type":"address","internalType":"address"}],"outputs":[{"name":"","type":"string","internalType":"string"}],"stateMutability":"view"},{"type":"function","name":"getContractsByType","inputs":[{"name":"contractType_","type":"string","internalType":"string"},{"name":"offset","type":"uint256","internalType":"uint256"},{"name":"limit","type":"uint256","internalType":"uint256"}],"outputs":[{"name":"namesPage","type":"string[]","internalType":"string[]"},{"name":"addressesPage","type":"address[]","internalType":"address[]"},{"name":"totalMatchingContracts","type":"uint256","internalType":"uint256"}],"stateMutability":"view"},{"type":"function","name":"initialize","inputs":[{"name":"initialOwner_","type":"address","internalType":"address"},{"name":"accessControlAddress_","type":"address","internalType":"address"}],"outputs":[],"stateMutability":"nonpayable"},{"type":"function","name":"listContracts","inputs":[{"name":"offset","type":"uint256","internalType":"uint256"},{"name":"limit","type":"uint256","internalType":"uint256"}],"outputs":[{"name":"page","type":"string[]","internalType":"string[]"},{"name":"totalContracts","type":"uint256","internalType":"uint256"}],"stateMutability":"view"},{"type":"function","name":"owner","inputs":[],"outputs":[{"name":"","type":"address","internalType":"address"}],"stateMutability":"view"},{"type":"function","name":"registerContract","inputs":[{"name":"name","type":"string","internalType":"string"},{"name":"contractAddress_","type":"address","internalType":"address"},{"name":"contractType_","type":"string","internalType":"string"},{"name":"version_","type":"string","internalType":"string"}],"outputs":[{"name":"success","type":"bool","internalType":"bool"}],"stateMutability":"nonpayable"},{"type":"function","name":"removeContract","inputs":[{"name":"name","type":"string","internalType":"string"}],"outputs":[{"name":"success","type":"bool","internalType":"bool"}],"stateMutability":"nonpayable"},{"type":"function","name":"renounceOwnership","inputs":[],"outputs":[],"stateMutability":"nonpayable"},{"type":"function","name":"setContractActive","inputs":[{"name":"name","type":"string","internalType":"string"},{"name":"active","type":"bool","internalType":"bool"}],"outputs":[{"name":"success","type":"bool","internalType":"bool"}],"stateMutability":"nonpayable"},{"type":"function","name":"transferOwnership","inputs":[{"name":"newOwner","type":"address","internalType":"address"}],"outputs":[],"stateMutability":"nonpayable"},{"type":"function","name":"updateContract","inputs":[{"name":"name","type":"string","internalType":"string"},{"name":"newContractAddress","type":"address","internalType":"address"},{"name":"newVersion","type":"string","internalType":"string"}],"outputs":[{"name":"success","type":"bool","internalType":"bool"}],"stateMutability":"nonpayable"},{"type":"event","name":"ContractActivationChanged","inputs":[{"name":"name","type":"string","indexed":true,"internalType":"string"},{"name":"contractAddress","type":"address","indexed":true,"internalType":"address"},{"name":"active","type":"bool","indexed":false,"internalType":"bool"},{"name":"changer","type":"address","indexed":true,"internalType":"address"}],"anonymous":false},{"type":"event","name":"ContractRegistered","inputs":[{"name":"name","type":"string","indexed":true,"internalType":"string"},{"name":"contractAddress","type":"address","indexed":true,"internalType":"address"},{"name":"contractType","type":"string","indexed":false,"internalType":"string"},{"name":"version","type":"string","indexed":false,"internalType":"string"},{"name":"registrar","type":"address","indexed":true,"internalType":"address"}],"anonymous":false},{"type":"event","name":"ContractRemoved","inputs":[{"name":"name","type":"string","indexed":true,"internalType":"string"},{"name":"contractAddress","type":"address","indexed":true,"internalType":"address"},{"name":"remover","type":"address","indexed":true,"internalType":"address"}],"anonymous":false},{"type":"event","name":"ContractUpdated","inputs":[{"name":"name","type":"string","indexed":true,"internalType":"string"},{"name":"oldAddress","type":"address","indexed":true,"internalType":"address"},{"name":"newAddress","type":"address","indexed":true,"internalType":"address"},{"name":"newVersion","type":"string","indexed":false,"internalType":"string"},{"name":"updater","type":"address","indexed":false,"internalType":"address"}],"anonymous":false},{"type":"event","name":"Initialized","inputs":[{"name":"version","type":"uint8","indexed":false,"internalType":"uint8"}],"anonymous":false},{"type":"event","name":"OwnershipTransferred","inputs":[{"name":"previousOwner","type":"address","indexed":true,"internalType":"address"},{"name":"newOwner","type":"address","indexed":true,"internalType":"address"}],"anonymous":false},{"type":"error","name":"CR_AccessControlZero","inputs":[]},{"type":"error","name":"CR_AddressAlreadyRegistered","inputs":[{"name":"addr","type":"address","internalType":"address"}]},{"type":"error","name":"CR_ContractAddressZero","inputs":[{"name":"context","type":"string","internalType":"string"}]},{"type":"error","name":"CR_ContractNotFound","inputs":[{"name":"name","type":"string","internalType":"string"}]},{"type":"error","name":"CR_ContractTypeEmpty","inputs":[]},{"type":"error","name":"CR_LimitIsZero","inputs":[]},{"type":"error","name":"CR_NameAlreadyRegistered","inputs":[{"name":"name","type":"string","internalType":"string"}]},{"type":"error","name":"CR_NameEmpty","inputs":[]},{"type":"error","name":"CR_VersionEmpty","inputs":[]},{"type":"error","name":"NotAuthorized","inputs":[{"name":"requiredRole","type":"bytes32","internalType":"bytes32"}]},{"type":"error","name":"ZeroAddress","inputs":[{"name":"context","type":"string","internalType":"string"}]}],"bytecode":{"object":"0x6080806040523460bd576000549060ff8260081c16606b575060ff808216036031575b604051611f5790816100c38239f35b60ff90811916176000557f7f26b83ff96e1f2b6a682f133852f6798a09c465da95921460cefb3847402498602060405160ff8152a1386022565b62461bcd60e51b815260206004820152602760248201527f496e697469616c697a61626c653a20636f6e747261637420697320696e697469604482015266616c697a696e6760c81b6064820152608490fd5b600080fdfe6080604052600436101561001257600080fd5b60003560e01c806304433bbc146114b95780630a7f2fff1461144257806313007d5514611419578063485cc955146111ea57806358743c7114611141578063715018a6146110e45780637929d9ad14610f86578063819f34b314610e9057806383deba97146109c65780638da5cb5b1461099d5780638e820b571461095d5780639399869d1461093f57806397623b5814610565578063d09ea4d7146101b2578063f299ad44146101605763f2fde38b146100cc57600080fd5b3461015b57602036600319011261015b576100e5611543565b6100ed611e73565b6001600160a01b038116156101075761010590611e2a565b005b60405162461bcd60e51b815260206004820152602660248201527f4f776e61626c653a206e6577206f776e657220697320746865207a65726f206160448201526564647265737360d01b6064820152608490fd5b600080fd5b3461015b57602036600319011261015b576001600160a01b03610181611543565b1660005260996020526101ae61019a604060002061177c565b604051918291602083526020830190611592565b0390f35b3461015b57606036600319011261015b576004356001600160401b03811161015b576101e2903690600401611516565b906101eb611559565b916044356001600160401b03811161015b5761020b903690600401611516565b60975491949092916001600160a01b031680156105545760405163691afd6360e01b8152602081600481855afa9081156104e657600091610521575b50604051632474521560e21b81526004810191909152336024820152602081604481855afa9081156104e6576000916104f2575b5015610478575061028a611ecb565b8115610467576001600160a01b031693841561042c57821561041b576040518285823760208184810160988152030190209160018060a01b038354169485156103f2578487870361035f575b61031c908460027f1be6213f0ebf2070b2aac5ceadd7e61c6632fe01e97728aab87801a27b1d4ad6978b6bffffffffffffffffffffffff60a01b82541617815501611c10565b816040519283928337810160008152039020926103466040519283926040845260408401916119ac565b3360208301520390a46001606555602060405160018152f35b50866000526099602052610377604060002054611742565b6103dd5761031c858460027f1be6213f0ebf2070b2aac5ceadd7e61c6632fe01e97728aab87801a27b1d4ad6978a60005260996020526103ba6040600020611d5d565b8b60005260996020526103d287876040600020611c10565b9750505090506102d6565b86636a3e6a9160e11b60005260045260246000fd5b604051634f2c691b60e11b8152602060048201529182916104179160248401916119ac565b0390fd5b637e0cdf2d60e11b60005260046000fd5b604051634908ff9560e01b81526020600482015260126024820152716e6577436f6e74726163744164647265737360701b6044820152606490fd5b6317fa69ef60e31b60005260046000fd5b60206004916040519283809263691afd6360e01b82525afa9081156104e6576000916104b4575b506323d6951f60e21b60005260045260246000fd5b90506020813d6020116104de575b816104cf60209383611629565b8101031261015b57518161049f565b3d91506104c2565b6040513d6000823e3d90fd5b610514915060203d60201161051a575b61050c8183611629565b810190611994565b8761027b565b503d610502565b90506020813d60201161054c575b8161053c60209383611629565b8101031261015b57516020610247565b3d915061052f565b63853e773560e01b60005260046000fd5b3461015b57602036600319011261015b576004356001600160401b03811161015b57610595903690600401611516565b6097546001600160a01b031680156105545760405163691afd6360e01b8152602081600481855afa9081156104e65760009161090c575b50604051632474521560e21b81526004810191909152336024820152602081604481855afa9081156104e6576000916108ed575b5015610478575061060f611ecb565b801561046757604051818382376098828201908152819003602001902080546001600160a01b0316919082156108ca57600161064b910161177c565b8260005260996020526106616040600020611d5d565b60405182858237602081848101609b81520301902054609a54600019810190811161087157808203610887575b5050609a5480156107fe57600019016106b16106ab82609a61172a565b90611dac565b609a55600060405183868237602081858101609b815203019020556040516106fa602082816106e9818301968781519384920161156f565b81010301601f198101835282611629565b5190209283600052609c60205260406000209380600052609d60205261072560406000208484611610565b548554600019810190811161087157808203610814575b505084549485156107fe57602095600019019061075c6106ab838361172a565b55600052609d84526000610774604082208484611610565b5560006005604051848482378681868101609881520301902082815561079c60018201611d5d565b6107a860028201611d5d565b82600382015582600482015501558160405192839283378101600081520390206040519133917f7364662e2b89b7266d3bff6eac85f0304deb0ebeaec55355f0cc6ae333a4b143600080a4600160655560018152f35b634e487b7160e01b600052603160045260246000fd5b602061082c610826610860938a61172a565b5061177c565b6108408161083a868c61172a565b90611dbb565b84600052609d82526040600020826040519483868095519384920161156f565b82019081520301902055858061073c565b634e487b7160e01b600052601160045260246000fd5b60206108986108266108b8936116f9565b6108a58161083a866116f9565b816040519382858094519384920161156f565b8101609b81520301902055848061068e565b604051634f2c691b60e11b815260206004820152806104176024820185886119ac565b610906915060203d60201161051a5761050c8183611629565b84610600565b90506020813d602011610937575b8161092760209383611629565b8101031261015b575160206105cc565b3d915061091a565b3461015b57600036600319011261015b576020609a54604051908152f35b3461015b57604036600319011261015b5761099361097f602435600435611cca565b6040519283926040845260408401906115b7565b9060208301520390f35b3461015b57600036600319011261015b576033546040516001600160a01b039091168152602090f35b3461015b57608036600319011261015b576004356001600160401b03811161015b576109f6903690600401611516565b6109fe611559565b916044356001600160401b03811161015b57610a1e903690600401611516565b91906064356001600160401b03811161015b57610a3f903690600401611516565b60975491969094916001600160a01b031680156105545760405163691afd6360e01b8152602081600481855afa9081156104e657600091610e5d575b50604051632474521560e21b81526004810191909152336024820152602081604481855afa9081156104e657600091610e3e575b50156104785750610abe611ecb565b8515610467576001600160a01b0316948515610e05578115610df457841561041b576040518185823760988183019081528190036020019020546001600160a01b0316610dce57856000526099602052610b1c604060002054611742565b610db95760405160c081018181106001600160401b03821117610da3576040528681526005610b4c368587611aa4565b60208301908152610b5e36898c611aa4565b60408401908152610be76060850160018152610bcf6080870193428552610bc560a08901963388528d8b60405191823760988c8201908152819003602001902099518a546001600160a01b0319166001600160a01b0391909116178a555160018a01611b46565b5160028801611b46565b511515600386019060ff801983541691151516179055565b51600484015551910180546001600160a01b0319166001600160a01b03929092169190911790556000868152609960205260409020610c299082908690611c10565b609a54600160401b811015610da357806001610c4a9201609a55609a61172a565b610d8d578185610c5992611c10565b609a5460001981019081116108715760405182868237602081848101609b81520301902055604051602081019083858337610ca86020828681016000838201520301601f198101835282611629565b5190209081600052609c60205260406000208054600160401b811015610da357610cd79160018201815561172a565b610d8d578186610ce692611c10565b81600052609c602052604060002054946000198601958611610871577f5f370b2d4bfa8a76142b71f7d41900b62d5fbc561c50eab82a264f623315c00995610d7a93600052609d602052610d3f60406000208484611610565b5581604051928392833781016000815203902094610d6a6040519485946040865260408601916119ac565b90838203602085015233986119ac565b0390a46001606555602060405160018152f35b634e487b7160e01b600052600060045260246000fd5b634e487b7160e01b600052604160045260246000fd5b85636a3e6a9160e11b60005260045260246000fd5b60405163a376743b60e01b815260206004820152908190610417906024830190876119ac565b63341b2f4360e21b60005260046000fd5b604051634908ff9560e01b815260206004820152601060248201526f636f6e7472616374416464726573735f60801b6044820152606490fd5b610e57915060203d60201161051a5761050c8183611629565b89610aaf565b90506020813d602011610e88575b81610e7860209383611629565b8101031261015b57516020610a7b565b3d9150610e6b565b3461015b57602036600319011261015b576004356001600160401b03811161015b57610ec0903690600401611516565b6040518183823760208183810160988152030190209160018060a01b03835416918215610f62575050610ef56001830161177c565b91610f026002820161177c565b60ff60038301541691610f4c600482015491600560018060a01b039101541692610f3e604051978897885260c0602089015260c0880190611592565b908682036040880152611592565b9215156060850152608084015260a08301520390f35b610417604051928392634f2c691b60e11b84526020600485015260248401916119ac565b3461015b57604036600319011261015b576004356001600160401b03811161015b57610fb6903690600401611516565b60243590811515820361015b576097546001600160a01b03169283156105545760405163691afd6360e01b8152602081600481885afa9081156104e6576000916110b1575b50604051632474521560e21b81526004810191909152336024820152602081604481885afa9081156104e657600091611092575b5015611059579161104a91602093611045611ecb565b6119cd565b60016065556040519015158152f35b60405163691afd6360e01b8152602081600481885afa9081156104e6576000916104b457506323d6951f60e21b60005260045260246000fd5b6110ab915060203d60201161051a5761050c8183611629565b8561102f565b90506020813d6020116110dc575b816110cc60209383611629565b8101031261015b57516020610ffb565b3d91506110bf565b3461015b57600036600319011261015b576110fd611e73565b603380546001600160a01b031981169091556000906001600160a01b03167f8be0079c531659141344cd1fd0a4f28419497f9722a3daafe3b4186f6b6457e08280a3005b3461015b57606036600319011261015b576004356001600160401b03811161015b57611174611182913690600401611516565b906044359160243591611834565b9190611199604051926060845260608401906115b7565b9282840360208401526020808351958681520192016000945b8086106111c757505082935060408301520390f35b81516001600160a01b0316845260019590950194602093840193909101906111b2565b3461015b57604036600319011261015b57611203611543565b61120b611559565b906000549160ff8360081c16159283809461140c575b80156113f5575b156113995760ff19811660011760005583611387575b5061125960ff60005460081c1661125481611dca565b611dca565b61126233611e2a565b61127760ff60005460081c1661125481611dca565b60016065556001600160a01b03821615611352576001600160a01b03169081156112fa576112bc916bffffffffffffffffffffffff60a01b6097541617609755611e2a565b6112c257005b61ff0019600054166000557f7f26b83ff96e1f2b6a682f133852f6798a09c465da95921460cefb3847402498602060405160018152a1005b60405163eac0d38960e01b815260206004820152602960248201527f616363657373436f6e74726f6c4164647265737320666f7220436f6e7472616360448201526874526567697374727960b81b6064820152608490fd5b60405163eac0d38960e01b815260206004820152600c60248201526b34b734ba34b0b627bbb732b960a11b6044820152606490fd5b61ffff1916610101176000558361123e565b60405162461bcd60e51b815260206004820152602e60248201527f496e697469616c697a61626c653a20636f6e747261637420697320616c72656160448201526d191e481a5b9a5d1a585b1a5e995960921b6064820152608490fd5b50303b1580156112285750600160ff821614611228565b50600160ff821610611221565b3461015b57600036600319011261015b576097546040516001600160a01b039091168152602090f35b3461015b57602036600319011261015b576004356001600160401b03811161015b5760206114766040923690600401611516565b919082845193849283378101609881520301902060ff600360018060a01b03835416151592015416806114b2575b825191825215156020820152f35b50806114a4565b3461015b57602036600319011261015b576004356001600160401b03811161015b5760206114ec81923690600401611516565b9190826040519384928337609890820190815203019020546040516001600160a01b039091168152f35b9181601f8401121561015b578235916001600160401b03831161015b576020838186019501011161015b57565b600435906001600160a01b038216820361015b57565b602435906001600160a01b038216820361015b57565b60005b8381106115825750506000910152565b8181015183820152602001611572565b906020916115ab8151809281855285808601910161156f565b601f01601f1916010190565b9080602083519182815201916020808360051b8301019401926000915b8383106115e357505050505090565b9091929394602080611601600193601f198682030187528951611592565b970193019301919392906115d4565b6020919283604051948593843782019081520301902090565b90601f801991011681019081106001600160401b03821117610da357604052565b6001600160401b038111610da35760051b60200190565b60405190611670602083611629565b600080835282815b82811061168457505050565b806060602080938501015201611678565b9061169f8261164a565b6116ac6040519182611629565b82815280926116bd601f199161164a565b019060005b8281106116ce57505050565b8060606020809385010152016116c2565b9190820391821161087157565b9190820180921161087157565b609a5481101561171457609a60005260206000200190600090565b634e487b7160e01b600052603260045260246000fd5b80548210156117145760005260206000200190600090565b90600182811c92168015611772575b602083101461175c57565b634e487b7160e01b600052602260045260246000fd5b91607f1691611751565b906040519182600082549261179084611742565b80845293600181169081156117fe57506001146117b7575b506117b592500383611629565b565b90506000929192526020600020906000915b8183106117e25750509060206117b592820101386117a8565b60209193508060019154838589010152019101909184926117c9565b9050602092506117b594915060ff191682840152151560051b820101386117a8565b80518210156117145760209160051b010190565b90939193831561198357611866602060405183819483830196873781016000838201520301601f198101835282611629565b519020600052609c602052604060002080549283851015611959578061188c86866116df565b1015611954575061189d84846116df565b6118a681611695565b916118b08261164a565b956118be6040519788611629565b828752601f196118cd8461164a565b0136602089013760005b8381106118e75750505050929190565b806119006108266118fa600194866116ec565b8661172a565b8061190b8389611820565b526119168288611820565b50602061192c604051928381519384920161156f565b81019060988252602081858060a01b039303019020541661194d828b611820565b52016118d7565b61189d565b50509150611965611661565b9160405192611975602085611629565b600084526000368137929190565b63f04c484160e01b60005260046000fd5b9081602091031261015b5751801515810361015b5790565b908060209392818452848401376000828201840152601f01601f1916010190565b90801561046757604051818382376098828201908152819003602001902080546001600160a01b031615611a7f576003810160ff815416948015158096151514611a7457611a26919060ff801983541691151516179055565b60018060a01b03905416918160405192839283378101600081520390206040519283527f069f3471155ab2875ae7b74d745f056744a327e95c69b0cb3c5118744f10929560203394a4600190565b505050505050600190565b50610417604051928392634f2c691b60e11b84526020600485015260248401916119ac565b9291926001600160401b038211610da35760405191611acd601f8201601f191660200184611629565b82948184528183011161015b578281602093846000960137010152565b818110611af5575050565b60008155600101611aea565b9190601f8111611b1057505050565b6117b5926000526020600020906020601f840160051c83019310611b3c575b601f0160051c0190611aea565b9091508190611b2f565b91909182516001600160401b038111610da357611b6d81611b678454611742565b84611b01565b6020601f8211600114611bae578190611b9f939495600092611ba3575b50508160011b916000199060031b1c19161790565b9055565b015190503880611b8a565b601f1982169083600052806000209160005b818110611bf857509583600195969710611bdf575b505050811b019055565b015160001960f88460031b161c19169055388080611bd5565b9192602060018192868b015181550194019201611bc0565b9092916001600160401b038111610da357611c2f81611b678454611742565b6000601f8211600114611c6b578190611b9f939495600092611c605750508160011b916000199060031b1c19161790565b013590503880611b8a565b601f198216948382526020822091805b878110611cb2575083600195969710611c9857505050811b019055565b0135600019600384901b60f8161c19169055388080611bd5565b90926020600181928686013581550194019101611c7b565b919091821561198357609a549283821015611d4f5780611cea83866116df565b1015611d4a5750611cfb81846116df565b611d0481611695565b9160005b828110611d16575050509190565b80611d2e610826611d29600194866116ec565b6116f9565b611d388287611820565b52611d438186611820565b5001611d08565b611cfb565b5050611d59611661565b9190565b611d678154611742565b9081611d71575050565b81601f60009311600114611d83575055565b81835260208320611d9f91601f0160051c810190600101611aea565b8082528160208120915555565b90610d8d57611d678154611742565b9190610d8d576117b591611b46565b15611dd157565b60405162461bcd60e51b815260206004820152602b60248201527f496e697469616c697a61626c653a20636f6e7472616374206973206e6f74206960448201526a6e697469616c697a696e6760a81b6064820152608490fd5b603380546001600160a01b039283166001600160a01b0319821681179092559091167f8be0079c531659141344cd1fd0a4f28419497f9722a3daafe3b4186f6b6457e0600080a3565b6033546001600160a01b03163303611e8757565b606460405162461bcd60e51b815260206004820152602060248201527f4f776e61626c653a2063616c6c6572206973206e6f7420746865206f776e65726044820152fd5b600260655414611edc576002606555565b60405162461bcd60e51b815260206004820152601f60248201527f5265656e7472616e637947756172643a207265656e7472616e742063616c6c006044820152606490fdfea2646970667358221220787a809f4610a31fa7bcf9d8cb643cc7e21c502c797a33c0e22a985540f8151b64736f6c634300081c0033","linkReferences":{}},"methodIdentifiers":{"accessControl()":"13007d55","contractExists(string)":"0a7f2fff","getContractAddress(string)":"04433bbc","getContractCount()":"9399869d","getContractInfo(string)":"819f34b3","getContractName(address)":"f299ad44","getContractsByType(string,uint256,uint256)":"58743c71","initialize(address,address)":"485cc955","listContracts(uint256,uint256)":"8e820b57","owner()":"8da5cb5b","registerContract(string,address,string,string)":"83deba97","removeContract(string)":"97623b58","renounceOwnership()":"715018a6","setContractActive(string,bool)":"7929d9ad","transferOwnership(address)":"f2fde38b","updateContract(string,address,string)":"d09ea4d7"},"id":5}