{"abi":[{"type":"constructor","inputs":[],"stateMutability":"nonpayable"},{"type":"function","name":"MAX_TIMELOCK_DURATION","inputs":[],"outputs":[{"name":"","type":"uint256","internalType":"uint256"}],"stateMutability":"view"},{"type":"function","name":"MIN_TIMELOCK_DURATION","inputs":[],"outputs":[{"name":"","type":"uint256","internalType":"uint256"}],"stateMutability":"view"},{"type":"function","name":"accessControl","inputs":[],"outputs":[{"name":"","type":"address","internalType":"contract AccessControl"}],"stateMutability":"view"},{"type":"function","name":"allActionIds","inputs":[{"name":"","type":"uint256","internalType":"uint256"}],"outputs":[{"name":"","type":"bytes32","internalType":"bytes32"}],"stateMutability":"view"},{"type":"function","name":"allowedFunctionSelectors","inputs":[{"name":"","type":"bytes4","internalType":"bytes4"}],"outputs":[{"name":"","type":"bool","internalType":"bool"}],"stateMutability":"view"},{"type":"function","name":"allowedTargets","inputs":[{"name":"","type":"address","internalType":"address"}],"outputs":[{"name":"","type":"bool","internalType":"bool"}],"stateMutability":"view"},{"type":"function","name":"cancelEmergencyAction","inputs":[{"name":"actionId","type":"bytes32","internalType":"bytes32"}],"outputs":[{"name":"success","type":"bool","internalType":"bool"}],"stateMutability":"nonpayable"},{"type":"function","name":"emergencyActions","inputs":[{"name":"","type":"bytes32","internalType":"bytes32"}],"outputs":[{"name":"emergencyLevel","type":"uint8","internalType":"uint8"},{"name":"proposalTime","type":"uint256","internalType":"uint256"},{"name":"proposer","type":"address","internalType":"address"},{"name":"target","type":"address","internalType":"address"},{"name":"data","type":"bytes","internalType":"bytes"},{"name":"executed","type":"bool","internalType":"bool"},{"name":"cancelled","type":"bool","internalType":"bool"}],"stateMutability":"view"},{"type":"function","name":"executeEmergencyAction","inputs":[{"name":"actionId","type":"bytes32","internalType":"bytes32"}],"outputs":[{"name":"success","type":"bool","internalType":"bool"}],"stateMutability":"nonpayable"},{"type":"function","name":"getActionDetails","inputs":[{"name":"actionId","type":"bytes32","internalType":"bytes32"}],"outputs":[{"name":"emergencyLevel","type":"uint8","internalType":"uint8"},{"name":"proposalTime","type":"uint256","internalType":"uint256"},{"name":"proposer","type":"address","internalType":"address"},{"name":"target","type":"address","internalType":"address"},{"name":"data","type":"bytes","internalType":"bytes"},{"name":"executed","type":"bool","internalType":"bool"},{"name":"cancelled","type":"bool","internalType":"bool"}],"stateMutability":"view"},{"type":"function","name":"getActionStatus","inputs":[{"name":"actionId","type":"bytes32","internalType":"bytes32"}],"outputs":[{"name":"exists","type":"bool","internalType":"bool"},{"name":"executed","type":"bool","internalType":"bool"},{"name":"cancelled","type":"bool","internalType":"bool"},{"name":"timeRemaining","type":"uint256","internalType":"uint256"}],"stateMutability":"view"},{"type":"function","name":"getAllActionIds","inputs":[],"outputs":[{"name":"actionIds","type":"bytes32[]","internalType":"bytes32[]"}],"stateMutability":"view"},{"type":"function","name":"initialize","inputs":[{"name":"accessControlAddress","type":"address","internalType":"address"},{"name":"initialTimelockDuration","type":"uint256","internalType":"uint256"}],"outputs":[],"stateMutability":"nonpayable"},{"type":"function","name":"isFunctionSelectorAllowed","inputs":[{"name":"selector","type":"bytes4","internalType":"bytes4"}],"outputs":[{"name":"allowed","type":"bool","internalType":"bool"}],"stateMutability":"view"},{"type":"function","name":"isTargetAllowed","inputs":[{"name":"target","type":"address","internalType":"address"}],"outputs":[{"name":"allowed","type":"bool","internalType":"bool"}],"stateMutability":"view"},{"type":"function","name":"proposeEmergencyAction","inputs":[{"name":"emergencyLevel","type":"uint8","internalType":"uint8"},{"name":"target","type":"address","internalType":"address"},{"name":"data","type":"bytes","internalType":"bytes"}],"outputs":[{"name":"actionId","type":"bytes32","internalType":"bytes32"}],"stateMutability":"nonpayable"},{"type":"function","name":"setAllowedFunctionSelector","inputs":[{"name":"selector","type":"bytes4","internalType":"bytes4"},{"name":"allowed","type":"bool","internalType":"bool"}],"outputs":[{"name":"success","type":"bool","internalType":"bool"}],"stateMutability":"nonpayable"},{"type":"function","name":"setAllowedTarget","inputs":[{"name":"target","type":"address","internalType":"address"},{"name":"allowed","type":"bool","internalType":"bool"}],"outputs":[{"name":"success","type":"bool","internalType":"bool"}],"stateMutability":"nonpayable"},{"type":"function","name":"timelockDuration","inputs":[],"outputs":[{"name":"","type":"uint256","internalType":"uint256"}],"stateMutability":"view"},{"type":"function","name":"updateTimelockDuration","inputs":[{"name":"newDuration","type":"uint256","internalType":"uint256"}],"outputs":[{"name":"success","type":"bool","internalType":"bool"}],"stateMutability":"nonpayable"},{"type":"event","name":"EmergencyActionCancelled","inputs":[{"name":"actionId","type":"bytes32","indexed":true,"internalType":"bytes32"},{"name":"canceller","type":"address","indexed":true,"internalType":"address"},{"name":"cancellationTime","type":"uint256","indexed":false,"internalType":"uint256"}],"anonymous":false},{"type":"event","name":"EmergencyActionExecuted","inputs":[{"name":"actionId","type":"bytes32","indexed":true,"internalType":"bytes32"},{"name":"emergencyLevel","type":"uint8","indexed":false,"internalType":"uint8"},{"name":"executor","type":"address","indexed":true,"internalType":"address"},{"name":"target","type":"address","indexed":true,"internalType":"address"},{"name":"functionSelector","type":"bytes4","indexed":false,"internalType":"bytes4"},{"name":"executionTime","type":"uint256","indexed":false,"internalType":"uint256"}],"anonymous":false},{"type":"event","name":"EmergencyActionProposed","inputs":[{"name":"actionId","type":"bytes32","indexed":true,"internalType":"bytes32"},{"name":"emergencyLevel","type":"uint8","indexed":false,"internalType":"uint8"},{"name":"proposer","type":"address","indexed":true,"internalType":"address"},{"name":"proposalTime","type":"uint256","indexed":false,"internalType":"uint256"},{"name":"target","type":"address","indexed":true,"internalType":"address"},{"name":"functionSelector","type":"bytes4","indexed":false,"internalType":"bytes4"},{"name":"data","type":"bytes","indexed":false,"internalType":"bytes"}],"anonymous":false},{"type":"event","name":"FunctionSelectorAllowlistUpdated","inputs":[{"name":"selector","type":"bytes4","indexed":true,"internalType":"bytes4"},{"name":"allowed","type":"bool","indexed":false,"internalType":"bool"},{"name":"updater","type":"address","indexed":true,"internalType":"address"}],"anonymous":false},{"type":"event","name":"Initialized","inputs":[{"name":"version","type":"uint8","indexed":false,"internalType":"uint8"}],"anonymous":false},{"type":"event","name":"TargetAllowlistUpdated","inputs":[{"name":"target","type":"address","indexed":true,"internalType":"address"},{"name":"allowed","type":"bool","indexed":false,"internalType":"bool"},{"name":"updater","type":"address","indexed":true,"internalType":"address"}],"anonymous":false},{"type":"event","name":"TimelockDurationUpdated","inputs":[{"name":"oldDuration","type":"uint256","indexed":false,"internalType":"uint256"},{"name":"newDuration","type":"uint256","indexed":false,"internalType":"uint256"},{"name":"updater","type":"address","indexed":true,"internalType":"address"}],"anonymous":false},{"type":"error","name":"EC_InvalidEmergencyLevel","inputs":[{"name":"level","type":"uint8","internalType":"uint8"}]},{"type":"error","name":"ETC_DataTooShortForSelector","inputs":[]},{"type":"error","name":"InvalidAmount","inputs":[]},{"type":"error","name":"InvalidDuration","inputs":[]},{"type":"error","name":"NotAuthorized","inputs":[{"name":"requiredRole","type":"bytes32","internalType":"bytes32"}]},{"type":"error","name":"PA_TimelockNotYetExpired","inputs":[]},{"type":"error","name":"ZeroAddress","inputs":[{"name":"context","type":"string","internalType":"string"}]}],"bytecode":{"object":"0x6080806040523460bd576000549060ff8260081c16606b575060ff808216036031575b6040516119a190816100c38239f35b60ff90811916176000557f7f26b83ff96e1f2b6a682f133852f6798a09c465da95921460cefb3847402498602060405160ff8152a1386022565b62461bcd60e51b815260206004820152602760248201527f496e697469616c697a61626c653a20636f6e747261637420697320696e697469604482015266616c697a696e6760c81b6064820152608490fd5b600080fdfe6080604052600436101561001257600080fd5b60003560e01c806313007d551461014d578063184466c9146101485780632bbca1571461014357806330a182681461013e578063338a035a146101165780633ff562b8146101395780635309fa47146101205780637266948f1461013457806374cd33e61461012f5780637c5a9cfd1461012a57806389ff0ff214610125578063b8fe8d5f14610120578063bea0897c1461011b578063c745082e14610116578063ca1dd22e14610111578063cd00c3e11461010c578063cd6dc68714610107578063d5dd5dbd14610102578063dd5b7623146100fd5763e727283a146100f857600080fd5b610c98565b610bdd565b610b6e565b61095f565b6108db565b610771565b610411565b61073b565b61049a565b6106b4565b610663565b6105a8565b610513565b610451565b61033d565b6102fe565b61017b565b34610176576000366003190112610176576033546040516001600160a01b039091168152602090f35b600080fd5b34610176576020366003190112610176576004356033546101ac906001600160a01b03165b6001600160a01b031690565b6040516320df435960e01b8152602081600481855afa9081156102ad57610200916020916000916102e1575b50604051632474521560e21b8152600481019190915233602482015291829081906044820190565b0381855afa9081156102ad576000916102b2575b501561023c5761023861022683610ce9565b60405190151581529081906020820190565b0390f35b6020600491604051928380926320df435960e01b82525afa80156102ad5761027a9160009161027e575b506323d6951f60e21b600052600452602490565b6000fd5b6102a0915060203d6020116102a6575b6102988183610aa5565b810190610cb6565b82610266565b503d61028e565b610cc5565b6102d4915060203d6020116102da575b6102cc8183610aa5565b810190610cd1565b38610214565b503d6102c2565b6102f89150823d84116102a6576102988183610aa5565b386101d8565b34610176576000366003190112610176576020603454604051908152f35b600435906001600160e01b03198216820361017657565b8015150361017657565b346101765760403660031901126101765761035661031c565b6024359061036382610333565b603354610378906001600160a01b03166101a0565b6040516320df435960e01b8152602081600481855afa9081156102ad576103cb916020916000916102e15750604051632474521560e21b8152600481019190915233602482015291829081906044820190565b0381855afa9081156102ad576000916103f2575b501561023c576102386102268484610d54565b61040b915060203d6020116102da576102cc8183610aa5565b386103df565b34610176576020366003190112610176576001600160e01b031961043361031c565b166000526036602052602060ff604060002054166040519015158152f35b34610176576000366003190112610176576020604051610e108152f35b600435906001600160a01b038216820361017657565b602435906001600160a01b038216820361017657565b34610176576020366003190112610176576001600160a01b036104bb61046e565b166000526035602052602060ff604060002054166040519015158152f35b602060408183019282815284518094520192019060005b8181106104fd5750505090565b82518452602093840193909201916001016104f0565b346101765760003660031901126101765760405180602060385491828152019060386000527f38395c5dceade9603479b177b68959049485df8aa97b39f3533039af5f4561999060005b818110610580576102388561057481870382610aa5565b604051918291826104d9565b825484526020909301926001928301920161055d565b60209060031901126101765760043590565b34610176576105b636610596565b6033546105cb906001600160a01b03166101a0565b6040516320df435960e01b8152602081600481855afa9081156102ad5761061e916020916000916102e15750604051632474521560e21b8152600481019190915233602482015291829081906044820190565b0381855afa9081156102ad57600091610644575b501561023c5761023861022683610dba565b61065d915060203d6020116102da576102cc8183610aa5565b38610632565b34610176576020366003190112610176576004356038548110156101765760209060386000527f38395c5dceade9603479b177b68959049485df8aa97b39f3533039af5f4561990154604051908152f35b346101765760603660031901126101765760043560ff81168103610176576106da610484565b906044359067ffffffffffffffff821161017657366023830112156101765781600401359067ffffffffffffffff82116101765736602483850101116101765761023893602461072b940191611058565b6040519081529081906020820190565b3461017657608061075361074e36610596565b611634565b91604051931515845215156020840152151560408301526060820152f35b346101765760403660031901126101765761078a61046e565b6024359061079782610333565b6033546107ac906001600160a01b03166101a0565b6040516320df435960e01b8152602081600481855afa9081156102ad576107ff916020916000916102e15750604051632474521560e21b8152600481019190915233602482015291829081906044820190565b0381855afa9081156102ad57600091610826575b501561023c5761023861022684846116be565b61083f915060203d6020116102da576102cc8183610aa5565b38610813565b60ff909116815260208101919091526001600160a01b0391821660408201529116606082015260e060808201819052825190820181905292949392909160005b8281106108c4575050816108ba6101008360008260c0966108c29998010152601f80199101168301019660a083019015159052565b019015159052565b565b806020809284010151610100828701015201610885565b34610176576108e936610596565b600052603760205260406000206001810154801561094e5761023860ff8354169260018060a01b036002820154169360018060a01b03600383015416610936600460058501549401610acc565b9060405196879660ff808760081c1696169488610845565b63162908e360e11b60005260046000fd5b346101765760403660031901126101765761097861046e565b6109c9602435600054926109ad60ff600886901c1615610997565b1590565b80958196610a47575b8115610a27575b50611723565b836109c0600160ff196000541617600055565b610a0e57611786565b6109cf57005b6109df61ff001960005416600055565b604051600181527f7f26b83ff96e1f2b6a682f133852f6798a09c465da95921460cefb384740249890602090a1005b610a2261010061ff00196000541617600055565b611786565b303b15915081610a39575b50386109a7565b60ff16600114905038610a32565b600160ff82161091506109a0565b90600182811c92168015610a85575b6020831014610a6f57565b634e487b7160e01b600052602260045260246000fd5b91607f1691610a64565b634e487b7160e01b600052604160045260246000fd5b90601f8019910116810190811067ffffffffffffffff821117610ac757604052565b610a8f565b9060405191826000825492610ae084610a55565b8084529360018116908115610b4c5750600114610b05575b506108c292500383610aa5565b90506000929192526020600020906000915b818310610b305750509060206108c29282010138610af8565b6020919350806001915483858901015201910190918492610b17565b9050602092506108c294915060ff191682840152151560051b82010138610af8565b3461017657610b7c36610596565b6000526037602052604060002060ff8154169061023860018201549160018060a01b036002820154169360018060a01b03600383015416916005610bc260048301610acc565b9101549260405196879660ff808760081c1696169488610845565b3461017657610beb36610596565b603354610c00906001600160a01b03166101a0565b6040516320df435960e01b8152602081600481855afa9081156102ad57610c53916020916000916102e15750604051632474521560e21b8152600481019190915233602482015291829081906044820190565b0381855afa9081156102ad57600091610c79575b501561023c5761023861022683611836565b610c92915060203d6020116102da576102cc8183610aa5565b38610c67565b3461017657600036600319011261017657602060405162093a808152f35b90816020910312610176575190565b6040513d6000823e3d90fd5b908160209103126101765751610ce681610333565b90565b610e1081108015610d48575b610d3757603454908060345560405191825260208201527ff587abbc2b26e5420749151415bf602ce76dc515fb4c18d9ea06802a2f9b4f1160403392a2600190565b637616640160e01b60005260046000fd5b5062093a808111610cf5565b6001600160e01b031916801561094e57806000526036602052610d878260406000209060ff801983541691151516179055565b60405191151582527fa6640523cb788a260bcd0741b090e859aed1c0d5381e6f5295934670e74cbd4660203393a3600190565b610dc26118b5565b610dd6816000526037602052604060002090565b906001820154801561094e5760058301908154610df38160ff1690565b61094e5760081c60ff1661094e57603454610e0d91610feb565b4210610fc457610e1f60048401610acc565b926004845110610fb3576020840190815194610e5b610993610e548863ffffffff60e01b166000526036602052604060002090565b5460ff1690565b610f9d5760038201546001600160a01b03166000818152603560205260409020909490610e8b9061099390610e54565b610f9d576000968796610eb1610ea389965460ff1690565b845460ff1916600117909455565b6040805160ff9490941684526001600160e01b031992909216602084015242918301919091526001600160a01b038616913391907f59837fe8357e0b991d4a783160bf06e86de752b61559944acb9e09825cbb4b0b90606090a451925af1610f17611028565b9015610f2a57506001906108c260018055565b805115610f3957805190602001fd5b60405162461bcd60e51b815260206004820152603660248201527f456d657267656e637954696d656c6f636b3a20657865637574696f6e206661696044820152756c65642077697468206e6f206572726f72206461746160501b6064820152608490fd5b6323d6951f60e21b600090815260045260246000fd5b6349a11a1760e11b60005260046000fd5b63fd7bc01160e01b60005260046000fd5b634e487b7160e01b600052601160045260246000fd5b91908201809211610ff857565b610fd5565b604051906108c260e083610aa5565b67ffffffffffffffff8111610ac757601f01601f191660200190565b3d15611053573d906110398261100c565b916110476040519384610aa5565b82523d6000602084013e565b606090565b603354909493929190611073906001600160a01b03166101a0565b946040516320df435960e01b81526020816004818a5afa9081156102ad576110c7916020916000916102e15750604051632474521560e21b8152600481019190915233602482015291829081906044820190565b03818a5afa9081156102ad57600091611129575b50156110ee57610ce69495506000611148565b6040516320df435960e01b81526020816004818a5afa80156102ad5761027a9160009161027e57506323d6951f60e21b600052600452602490565b611142915060203d6020116102da576102cc8183610aa5565b386110db565b50909291926111556118b5565b600360ff831611611306576001600160a01b0381169283156112d75760048110610fb3576001600160a01b038216600090815260356020526040902061119e9061099390610e54565b610f9d5760206111af36838861131e565b0151946111d5610993610e548863ffffffff60e01b166000526036602052604060002090565b610f9d576040516020810190611202816111f4868689338c428a611355565b03601f198101835282610aa5565b51902095600161121c886000526037602052604060002090565b015461094e576112ca7f563c55578d14990c58304b437ad9d76c8faf7a553009e8e0b55ac2df42a9b22d936112b1899661127a611257610ffd565b60ff8b168152914260208401523360408401526001600160a01b03166060830152565b61128536848861131e565b6080820152600060a0820152600060c08201526112ac886000526037602052604060002090565b6114c7565b6112ba8661157c565b60405193849333984290866115e0565b0390a4906108c260018055565b60405163eac0d38960e01b81526020600482015260066024820152651d185c99d95d60d21b6044820152606490fd5b635223abdd60e11b60005260ff821660045260246000fd5b92919261132a8261100c565b916113386040519384610aa5565b829481845281830111610176578281602093846000960137010152565b93909286959260499794865260ff60f81b9060f81b1660208601526001600160601b03199060601b1660218501526001600160601b03199060601b1660358401528483013701016000815290565b601f82116113b057505050565b6000526020600020906020601f840160051c830193106113eb575b601f0160051c01905b8181106113df575050565b600081556001016113d4565b90915081906113cb565b919091825167ffffffffffffffff8111610ac75761141d816114178454610a55565b846113a3565b6020601f821160011461145e57819061144f939495600092611453575b50508160011b916000199060031b1c19161790565b9055565b01519050388061143a565b601f1982169061147384600052602060002090565b9160005b8181106114af57509583600195969710611496575b505050811b019055565b015160001960f88460031b161c1916905538808061148c565b9192602060018192868b015181550194019201611477565b8151815460ff191660ff9091161781556020820151600182015560408201516002820180546001600160a01b03199081166001600160a01b039384161790915560608401516003840180549190931691161790556108c291906115669060c09060059061153b6080860151600483016113f5565b019261155f61154d60a0830151151590565b859060ff801983541691151516179055565b0151151590565b815461ff00191690151560081b61ff0016179055565b60385468010000000000000000811015610ac7576001810160385560006038548210156115cc57603890527f38395c5dceade9603479b177b68959049485df8aa97b39f3533039af5f4561990155565b634e487b7160e01b81526032600452602490fd5b93909285939260ff60a09794168652602086015263ffffffff60e01b16604085015260806060850152816080850152848401376000828201840152601f01601f1916010190565b91908203918211610ff857565b600052603760205260406000206001810154908115908115916116ad57600501549260ff8085169460081c16928485156116a6575b61169c576034548101809111610ff85742811161168b57506000915b93929190565b611696904290611627565b91611685565b5090929190600090565b5083611669565b505050600090600090600090600090565b6001600160a01b031680156112d7578060005260356020526116f08260406000209060ff801983541691151516179055565b60405191151582527f2edfbcc0e5997df1ff39e371aca29f1ee6075c183c4177e44f1b3bbb086dd79760203393a3600190565b1561172a57565b60405162461bcd60e51b815260206004820152602e60248201527f496e697469616c697a61626c653a20636f6e747261637420697320616c72656160448201526d191e481a5b9a5d1a585b1a5e995960921b6064820152608490fd5b6117a060ff60005460081c1661179b8161190b565b61190b565b600180556001600160a01b03169081156117f957610e10811080156117ed575b610d37576117e86108c29260018060a01b03166001600160601b0360a01b6033541617603355565b603455565b5062093a8081116117c0565b60405163eac0d38960e01b8152602060048201526014602482015273616363657373436f6e74726f6c4164647265737360601b6044820152606490fd5b61183e6118b5565b806000526037602052604060002060018101541561094e57600501805460ff811661094e5760081c60ff1661094e57805461ff0019166101001790556040514281523391907f9b71321cfbcf944d826b44d55308e82e6b2373a714dd68a7aa442c24fc606f8590602090a36001906108c260018055565b6002600154146118c6576002600155565b60405162461bcd60e51b815260206004820152601f60248201527f5265656e7472616e637947756172643a207265656e7472616e742063616c6c006044820152606490fd5b1561191257565b60405162461bcd60e51b815260206004820152602b60248201527f496e697469616c697a61626c653a20636f6e7472616374206973206e6f74206960448201526a6e697469616c697a696e6760a81b6064820152608490fdfea2646970667358221220a719a445e9c8e5088863ec1832bd97a0756869491b7257e0b4cb68f82686b4d964736f6c634300081c0033","linkReferences":{}},"methodIdentifiers":{"MAX_TIMELOCK_DURATION()":"e727283a","MIN_TIMELOCK_DURATION()":"3ff562b8","accessControl()":"13007d55","allActionIds(uint256)":"7c5a9cfd","allowedFunctionSelectors(bytes4)":"338a035a","allowedTargets(address)":"b8fe8d5f","cancelEmergencyAction(bytes32)":"dd5b7623","emergencyActions(bytes32)":"d5dd5dbd","executeEmergencyAction(bytes32)":"74cd33e6","getActionDetails(bytes32)":"cd00c3e1","getActionStatus(bytes32)":"bea0897c","getAllActionIds()":"7266948f","initialize(address,uint256)":"cd6dc687","isFunctionSelectorAllowed(bytes4)":"c745082e","isTargetAllowed(address)":"5309fa47","proposeEmergencyAction(uint8,address,bytes)":"89ff0ff2","setAllowedFunctionSelector(bytes4,bool)":"30a18268","setAllowedTarget(address,bool)":"ca1dd22e","timelockDuration()":"2bbca157","updateTimelockDuration(uint256)":"184466c9"},"id":4}