{"abi":[{"type":"constructor","inputs":[],"stateMutability":"nonpayable"},{"type":"function","name":"MAX_REQUIRED_APPROVALS","inputs":[],"outputs":[{"name":"","type":"uint256","internalType":"uint256"}],"stateMutability":"view"},{"type":"function","name":"accessControl","inputs":[],"outputs":[{"name":"","type":"address","internalType":"contract AccessControl"}],"stateMutability":"view"},{"type":"function","name":"approveLevel3Emergency","inputs":[],"outputs":[{"name":"successFlag","type":"bool","internalType":"bool"}],"stateMutability":"nonpayable"},{"type":"function","name":"cancelLevel3Emergency","inputs":[],"outputs":[{"name":"successFlag","type":"bool","internalType":"bool"}],"stateMutability":"nonpayable"},{"type":"function","name":"contractProcessedEmergency","inputs":[{"name":"","type":"address","internalType":"address"},{"name":"","type":"uint8","internalType":"uint8"}],"outputs":[{"name":"","type":"bool","internalType":"bool"}],"stateMutability":"view"},{"type":"function","name":"currentApprovalCount","inputs":[],"outputs":[{"name":"","type":"uint256","internalType":"uint256"}],"stateMutability":"view"},{"type":"function","name":"currentApprovers","inputs":[{"name":"","type":"uint256","internalType":"uint256"}],"outputs":[{"name":"","type":"address","internalType":"address"}],"stateMutability":"view"},{"type":"function","name":"emergencyApprovalProposalIds","inputs":[{"name":"","type":"address","internalType":"address"}],"outputs":[{"name":"","type":"uint256","internalType":"uint256"}],"stateMutability":"view"},{"type":"function","name":"emergencyLevel","inputs":[],"outputs":[{"name":"","type":"uint8","internalType":"uint8"}],"stateMutability":"view"},{"type":"function","name":"emergencyLevelNotified","inputs":[{"name":"","type":"uint8","internalType":"uint8"}],"outputs":[{"name":"","type":"bool","internalType":"bool"}],"stateMutability":"view"},{"type":"function","name":"emergencyLevelTimestamp","inputs":[{"name":"","type":"uint8","internalType":"uint8"}],"outputs":[{"name":"","type":"uint256","internalType":"uint256"}],"stateMutability":"view"},{"type":"function","name":"emergencyWithdrawalEnabled","inputs":[],"outputs":[{"name":"","type":"bool","internalType":"bool"}],"stateMutability":"view"},{"type":"function","name":"emergencyWithdrawalPenalty","inputs":[],"outputs":[{"name":"","type":"uint256","internalType":"uint256"}],"stateMutability":"view"},{"type":"function","name":"enableEmergencyWithdrawal","inputs":[{"name":"enabled","type":"bool","internalType":"bool"},{"name":"penalty","type":"uint256","internalType":"uint256"}],"outputs":[{"name":"successFlag","type":"bool","internalType":"bool"}],"stateMutability":"nonpayable"},{"type":"function","name":"executeLevel3Emergency","inputs":[],"outputs":[{"name":"successFlag","type":"bool","internalType":"bool"}],"stateMutability":"nonpayable"},{"type":"function","name":"getApprovalStatus","inputs":[{"name":"approversOffset","type":"uint256","internalType":"uint256"},{"name":"approversLimit","type":"uint256","internalType":"uint256"}],"outputs":[{"name":"currentCountOut","type":"uint256","internalType":"uint256"},{"name":"requiredOut","type":"uint256","internalType":"uint256"},{"name":"approversPage","type":"address[]","internalType":"address[]"},{"name":"nextApproverOffset","type":"uint256","internalType":"uint256"},{"name":"totalApprovers","type":"uint256","internalType":"uint256"},{"name":"timelockActiveOut","type":"bool","internalType":"bool"},{"name":"executeAfterOut","type":"uint256","internalType":"uint256"}],"stateMutability":"view"},{"type":"function","name":"getEmergencyAwareContractsPaginated","inputs":[{"name":"offset","type":"uint256","internalType":"uint256"},{"name":"limit","type":"uint256","internalType":"uint256"}],"outputs":[{"name":"page","type":"address[]","internalType":"address[]"},{"name":"totalContracts","type":"uint256","internalType":"uint256"}],"stateMutability":"view"},{"type":"function","name":"getEmergencyLevel","inputs":[],"outputs":[{"name":"levelOut","type":"uint8","internalType":"uint8"}],"stateMutability":"view"},{"type":"function","name":"getEmergencyWithdrawalSettings","inputs":[],"outputs":[{"name":"enabledOut","type":"bool","internalType":"bool"},{"name":"penaltyOut","type":"uint256","internalType":"uint256"}],"stateMutability":"view"},{"type":"function","name":"initialize","inputs":[{"name":"accessControlAddress_","type":"address","internalType":"address"},{"name":"timelockControllerAddress_","type":"address","internalType":"address"},{"name":"initialRequiredApprovals_","type":"uint256","internalType":"uint256"},{"name":"initialLevel3TimelockDuration_","type":"uint256","internalType":"uint256"},{"name":"initialRecoveryAdminAddress_","type":"address","internalType":"address"}],"outputs":[],"stateMutability":"nonpayable"},{"type":"function","name":"isFunctionRestricted","inputs":[{"name":"functionSelector","type":"bytes4","internalType":"bytes4"}],"outputs":[{"name":"isRestrictedFlag","type":"bool","internalType":"bool"}],"stateMutability":"view"},{"type":"function","name":"isSystemPaused","inputs":[],"outputs":[{"name":"isPausedFlag","type":"bool","internalType":"bool"}],"stateMutability":"view"},{"type":"function","name":"level3ApprovalTime","inputs":[],"outputs":[{"name":"","type":"uint256","internalType":"uint256"}],"stateMutability":"view"},{"type":"function","name":"level3ProposalId","inputs":[],"outputs":[{"name":"","type":"uint256","internalType":"uint256"}],"stateMutability":"view"},{"type":"function","name":"level3TimelockDuration","inputs":[],"outputs":[{"name":"","type":"uint256","internalType":"uint256"}],"stateMutability":"view"},{"type":"function","name":"level3TimelockInProgress","inputs":[],"outputs":[{"name":"","type":"bool","internalType":"bool"}],"stateMutability":"view"},{"type":"function","name":"pauseSystem","inputs":[],"outputs":[{"name":"successFlag","type":"bool","internalType":"bool"}],"stateMutability":"nonpayable"},{"type":"function","name":"processEmergencyForContract","inputs":[{"name":"contractAddr","type":"address","internalType":"address"},{"name":"level","type":"uint8","internalType":"uint8"}],"outputs":[{"name":"successFlag","type":"bool","internalType":"bool"}],"stateMutability":"nonpayable"},{"type":"function","name":"recoverTokens","inputs":[{"name":"tokenAddress","type":"address","internalType":"address"},{"name":"amount","type":"uint256","internalType":"uint256"}],"outputs":[{"name":"successFlag","type":"bool","internalType":"bool"}],"stateMutability":"nonpayable"},{"type":"function","name":"recoveryAdminAddress","inputs":[],"outputs":[{"name":"","type":"address","internalType":"address"}],"stateMutability":"view"},{"type":"function","name":"registerEmergencyAwareContract","inputs":[{"name":"contractAddr","type":"address","internalType":"address"}],"outputs":[{"name":"successFlag","type":"bool","internalType":"bool"}],"stateMutability":"nonpayable"},{"type":"function","name":"removeEmergencyAwareContract","inputs":[{"name":"contractAddr","type":"address","internalType":"address"}],"outputs":[{"name":"successFlag","type":"bool","internalType":"bool"}],"stateMutability":"nonpayable"},{"type":"function","name":"requiredApprovals","inputs":[],"outputs":[{"name":"","type":"uint256","internalType":"uint256"}],"stateMutability":"view"},{"type":"function","name":"restrictedFunctions","inputs":[{"name":"","type":"bytes4","internalType":"bytes4"}],"outputs":[{"name":"","type":"uint8","internalType":"uint8"}],"stateMutability":"view"},{"type":"function","name":"setEmergencyLevel","inputs":[{"name":"level","type":"uint8","internalType":"uint8"}],"outputs":[{"name":"successFlag","type":"bool","internalType":"bool"}],"stateMutability":"nonpayable"},{"type":"function","name":"setLevel3TimelockDuration","inputs":[{"name":"newDuration","type":"uint256","internalType":"uint256"}],"outputs":[{"name":"successFlag","type":"bool","internalType":"bool"}],"stateMutability":"nonpayable"},{"type":"function","name":"setRecoveryAdminAddress","inputs":[{"name":"newRecoveryAdminAddress","type":"address","internalType":"address"}],"outputs":[{"name":"successFlag","type":"bool","internalType":"bool"}],"stateMutability":"nonpayable"},{"type":"function","name":"setRequiredApprovals","inputs":[{"name":"newRequiredApprovals","type":"uint256","internalType":"uint256"}],"outputs":[{"name":"successFlag","type":"bool","internalType":"bool"}],"stateMutability":"nonpayable"},{"type":"function","name":"systemPaused","inputs":[],"outputs":[{"name":"","type":"bool","internalType":"bool"}],"stateMutability":"view"},{"type":"function","name":"timelockController","inputs":[],"outputs":[{"name":"","type":"address","internalType":"contract EmergencyTimelockController"}],"stateMutability":"view"},{"type":"function","name":"unpauseSystem","inputs":[],"outputs":[{"name":"successFlag","type":"bool","internalType":"bool"}],"stateMutability":"nonpayable"},{"type":"function","name":"updateFunctionRestriction","inputs":[{"name":"funcSelector","type":"bytes4","internalType":"bytes4"},{"name":"thresholdVal","type":"uint8","internalType":"uint8"}],"outputs":[{"name":"successFlag","type":"bool","internalType":"bool"}],"stateMutability":"nonpayable"},{"type":"event","name":"EmergencyApprovalAdded","inputs":[{"name":"approver","type":"address","indexed":true,"internalType":"address"},{"name":"currentCount","type":"uint256","indexed":false,"internalType":"uint256"},{"name":"requiredCount","type":"uint256","indexed":false,"internalType":"uint256"}],"anonymous":false},{"type":"event","name":"EmergencyApprovalReset","inputs":[],"anonymous":false},{"type":"event","name":"EmergencyAwareContractRegistered","inputs":[{"name":"contractAddress","type":"address","indexed":true,"internalType":"address"},{"name":"registrar","type":"address","indexed":true,"internalType":"address"}],"anonymous":false},{"type":"event","name":"EmergencyAwareContractRemoved","inputs":[{"name":"contractAddress","type":"address","indexed":true,"internalType":"address"},{"name":"remover","type":"address","indexed":true,"internalType":"address"}],"anonymous":false},{"type":"event","name":"EmergencyLevelSet","inputs":[{"name":"level","type":"uint8","indexed":false,"internalType":"uint8"},{"name":"activator","type":"address","indexed":true,"internalType":"address"}],"anonymous":false},{"type":"event","name":"EmergencyNotificationProcessed","inputs":[{"name":"level","type":"uint8","indexed":false,"internalType":"uint8"},{"name":"contractAddress","type":"address","indexed":true,"internalType":"address"},{"name":"success","type":"bool","indexed":false,"internalType":"bool"}],"anonymous":false},{"type":"event","name":"EmergencyWithdrawalSet","inputs":[{"name":"enabled","type":"bool","indexed":false,"internalType":"bool"},{"name":"penalty","type":"uint256","indexed":false,"internalType":"uint256"}],"anonymous":false},{"type":"event","name":"FunctionRestrictionUpdated","inputs":[{"name":"selector","type":"bytes4","indexed":true,"internalType":"bytes4"},{"name":"threshold","type":"uint8","indexed":false,"internalType":"uint8"},{"name":"updater","type":"address","indexed":true,"internalType":"address"}],"anonymous":false},{"type":"event","name":"Initialized","inputs":[{"name":"version","type":"uint8","indexed":false,"internalType":"uint8"}],"anonymous":false},{"type":"event","name":"Level3TimelockCancelled","inputs":[{"name":"canceller","type":"address","indexed":true,"internalType":"address"}],"anonymous":false},{"type":"event","name":"Level3TimelockDurationUpdated","inputs":[{"name":"oldDuration","type":"uint256","indexed":false,"internalType":"uint256"},{"name":"newDuration","type":"uint256","indexed":false,"internalType":"uint256"},{"name":"updater","type":"address","indexed":true,"internalType":"address"}],"anonymous":false},{"type":"event","name":"Level3TimelockStarted","inputs":[{"name":"unlockTime","type":"uint256","indexed":false,"internalType":"uint256"},{"name":"starter","type":"address","indexed":true,"internalType":"address"}],"anonymous":false},{"type":"event","name":"NotificationFailure","inputs":[{"name":"contractAddress","type":"address","indexed":true,"internalType":"address"},{"name":"reason","type":"string","indexed":false,"internalType":"string"}],"anonymous":false},{"type":"event","name":"RecoveryAdminAddressUpdated","inputs":[{"name":"oldAdmin","type":"address","indexed":true,"internalType":"address"},{"name":"newAdmin","type":"address","indexed":true,"internalType":"address"},{"name":"updater","type":"address","indexed":true,"internalType":"address"}],"anonymous":false},{"type":"event","name":"RequiredApprovalsUpdated","inputs":[{"name":"oldValue","type":"uint256","indexed":false,"internalType":"uint256"},{"name":"newValue","type":"uint256","indexed":false,"internalType":"uint256"},{"name":"updater","type":"address","indexed":true,"internalType":"address"}],"anonymous":false},{"type":"event","name":"SystemPaused","inputs":[{"name":"pauser","type":"address","indexed":true,"internalType":"address"}],"anonymous":false},{"type":"event","name":"SystemUnpaused","inputs":[{"name":"unpauser","type":"address","indexed":true,"internalType":"address"}],"anonymous":false},{"type":"event","name":"TokensRecovered","inputs":[{"name":"token","type":"address","indexed":true,"internalType":"address"},{"name":"amount","type":"uint256","indexed":false,"internalType":"uint256"},{"name":"recipient","type":"address","indexed":true,"internalType":"address"}],"anonymous":false},{"type":"error","name":"AmountIsZero","inputs":[]},{"type":"error","name":"EC_AccessControlZero","inputs":[]},{"type":"error","name":"EC_AlreadyAtLevel3","inputs":[]},{"type":"error","name":"EC_AlreadyProcessed","inputs":[{"name":"contractAddress","type":"address","internalType":"address"},{"name":"level","type":"uint8","internalType":"uint8"}]},{"type":"error","name":"EC_CannotUnpauseAtLevel3","inputs":[]},{"type":"error","name":"EC_ContractAddressZero","inputs":[]},{"type":"error","name":"EC_ContractNotRegistered","inputs":[{"name":"contractAddress","type":"address","internalType":"address"}]},{"type":"error","name":"EC_EmergencyShutdownCallFailed","inputs":[]},{"type":"error","name":"EC_InsufficientBalanceToRecover","inputs":[]},{"type":"error","name":"EC_InvalidEmergencyLevel","inputs":[{"name":"level","type":"uint8","internalType":"uint8"}]},{"type":"error","name":"EC_Level3TimelockNotExpired","inputs":[]},{"type":"error","name":"EC_LevelNotInEmergency","inputs":[{"name":"level","type":"uint8","internalType":"uint8"}]},{"type":"error","name":"EC_LimitIsZero","inputs":[]},{"type":"error","name":"EC_MustHaveAdminRole","inputs":[]},{"type":"error","name":"EC_MustHaveEmergencyRole","inputs":[]},{"type":"error","name":"EC_MustHavePauserRole","inputs":[]},{"type":"error","name":"EC_NoLevel3EscalationInProgress","inputs":[]},{"type":"error","name":"EC_PenaltyTooHigh","inputs":[{"name":"penalty","type":"uint256","internalType":"uint256"}]},{"type":"error","name":"EC_RecoveryAdminNotSet","inputs":[]},{"type":"error","name":"EC_RequiredApprovalsTooHigh","inputs":[{"name":"requested","type":"uint256","internalType":"uint256"},{"name":"maxAllowed","type":"uint256","internalType":"uint256"}]},{"type":"error","name":"EC_RequiredApprovalsZero","inputs":[]},{"type":"error","name":"EC_SystemAlreadyPaused","inputs":[]},{"type":"error","name":"EC_SystemNotPaused","inputs":[]},{"type":"error","name":"EC_ThresholdInvalid","inputs":[{"name":"threshold","type":"uint8","internalType":"uint8"}]},{"type":"error","name":"EC_TimelockTooLong","inputs":[]},{"type":"error","name":"EC_TimelockTooShort","inputs":[]},{"type":"error","name":"EC_UseApproveForLevel3","inputs":[]},{"type":"error","name":"NotAContract","inputs":[{"name":"context","type":"string","internalType":"string"}]},{"type":"error","name":"ZeroAddress","inputs":[{"name":"context","type":"string","internalType":"string"}]}],"bytecode":{"object":"0x6080806040523460bd576000549060ff8260081c16606b575060ff808216036031575b604051612d2a90816100c38239f35b60ff90811916176000557f7f26b83ff96e1f2b6a682f133852f6798a09c465da95921460cefb3847402498602060405160ff8152a1386022565b62461bcd60e51b815260206004820152602760248201527f496e697469616c697a61626c653a20636f6e747261637420697320696e697469604482015266616c697a696e6760c81b6064820152608490fd5b600080fdfe608080604052600436101561001357600080fd5b60003560e01c908163069c9fae14612277575080630a4fa3321461217a5780630c08419a14611fb35780630d48410014611cef5780630db5e57a14611cd15780630eac605214611b6257806313007d5514611b395780631a2e972e14611b055780631a4ae3a814611ae7578063222a242e1461199357806328e1a114146119555780632c446a44146117c85780632f73c95214611786578063363245331461174e5780633cd790c1146117305780634c761240146115d05780634d124887146115725780634daad19d1461155457806355b1027e1461130057806356c8ba7d146112c657806357fb25cc14610fac5780635910b2ee14610f895780635bc590a114610f6b5780635da7c88014610f3257806367dd7e5f14610f095780636c48b99e14610dbb5780637691c4ac14610b655780637fe4e8ee14610d9557806381e472da14610d3f57806393ca66d014610bd957806395bc252c14610ba657806399c1aadc14610b885780639d2f83f014610b65578063ac376ee714610846578063d57a066714610368578063dc1d4fb71461062f578063e2b5d8c414610524578063e7d469321461038c578063e8793b2014610368578063f2ebf6fc14610237578063f3388e751461020e5763fee69ae6146101ed57600080fd5b3461020957600036600319011261020957602060405160148152f35b600080fd5b34610209576000366003190112610209576034546040516001600160a01b039091168152602090f35b346102095761024536612667565b603954906035549260ff603c5416806000146103605761026a603a54603b5490612719565b915b6038549380158015610356575b156102d757505060405161028e6020826126ba565b600081526000368137926102bc81945b6040519788978852602088015260e0604088015260e087019061267d565b9360608601526080850152151560a084015260c08301520390f35b806102e483879497612869565b101561035157506102f58482612869565b6102fe816128ce565b9460005b82811061031d57506102bc9161031791612719565b9461029e565b8061033261032d60019385612719565b612603565b838060a01b0391549060031b1c1661034a828a612900565b5201610302565b6102f5565b5084821015610279565b60009161026c565b3461020957600036600319011261020957602060ff60345460a01c16604051908152f35b3461020957602036600319011261020957603354600435906001600160a01b031680156105135760405163a217fddf60e01b8152602081600481855afa9081156104d3576000916104df575b50604051632474521560e21b815260048101919091523360248201529060209082908180604481015b03915afa9081156104d3576000916104a4575b501561049357610e1081106104825762093a80811161047157603b549080603b5560405191825260208201527f9e1974fd61f53dc3ffb0bf1ac5b0eb6dc030c4c7d94ee0c333a93120a89c295460403392a2602060405160018152f35b630f20330160e11b60005260046000fd5b63bec4a00160e01b60005260046000fd5b6360bdc69b60e01b60005260046000fd5b6104c6915060203d6020116104cc575b6104be81836126ba565b8101906126f2565b82610414565b503d6104b4565b6040513d6000823e3d90fd5b90506020813d60201161050b575b816104fa602093836126ba565b8101031261020957516104016103d8565b3d91506104ed565b639998045d60e01b60005260046000fd5b346102095760203660031901126102095761053d6125b6565b6033546001600160a01b03168015610513576040516320df435960e01b8152602081600481855afa9081156104d3576000916105fb575b50604051632474521560e21b815260048101919091523360248201529060209082908180604481015b03915afa9081156104d3576000916105dc575b50156105cb576105c16020916129c7565b6040519015158152f35b6302eefb5f60e31b60005260046000fd5b6105f5915060203d6020116104cc576104be81836126ba565b826105b0565b90506020813d602011610627575b81610616602093836126ba565b81010312610209575161059d610574565b3d9150610609565b34610209576000366003190112610209576033546001600160a01b031680156105135760405163e63ab1e960e01b8152602081600481855afa9081156104d357600091610812575b50604051632474521560e21b815260048101919091523360248201529060209082908180604481015b03915afa9081156104d3576000916107f3575b50156107e2576106c1612a7d565b603e5460ff81166107d15760ff1916600117603e55604051337f0e453e53649b13b8c30ef82dd7bce6c745cfcc7a1dc95170b4750764194f19b2600080a2600360005260436020527f62f6a8d3ed649f412d833373e5344ded5babeca5d7f90d4d90216edfee362f6c5460ff16158015610777575b90602091610749575b6001805560018152f35b6003600052604382526040600020600160ff198254161790556003600052604482524260406000205561073f565b50600360005260446020527fbb4c205d2fd5d5c0ff4ab723a86b46f24bafcc7dfe57b1f587a8c4b4e7fe2014549042610e0f1981019081116107bb57909110610736565b634e487b7160e01b600052601160045260246000fd5b63757741db60e11b60005260046000fd5b63b03e105b60e01b60005260046000fd5b61080c915060203d6020116104cc576104be81836126ba565b816106b3565b90506020813d60201161083e575b8161082d602093836126ba565b8101031261020957516106a0610677565b3d9150610820565b346102095760203660031901126102095761085f6125dc565b6033546001600160a01b03168015610513576040516320df435960e01b8152602081600481855afa9081156104d357600091610b31575b50604051632474521560e21b815260048101919091523360248201529060209082908180604481015b03915afa9081156104d357600091610b12575b50156105cb576108e0612a7d565b60ff81169060038211610afd5760038214610aed5760ff90603454908260a01b9060a01b168260a01b19821617603455600283101580610ade575b610aa9575b82156109de575b6040518381527ffc1d7cc44d240581882c96d32b8fa95391c2ed301a70d3928ca98f830bc43f3760203392a260a01c168111806109a1575b610973575b60018055602060405160018152f35b8060005260436020526040600020600160ff1982541617905560005260446020524260406000205580610964565b5080600052604360205260ff60406000205416158061095f5750806000526044602052604060002054610e0f194201904282116107bb571061095f565b603c54828160081c16610a7a575b50603e54828116610a48575b5081603c54168015610a3d575b1561092757610a12612ad3565b337fdadbf106d223c2b7e017dabd638cb58d88605e38b754656112146629bdba081c600080a2610927565b506039541515610a05565b821916603e55337f92414512bd79c80103975d8bef2f4e78aa5930c2869b4bd6139d98836ba8d918600080a2836109f8565b61ff001916603c55600080516020612cd58339815191526040603d54815190600082526020820152a1836109ec565b61010061ff0019603c541617603c55600080516020612cd58339815191526040603d54815190600182526020820152a1610920565b5081603c5460081c161561091b565b62efbc8760e21b60005260046000fd5b50635223abdd60e11b60005260045260246000fd5b610b2b915060203d6020116104cc576104be81836126ba565b826108d2565b90506020813d602011610b5d575b81610b4c602093836126ba565b8101031261020957516108bf610896565b3d9150610b3f565b3461020957600036600319011261020957602060ff603e54166040519015158152f35b34610209576000366003190112610209576020603554604051908152f35b3461020957600036600319011261020957603c54603d546040805160089390931c60ff1615158352602083019190915290f35b3461020957604036600319011261020957610bf26125ec565b610bfa6125cc565b6033546001600160a01b03168015610513576040516320df435960e01b8152602081600481855afa9081156104d357600091610d0b575b50604051632474521560e21b815260048101919091523360248201529060209082908180604481015b03915afa9081156104d357600091610cec575b50156105cb5760ff169060038211610cd75763ffffffff60e01b1680600052604260205260406000208260ff198254161790556040519182527fcaf1a9ebee3ace501b400671ef358882104e358a6237855b111c353603089eaf60203393a3602060405160018152f35b506330be0a5160e21b60005260045260246000fd5b610d05915060203d6020116104cc576104be81836126ba565b83610c6d565b90506020813d602011610d37575b81610d26602093836126ba565b810103126102095751610c5a610c31565b3d9150610d19565b3461020957604036600319011261020957610d586125b6565b610d606125cc565b9060018060a01b0316600052604560205260ff60406000209116600052602052602060ff604060002054166040519015158152f35b3461020957600036600319011261020957602060ff603c5460081c166040519015158152f35b34610209576000366003190112610209576033546001600160a01b03168015610513576040516320df435960e01b8152602081600481855afa9081156104d357600091610ed5575b50604051632474521560e21b815260048101919091523360248201529060209082908180604481015b03915afa9081156104d357600091610eb6575b50156105cb57610e4d612a7d565b60ff603c54161580610eac575b610e9b57610e66612ad3565b6020604051337fdadbf106d223c2b7e017dabd638cb58d88605e38b754656112146629bdba081c600080a26001805560018152f35b636d41163f60e11b60005260046000fd5b5060395415610e5a565b610ecf915060203d6020116104cc576104be81836126ba565b81610e3f565b90506020813d602011610f01575b81610ef0602093836126ba565b810103126102095751610e2c610e03565b3d9150610ee3565b34610209576000366003190112610209576046546040516001600160a01b039091168152602090f35b346102095760203660031901126102095760ff610f4d6125dc565b166000526043602052602060ff604060002054166040519015158152f35b34610209576000366003190112610209576020603a54604051908152f35b3461020957600036600319011261020957602060ff603c54166040519015158152f35b346102095760a036600319011261020957610fc56125b6565b6024356001600160a01b0381168082036102095760643590604435906084356001600160a01b0381169190829003610209576000549460ff8660081c1615958680976112b9575b80156112a2575b156112465760ff19811660011760005586611234575b506000549661104660ff8960081c1661104181612ba4565b612ba4565b600180556001600160a01b038116908115610513578515611223576014861161120957610e1087106104825762093a8087116104715784156111c3573b1561118d578215159182611146575b506001600160601b0360a01b603354161760335561112d575b506001600160601b0360a01b604654161760465560ff60a01b196034541660345561ff0019603c5416603c556107d0603d5560ff19603e5416603e55603555603b5560016037556110f857005b61ff0019166000557f7f26b83ff96e1f2b6a682f133852f6798a09c465da95921460cefb3847402498602060405160018152a1005b6001600160601b0360a01b6034541617603455856110ab565b3b156111525788611092565b604051630dd2788360e41b81526020600482015260126024820152713a34b6b2b637b1b5a1b7b73a3937b63632b960711b6044820152606490fd5b604051630dd2788360e41b815260206004820152600d60248201526c1858d8d95cdcd0dbdb9d1c9bdb609a1b6044820152606490fd5b60405163eac0d38960e01b815260206004820152601c60248201527f696e697469616c5265636f7665727941646d696e416464726573735f000000006044820152606490fd5b85630ed5030f60e11b600052600452601460245260446000fd5b63156cea8d60e01b60005260046000fd5b61ffff19166101011760005587611029565b60405162461bcd60e51b815260206004820152602e60248201527f496e697469616c697a61626c653a20636f6e747261637420697320616c72656160448201526d191e481a5b9a5d1a585b1a5e995960921b6064820152608490fd5b50303b1580156110135750600160ff821614611013565b50600160ff82161061100c565b34610209576020366003190112610209576001600160a01b036112e76125b6565b1660005260366020526020604060002054604051908152f35b34610209576020366003190112610209576113196125b6565b6033546001600160a01b03168015610513576040516320df435960e01b8152602081600481855afa9081156104d357600091611520575b50604051632474521560e21b815260048101919091523360248201529060209082908180604481015b03915afa9081156104d357600091611501575b50156105cb576001600160a01b031680156114f05780600052604060205260ff60406000205416156114dc57806000526041602052604060002054603f5460001981019081116107bb5780820361147b575b5050603f5490811561146557602091600019016113fa81612634565b81549060018060a01b039060031b1b19169055603f558060005260418252600060408120558060005260408252604060002060ff1981541690556040519033907f8b62639b0007c4a12ac6a6f72b0f3c02d723ef2712746d083bba859b0959d09e600080a360018152f35b634e487b7160e01b600052603160045260246000fd5b61148490612634565b905460039190911b1c6001600160a01b03166114c7816114a384612634565b81546001600160a01b0393841660039290921b91821b9390911b1916919091179055565b600052604160205260406000205581806113de565b630dcd4ac760e31b60005260045260246000fd5b63227bbab960e21b60005260046000fd5b61151a915060203d6020116104cc576104be81836126ba565b8261138c565b90506020813d60201161154c575b8161153b602093836126ba565b810103126102095751611379611350565b3d915061152e565b34610209576000366003190112610209576020603d54604051908152f35b34610209576020366003190112610209576001600160e01b03196115946125ec565b166000526042602052602060ff6040600020541680151590816115bd575b506040519015158152f35b905060ff60345460a01c161015826115b2565b34610209576000366003190112610209576033546001600160a01b031680156105135760405163e63ab1e960e01b8152602081600481855afa9081156104d3576000916116fc575b50604051632474521560e21b815260048101919091523360248201529060209082908180604481015b03915afa9081156104d3576000916116dd575b50156107e257611662612a7d565b603e5460ff8116156116cc57600360ff60345460a01c1610156116bb5760ff1916603e556020604051337f92414512bd79c80103975d8bef2f4e78aa5930c2869b4bd6139d98836ba8d918600080a26001805560018152f35b6370ebdb9d60e11b60005260046000fd5b635f56574b60e01b60005260046000fd5b6116f6915060203d6020116104cc576104be81836126ba565b81611654565b90506020813d602011611728575b81611717602093836126ba565b810103126102095751611641611618565b3d915061170a565b34610209576000366003190112610209576020603954604051908152f35b346102095761177c61176861176236612667565b90612914565b60405192839260408452604084019061267d565b9060208301520390f35b3461020957602036600319011261020957600435603854811015610209576117af602091612603565b905460405160039290921b1c6001600160a01b03168152f35b34610209576020366003190112610209576117e16125b6565b6033546001600160a01b031680156105135760405163a217fddf60e01b8152602081600481855afa9081156104d357600091611921575b50604051632474521560e21b815260048101919091523360248201529060209082908180604481015b03915afa9081156104d357600091611902575b5015610493576001600160a01b031680156118bc57604680546001600160a01b03198116831790915560405160209290913391906001600160a01b03167f06fcb2271a368a5f119906d021fdb86ef4d37c3c9240c50dfa6687b66fb98eb6600080a460018152f35b60405163eac0d38960e01b815260206004820152601760248201527f6e65775265636f7665727941646d696e416464726573730000000000000000006044820152606490fd5b61191b915060203d6020116104cc576104be81836126ba565b82611854565b90506020813d60201161194d575b8161193c602093836126ba565b810103126102095751611841611818565b3d915061192f565b34610209576020366003190112610209576001600160e01b03196119776125ec565b166000526042602052602060ff60406000205416604051908152f35b3461020957602036600319011261020957603354600435906001600160a01b031680156105135760405163a217fddf60e01b8152602081600481855afa9081156104d357600091611ab3575b50604051632474521560e21b815260048101919091523360248201529060209082908180604481015b03915afa9081156104d357600091611a94575b50156104935780156112235760148111611a7b576035549080603555611a3f612ad3565b60405191825260208201527fca5ec49fc23df023136ab5e449f0b081d3de53fdc60d0e6c1121a127486bb38460403392a2602060405160018152f35b630ed5030f60e11b600052600452601460245260446000fd5b611aad915060203d6020116104cc576104be81836126ba565b82611a1b565b90506020813d602011611adf575b81611ace602093836126ba565b810103126102095751611a086119df565b3d9150611ac1565b34610209576000366003190112610209576020603b54604051908152f35b346102095760203660031901126102095760ff611b206125dc565b1660005260446020526020604060002054604051908152f35b34610209576000366003190112610209576033546040516001600160a01b039091168152602090f35b3461020957604036600319011261020957600435801515908181036102095760335460243591906001600160a01b03168015610513576040516320df435960e01b8152602081600481855afa9081156104d357600091611c9d575b50604051632474521560e21b815260048101919091523360248201529060209082908180604481015b03915afa9081156104d357600091611c7e575b50156105cb57611c07612a7d565b6113888211611c6957600080516020612cd58339815191529261ff00603c549160081b169061ff00191617603c5581603d55611c5760405192839283602090939291936040810194151581520152565b0390a160018055602060405160018152f35b5063edc915b960e01b60005260045260246000fd5b611c97915060203d6020116104cc576104be81836126ba565b84611bf9565b90506020813d602011611cc9575b81611cb8602093836126ba565b810103126102095751611be6611bbd565b3d9150611cab565b34610209576000366003190112610209576020603754604051908152f35b34610209576000366003190112610209576033546001600160a01b03168015610513576040516320df435960e01b8152602081600481855afa9081156104d357600091611f7f575b50604051632474521560e21b815260048101919091523360248201529060209082908180604481015b03915afa9081156104d357600091611f60575b50156105cb57611d81612a7d565b603c5460ff811615610e9b57611d9c603a54603b5490612719565b4210611f4f576034805460ff60a01b1916600360a01b179055600881901c60ff1615611f1b575b50603e5460ff811615611ee5575b50604051600381527ffc1d7cc44d240581882c96d32b8fa95391c2ed301a70d3928ca98f830bc43f3760203392a2611e07612ad3565b600360005260436020527f62f6a8d3ed649f412d833373e5344ded5babeca5d7f90d4d90216edfee362f6c5460ff16158015611eaf575b611e515760018055602060405160018152f35b60036000527f62f6a8d3ed649f412d833373e5344ded5babeca5d7f90d4d90216edfee362f6c805460ff191660011790556044602052427fbb4c205d2fd5d5c0ff4ab723a86b46f24bafcc7dfe57b1f587a8c4b4e7fe201455610964565b50600360005260446020527fbb4c205d2fd5d5c0ff4ab723a86b46f24bafcc7dfe57b1f587a8c4b4e7fe201454603a5411611e3e565b60ff1916600117603e55337f0e453e53649b13b8c30ef82dd7bce6c745cfcc7a1dc95170b4750764194f19b2600080a280611dd1565b6101009061ff00191617603c55600080516020612cd58339815191526040603d54815190600182526020820152a180611dc3565b636214d13760e11b60005260046000fd5b611f79915060203d6020116104cc576104be81836126ba565b81611d73565b90506020813d602011611fab575b81611f9a602093836126ba565b810103126102095751611d60611d37565b3d9150611f8d565b3461020957604036600319011261020957611fcc6125b6565b611fd46125cc565b90611fdd612a7d565b6001600160a01b0381169182156114f05760ff169060038211610afd578160ff60345460a01c16106121665782600052604560205260406000208260005260205260ff604060002054168061214f575b8061212c575b6121135782600052604060205260ff60406000205416156120fe576000809184825260456020526040822084835260205260408220600160ff1982541617905560405182602082019163eb1676c160e01b83528660248201526024815261209b6044826126ba565b51925af16120a7612876565b50156120ed5760407f104f22bcd6f0b690728abe7555f899c3f63a2b16d5db096accb076b8d39f6bd791815190815260016020820152a260018055602060405160018152f35b6302ee2e4160e21b60005260046000fd5b82630dcd4ac760e31b60005260045260246000fd5b5090633fe4464d60e21b60005260045260245260446000fd5b508160005260446020526201518061214960406000205442612869565b10612033565b50816000526044602052604060002054151561202d565b50629171e560e31b60005260045260246000fd5b34610209576000366003190112610209576033546001600160a01b03168015610513576040516320df435960e01b8152602081600481855afa9081156104d357600091612243575b50604051632474521560e21b815260048101919091523360248201529060209082908180604481015b03915afa9081156104d357600091612224575b50156105cb5761220c612a7d565b6020612216612726565b600180556040519015158152f35b61223d915060203d6020116104cc576104be81836126ba565b816121fe565b90506020813d60201161226f575b8161225e602093836126ba565b8101031261020957516121eb6121c2565b3d9150612251565b34610209576040366003190112610209576122906125b6565b603354602435926001600160a01b03909116908115610513576320df435960e01b8152602081600481855afa9081156104d357600091612582575b50604051632474521560e21b815260048101919091523360248201529060209082908180604481015b03915afa9081156104d357600091612563575b50156105cb57612315612a7d565b6046546001600160a01b0316908115612552576001600160a01b031691821561250c5780156124fb576040516370a0823160e01b8152306004820152602081602481875afa9081156104d3576000916124c9575b5081116124b8576123f1604051602081019363a9059cbb60e01b855260248201528260448201526044815261239f6064826126ba565b6000806040958651936123b288866126ba565b602085527f5361666545524332303a206c6f772d6c6576656c2063616c6c206661696c65646020860152519082895af16123ea612876565b9086612c04565b805190811591821561249e575b505015612447576020927f1d2f361398f0cd1eeefa9bd2e5d156e421a3dac8bafb57871aa221c6676631398460018060a01b0360465416938551908152a3600180555160018152f35b815162461bcd60e51b815260206004820152602a60248201527f5361666545524332303a204552433230206f7065726174696f6e20646964206e6044820152691bdd081cdd58d8d9595960b21b6064820152608490fd5b6124b192506020809183010191016126f2565b84806123fe565b632fcca55360e11b60005260046000fd5b90506020813d6020116124f3575b816124e4602093836126ba565b81010312610209575184612369565b3d91506124d7565b6310eb483f60e21b60005260046000fd5b60405163eac0d38960e01b815260206004820152601960248201527f746f6b656e4164647265737320666f72207265636f76657279000000000000006044820152606490fd5b63f58a3ca960e01b60005260046000fd5b61257c915060203d6020116104cc576104be81836126ba565b83612307565b90506020813d6020116125ae575b8161259d602093836126ba565b8101031261020957516122f46122cb565b3d9150612590565b600435906001600160a01b038216820361020957565b6024359060ff8216820361020957565b6004359060ff8216820361020957565b600435906001600160e01b03198216820361020957565b60385481101561261e57603860005260206000200190600090565b634e487b7160e01b600052603260045260246000fd5b603f5481101561261e57603f60005260206000200190600090565b805482101561261e5760005260206000200190600090565b6040906003190112610209576004359060243590565b906020808351928381520192019060005b81811061269b5750505090565b82516001600160a01b031684526020938401939092019160010161268e565b90601f8019910116810190811067ffffffffffffffff8211176126dc57604052565b634e487b7160e01b600052604160045260246000fd5b90816020910312610209575180151581036102095790565b60001981146107bb5760010190565b919082018092116107bb57565b600360ff60345460a01c1610156128585733600052603660205260406000205460375480911461285257336000526036602052604060002055603854600160401b8110156126dc576127838160016127a19301603855603861264f565b81546001600160a01b0360039290921b91821b19163390911b179055565b6127ac60395461270a565b80603955603554906040518181528260208201527f43995fb38ff1678ef29aa6803d6d2f445beed91072c3f68b305957dc58fde02b60403392a2101580612845575b6127f757600190565b42603a55600160ff19603c541617603c55612814603b5442612719565b6040519081527f291952fcbbba9a23680e99aa5e92422e2a45a9ba3b35df5147b2bf260fbb3a2960203392a2600190565b5060ff603c5416156127ee565b50600190565b63b827263360e01b60005260046000fd5b919082039182116107bb57565b3d156128b1573d9067ffffffffffffffff82116126dc57604051916128a5601f8201601f1916602001846126ba565b82523d6000602084013e565b606090565b67ffffffffffffffff81116126dc5760051b60200190565b906128d8826128b6565b6128e560405191826126ba565b82815280926128f6601f19916128b6565b0190602036910137565b805182101561261e5760209160051b010190565b91909182156129b657603f54928382101561299957806129348386612869565b101561299457506129458184612869565b61294e816128ce565b9160005b828110612960575050509190565b8061297561297060019385612719565b612634565b838060a01b0391549060031b1c1661298d8287612900565b5201612952565b612945565b50506040516129a96020826126ba565b6000815260003681379190565b633b3360a560e11b60005260046000fd5b6001600160a01b0381169081156114f05781600052604060205260ff60406000205416612a76578160005260406020526040600020600160ff19825416179055603f5490600160401b8210156126dc576114a3826001612a2c9401603f55603f61264f565b603f5460001981019081116107bb5781600052604160205260406000205533907f8b1a0b6a3b52f382c0a65b023dfbd43ca5eee7ba44b17276c3a715aea18a256f600080a3600190565b5050600190565b600260015414612a8e576002600155565b60405162461bcd60e51b815260206004820152601f60248201527f5265656e7472616e637947756172643a207265656e7472616e742063616c6c006044820152606490fd5b6037546000191115612b9a57612aea60375461270a565b6037555b603854600060385580612b38575b50600060395560ff19603c5416603c556000603a557f17d62e7859093c38977c0de109377d6814a27f28d440f08e2d3594db011c49ca600080a1565b60386000527f38395c5dceade9603479b177b68959049485df8aa97b39f3533039af5f456199017f38395c5dceade9603479b177b68959049485df8aa97b39f3533039af5f4561995b818110612b8e5750612afc565b60008155600101612b81565b6001603755612aee565b15612bab57565b60405162461bcd60e51b815260206004820152602b60248201527f496e697469616c697a61626c653a20636f6e7472616374206973206e6f74206960448201526a6e697469616c697a696e6760a81b6064820152608490fd5b91929015612c665750815115612c18575090565b3b15612c215790565b60405162461bcd60e51b815260206004820152601d60248201527f416464726573733a2063616c6c20746f206e6f6e2d636f6e74726163740000006044820152606490fd5b825190915015612c795750805190602001fd5b6040519062461bcd60e51b8252602060048301528181519182602483015260005b838110612cbc5750508160006044809484010152601f80199101168101030190fd5b60208282018101516044878401015285935001612c9a56fed68d55f8e2dddedf479a84def8ba221cd8f3dec2d7e57f971185a6cacc7ee747a2646970667358221220895453f2aa0566d8bee25d8ab68682878fef36a28e63d0ef04c5854481f21c1264736f6c634300081c0033","linkReferences":{}},"methodIdentifiers":{"MAX_REQUIRED_APPROVALS()":"fee69ae6","accessControl()":"13007d55","approveLevel3Emergency()":"0a4fa332","cancelLevel3Emergency()":"6c48b99e","contractProcessedEmergency(address,uint8)":"81e472da","currentApprovalCount()":"3cd790c1","currentApprovers(uint256)":"2f73c952","emergencyApprovalProposalIds(address)":"56c8ba7d","emergencyLevel()":"d57a0667","emergencyLevelNotified(uint8)":"5da7c880","emergencyLevelTimestamp(uint8)":"1a2e972e","emergencyWithdrawalEnabled()":"7fe4e8ee","emergencyWithdrawalPenalty()":"4daad19d","enableEmergencyWithdrawal(bool,uint256)":"0eac6052","executeLevel3Emergency()":"0d484100","getApprovalStatus(uint256,uint256)":"f2ebf6fc","getEmergencyAwareContractsPaginated(uint256,uint256)":"36324533","getEmergencyLevel()":"e8793b20","getEmergencyWithdrawalSettings()":"95bc252c","initialize(address,address,uint256,uint256,address)":"57fb25cc","isFunctionRestricted(bytes4)":"4d124887","isSystemPaused()":"7691c4ac","level3ApprovalTime()":"5bc590a1","level3ProposalId()":"0db5e57a","level3TimelockDuration()":"1a4ae3a8","level3TimelockInProgress()":"5910b2ee","pauseSystem()":"dc1d4fb7","processEmergencyForContract(address,uint8)":"0c08419a","recoverTokens(address,uint256)":"069c9fae","recoveryAdminAddress()":"67dd7e5f","registerEmergencyAwareContract(address)":"e2b5d8c4","removeEmergencyAwareContract(address)":"55b1027e","requiredApprovals()":"99c1aadc","restrictedFunctions(bytes4)":"28e1a114","setEmergencyLevel(uint8)":"ac376ee7","setLevel3TimelockDuration(uint256)":"e7d46932","setRecoveryAdminAddress(address)":"2c446a44","setRequiredApprovals(uint256)":"222a242e","systemPaused()":"9d2f83f0","timelockController()":"f3388e75","unpauseSystem()":"4c761240","updateFunctionRestriction(bytes4,uint8)":"93ca66d0"},"id":3}