{"abi":[{"type":"constructor","inputs":[],"stateMutability":"nonpayable"},{"type":"receive","stateMutability":"payable"},{"type":"function","name":"accessControl","inputs":[],"outputs":[{"name":"","type":"address","internalType":"contract AccessControl"}],"stateMutability":"view"},{"type":"function","name":"addLiquidity","inputs":[{"name":"otherToken","type":"address","internalType":"address"},{"name":"pREWAAmountDesired","type":"uint256","internalType":"uint256"},{"name":"otherAmountDesired","type":"uint256","internalType":"uint256"},{"name":"pREWAMin","type":"uint256","internalType":"uint256"},{"name":"otherMin","type":"uint256","internalType":"uint256"},{"name":"deadline","type":"uint256","internalType":"uint256"}],"outputs":[{"name":"actualPREWAAdded","type":"uint256","internalType":"uint256"},{"name":"actualOtherAdded","type":"uint256","internalType":"uint256"},{"name":"lpReceived","type":"uint256","internalType":"uint256"}],"stateMutability":"nonpayable"},{"type":"function","name":"addLiquidityBNB","inputs":[{"name":"pREWAAmountDesired","type":"uint256","internalType":"uint256"},{"name":"pREWAMin","type":"uint256","internalType":"uint256"},{"name":"bnbMin","type":"uint256","internalType":"uint256"},{"name":"deadline","type":"uint256","internalType":"uint256"}],"outputs":[{"name":"actualPREWAAdded","type":"uint256","internalType":"uint256"},{"name":"actualBNBAdded","type":"uint256","internalType":"uint256"},{"name":"lpReceived","type":"uint256","internalType":"uint256"}],"stateMutability":"payable"},{"type":"function","name":"checkEmergencyStatus","inputs":[{"name":"","type":"bytes4","internalType":"bytes4"}],"outputs":[{"name":"allowedStatus","type":"bool","internalType":"bool"}],"stateMutability":"view"},{"type":"function","name":"emergencyController","inputs":[],"outputs":[{"name":"","type":"address","internalType":"contract EmergencyController"}],"stateMutability":"view"},{"type":"function","name":"emergencyShutdown","inputs":[{"name":"emergencyLevelInput","type":"uint8","internalType":"uint8"}],"outputs":[{"name":"successFlag","type":"bool","internalType":"bool"}],"stateMutability":"nonpayable"},{"type":"function","name":"getEmergencyController","inputs":[],"outputs":[{"name":"controllerAddress","type":"address","internalType":"address"}],"stateMutability":"view"},{"type":"function","name":"getLPTokenAddress","inputs":[{"name":"otherToken","type":"address","internalType":"address"}],"outputs":[{"name":"lpTokenAddr_","type":"address","internalType":"address"}],"stateMutability":"view"},{"type":"function","name":"getPairInfo","inputs":[{"name":"otherToken","type":"address","internalType":"address"}],"outputs":[{"name":"pairAddressOut","type":"address","internalType":"address"},{"name":"tokenAddressOut","type":"address","internalType":"address"},{"name":"activeOut","type":"bool","internalType":"bool"},{"name":"reserve0Out","type":"uint256","internalType":"uint256"},{"name":"reserve1Out","type":"uint256","internalType":"uint256"},{"name":"pREWAIsToken0Out","type":"bool","internalType":"bool"},{"name":"blockTimestampLastOut","type":"uint32","internalType":"uint32"}],"stateMutability":"view"},{"type":"function","name":"initialize","inputs":[{"name":"pREWATokenAddress_","type":"address","internalType":"address"},{"name":"routerAddress_","type":"address","internalType":"address"},{"name":"accessControlAddr_","type":"address","internalType":"address"},{"name":"emergencyControllerAddr_","type":"address","internalType":"address"},{"name":"oracleIntegrationAddr_","type":"address","internalType":"address"},{"name":"priceGuardAddr_","type":"address","internalType":"address"}],"outputs":[],"stateMutability":"nonpayable"},{"type":"function","name":"isEmergencyPaused","inputs":[],"outputs":[{"name":"isPausedStatus","type":"bool","internalType":"bool"}],"stateMutability":"view"},{"type":"function","name":"maxDeadlineOffset","inputs":[],"outputs":[{"name":"","type":"uint256","internalType":"uint256"}],"stateMutability":"view"},{"type":"function","name":"oracleIntegration","inputs":[],"outputs":[{"name":"","type":"address","internalType":"contract OracleIntegration"}],"stateMutability":"view"},{"type":"function","name":"pendingBNBRefunds","inputs":[{"name":"","type":"address","internalType":"address"}],"outputs":[{"name":"","type":"uint256","internalType":"uint256"}],"stateMutability":"view"},{"type":"function","name":"priceGuard","inputs":[],"outputs":[{"name":"","type":"address","internalType":"contract PriceGuard"}],"stateMutability":"view"},{"type":"function","name":"recoverFailedBNBRefund","inputs":[{"name":"user","type":"address","internalType":"address"}],"outputs":[{"name":"successFlag","type":"bool","internalType":"bool"}],"stateMutability":"nonpayable"},{"type":"function","name":"recoverTokens","inputs":[{"name":"tokenAddressRec","type":"address","internalType":"address"},{"name":"amountRec","type":"uint256","internalType":"uint256"},{"name":"recipient","type":"address","internalType":"address"}],"outputs":[{"name":"successFlag","type":"bool","internalType":"bool"}],"stateMutability":"nonpayable"},{"type":"function","name":"registerPair","inputs":[{"name":"tokenAddress","type":"address","internalType":"address"}],"outputs":[{"name":"successFlag","type":"bool","internalType":"bool"}],"stateMutability":"nonpayable"},{"type":"function","name":"removeLiquidity","inputs":[{"name":"otherToken","type":"address","internalType":"address"},{"name":"liquidity","type":"uint256","internalType":"uint256"},{"name":"pREWAMin","type":"uint256","internalType":"uint256"},{"name":"otherMin","type":"uint256","internalType":"uint256"},{"name":"deadline","type":"uint256","internalType":"uint256"}],"outputs":[{"name":"amountToken","type":"uint256","internalType":"uint256"},{"name":"amountOther","type":"uint256","internalType":"uint256"}],"stateMutability":"nonpayable"},{"type":"function","name":"removeLiquidityBNB","inputs":[{"name":"liquidity","type":"uint256","internalType":"uint256"},{"name":"pREWAMin","type":"uint256","internalType":"uint256"},{"name":"bnbMin","type":"uint256","internalType":"uint256"},{"name":"deadline","type":"uint256","internalType":"uint256"}],"outputs":[{"name":"amountToken","type":"uint256","internalType":"uint256"},{"name":"amountBNB","type":"uint256","internalType":"uint256"}],"stateMutability":"nonpayable"},{"type":"function","name":"setEmergencyController","inputs":[{"name":"controllerAddress","type":"address","internalType":"address"}],"outputs":[{"name":"successFlag","type":"bool","internalType":"bool"}],"stateMutability":"nonpayable"},{"type":"function","name":"setMaxDeadlineOffset","inputs":[{"name":"offset","type":"uint256","internalType":"uint256"}],"outputs":[{"name":"successFlag","type":"bool","internalType":"bool"}],"stateMutability":"nonpayable"},{"type":"function","name":"setPairStatus","inputs":[{"name":"otherToken","type":"address","internalType":"address"},{"name":"active","type":"bool","internalType":"bool"}],"outputs":[{"name":"successFlag","type":"bool","internalType":"bool"}],"stateMutability":"nonpayable"},{"type":"function","name":"setRouterAddress","inputs":[{"name":"routerAddr","type":"address","internalType":"address"}],"outputs":[{"name":"successFlag","type":"bool","internalType":"bool"}],"stateMutability":"nonpayable"},{"type":"function","name":"setSlippageTolerance","inputs":[{"name":"tolerance","type":"uint256","internalType":"uint256"}],"outputs":[{"name":"successFlag","type":"bool","internalType":"bool"}],"stateMutability":"nonpayable"},{"type":"function","name":"updateOracleIntegration","inputs":[{"name":"oracleAddress","type":"address","internalType":"address"}],"outputs":[{"name":"successFlag","type":"bool","internalType":"bool"}],"stateMutability":"nonpayable"},{"type":"function","name":"updatePriceGuard","inputs":[{"name":"priceGuardAddress_","type":"address","internalType":"address"}],"outputs":[{"name":"successFlag","type":"bool","internalType":"bool"}],"stateMutability":"nonpayable"},{"type":"event","name":"BNBRefundFailed","inputs":[{"name":"user","type":"address","indexed":true,"internalType":"address"},{"name":"amount","type":"uint256","indexed":false,"internalType":"uint256"}],"anonymous":false},{"type":"event","name":"BNBRefundRecovered","inputs":[{"name":"user","type":"address","indexed":true,"internalType":"address"},{"name":"amount","type":"uint256","indexed":false,"internalType":"uint256"},{"name":"admin","type":"address","indexed":true,"internalType":"address"}],"anonymous":false},{"type":"event","name":"EmergencyControllerSet","inputs":[{"name":"oldController","type":"address","indexed":true,"internalType":"address"},{"name":"newController","type":"address","indexed":true,"internalType":"address"},{"name":"setter","type":"address","indexed":true,"internalType":"address"}],"anonymous":false},{"type":"event","name":"EmergencyShutdownHandled","inputs":[{"name":"emergencyLevel","type":"uint8","indexed":false,"internalType":"uint8"},{"name":"caller","type":"address","indexed":true,"internalType":"address"}],"anonymous":false},{"type":"event","name":"EmergencyStatusChecked","inputs":[{"name":"emergencyLevel","type":"uint8","indexed":false,"internalType":"uint8"},{"name":"operation","type":"bytes4","indexed":false,"internalType":"bytes4"},{"name":"allowed","type":"bool","indexed":false,"internalType":"bool"}],"anonymous":false},{"type":"event","name":"Initialized","inputs":[{"name":"version","type":"uint8","indexed":false,"internalType":"uint8"}],"anonymous":false},{"type":"event","name":"LPTokenOracleRegistrationFailed","inputs":[{"name":"lpTokenAddress","type":"address","indexed":true,"internalType":"address"},{"name":"token0","type":"address","indexed":true,"internalType":"address"},{"name":"token1","type":"address","indexed":true,"internalType":"address"}],"anonymous":false},{"type":"event","name":"LiquidityAdded","inputs":[{"name":"otherToken","type":"address","indexed":true,"internalType":"address"},{"name":"pREWAAmount","type":"uint256","indexed":false,"internalType":"uint256"},{"name":"otherAmount","type":"uint256","indexed":false,"internalType":"uint256"},{"name":"liquidityReceived","type":"uint256","indexed":false,"internalType":"uint256"},{"name":"user","type":"address","indexed":true,"internalType":"address"}],"anonymous":false},{"type":"event","name":"LiquidityManagerTokenRecovered","inputs":[{"name":"token","type":"address","indexed":true,"internalType":"address"},{"name":"amount","type":"uint256","indexed":false,"internalType":"uint256"},{"name":"recipient","type":"address","indexed":true,"internalType":"address"}],"anonymous":false},{"type":"event","name":"LiquidityRemoved","inputs":[{"name":"otherToken","type":"address","indexed":true,"internalType":"address"},{"name":"pREWAAmount","type":"uint256","indexed":false,"internalType":"uint256"},{"name":"otherAmount","type":"uint256","indexed":false,"internalType":"uint256"},{"name":"liquidityBurned","type":"uint256","indexed":false,"internalType":"uint256"},{"name":"user","type":"address","indexed":true,"internalType":"address"}],"anonymous":false},{"type":"event","name":"MaxDeadlineOffsetUpdated","inputs":[{"name":"oldOffset","type":"uint256","indexed":false,"internalType":"uint256"},{"name":"newOffset","type":"uint256","indexed":false,"internalType":"uint256"},{"name":"updater","type":"address","indexed":true,"internalType":"address"}],"anonymous":false},{"type":"event","name":"OracleIntegrationSet","inputs":[{"name":"oldOracle","type":"address","indexed":true,"internalType":"address"},{"name":"newOracle","type":"address","indexed":true,"internalType":"address"},{"name":"setter","type":"address","indexed":true,"internalType":"address"}],"anonymous":false},{"type":"event","name":"PairRegistered","inputs":[{"name":"pairId","type":"bytes32","indexed":true,"internalType":"bytes32"},{"name":"pairAddress","type":"address","indexed":true,"internalType":"address"},{"name":"tokenAddress","type":"address","indexed":true,"internalType":"address"},{"name":"registrar","type":"address","indexed":false,"internalType":"address"}],"anonymous":false},{"type":"event","name":"PairStatusUpdated","inputs":[{"name":"otherToken","type":"address","indexed":true,"internalType":"address"},{"name":"active","type":"bool","indexed":false,"internalType":"bool"},{"name":"updater","type":"address","indexed":true,"internalType":"address"}],"anonymous":false},{"type":"event","name":"PriceGuardSet","inputs":[{"name":"oldGuard","type":"address","indexed":true,"internalType":"address"},{"name":"newGuard","type":"address","indexed":true,"internalType":"address"},{"name":"setter","type":"address","indexed":true,"internalType":"address"}],"anonymous":false},{"type":"event","name":"RouterAddressUpdated","inputs":[{"name":"oldRouter","type":"address","indexed":true,"internalType":"address"},{"name":"newRouter","type":"address","indexed":true,"internalType":"address"},{"name":"updater","type":"address","indexed":true,"internalType":"address"}],"anonymous":false},{"type":"event","name":"SlippageToleranceUpdated","inputs":[{"name":"oldTolerance","type":"uint256","indexed":false,"internalType":"uint256"},{"name":"newTolerance","type":"uint256","indexed":false,"internalType":"uint256"},{"name":"updater","type":"address","indexed":true,"internalType":"address"}],"anonymous":false},{"type":"error","name":"AmountIsZero","inputs":[]},{"type":"error","name":"DeadlineExpired","inputs":[]},{"type":"error","name":"DeadlineTooFar","inputs":[]},{"type":"error","name":"InsufficientBalance","inputs":[{"name":"available","type":"uint256","internalType":"uint256"},{"name":"required","type":"uint256","internalType":"uint256"}]},{"type":"error","name":"InvalidAmount","inputs":[]},{"type":"error","name":"LM_AccessControlZero","inputs":[]},{"type":"error","name":"LM_BNBPairDoesNotExist","inputs":[]},{"type":"error","name":"LM_BNBPairNotActive","inputs":[]},{"type":"error","name":"LM_CallerNotEmergencyController","inputs":[]},{"type":"error","name":"LM_CannotRecoverActiveLP","inputs":[]},{"type":"error","name":"LM_CannotRecoverPToken","inputs":[]},{"type":"error","name":"LM_ControllerNotSet","inputs":[{"name":"context","type":"string","internalType":"string"}]},{"type":"error","name":"LM_CreatePairReturnedZero","inputs":[{"name":"name","type":"string","internalType":"string"},{"name":"tokenAddress","type":"address","internalType":"address"}]},{"type":"error","name":"LM_CreatePairReverted","inputs":[{"name":"name","type":"string","internalType":"string"},{"name":"tokenAddress","type":"address","internalType":"address"},{"name":"reason","type":"string","internalType":"string"}]},{"type":"error","name":"LM_DeadlineOffsetInvalid","inputs":[{"name":"offset","type":"uint256","internalType":"uint256"}]},{"type":"error","name":"LM_EmergencyControllerZero","inputs":[]},{"type":"error","name":"LM_FactoryFail","inputs":[]},{"type":"error","name":"LM_InvalidFactory","inputs":[]},{"type":"error","name":"LM_NoPendingRefund","inputs":[]},{"type":"error","name":"LM_OracleIntegrationZero","inputs":[]},{"type":"error","name":"LM_PTokenZero","inputs":[]},{"type":"error","name":"LM_PairAlreadyRegistered","inputs":[{"name":"pairName","type":"string","internalType":"string"}]},{"type":"error","name":"LM_PairDoesNotExist","inputs":[{"name":"pairName","type":"string","internalType":"string"}]},{"type":"error","name":"LM_PairNotActive","inputs":[{"name":"pairName","type":"string","internalType":"string"}]},{"type":"error","name":"LM_PriceGuardNotContract","inputs":[]},{"type":"error","name":"LM_PriceGuardZero","inputs":[]},{"type":"error","name":"LM_RouterReturnedZeroAddress","inputs":[{"name":"context","type":"string","internalType":"string"}]},{"type":"error","name":"LM_RouterUpdateFactoryFail","inputs":[]},{"type":"error","name":"LM_RouterUpdateInvalidFactory","inputs":[]},{"type":"error","name":"LM_RouterZero","inputs":[]},{"type":"error","name":"LM_SlippageInvalid","inputs":[{"name":"tolerance","type":"uint256","internalType":"uint256"}]},{"type":"error","name":"LM_WETHFail","inputs":[]},{"type":"error","name":"NotAContract","inputs":[{"name":"context","type":"string","internalType":"string"}]},{"type":"error","name":"NotAuthorized","inputs":[{"name":"requiredRole","type":"bytes32","internalType":"bytes32"}]},{"type":"error","name":"SystemInEmergencyMode","inputs":[]},{"type":"error","name":"ZeroAddress","inputs":[{"name":"context","type":"string","internalType":"string"}]}],"bytecode":{"object":"0x6080806040523460bd576000549060ff8260081c16606b575060ff808216036031575b6040516137af90816100c38239f35b60ff90811916176000557f7f26b83ff96e1f2b6a682f133852f6798a09c465da95921460cefb3847402498602060405160ff8152a1386022565b62461bcd60e51b815260206004820152602760248201527f496e697469616c697a61626c653a20636f6e747261637420697320696e697469604482015266616c697a696e6760c81b6064820152608490fd5b600080fdfe6080604052600436101561001b575b361561001957600080fd5b005b60003560e01c8063117da1ee146101c657806313007d55146101c157806313928082146101bc5780632563e426146101b7578063290d10c4146101b257806336d8b0cc146101ad57806341cb87fc146101a8578063420fa060146101a357806348790d0d1461019e5780634939ea4d146101995780634b9a01b514610194578063551ca2511461018f5780635a0d12291461018a57806361b0a56e146101855780636ca7dc89146101805780637a936beb1461015d5780638aed668a1461017b5780639ba5b5a1146101765780639c6f117714610171578063b1e12e581461016c578063c053ed4414610167578063c299e0f714610162578063c993cc9d1461015d578063cc2a9a5b14610158578063d4ff73f714610153578063dc314b441461014e5763eb1676c10361000e5761179e565b6116ba565b61164c565b611520565b61101e565b611447565b61136e565b611177565b61114e565b61107e565b611047565b610f45565b610e1f565b610d38565b610cf1565b610c18565b610b4f565b6109d9565b61099d565b610887565b61085e565b610839565b61063a565b6103b3565b610379565b3461036957602036600319011261036957600435603c546101f7906001600160a01b03165b6001600160a01b031690565b6001600160a01b038116156103585760405163691afd6360e01b8152602081600481855afa9081156103075761025a9160209160009161033b575b50604051632474521560e21b8152600481019190915233602482015291829081906044820190565b0381855afa9081156103075760009161030c575b501561029657610292610280836118e3565b60405190151581529081906020820190565b0390f35b60206004916040519283809263691afd6360e01b82525afa8015610307576102d4916000916102d8575b506323d6951f60e21b600052600452602490565b6000fd5b6102fa915060203d602011610300575b6102f28183611889565b8101906118b0565b826102c0565b503d6102e8565b6118bf565b61032e915060203d602011610334575b6103268183611889565b8101906118cb565b3861026e565b503d61031c565b6103529150823d8411610300576102f28183611889565b38610232565b63076d9e7f60e11b60005260046000fd5b600080fd5b600091031261036957565b3461036957600036600319011261036957603c546040516001600160a01b039091168152602090f35b6001600160a01b0381160361036957565b346103695760a0366003190112610369576004356103d0816103a2565b60243560443591606435916084356103e6612f28565b6103ee612f93565b6106295742811061061857603f5442018042116106135781116106025761042761041784613089565b6000526037602052604060002090565b80546001600160a01b0316919082156105ab5760010194610454610450875460ff9060a01c1690565b1590565b610554578615801561054c575b8015610544575b610533576104d2966104ba9385906104b5906001600160a01b0316986104908330338d6130f1565b6034546104a89084906001600160a01b03168c6131ec565b546001600160a01b031690565b6132d9565b60345490959194906001600160a01b03165b906131a5565b60408051848152602081018690529081019190915233916001600160a01b0316907f941e65c2e86e52e4d4bf73adc9a87775f81da9fa2aff39eda7322e562b08fd6e90606090a361052260018055565b604080519182526020820192909252f35b6310eb483f60e21b60005260046000fd5b508315610468565b508015610461565b6040516343fdee3960e01b8152602060048201526024808201527f50616972206e6f742061637469766520666f722074686520676976656e20746f60448201526335b2b71760e11b606482015280608481015b0390fd5b604051631cfacf1160e01b815260206004820152602860248201527f50616972206e6f74207265676973746572656420666f7220746865206769766560448201526737103a37b5b2b71760c11b6064820152608490fd5b6324787d7360e11b60005260046000fd5b61196a565b631ab7da6b60e01b60005260046000fd5b63a36c61e760e01b60005260046000fd5b346103695760c036600319011261036957600435610657816103a2565b602435604435606435916084359360a43593610671612f28565b610679612f93565b6106295742851061061857603f544201804211610613578511610602576106a261041783613089565b80546001600160a01b0316156105ab57600101948554966106ca6104508960ff9060a01c1690565b6105545782158015610831575b610533576033546001600160a01b0390811698169685939087906106fd8630338e6130f1565b6107098230338d6130f1565b6034546107219087906001600160a01b03168d6131ec565b6034546107399083906001600160a01b03168c6131ec565b546001600160a01b03169461074d9561339d565b9381978397928483119761079695610785946102929a61081d575b5050818111610802575b50506034546001600160a01b03166104cc565b6034546001600160a01b03166104cc565b604080518581526020810187905290810183905233916001600160a01b0316907f42199b399eec9bceda8511afd1d6412eb81c0cc2fdbfcaf1892164387c964d4190606090a36107e560018055565b604051938493846040919493926060820195825260208201520152565b6108169161080f9161198d565b3385613458565b8838610772565b61082a9161080f9161198d565b8938610768565b5080156106d7565b34610369576000366003190112610369576020610854612f93565b6040519015158152f35b3461036957600036600319011261036957603e546040516001600160a01b039091168152602090f35b34610369576020366003190112610369576004356108a4816103a2565b603c546108b9906001600160a01b03166101eb565b6001600160a01b038116156103585760405163a217fddf60e01b8152602081600481855afa9081156103075761091b9160209160009161033b5750604051632474521560e21b8152600481019190915233602482015291829081906044820190565b0381855afa9081156103075760009161097e575b5015610941576102926102808361199a565b60206004916040519283809263a217fddf60e01b82525afa8015610307576102d4916000916102d857506323d6951f60e21b600052600452602490565b610997915060203d602011610334576103268183611889565b3861092f565b34610369576000366003190112610369576020603f54604051908152f35b60809060031901126103695760043590602435906044359060643590565b34610369576109e7366109bb565b90926109f1612f28565b6109f9612f93565b6106295742821061061857603f54420180421161061357821161060257603454600490602090610a33906101eb906001600160a01b031681565b604051633fc8cef360e01b815292839182905afa60009181610b1e575b50610a665763477b8e0d60e01b60005260046000fd5b91610a7361041784613089565b80546001600160a01b031691908215610b0d5760010154610a989060a01c60ff161590565b610afc5784158015610af4575b8015610aec575b610533576104d2956104ba926001600160a01b031695610ace8530338a6130f1565b603454610ae69086906001600160a01b0316896131ec565b84613491565b508215610aac565b508515610aa5565b639f0ddda760e01b60005260046000fd5b632594c4f560e01b60005260046000fd5b610b4191925060203d602011610b48575b610b398183611889565b810190611adc565b9038610a50565b503d610b2f565b3461036957602036600319011261036957600435610b6c816103a2565b6001600160a01b038116610c065750603454600490602090610b96906001600160a01b03166101eb565b604051633fc8cef360e01b815292839182905afa908115610307576104a861041761029293610bcd93600091610be7575b50613089565b6040516001600160a01b0390911681529081906020820190565b610c00915060203d602011610b4857610b398183611889565b38610bc7565b610bcd6104a861041761029293613089565b3461036957602036600319011261036957600435610c35816103a2565b603c54610c4a906001600160a01b03166101eb565b6001600160a01b038116156103585760405163a217fddf60e01b8152602081600481855afa90811561030757610cac9160209160009161033b5750604051632474521560e21b8152600481019190915233602482015291829081906044820190565b0381855afa90811561030757600091610cd2575b50156109415761029261028083611af1565b610ceb915060203d602011610334576103268183611889565b38610cc0565b3461036957602036600319011261036957600435610d0e816103a2565b60018060a01b0316600052603a6020526020604060002054604051908152f35b8015150361036957565b3461036957604036600319011261036957600435610d55816103a2565b60243590610d6282610d2e565b603c54610d77906001600160a01b03166101eb565b6001600160a01b038116156103585760405163691afd6360e01b8152602081600481855afa90811561030757610dd99160209160009161033b5750604051632474521560e21b8152600481019190915233602482015291829081906044820190565b0381855afa90811561030757600091610e00575b5015610296576102926102808484611b9f565b610e19915060203d602011610334576103268183611889565b38610ded565b3461036957606036600319011261036957600435610e3c816103a2565b604435602435610e4b826103a2565b603c54610e60906001600160a01b03166101eb565b926001600160a01b038416156103585760405163a217fddf60e01b8152602081600481885afa90811561030757610ec39160209160009161033b5750604051632474521560e21b8152600481019190915233602482015291829081906044820190565b0381885afa90811561030757600091610f26575b5015610eeb57916102809161029293611ce5565b60405163a217fddf60e01b8152602081600481885afa8015610307576102d4916000916102d857506323d6951f60e21b600052600452602490565b610f3f915060203d602011610334576103268183611889565b38610ed7565b3461036957602036600319011261036957600435610f62816103a2565b603c54610f77906001600160a01b03166101eb565b6001600160a01b038116156103585760405163a217fddf60e01b8152602081600481855afa90811561030757610fd99160209160009161033b5750604051632474521560e21b8152600481019190915233602482015291829081906044820190565b0381855afa90811561030757600091610fff575b50156109415761029261028083611eba565b611018915060203d602011610334576103268183611889565b38610fed565b3461036957600036600319011261036957603b546040516001600160a01b039091168152602090f35b34610369576020366003190112610369576004356001600160e01b0319811603610369576020611075612f93565b15604051908152f35b3461036957602036600319011261036957600435603c546110a7906001600160a01b03166101eb565b6001600160a01b038116156103585760405163691afd6360e01b8152602081600481855afa908115610307576111099160209160009161033b5750604051632474521560e21b8152600481019190915233602482015291829081906044820190565b0381855afa9081156103075760009161112f575b50156102965761029261028083611f6a565b611148915060203d602011610334576103268183611889565b3861111d565b3461036957600036600319011261036957603d546040516001600160a01b039091168152602090f35b611180366109bb565b909161118a612f28565b611192612f93565b6106295742821061061857603f544201804211610613578211610602576034546004906020906111cc906101eb906001600160a01b031681565b604051633fc8cef360e01b815292839182905afa6000918161134d575b506111ff5763477b8e0d60e01b60005260046000fd5b61120b61041782613089565b80546001600160a01b031615610b0d576001015461122d9060a01c60ff161590565b610afc5781158015611345575b6105335761128a610796926102929461125d6101eb60335460018060a01b031690565b9661126a8930338b6130f1565b603454611282908a906001600160a01b03168a6131ec565b349289613501565b93918781809893991161132a575b50508634116112b2576034546001600160a01b03166104cc565b6112bc873461198d565b600080808084335af16112cd611ff8565b50156112da575b50610785565b336000908152603a602052604090206112f4828254611980565b905560405190815233907f7d450bd8215f6a71e56c165b8cd5c9c0f8f86553b5a04305c130c1010e79b10290602090a2386112d4565b61133e916113379161198d565b3383613458565b8538611298565b50831561123a565b61136791925060203d602011610b4857610b398183611889565b90386111e9565b346103695760203660031901126103695760043561138b816103a2565b603c546113a0906001600160a01b03166101eb565b6001600160a01b038116156103585760405163a217fddf60e01b8152602081600481855afa908115610307576114029160209160009161033b5750604051632474521560e21b8152600481019190915233602482015291829081906044820190565b0381855afa90811561030757600091611428575b50156109415761029261028083612038565b611441915060203d602011610334576103268183611889565b38611416565b3461036957602036600319011261036957600435611464816103a2565b603c54611479906001600160a01b03166101eb565b6001600160a01b038116156103585760405163a217fddf60e01b8152602081600481855afa908115610307576114db9160209160009161033b5750604051632474521560e21b8152600481019190915233602482015291829081906044820190565b0381855afa90811561030757600091611501575b50156109415761029261028083612183565b61151a915060203d602011610334576103268183611889565b386114ef565b346103695760c03660031901126103695760043561153d816103a2565b6115c060243561154c816103a2565b604435611558816103a2565b606435611564816103a2565b60843591611571836103a2565b60a4359361157e856103a2565b600054966115a460ff60088a901c16158099819a61163e575b811561161e575b50612206565b876115b7600160ff196000541617600055565b61160557612269565b6115c657005b6115d661ff001960005416600055565b604051600181527f7f26b83ff96e1f2b6a682f133852f6798a09c465da95921460cefb384740249890602090a1005b61161961010061ff00196000541617600055565b612269565b303b15915081611630575b503861159e565b60ff16600114905038611629565b600160ff8216109150611597565b346103695760203660031901126103695760e063ffffffff611678600435611673816103a2565b61259c565b604080516001600160a01b039889168152969097166020870152931515958501959095526060840191909152608083015291151560a0820152911660c0820152f35b34610369576020366003190112610369576004356116d7816103a2565b603c546116ec906001600160a01b03166101eb565b6001600160a01b038116156103585760405163691afd6360e01b8152602081600481855afa9081156103075761174e9160209160009161033b5750604051632474521560e21b8152600481019190915233602482015291829081906044820190565b0381855afa90811561030757600091611774575b5015610296576102926102808361293e565b61178d915060203d602011610334576103268183611889565b38611762565b60ff81160361036957565b34610369576020366003190112610369576004356117bb81611793565b603b546001600160a01b03811615611837576117e1906101eb906001600160a01b031681565b33036118265760405160ff91909116815233907f653b015d928c6cff1b70682b7d5afa1bbe5e5aa468f4a35076e9d0141a9cb1bc90602090a260405160018152602090f35b6313dc0e5760e31b60005260046000fd5b604051631f4407c560e11b815260206004820152601360248201527232b6b2b933b2b731bca1b7b73a3937b63632b960691b6044820152606490fd5b634e487b7160e01b600052604160045260246000fd5b90601f8019910116810190811067ffffffffffffffff8211176118ab57604052565b611873565b90816020910312610369575190565b6040513d6000823e3d90fd5b9081602091031261036957516118e081610d2e565b90565b6118eb612f28565b8015801561195f575b61194b577f4da3085e4fd6ce070db1bc0b0865e333d217ec549e7d25a8ae2dd82a5a4a421c61193f603654928060365560405191829133958360209093929193604081019481520152565b0390a260019060018055565b637086c99760e11b60005260045260246000fd5b5061138881116118f4565b634e487b7160e01b600052601160045260246000fd5b9190820180921161061357565b9190820391821161061357565b6119a2612f28565b6001600160a01b0381168015611acb5760405163c45a015560e01b81526000602082600481865afa80928293611aaa575b506119e957636af90e4b60e01b60005260046000fd5b6001600160a01b03821615611a9b57506001600160a01b03811615611a8a57603480546001600160a01b031981166001600160a01b03958616179091559290921691611a4c9060018060a01b03166001600160601b0360a01b6035541617603555565b33916001600160a01b03167f077029c576ccda0102c849aacae312662696a8f94361ff6eefde2d2679067505600080a4600190611a8860018055565b565b633c68d9e360e21b60005260046000fd5b633c68d9e360e21b8152600490fd5b611ac491935060203d602011610b4857610b398183611889565b91386119d3565b6371d46c2d60e11b60005260046000fd5b9081602091031261036957516118e0816103a2565b6001600160a01b038116908115611b8e573b15611b5457603d80546001600160a01b038381166001600160a01b0319831617909255169033917f9eab87bfc4657f2647d523442668edbd6d841f5fe42e541dbb5f474431c51372600080a4600190565b604051630dd2788360e41b815260206004820152601160248201527037b930b1b632a4b73a32b3b930ba34b7b760791b6044820152606490fd5b633529789960e21b60005260046000fd5b90611bb191611bac612f28565b611bb8565b9060018055565b6001600160a01b0381169081611cd95750603454600490602090611be6906101eb906001600160a01b031681565b604051633fc8cef360e01b815292839182905afa90811561030757611c169161041791600091610be75750613089565b8054611c2a906001600160a01b03166101eb565b156105ab5760018101805460a01c60ff16151584151514611cd057805460ff60a01b191684151560a01b60ff60a01b16179055611c9b908390611c8a90611c70906104a8565b6001600160a01b0316600090815260386020526040902090565b9060ff801983541691151516179055565b604051911515825233917f446256d64bce7c985c03996f64aff20393cd7a018b8a126ff31b03dfd5d038ec90602090a3600190565b50505050600190565b610417611c1691613089565b9190611cef612f28565b6001600160a01b038316918215611e74576001600160a01b038116938415611e3557603354611d26906001600160a01b03166101eb565b8414611e24578215610533576001600160a01b03166000908152603860205260409020611d55905b5460ff1690565b611e14576040516370a0823160e01b8152306004820152602081602481875afa90811561030757600091611df5575b50808311611ddc575081611dbd7fe6c6bf8f7e90b604b592a21c4166cfd5ed9490aede8480d0b5494ab9430361ee93611dcd9386613458565b6040519081529081906020820190565b0390a3600190611a8860018055565b63cf47918160e01b600052600452602482905260446000fd5b611e0e915060203d602011610300576102f28183611889565b38611d84565b6220820360e41b60005260046000fd5b6302079d6760e01b60005260046000fd5b60405163eac0d38960e01b8152602060048201526016602482015275726563697069656e7420666f72207265636f7665727960501b6044820152606490fd5b60405163eac0d38960e01b815260206004820152601960248201527f746f6b656e4164647265737320666f72207265636f76657279000000000000006044820152606490fd5b6001600160a01b038116908115611f59573b15611f1d57603b80546001600160a01b038381166001600160a01b0319831617909255169033917ff74ec9978ba2b855629831c18da14f9c37095cf07acc97fcf2842a893d3245ef600080a4600190565b604051630dd2788360e41b815260206004820152601360248201527232b6b2b933b2b731bca1b7b73a3937b63632b960691b6044820152606490fd5b63686e11a360e11b60005260046000fd5b611f72612f28565b61012c81108015611fdd575b611fc9577f66f4f0138e438106137d5831cd2acfe3f6f8edf5b2d17ac713db8e49a6f2487161193f603f549280603f5560405191829133958360209093929193604081019481520152565b633677b06b60e21b60005260045260246000fd5b50620151808111611f7e565b60405190611a88606083611889565b3d15612033573d9067ffffffffffffffff82116118ab5760405191612027601f8201601f191660200184611889565b82523d6000602084013e565b606090565b612040612f28565b6001600160a01b0381168015612145576001600160a01b0382166000908152603a6020526040902054918215612134576001600160a01b0381166000908152603a6020526040812055600080808086855af161209a611ff8565b50156120d5575060405191825233917f0cbf2001342e5abc7cfca1fdc908a1ec3a0eb3c43b83059e0ff1bea4d10bc700908060208101611dcd565b6001600160a01b03166000908152603a6020526040902090505560405162461bcd60e51b815260206004820152601c60248201527f424e42207265636f76657279207472616e73666572206661696c6564000000006044820152606490fd5b630236ac2760e31b60005260046000fd5b60405163eac0d38960e01b81526020600482015260156024820152747573657220666f7220424e42207265636f7665727960581b6044820152606490fd5b6001600160a01b0381169081156121f5573b156121e457603e80546001600160a01b0319811683179091553391906001600160a01b03167fc2273da3b74372471cb102b1e9a080acedb6b98b39048104973b1aa7f9af307b600080a4600190565b631f99149760e31b60005260046000fd5b63f2b4a71160e01b60005260046000fd5b1561220d57565b60405162461bcd60e51b815260206004820152602e60248201527f496e697469616c697a61626c653a20636f6e747261637420697320616c72656160448201526d191e481a5b9a5d1a585b1a5e995960921b6064820152608490fd5b949190916122756135d4565b6001600160a01b03861615612541576001600160a01b038316938415611acb576001600160a01b038316918215610358576001600160a01b038216968715611f59576001600160a01b038116928315611b8e576001600160a01b0383169586156121f557873b15612512573b156124dc573b15611f1d573b15611b54573b156124a9576123866020966123696123a39461234c6123c09861232f60049d60018060a01b03166001600160601b0360a01b6033541617603355565b60018060a01b03166001600160601b0360a01b6034541617603455565b60018060a01b03166001600160601b0360a01b603c541617603c55565b60018060a01b03166001600160601b0360a01b603b541617603b55565b60018060a01b03166001600160601b0360a01b603d541617603d55565b60018060a01b03166001600160601b0360a01b603e541617603e55565b6123ca6064603655565b6123d5610e10603f55565b60405163c45a015560e01b815292839182905afa60009181612488575b506124085763548cae6b60e11b60005260046000fd5b6001600160a01b03811615612458576001600160a01b0381161561244757603580546001600160a01b0319166001600160a01b03909216919091179055565b6374dd949160e01b60005260046000fd5b60405163f8542c4b60e01b8152602060048201526007602482015266666163746f727960c81b6044820152606490fd5b6124a291925060203d602011610b4857610b398183611889565b90386123f2565b604051630dd2788360e41b815260206004820152600a6024820152691c1c9a58d951dd585c9960b21b6044820152606490fd5b604051630dd2788360e41b815260206004820152600d60248201526c1858d8d95cdcd0dbdb9d1c9bdb609a1b6044820152606490fd5b604051630dd2788360e41b81526020600482015260066024820152653937baba32b960d11b6044820152606490fd5b63045c8a3160e31b60005260046000fd5b51906001600160701b038216820361036957565b908160609103126103695761257a81612552565b91604061258960208401612552565b92015163ffffffff811681036103695790565b6001600160a01b03811661277a57506034546004906020906125c8906101eb906001600160a01b031681565b604051633fc8cef360e01b815292839182905afa8015610307576125f391600091610be75750613089565b61260d6101eb6104a8836000526037602052604060002090565b1561276257612626906000526037602052604060002090565b80549091906001906001600160a01b0316920154906126526001600160a01b0383169260a01c60ff1690565b9060009081908161266b6001600160a01b0388166101eb565b91604051630240bc6b60e21b8152606081600481875afa60008160009360009361272a575b5061270d575b5050506004602060009460405192838092630dfe168160e01b82525afa600091816126ec575b506126c45750565b603354919350906126dd906001600160a01b03166101eb565b6001600160a01b039091161491565b61270691925060203d602011610b4857610b398183611889565b90386126bc565b6001600160701b0390811697509190911694509150388080612696565b91509250612750915060603d60601161275b575b6127488183611889565b810190612566565b929190929138612690565b503d61273e565b50600090600090600090600090600090600090600090565b6125f390613089565b602981527f5061697220666f72207468697320746f6b656e20636f756c64206e6f742062656020820152681031b932b0ba32b21760b91b604082015260600190565b9190916040815260206127da60408301612783565b6001600160a01b03909416910152565b604051906127f9604083611889565b601b82527f466163746f7279206372656174655061697220726576657274656400000000006020830152565b60405190612834606083611889565b602f82526e2050616e69632875696e743235362960881b6040837f466163746f72792063726561746550616972207265766572746564207769746860208201520152565b60405190612887606083611889565b602e82526d204572726f7228737472696e672960901b6040837f466163746f72792063726561746550616972207265766572746564207769746860208201520152565b919082519283825260005b8481106128f6575050826000602080949584010152601f8019910116010190565b806020809284010151828286010152016128d5565b916118e0926060815261292060608201612783565b6001600160a01b0390931660208201528083036040909101526128ca565b6001600160a01b03811615612e79575b603354612963906001600160a01b03166101eb565b6001600160a01b03821691908214612e685761297e81613089565b916129996101eb6104a8856000526037602052604060002090565b612e0f576129b4611d4e846000526039602052604060002090565b612dbc576129dc6129cf846000526039602052604060002090565b805460ff19166001179055565b603554600091906129f7906101eb906001600160a01b031681565b60335460405163e6a4390560e01b81526001600160a01b03918216600482018190529186166024820152602081604481865afa60009181612d9b575b50612d93575b506001600160a01b03841615612c6a575b50506001600160a01b0382168015612c5957612af0612a67611fe9565b6001600160a01b03851681526001600160a01b038616602082015260016040820152612a9d876000526037602052604060002090565b815181546001600160a01b0319166001600160a01b03918216178255602083015160019092018054604090940151929091166001600160a81b03199093169290921790151560a01b60ff60a01b16179055565b6001600160a01b0383166000908152603860205260409020612b11906129cf565b6040513381528290829087907f5979dd2903d436a2749ff845a052bd0a915b01856feefa21c9c0d97ba6269d1a90602090a4603d54612b58906001600160a01b03166101eb565b926001600160a01b038416612b93575b5050505050612b84612b8e916000526039602052604060002090565b805460ff19169055565b600190565b603354949593946001600160a01b031690853b1561036957604051634205170f60e11b81526001600160a01b0391821660048201529181166024830152959095166044860152612b8e94612b84946000908290606490829084905af19081612c3e575b50612c37576033546001600160a01b0316907f1ae40dda515717c861e6ffc3324cdfb089102421bbc6e1392070f7e5fa80cb8f600080a45b91388080612b68565b5050612c2e565b80612c4d6000612c5393611889565b8061036e565b38612bf6565b63548cae6b60e11b60005260046000fd5b6040516364e329cb60e11b81526001600160a01b039182166004820152908516602482015293959493919250602090829060449082906000905af160009181612d72575b50612d3c5784612cbc611ff8565b90612cc56127ea565b91600481511015612cee575b506105a7604051928392630100a40960e21b84526004840161290b565b6020015160e01c6001600160e01b03191662461bcd60e51b8103612d1f57509050612d17612878565b905b82612cd1565b634e487b7160e01b03612d19579050612d36612825565b90612d19565b929391926001600160a01b03811615612d5757903880612a4a565b60405163dce1397760e01b8152806105a785600483016127c5565b612d8c91925060203d602011610b4857610b398183611889565b9038612cae565b935038612a39565b612db591925060203d602011610b4857610b398183611889565b9038612a33565b60405162461bcd60e51b815260206004820152602560248201527f5061697220726567697374726174696f6e20616c726561647920696e2070726f604482015264677265737360d81b6064820152608490fd5b60405163878ff0f560e01b815260206004820152602a60248201527f5061697220666f72207468697320746f6b656e20697320616c7265616479207260448201526932b3b4b9ba32b932b21760b11b6064820152608490fd5b63162908e360e11b60005260046000fd5b50603454600490602090612e97906101eb906001600160a01b031681565b604051633fc8cef360e01b815292839182905afa60009181612f07575b50612eca5763477b8e0d60e01b60005260046000fd5b6001600160a01b03811661294e5760405163f8542c4b60e01b815260206004808301919091526024820152630eecae8d60e31b6044820152606490fd5b612f2191925060203d602011610b4857610b398183611889565b9038612eb4565b600260015414612f39576002600155565b60405162461bcd60e51b815260206004820152601f60248201527f5265656e7472616e637947756172643a207265656e7472616e742063616c6c006044820152606490fd5b9081602091031261036957516118e081611793565b603b54612fa8906001600160a01b03166101eb565b6001600160a01b0381161561308357604051631da4712b60e21b81526000918291602081600481855afa60009181613062575b50613059575b50602060049160405192838092630743c9d960e51b82525afa60009181613028575b50613020575b508115613014575090565b6003915060ff16101590565b905038613009565b61304b91925060203d602011613052575b6130438183611889565b810190612f7e565b9038613003565b503d613039565b92506020612fe1565b61307c91925060203d602011610334576103268183611889565b9038612fdb565b50600090565b6033546001600160a01b0390811691908116808314612e68578211156130ec57905b6040519060208201926001600160601b03199060601b1683526001600160601b03199060601b166034820152602881526130e6604882611889565b51902090565b6130ab565b6040516323b872dd60e01b60208201526001600160a01b039283166024820152929091166044830152606480830193909352918152611a8891613135608483611889565b6135f4565b1561314157565b60405162461bcd60e51b815260206004820152603660248201527f5361666545524332303a20617070726f76652066726f6d206e6f6e2d7a65726f60448201527520746f206e6f6e2d7a65726f20616c6c6f77616e636560501b6064820152608490fd5b90611a88916131b4600161313a565b60405163095ea7b360e01b60208201526001600160a01b03909216602483015260006044808401919091528252613135606483611889565b91909181158015613244575b611a88936132086131359261313a565b60405163095ea7b360e01b60208201526001600160a01b039091166024820152604481019390935282606481015b03601f198101845283611889565b50604051636eb1769f60e11b81523060048201526001600160a01b038416602482015292602084806044810103816001600160a01b0386165afa9081156103075761320861313592611a88966000916132a4575b501592505093506131f8565b6132bd915060203d602011610300576102f28183611889565b38613298565b9190826040910312610369576020825192015190565b60345460335460408051635d5155ef60e11b81526001600160a01b03928316600482015293821660248501526044840194909452606483019490945260848201949094523360a482015260c481019490945292939291849160e4918391600091165af19182156103075760009060009361335257509190565b905061337791925060403d60401161337b575b61336f8183611889565b8101906132c3565b9091565b503d613365565b90816060910312610369578051916040602083015192015190565b60345460335460405162e8e33760e81b81526001600160a01b039182166004820152928116602484015260448301939093526064820193909352608481019390935260a48301939093523360c483015260e482019390935292916060918491610104918391600091165af19081156103075760008093600093613421575b50929190565b91935050613447915060603d606011613451575b61343f8183611889565b810190613382565b929092913861341b565b503d613435565b60405163a9059cbb60e01b60208201526001600160a01b0390921660248301526044820192909252611a88916131358260648101613236565b60345460335460408051629d473b60e21b81526001600160a01b03928316600482015260248101949094526044840194909452606483019490945233608483015260a482019490945293929091849160c4918391600091165af19182156103075760009060009361335257509190565b60345460335460405163f305d71960e01b81526001600160a01b03918216600482015260248101939093526044830193909352606482019390935233608482015260a4810193909352919392606092859260c49284929091165af190811561030757600080936000936134215750929190565b1561357b57565b60405162461bcd60e51b815260206004820152602b60248201527f496e697469616c697a61626c653a20636f6e7472616374206973206e6f74206960448201526a6e697469616c697a696e6760a81b6064820152608490fd5b6135ee60ff60005460081c166135e981613574565b613574565b60018055565b604080519092613659926001600160a01b03169060009081906136178786611889565b602085527f5361666545524332303a206c6f772d6c6576656c2063616c6c206661696c6564602086015260208151910182855af1613653611ff8565b916136e0565b80519081159182156136c6575b5050156136705750565b5162461bcd60e51b815260206004820152602a60248201527f5361666545524332303a204552433230206f7065726174696f6e20646964206e6044820152691bdd081cdd58d8d9595960b21b6064820152608490fd5b6136d992506020809183010191016118cb565b3880613666565b9192901561374257508151156136f4575090565b3b156136fd5790565b60405162461bcd60e51b815260206004820152601d60248201527f416464726573733a2063616c6c20746f206e6f6e2d636f6e74726163740000006044820152606490fd5b8251909150156137555750805190602001fd5b60405162461bcd60e51b8152602060048201529081906105a79060248301906128ca56fea2646970667358221220c9e1b4fa825818b80b50bd7542426879d4593e49fc910a6d81c0071a8000e54264736f6c634300081c0033","linkReferences":{}},"methodIdentifiers":{"accessControl()":"13007d55","addLiquidity(address,uint256,uint256,uint256,uint256,uint256)":"2563e426","addLiquidityBNB(uint256,uint256,uint256,uint256)":"b1e12e58","checkEmergencyStatus(bytes4)":"8aed668a","emergencyController()":"7a936beb","emergencyShutdown(uint8)":"eb1676c1","getEmergencyController()":"c993cc9d","getLPTokenAddress(address)":"4939ea4d","getPairInfo(address)":"d4ff73f7","initialize(address,address,address,address,address,address)":"cc2a9a5b","isEmergencyPaused()":"290d10c4","maxDeadlineOffset()":"420fa060","oracleIntegration()":"9c6f1177","pendingBNBRefunds(address)":"551ca251","priceGuard()":"36d8b0cc","recoverFailedBNBRefund(address)":"c053ed44","recoverTokens(address,uint256,address)":"61b0a56e","registerPair(address)":"dc314b44","removeLiquidity(address,uint256,uint256,uint256,uint256)":"13928082","removeLiquidityBNB(uint256,uint256,uint256,uint256)":"48790d0d","setEmergencyController(address)":"6ca7dc89","setMaxDeadlineOffset(uint256)":"9ba5b5a1","setPairStatus(address,bool)":"5a0d1229","setRouterAddress(address)":"41cb87fc","setSlippageTolerance(uint256)":"117da1ee","updateOracleIntegration(address)":"4b9a01b5","updatePriceGuard(address)":"c299e0f7"},"id":22}