{"abi":[{"type":"constructor","inputs":[],"stateMutability":"nonpayable"},{"type":"function","name":"accessControl","inputs":[],"outputs":[{"name":"","type":"address","internalType":"contract AccessControl"}],"stateMutability":"view"},{"type":"function","name":"addPool","inputs":[{"name":"lpToken","type":"address","internalType":"address"},{"name":"baseAPRBpsIn","type":"uint256","internalType":"uint256"}],"outputs":[{"name":"success","type":"bool","internalType":"bool"}],"stateMutability":"nonpayable"},{"type":"function","name":"addTier","inputs":[{"name":"durationIn","type":"uint256","internalType":"uint256"},{"name":"rewardMultiplierIn","type":"uint256","internalType":"uint256"},{"name":"earlyWithdrawalPenaltyIn","type":"uint256","internalType":"uint256"}],"outputs":[{"name":"tierId","type":"uint256","internalType":"uint256"}],"stateMutability":"nonpayable"},{"type":"function","name":"calculateLPRewards","inputs":[{"name":"user","type":"address","internalType":"address"},{"name":"positionId","type":"uint256","internalType":"uint256"}],"outputs":[{"name":"rewardsAmount","type":"uint256","internalType":"uint256"}],"stateMutability":"view"},{"type":"function","name":"checkEmergencyStatus","inputs":[{"name":"operation","type":"bytes4","internalType":"bytes4"}],"outputs":[{"name":"allowed","type":"bool","internalType":"bool"}],"stateMutability":"view"},{"type":"function","name":"claimLPRewards","inputs":[{"name":"positionId","type":"uint256","internalType":"uint256"}],"outputs":[{"name":"amountClaimed","type":"uint256","internalType":"uint256"}],"stateMutability":"nonpayable"},{"type":"function","name":"emergencyController","inputs":[],"outputs":[{"name":"","type":"address","internalType":"contract EmergencyController"}],"stateMutability":"view"},{"type":"function","name":"emergencyShutdown","inputs":[{"name":"emergencyLevelInput","type":"uint8","internalType":"uint8"}],"outputs":[{"name":"success","type":"bool","internalType":"bool"}],"stateMutability":"nonpayable"},{"type":"function","name":"emergencyWithdrawLP","inputs":[{"name":"positionId","type":"uint256","internalType":"uint256"}],"outputs":[{"name":"amountWithdrawn","type":"uint256","internalType":"uint256"}],"stateMutability":"nonpayable"},{"type":"function","name":"getEmergencyController","inputs":[],"outputs":[{"name":"controller","type":"address","internalType":"address"}],"stateMutability":"view"},{"type":"function","name":"getLPEmergencyWithdrawalSettings","inputs":[],"outputs":[{"name":"enabled","type":"bool","internalType":"bool"},{"name":"penaltyBps","type":"uint256","internalType":"uint256"}],"stateMutability":"view"},{"type":"function","name":"getLPPositionCount","inputs":[{"name":"user","type":"address","internalType":"address"}],"outputs":[{"name":"count","type":"uint256","internalType":"uint256"}],"stateMutability":"view"},{"type":"function","name":"getLPStakingPosition","inputs":[{"name":"user","type":"address","internalType":"address"},{"name":"positionId","type":"uint256","internalType":"uint256"}],"outputs":[{"name":"amount","type":"uint256","internalType":"uint256"},{"name":"startTime","type":"uint256","internalType":"uint256"},{"name":"endTime","type":"uint256","internalType":"uint256"},{"name":"lastClaimTime","type":"uint256","internalType":"uint256"},{"name":"tierIdOut","type":"uint256","internalType":"uint256"},{"name":"lpTokenOut","type":"address","internalType":"address"},{"name":"activeFlag","type":"bool","internalType":"bool"}],"stateMutability":"view"},{"type":"function","name":"getLiquidityManagerAddress","inputs":[],"outputs":[{"name":"","type":"address","internalType":"address"}],"stateMutability":"view"},{"type":"function","name":"getPoolInfo","inputs":[{"name":"lpToken","type":"address","internalType":"address"}],"outputs":[{"name":"baseAPRBpsOut","type":"uint256","internalType":"uint256"},{"name":"totalStakedInPoolOut","type":"uint256","internalType":"uint256"},{"name":"isActiveOut","type":"bool","internalType":"bool"}],"stateMutability":"view"},{"type":"function","name":"getRewardTokenAddress","inputs":[],"outputs":[{"name":"","type":"address","internalType":"address"}],"stateMutability":"view"},{"type":"function","name":"getTierInfo","inputs":[{"name":"tierId","type":"uint256","internalType":"uint256"}],"outputs":[{"name":"durationOut","type":"uint256","internalType":"uint256"},{"name":"rewardMultiplierOut","type":"uint256","internalType":"uint256"},{"name":"earlyWithdrawalPenaltyOut","type":"uint256","internalType":"uint256"},{"name":"activeOut","type":"bool","internalType":"bool"}],"stateMutability":"view"},{"type":"function","name":"initialize","inputs":[{"name":"pREWATokenAddress_","type":"address","internalType":"address"},{"name":"liquidityManagerAddr_","type":"address","internalType":"address"},{"name":"initialOwner_","type":"address","internalType":"address"},{"name":"minStakeDuration_","type":"uint256","internalType":"uint256"},{"name":"accessControlAddr_","type":"address","internalType":"address"},{"name":"emergencyControllerAddr_","type":"address","internalType":"address"}],"outputs":[],"stateMutability":"nonpayable"},{"type":"function","name":"isEmergencyPaused","inputs":[],"outputs":[{"name":"isPaused","type":"bool","internalType":"bool"}],"stateMutability":"view"},{"type":"function","name":"isLPToken","inputs":[{"name":"","type":"address","internalType":"address"}],"outputs":[{"name":"","type":"bool","internalType":"bool"}],"stateMutability":"view"},{"type":"function","name":"paused","inputs":[],"outputs":[{"name":"","type":"bool","internalType":"bool"}],"stateMutability":"view"},{"type":"function","name":"recoverTokens","inputs":[{"name":"tokenAddressRec","type":"address","internalType":"address"},{"name":"amountRec","type":"uint256","internalType":"uint256"}],"outputs":[{"name":"successFlag","type":"bool","internalType":"bool"}],"stateMutability":"nonpayable"},{"type":"function","name":"setEmergencyController","inputs":[{"name":"controller","type":"address","internalType":"address"}],"outputs":[{"name":"success","type":"bool","internalType":"bool"}],"stateMutability":"nonpayable"},{"type":"function","name":"setLPEmergencyWithdrawal","inputs":[{"name":"enabled","type":"bool","internalType":"bool"},{"name":"penalty","type":"uint256","internalType":"uint256"}],"outputs":[{"name":"success","type":"bool","internalType":"bool"}],"stateMutability":"nonpayable"},{"type":"function","name":"stakeLPTokens","inputs":[{"name":"lpToken","type":"address","internalType":"address"},{"name":"amount","type":"uint256","internalType":"uint256"},{"name":"tierId","type":"uint256","internalType":"uint256"}],"outputs":[{"name":"positionId","type":"uint256","internalType":"uint256"}],"stateMutability":"nonpayable"},{"type":"function","name":"transferOwnership","inputs":[{"name":"newOwner","type":"address","internalType":"address"}],"outputs":[{"name":"successFlag","type":"bool","internalType":"bool"}],"stateMutability":"nonpayable"},{"type":"function","name":"unstakeLPTokens","inputs":[{"name":"positionId","type":"uint256","internalType":"uint256"}],"outputs":[{"name":"amountUnstaked","type":"uint256","internalType":"uint256"}],"stateMutability":"nonpayable"},{"type":"function","name":"updatePool","inputs":[{"name":"lpToken","type":"address","internalType":"address"},{"name":"newBaseAPRBpsIn","type":"uint256","internalType":"uint256"},{"name":"active","type":"bool","internalType":"bool"}],"outputs":[{"name":"success","type":"bool","internalType":"bool"}],"stateMutability":"nonpayable"},{"type":"function","name":"updateTier","inputs":[{"name":"tierId","type":"uint256","internalType":"uint256"},{"name":"durationIn","type":"uint256","internalType":"uint256"},{"name":"rewardMultiplierIn","type":"uint256","internalType":"uint256"},{"name":"earlyWithdrawalPenaltyIn","type":"uint256","internalType":"uint256"},{"name":"active","type":"bool","internalType":"bool"}],"outputs":[{"name":"success","type":"bool","internalType":"bool"}],"stateMutability":"nonpayable"},{"type":"event","name":"EmergencyShutdownHandled","inputs":[{"name":"emergencyLevel","type":"uint8","indexed":false,"internalType":"uint8"},{"name":"caller","type":"address","indexed":true,"internalType":"address"}],"anonymous":false},{"type":"event","name":"EmergencyStatusChecked","inputs":[{"name":"emergencyLevel","type":"uint8","indexed":false,"internalType":"uint8"},{"name":"operation","type":"bytes4","indexed":false,"internalType":"bytes4"},{"name":"allowed","type":"bool","indexed":false,"internalType":"bool"}],"anonymous":false},{"type":"event","name":"Initialized","inputs":[{"name":"version","type":"uint8","indexed":false,"internalType":"uint8"}],"anonymous":false},{"type":"event","name":"LPRewardsClaimed","inputs":[{"name":"user","type":"address","indexed":true,"internalType":"address"},{"name":"amount","type":"uint256","indexed":false,"internalType":"uint256"},{"name":"lpToken","type":"address","indexed":true,"internalType":"address"},{"name":"positionId","type":"uint256","indexed":true,"internalType":"uint256"}],"anonymous":false},{"type":"event","name":"LPStaked","inputs":[{"name":"user","type":"address","indexed":true,"internalType":"address"},{"name":"amount","type":"uint256","indexed":false,"internalType":"uint256"},{"name":"lpToken","type":"address","indexed":true,"internalType":"address"},{"name":"tierId","type":"uint256","indexed":true,"internalType":"uint256"},{"name":"positionId","type":"uint256","indexed":false,"internalType":"uint256"}],"anonymous":false},{"type":"event","name":"LPStakingEmergencyControllerSet","inputs":[{"name":"oldController","type":"address","indexed":true,"internalType":"address"},{"name":"newController","type":"address","indexed":true,"internalType":"address"},{"name":"setter","type":"address","indexed":true,"internalType":"address"}],"anonymous":false},{"type":"event","name":"LPStakingEmergencyWithdrawalSet","inputs":[{"name":"enabled","type":"bool","indexed":false,"internalType":"bool"},{"name":"penalty","type":"uint256","indexed":false,"internalType":"uint256"},{"name":"updater","type":"address","indexed":true,"internalType":"address"}],"anonymous":false},{"type":"event","name":"LPStakingOwnershipTransferred","inputs":[{"name":"previousOwner","type":"address","indexed":true,"internalType":"address"},{"name":"newOwner","type":"address","indexed":true,"internalType":"address"},{"name":"operator","type":"address","indexed":true,"internalType":"address"}],"anonymous":false},{"type":"event","name":"LPTokenRecovered","inputs":[{"name":"token","type":"address","indexed":true,"internalType":"address"},{"name":"amount","type":"uint256","indexed":false,"internalType":"uint256"},{"name":"recipient","type":"address","indexed":true,"internalType":"address"}],"anonymous":false},{"type":"event","name":"LPUnstaked","inputs":[{"name":"user","type":"address","indexed":true,"internalType":"address"},{"name":"amount","type":"uint256","indexed":false,"internalType":"uint256"},{"name":"lpToken","type":"address","indexed":true,"internalType":"address"},{"name":"positionId","type":"uint256","indexed":true,"internalType":"uint256"},{"name":"penaltyAmount","type":"uint256","indexed":false,"internalType":"uint256"}],"anonymous":false},{"type":"event","name":"Paused","inputs":[{"name":"account","type":"address","indexed":false,"internalType":"address"}],"anonymous":false},{"type":"event","name":"PoolAdded","inputs":[{"name":"lpToken","type":"address","indexed":true,"internalType":"address"},{"name":"baseAPRBps","type":"uint256","indexed":false,"internalType":"uint256"},{"name":"correspondingScaledRate","type":"uint256","indexed":false,"internalType":"uint256"},{"name":"creator","type":"address","indexed":true,"internalType":"address"}],"anonymous":false},{"type":"event","name":"PoolTotalStakedInconsistency","inputs":[{"name":"lpToken","type":"address","indexed":true,"internalType":"address"},{"name":"poolTotal","type":"uint256","indexed":false,"internalType":"uint256"},{"name":"unstakeAmount","type":"uint256","indexed":false,"internalType":"uint256"}],"anonymous":false},{"type":"event","name":"PoolUpdated","inputs":[{"name":"lpToken","type":"address","indexed":true,"internalType":"address"},{"name":"newBaseAPRBps","type":"uint256","indexed":false,"internalType":"uint256"},{"name":"correspondingScaledRate","type":"uint256","indexed":false,"internalType":"uint256"},{"name":"active","type":"bool","indexed":false,"internalType":"bool"},{"name":"updater","type":"address","indexed":true,"internalType":"address"}],"anonymous":false},{"type":"event","name":"TierAdded","inputs":[{"name":"tierId","type":"uint256","indexed":true,"internalType":"uint256"},{"name":"duration","type":"uint256","indexed":false,"internalType":"uint256"},{"name":"rewardMultiplier","type":"uint256","indexed":false,"internalType":"uint256"},{"name":"earlyWithdrawalPenalty","type":"uint256","indexed":false,"internalType":"uint256"},{"name":"creator","type":"address","indexed":true,"internalType":"address"}],"anonymous":false},{"type":"event","name":"TierUpdated","inputs":[{"name":"tierId","type":"uint256","indexed":true,"internalType":"uint256"},{"name":"duration","type":"uint256","indexed":false,"internalType":"uint256"},{"name":"rewardMultiplier","type":"uint256","indexed":false,"internalType":"uint256"},{"name":"earlyWithdrawalPenalty","type":"uint256","indexed":false,"internalType":"uint256"},{"name":"active","type":"bool","indexed":false,"internalType":"bool"},{"name":"updater","type":"address","indexed":true,"internalType":"address"}],"anonymous":false},{"type":"event","name":"Unpaused","inputs":[{"name":"account","type":"address","indexed":false,"internalType":"address"}],"anonymous":false},{"type":"error","name":"AmountIsZero","inputs":[]},{"type":"error","name":"InsufficientBalance","inputs":[{"name":"available","type":"uint256","internalType":"uint256"},{"name":"required","type":"uint256","internalType":"uint256"}]},{"type":"error","name":"InvalidDuration","inputs":[]},{"type":"error","name":"LPS_CallerNotEmergencyController","inputs":[]},{"type":"error","name":"LPS_CannotRecoverStakedLP","inputs":[{"name":"lpToken","type":"address","internalType":"address"}]},{"type":"error","name":"LPS_CannotRecoverStakingToken","inputs":[]},{"type":"error","name":"LPS_DurationExceedsMax","inputs":[{"name":"duration","type":"uint256","internalType":"uint256"},{"name":"max","type":"uint256","internalType":"uint256"}]},{"type":"error","name":"LPS_DurationLessThanMin","inputs":[{"name":"duration","type":"uint256","internalType":"uint256"},{"name":"min","type":"uint256","internalType":"uint256"}]},{"type":"error","name":"LPS_EMGWDNotEnabled","inputs":[]},{"type":"error","name":"LPS_InvalidLPTokenAddress","inputs":[]},{"type":"error","name":"LPS_MultiStakeInBlock","inputs":[]},{"type":"error","name":"LPS_MultiplierTooHigh","inputs":[{"name":"multiplier","type":"uint256","internalType":"uint256"},{"name":"max","type":"uint256","internalType":"uint256"}]},{"type":"error","name":"LPS_MultiplierTooLow","inputs":[{"name":"multiplier","type":"uint256","internalType":"uint256"},{"name":"min","type":"uint256","internalType":"uint256"}]},{"type":"error","name":"LPS_NoRewardsToClaim","inputs":[]},{"type":"error","name":"LPS_PenaltyTooHigh","inputs":[{"name":"penalty","type":"uint256","internalType":"uint256"},{"name":"max","type":"uint256","internalType":"uint256"}]},{"type":"error","name":"LPS_PoolAlreadyExists","inputs":[{"name":"lpToken","type":"address","internalType":"address"}]},{"type":"error","name":"LPS_PoolNotActive","inputs":[{"name":"lpToken","type":"address","internalType":"address"}]},{"type":"error","name":"LPS_PositionDoesNotExist","inputs":[{"name":"positionId","type":"uint256","internalType":"uint256"}]},{"type":"error","name":"LPS_PositionNotActive","inputs":[{"name":"positionId","type":"uint256","internalType":"uint256"}]},{"type":"error","name":"LPS_RewardRateZero","inputs":[]},{"type":"error","name":"LPS_StakeAmountZero","inputs":[]},{"type":"error","name":"LPS_TierDoesNotExist","inputs":[{"name":"tierId","type":"uint256","internalType":"uint256"}]},{"type":"error","name":"LPS_TierNotActive","inputs":[{"name":"tierId","type":"uint256","internalType":"uint256"}]},{"type":"error","name":"NotAContract","inputs":[{"name":"context","type":"string","internalType":"string"}]},{"type":"error","name":"NotAuthorized","inputs":[{"name":"requiredRole","type":"bytes32","internalType":"bytes32"}]},{"type":"error","name":"NotInitialized","inputs":[]},{"type":"error","name":"NotOwner","inputs":[]},{"type":"error","name":"SystemInEmergencyMode","inputs":[]},{"type":"error","name":"ZeroAddress","inputs":[{"name":"context","type":"string","internalType":"string"}]}],"bytecode":{"object":"0x6080806040523460bd576034549060ff8260081c16606b575060ff808216036031575b604051612f9c90816100c38239f35b60ff90811916176034557f7f26b83ff96e1f2b6a682f133852f6798a09c465da95921460cefb3847402498602060405160ff8152a1386022565b62461bcd60e51b815260206004820152602760248201527f496e697469616c697a61626c653a20636f6e747261637420697320696e697469604482015266616c697a696e6760c81b6064820152608490fd5b600080fdfe6080604052600436101561001257600080fd5b60003560e01c8063069c9fae1461222357806306bfa938146121485780630d73eac514611e2157806313007d5514611df857806328a95ee414611d61578063290d10c414611c6a57806332a9caba14611a4057806332b5a1b31461156a5780634724f98f1461152a5780635c975abb146115075780636358ec57146113415780636497587a14611302578063649f184a146112d95780636ca7dc89146111c25780636edb9e3c1461101f5780637630135014610e1957806376d2847f14610b9657806379d77b4214610a515780637a936beb146104625780638aed668a146108bf57806399e117a0146108965780639bdc8cf5146107d85780639e0ffc0914610583578063babc177e14610554578063c02152f11461048b578063c993cc9d14610462578063cc9d7519146103b8578063eb1676c11461023a5763f2fde38b1461015b57600080fd5b34610235576020366003190112610235576101746123f4565b6000546001600160a01b031633036102245761018e61287b565b6001600160a01b031680156101f357600080546001600160a01b0319811683178255604051602093909233926001600160a01b0316907f8f9eb1c315cbe257759c3eca911622c62973c36d0ff264b075ef91a7ecdd78469080a4600160995560018152f35b60405163eac0d38960e01b81526020600482015260086024820152673732bba7bbb732b960c11b6044820152606490fd5b6330cd747160e01b60005260046000fd5b600080fd5b346102355760203660031901126102355760043560ff81168091036102355760cb546001600160a01b031680156103a7578033036103a75760038210158061039a575b61031d575b600282101580610310575b6102ca575b506040519081527f653b015d928c6cff1b70682b7d5afa1bbe5e5aa468f4a35076e9d0141a9cb1bc60203392a2602060405160018152f35b600160ff1960045416176004557f099c3eb4db1ccbedb1a5698d64af480d43223771793808539d2d9fe797f5a0696040600354815190600182526020820152a281610292565b5060ff600454161561028d565b60675460ff81166103625760019060ff1916176067557f62e78cea01bee320cd4e420270b5ea74000d11b0c9f74754ebdbfc544b05a2586020604051338152a1610282565b60405162461bcd60e51b815260206004820152601060248201526f14185d5cd8589b194e881c185d5cd95960821b6044820152606490fd5b5060ff606754161561027d565b63eb3daf4760e01b60005260046000fd5b346102355760203660031901126102355760cc54600435906001600160a01b03161580610457575b61044657600a54811015610433576000908152600660209081526040918290208054600182015460028301546003909301548551928352938201529283015260ff161515606082015280608081015b0390f35b6202915b60e71b60005260045260246000fd5b6321c4e35760e21b60005260046000fd5b50600a5481106103e0565b346102355760003660031901126102355760cb546040516001600160a01b039091168152602090f35b34610235576040366003190112610235576004358015158082036102355760005460243591906001600160a01b03163303610224576104c861287b565b6113888211610539577f099c3eb4db1ccbedb1a5698d64af480d43223771793808539d2d9fe797f5a069916105269160ff80196004541691161760045580600355604051918291339583602090939291936040810194151581520152565b0390a26001609955602060405160018152f35b5063464b62f360e11b60005260045261138860245260446000fd5b3461023557604036600319011261023557602061057b6105726123f4565b602435906125ad565b604051908152f35b346102355760203660031901126102355760043561059f61287b565b604051630a43443160e21b8152602081600481305afa908115610750576000916107a9575b506107985760cc546001600160a01b03161561044657336000526005602052604060002054811015610785573360005260056020526106078160406000206124a5565b50600581019182549260ff8460a01c161561077057600483015460009081526006602090815260408083206001600160a01b039788168085526007909352922080549096161561075c5750604051632981325360e01b8152939460209185918291610679914291908a600486016124fd565b038173__$07ddff0bf3943899d84062642a5fb3a74e$__5af492831561075057600093610719575b508215610708576020936003429101556106c6833360018060a01b0360cd54166128d1565b60018060a01b039054166040518381527f8c0ed3bcdb3eaff28bbaa38909f8a696919d845a2ad5d8038b0002096eb430ac853392a46001609955604051908152f35b63a593c5a960e01b60005260046000fd5b90926020823d602011610748575b816107346020938361245e565b8101031261074557505191846106a1565b80fd5b3d9150610727565b6040513d6000823e3d90fd5b63738a653560e11b60005260045260246000fd5b506340524ba760e01b60005260045260246000fd5b62b25f7360e61b60005260045260246000fd5b63a36c61e760e01b60005260046000fd5b6107cb915060203d6020116107d1575b6107c3818361245e565b810190612480565b826105c4565b503d6107b9565b34610235576020366003190112610235576107f16123f4565b60cc546001600160a01b03161580610875575b610446576001600160a01b0316801561082f5760005260056020526020604060002054604051908152f35b60405163eac0d38960e01b815260206004820152601b60248201527f7573657220666f72206765744c50506f736974696f6e436f756e7400000000006044820152606490fd5b506001600160a01b0381166000908152600560205260409020541515610804565b346102355760003660031901126102355760cd546040516001600160a01b039091168152602090f35b346102355760203660031901126102355760043563ffffffff60e01b81168091036102355760209060ff6067541690600091829160018060a01b0360cb54169081610933575b505015918261092a575b5081610921575b506040519015158152f35b90501582610916565b1591508361090f565b604051631da4712b60e21b81528681600481865afa869181610a32575b50610a2a575b50604051630743c9d960e51b81528681600481865afa600091816109fb575b506109df575b5084610905578591929350602460405180948193634d12488760e01b835260048301525afa600091816109c0575b506109ba57506000905b8480610905565b906109b3565b6109d8919250853d87116107d1576107c3818361245e565b90856109a9565b60ff6003911610156109f2575b8661097b565b600194506109ec565b610a1c919250883d8a11610a23575b610a14818361245e565b8101906124e4565b9088610975565b503d610a0a565b945086610956565b610a4a919250883d8a116107d1576107c3818361245e565b9088610950565b3461023557604036600319011261023557610a6a6123f4565b60cc5460243591906001600160a01b03161580610b75575b610446576001600160a01b03168015610b2f57806000526005602052604060002054821015610b1b5760e091610ac491600052600560205260406000206124a5565b5060ff81549160018101549060028101546003820154906005600484015493015493604051968752602087015260408601526060850152608084015260018060a01b03811660a084015260a01c16151560c0820152f35b5062b25f7360e61b60005260045260246000fd5b60405163eac0d38960e01b815260206004820152601d60248201527f7573657220666f72206765744c505374616b696e67506f736974696f6e0000006044820152606490fd5b506001600160a01b0381166000908152600560205260409020541515610a82565b3461023557606036600319011261023557610baf6123f4565b602435906044359081151582036102355760cc546001600160a01b031680156104465760405163691afd6360e01b8152602081600481855afa90811561075057600091610de6575b50604051632474521560e21b81526004810191909152336024820152602081604481855afa90811561075057600091610dc7575b5015610d595750610c3a61287b565b6001600160a01b0316908115610d4857600082815260076020526040902080549091906001600160a01b031615610d335761c350841180610d2a575b610d19577fbd434c78ba19c343eabc18ec2b5a9e146e11ed088d5b3d4edd844af7e7e024549184610cf457610cc38260026000935b846001820155019060ff801983541691151516179055565b60408051958652602086019190915290151590840152339280606081015b0390a36001609955602060405160018152f35b610cc3826002610d13610d0e610d098a6129d9565b612a19565b612a50565b93610cab565b631ac284e960e01b60005260046000fd5b50831515610c76565b8263738a653560e11b60005260045260246000fd5b63175bb3ad60e01b60005260046000fd5b60206004916040519283809263691afd6360e01b82525afa90811561075057600091610d95575b506323d6951f60e21b60005260045260246000fd5b90506020813d602011610dbf575b81610db06020938361245e565b81010312610235575181610d80565b3d9150610da3565b610de0915060203d6020116107d1576107c3818361245e565b85610c2b565b90506020813d602011610e11575b81610e016020938361245e565b8101031261023557516020610bf7565b3d9150610df4565b3461023557602036600319011261023557600435610e3561287b565b60cc546001600160a01b0316156104465733600052600560205260406000205481101561078557336000526005602052610e738160406000206124a5565b5090600582019081549260ff8460a01c16156107705760048101546000526006602052604060002060028201544210600014611017576002810154945b6001600160a01b0390811660008181526007602052604090208054909392161561075c5750604051632981325360e01b8152929160209184918291610efc9142919087600486016124fd565b038173__$07ddff0bf3943899d84062642a5fb3a74e$__5af491821561075057600092610fe3575b50938282602096610f3c94610f87575b505033612b29565b909260018060a01b039054169060405190848252858201527f18513f0d0524072b2b3cd0ff235d892932b1eda84323ffe2d1adbdc62fc0f67d60403392a46001609955604051908152f35b600342910155610fa2813360018060a01b0360cd54166128d1565b85546040519182526001600160a01b03169033907f8c0ed3bcdb3eaff28bbaa38909f8a696919d845a2ad5d8038b0002096eb430ac908990a4828680610f34565b90916020823d60201161100f575b81610ffe6020938361245e565b810103126107455750519082610f24565b3d9150610ff1565b600094610eb0565b346102355760a03660031901126102355760243560043560643560443560843580151581036102355760cc546001600160a01b031680156104465760405163691afd6360e01b8152602081600481855afa9081156107505760009161118f575b50604051632474521560e21b81526004810191909152336024820152602081604481855afa90811561075057600091611170575b5015610d5957506110c261287b565b600a5484101561115c5790610ce183926110fe7fe9a840875b54a2672a48d4b461406e62df3d199deeaef90c1e102309b2009b97958489612cbf565b85600052600660205261113381600360406000208a8155866001820155876002820155019060ff801983541691151516179055565b604051938493339885926060929594919560808501968552602085015260408401521515910152565b836202915b60e71b60005260045260246000fd5b611189915060203d6020116107d1576107c3818361245e565b876110b3565b90506020813d6020116111ba575b816111aa6020938361245e565b810103126102355751602061107f565b3d915061119d565b34610235576020366003190112610235576111db6123f4565b6000546001600160a01b03163303610224576001600160a01b038116908115611293573b156112575760cb80546001600160a01b03198116831790915560405160209290913391906001600160a01b03167fc83ab5f46bc81f34c08e75efa53e0248d59464579c8503918d05e6ba2d00165a600080a460018152f35b604051630dd2788360e41b815260206004820152601360248201527222b6b2b933b2b731bca1b7b73a3937b63632b960691b6044820152606490fd5b60405163eac0d38960e01b815260206004820152601b60248201527f456d657267656e6379436f6e74726f6c6c6572206164647265737300000000006044820152606490fd5b346102355760003660031901126102355760ce546040516001600160a01b039091168152602090f35b34610235576020366003190112610235576001600160a01b036113236123f4565b166000526009602052602060ff604060002054166040519015158152f35b346102355760603660031901126102355760cc546024359060443590600435906001600160a01b031680156104465760405163691afd6360e01b8152602081600481855afa908115610750576000916114d4575b50604051632474521560e21b81526004810191909152336024820152602081604481855afa908115610750576000916114b5575b5015610d5957506113d861287b565b6113e3828483612cbf565b600a54916114466040516113f681612442565b8381526003602082018781526040830185815260608401916001835288600052600660205260406000209451855551600185015551600284015551151591019060ff801983541691151516179055565b600a5493600019851461149f57600160209501600a55604051928352848301526040820152817f7103ed42732bf91bab4c02b490c7e58203f49d3e8fc30f2d8571352e22ad202960603393a36001609955604051908152f35b634e487b7160e01b600052601160045260246000fd5b6114ce915060203d6020116107d1576107c3818361245e565b856113c9565b90506020813d6020116114ff575b816114ef6020938361245e565b8101031261023557516020611395565b3d91506114e2565b3461023557600036600319011261023557602060ff606754166040519015158152f35b346102355760003660031901126102355760cc546001600160a01b031615610446576004546003546040805160ff90931615158352602083019190915290f35b346102355760c0366003190112610235576115836123f4565b6024356001600160a01b03811690819003610235576044356001600160a01b03811690819003610235576084356001600160a01b03811690606435908290036102355760a4356001600160a01b0381169390849003610235576034549460ff8660081c161595868097611a33575b8015611a1c575b156119c05760ff198116600117603455866119ae575b506034549661165060ff8960081c1661162681612c5f565b61162f81612c5f565b61163881612c5f565b60ff196067541660675561164b81612c5f565b612c5f565b600160995560cd54906001600160a01b03821661195d576001600160a01b0316908115611909576001600160a01b0319161760cd5560ce546001600160a01b0381166118b457811561185c576001600160a01b0319161760ce558015611826576201518082108015611819575b6118085782156117b1578315611754576001600160601b0360a01b60005416176000556002556001600160601b0360a01b60cc54161760cc556001600160601b0360a01b60cb54161760cb556107d060035560ff196004541660045561171f57005b61ff0019166034557f7f26b83ff96e1f2b6a682f133852f6798a09c465da95921460cefb3847402498602060405160018152a1005b60405163eac0d38960e01b815260206004820152602e60248201527f456d657267656e6379436f6e74726f6c6c6572206164647265737320666f722060448201526d131414dd185ada5b99c81a5b9a5d60921b6064820152608490fd5b60405163eac0d38960e01b815260206004820152602860248201527f416363657373436f6e74726f6c206164647265737320666f72204c505374616b6044820152671a5b99c81a5b9a5d60c21b6064820152608490fd5b637616640160e01b60005260046000fd5b506301e1338082116116bd565b60405163eac0d38960e01b815260206004820152600d60248201526c696e697469616c4f776e65725f60981b6044820152606490fd5b60405162461bcd60e51b815260206004820152602a60248201527f4c505374616b696e673a204c69717569646974794d616e616765722063616e6e6044820152696f74206265207a65726f60b01b6064820152608490fd5b60405162461bcd60e51b815260206004820152602760248201527f4c505374616b696e673a204c69717569646974794d616e6167657220616c726560448201526618591e481cd95d60ca1b6064820152608490fd5b60405162461bcd60e51b815260206004820152602660248201527f4c505374616b696e673a2052657761726420746f6b656e2063616e6e6f74206260448201526565207a65726f60d01b6064820152608490fd5b60405162461bcd60e51b815260206004820152602360248201527f4c505374616b696e673a2052657761726420746f6b656e20616c7265616479206044820152621cd95d60ea1b6064820152608490fd5b61ffff1916610101176034558761160e565b60405162461bcd60e51b815260206004820152602e60248201527f496e697469616c697a61626c653a20636f6e747261637420697320616c72656160448201526d191e481a5b9a5d1a585b1a5e995960921b6064820152608490fd5b50303b1580156115f85750600160ff8216146115f8565b50600160ff8216106115f1565b3461023557604036600319011261023557611a596123f4565b60cc5460243591906001600160a01b031680156104465760405163691afd6360e01b8152602081600481855afa90811561075057600091611c37575b50604051632474521560e21b81526004810191909152336024820152602081604481855afa90811561075057600091611c18575b5015610d595750611ad861287b565b6001600160a01b03168015610d48576000818152600760205260409020546001600160a01b0316611c045761c350821180611bfb575b610d195781611be75760005b611b8d604051611b2981612426565b83815260026020820184815260408301906001825286600052600760205260406000209360018060a01b039060018060a01b03905116166001600160601b0360a01b85541617845551600184015551151591019060ff801983541691151516179055565b8160005260096020526040600020600160ff1982541617905560405192835260208301527ff4654c36528f5c2b0d0700e4fc751d77a79f0888734b17bd89e5abd2e17560ce60403393a36001609955602060405160018152f35b611bf6610d0e610d09846129d9565b611b1a565b50811515611b0e565b631701b72960e21b60005260045260246000fd5b611c31915060203d6020116107d1576107c3818361245e565b84611ac9565b90506020813d602011611c62575b81611c526020938361245e565b8101031261023557516020611a95565b3d9150611c45565b3461023557600036600319011261023557602060ff6067541660008060018060a01b0360cb541680611cc8575b508215611cc0575b508115611cb157506040519015158152f35b6003915060ff16101582610916565b915083611c9f565b604051631da4712b60e21b81528581600481855afa60009181611d42575b50611d3a575b508460049160405192838092630743c9d960e51b82525afa60009181611d1b575b5015611c9757915084611c97565b611d33919250863d8811610a2357610a14818361245e565b9086611d0d565b915084611cec565b611d5a919250873d89116107d1576107c3818361245e565b9087611ce6565b3461023557602036600319011261023557600435611d7d61287b565b60cc546001600160a01b0316156104465760ff6004541615611de757336000526005602052604060002054811015610785573360005260056020526005611dc88260406000206124a5565b500160ff815460a01c161561077057602091610f3c6003548233612b29565b63b9037ff160e01b60005260046000fd5b346102355760003660031901126102355760cc546040516001600160a01b039091168152602090f35b3461023557606036600319011261023557611e3a6123f4565b6024359060443590611e4a61287b565b604051630a43443160e21b8152602081600481305afa90811561075057600091612129575b506107985760cc546001600160a01b03161561044657821561211857600a548210156121045733600052600b6020526040600020544311156120f35733600052600b6020524360406000205560018060a01b031690816000526007602052604060002060018060a01b0381541615610d33576002015460ff16156120de57806000526006602052604060002060ff600382015416156120c957611f13905442612498565b3360005260056020526040600020604051611f2d8161240a565b858152602081014281526040820193845260608201428152608083019086825260a084019588875260c0850195600187528054680100000000000000008110156120b357611f80916001820181556124a5565b94909461209d579451845593516001840155925160028301559151600382015590516004820155915160059283018054925160ff60a01b90151560a01b166001600160a01b039092166001600160a81b031990931692909217179055336000908152602091909152604090205460001981019290831161149f5783612009602095600154612498565b60015581600052600885526040600020612024828254612498565b905561205f6040516323b872dd60e01b878201523360248201523060448201528260648201526064815261205960848261245e565b83612d75565b60405190815283858201527f44d9b7120ca2c5d3d8f60dfd95a872eaf21c65682d7c6d6a1b55428ac5dda60060403392a46001609955604051908152f35b634e487b7160e01b600052600060045260246000fd5b634e487b7160e01b600052604160045260246000fd5b50630f0a631b60e01b60005260045260246000fd5b5063738a653560e11b60005260045260246000fd5b636c0653f560e01b60005260046000fd5b506202915b60e71b60005260045260246000fd5b63b719ec6560e01b60005260046000fd5b612142915060203d6020116107d1576107c3818361245e565b84611e6f565b34610235576020366003190112610235576121616123f4565b60cc546001600160a01b03161580612200575b610446576001600160a01b03168015610d4857600081815260076020526040902080549091906001600160a01b03161561075c576001820154806121f157506000905b600052600860205261042f60ff60026040600020549401541660405193849384919260409194936060840195845260208401521515910152565b6121fa90612913565b906121b7565b506001600160a01b03818116600090815260076020526040902054161515612174565b346102355760403660031901126102355761223c6123f4565b60005460243591906001600160a01b031633036102245761225b61287b565b6001600160a01b031680156123ae5760cd546001600160a01b0316811461239d5780600052600960205260ff60406000205416612389578115612378576040516370a0823160e01b8152306004820152602081602481855afa90811561075057600091612346575b5080831161232d57506000546122e49083906001600160a01b0316836128d1565b6000546040519283526001600160a01b0316917f0465ffd37f4b2956080ca2a2c2bdb53dc15497bed2a2ea16ae940b92bd50777890602090a36001609955602060405160018152f35b905063cf47918160e01b60005260045260245260446000fd5b906020823d602011612370575b816123606020938361245e565b81010312610745575051836122c3565b3d9150612353565b6310eb483f60e21b60005260046000fd5b633057529560e21b60005260045260246000fd5b63d6e9e6b360e01b60005260046000fd5b60405163eac0d38960e01b815260206004820152601960248201527f746f6b656e4164647265737320666f72207265636f76657279000000000000006044820152606490fd5b600435906001600160a01b038216820361023557565b60e0810190811067ffffffffffffffff8211176120b357604052565b6060810190811067ffffffffffffffff8211176120b357604052565b6080810190811067ffffffffffffffff8211176120b357604052565b90601f8019910116810190811067ffffffffffffffff8211176120b357604052565b90816020910312610235575180151581036102355790565b9190820180921161149f57565b80548210156124c1576000526006602060002091020190600090565b634e487b7160e01b600052603260045260246000fd5b9190820391821161149f57565b90816020910312610235575160ff811681036102355790565b90949392600360ff918260026101c0968260056101e089019c80548a52600181015460208b01528481015460408b01528781015460608b0152600481015460808b0152015460018060a01b03811660a08a015260a01c16151560c088015260018060a01b0381541660e08801526001810154610100880152015416151561012085015280546101408501526001810154610160850152600281015461018085015201541615156101a08201520152565b60cc546001600160a01b0316158061285a575b610446576001600160a01b0316801561281457806000526005602052604060002054821015610b1b579061260091600052600560205260406000206124a5565b506040519061260e8261240a565b8054825260018101549160208101928352600282015490604081019182526003830154606082019081526004840154916005608082019584875201549160a082019360018060a01b038416855260ff60c084019460a01c1615801585526128075760005260066020526040600020946040519361268a85612442565b865485526001870154956020860196875260ff600360028a015499604089019a8b5201541698606087019915158a5260018060a01b038251166000526007602052604060002094604051946126de86612426565b86546001600160a01b031680875260018801546020880190815260029098015460ff161515604088019081529890156127f457604051632981325360e01b8152905160048201529c5160248e01525160448d01525160648c01525160848b0152516001600160a01b0390811660a48b01529051151560c48a015290511660e4880152516101048701525115156101248601525161014485015251610164840152516101848301525115156101a4820152426101c48201526020816101e48173__$07ddff0bf3943899d84062642a5fb3a74e$__5af4908115610750576000916127c5575090565b90506020813d6020116127ec575b816127e06020938361245e565b81010312610235575190565b3d91506127d3565b5050505050505050505050505050600090565b5050505050505050600090565b60405163eac0d38960e01b815260206004820152601b60248201527f7573657220666f722063616c63756c6174654c505265776172647300000000006044820152606490fd5b506001600160a01b03811660009081526005602052604090205415156125c0565b60026099541461288c576002609955565b60405162461bcd60e51b815260206004820152601f60248201527f5265656e7472616e637947756172643a207265656e7472616e742063616c6c006044820152606490fd5b60405163a9059cbb60e01b60208201526001600160a01b0390921660248301526044808301939093529181526129119161290c60648361245e565b612d75565b565b60001964496cebb800820964496cebb8008202908180821091039080820391146129c95780670de0b6b3a7640000111561298c57670de0b6b3a764000064496cebb8007faccb18165bd6fe31ae1cf318dc5b51eee0e1ba569b88cd74c1773b91fac10669940990828211900360ee1b910360121c170290565b60405162461bcd60e51b81526020600482015260156024820152744d6174683a206d756c446976206f766572666c6f7760581b6044820152606490fd5b50670de0b6b3a764000091500490565b6000196402540be4008209906402540be400810291828082109103818114612a1357036001111561298c576402540be40060019109900390565b50505090565b6000196305f5e1008209906305f5e100810291828082109103818114612a1357036001111561298c576305f5e10060019109900390565b6000196001820990808083109203918083039214612ab4578164496cebb800111561298c577fd18ce2d033892ab6710afe1da5f26d00b43f019695d75c72580c14ab81b64c479164496cebb8006001830990828211900360f51b9103600b1c170290565b64496cebb80091500490565b60001982820982820291828083109203918083039214612b1e5781612710111561298c577fbc01a36e2eb1c432ca57a786c226809d495182a9930be0ded288ce703afb7e9193612710910990828211900360fc1b910360041c170290565b505061271091500490565b6001600160a01b03811660009081526005602052604090209293929091612b4f916124a5565b5092612b5d84549182612ac0565b818110612c49575060008092600583965b01805460ff60a01b1916815560018054859003905580546001600160a01b03166000818152600860205260409020549194918211612bf6575060018060a01b038454166000526008602052612bc960406000209182546124d7565b90555b81612bd9575b5050509190565b9154612bee92906001600160a01b03166128d1565b388181612bd2565b7f4be8a4e17f55a5306aa8971563fc718864d80c88a54914612a564e37ba22f9986040829383600052600860205281600020549082519182526020820152a2600052600860205260006040812055612bcc565b93600592612c5786846124d7565b938492612b6e565b15612c6657565b60405162461bcd60e51b815260206004820152602b60248201527f496e697469616c697a61626c653a20636f6e7472616374206973206e6f74206960448201526a6e697469616c697a696e6760a81b6064820152608490fd5b600254808210612d5d57506301e133808111612d41575060648110612d28576161a88111612d0e57506113888111612cf45750565b63464b62f360e11b60005260045261138860245260446000fd5b63027880f560e51b6000526004526161a860245260446000fd5b63206dbb7b60e21b600052600452606460245260446000fd5b63409fbc2f60e11b6000526004526301e1338060245260446000fd5b90635f9723d960e01b60005260045260245260446000fd5b60018060a01b0316604091600080845192612d90868561245e565b602084527f5361666545524332303a206c6f772d6c6576656c2063616c6c206661696c6564602085015260208151910182865af13d15612e8d573d9067ffffffffffffffff82116120b3578451612e06949092612df7601f8201601f19166020018561245e565b83523d6000602085013e612e96565b8051908115918215612e73575b505015612e1d5750565b5162461bcd60e51b815260206004820152602a60248201527f5361666545524332303a204552433230206f7065726174696f6e20646964206e6044820152691bdd081cdd58d8d9595960b21b6064820152608490fd5b612e869250602080918301019101612480565b3880612e13565b91612e06926060915b91929015612ef85750815115612eaa575090565b3b15612eb35790565b60405162461bcd60e51b815260206004820152601d60248201527f416464726573733a2063616c6c20746f206e6f6e2d636f6e74726163740000006044820152606490fd5b825190915015612f0b5750805190602001fd5b6040519062461bcd60e51b8252602060048301528181519182602483015260005b838110612f4e5750508160006044809484010152601f80199101168101030190fd5b60208282018101516044878401015285935001612f2c56fea2646970667358221220682bb8c7296fae6cdca044b03b71523790c9f5f0382e3c803bfbf340227c23e864736f6c634300081c0033","linkReferences":{"contracts/liquidity/RewardCalculator.sol":{"RewardCalculator":[{"start":1856,"length":20},{"start":4035,"length":20},{"start":10337,"length":20}]}}},"methodIdentifiers":{"accessControl()":"13007d55","addPool(address,uint256)":"32a9caba","addTier(uint256,uint256,uint256)":"6358ec57","calculateLPRewards(address,uint256)":"babc177e","checkEmergencyStatus(bytes4)":"8aed668a","claimLPRewards(uint256)":"9e0ffc09","emergencyController()":"7a936beb","emergencyShutdown(uint8)":"eb1676c1","emergencyWithdrawLP(uint256)":"28a95ee4","getEmergencyController()":"c993cc9d","getLPEmergencyWithdrawalSettings()":"4724f98f","getLPPositionCount(address)":"9bdc8cf5","getLPStakingPosition(address,uint256)":"79d77b42","getLiquidityManagerAddress()":"649f184a","getPoolInfo(address)":"06bfa938","getRewardTokenAddress()":"99e117a0","getTierInfo(uint256)":"cc9d7519","initialize(address,address,address,uint256,address,address)":"32b5a1b3","isEmergencyPaused()":"290d10c4","isLPToken(address)":"6497587a","paused()":"5c975abb","recoverTokens(address,uint256)":"069c9fae","setEmergencyController(address)":"6ca7dc89","setLPEmergencyWithdrawal(bool,uint256)":"c02152f1","stakeLPTokens(address,uint256,uint256)":"0d73eac5","transferOwnership(address)":"f2fde38b","unstakeLPTokens(uint256)":"76301350","updatePool(address,uint256,bool)":"76d2847f","updateTier(uint256,uint256,uint256,uint256,bool)":"6edb9e3c"},"id":20}