{"abi":[{"type":"constructor","inputs":[],"stateMutability":"nonpayable"},{"type":"function","name":"convertToStandardPrecision","inputs":[{"name":"rawPrice","type":"uint256","internalType":"uint256"},{"name":"feedDecimals","type":"uint8","internalType":"uint8"}],"outputs":[{"name":"standardizedPrice","type":"uint256","internalType":"uint256"}],"stateMutability":"pure"},{"type":"function","name":"fetchAndReportTokenPrice","inputs":[{"name":"token","type":"address","internalType":"address"}],"outputs":[{"name":"price","type":"uint256","internalType":"uint256"},{"name":"isFallback","type":"bool","internalType":"bool"},{"name":"lastUpdatedAt","type":"uint256","internalType":"uint256"}],"stateMutability":"nonpayable"},{"type":"function","name":"getLPTokenInfo","inputs":[{"name":"lpToken","type":"address","internalType":"address"}],"outputs":[{"name":"token0Out_","type":"address","internalType":"address"},{"name":"token1Out_","type":"address","internalType":"address"},{"name":"isRegistered_","type":"bool","internalType":"bool"}],"stateMutability":"view"},{"type":"function","name":"getLPTokenValue","inputs":[{"name":"lpToken","type":"address","internalType":"address"},{"name":"amountLP","type":"uint256","internalType":"uint256"},{"name":"totalSupplyLP","type":"uint256","internalType":"uint256"},{"name":"reserve0","type":"uint256","internalType":"uint256"},{"name":"reserve1","type":"uint256","internalType":"uint256"}],"outputs":[{"name":"value","type":"uint256","internalType":"uint256"}],"stateMutability":"view"},{"type":"function","name":"getLPTokenValueAlternative","inputs":[{"name":"amountLP","type":"uint256","internalType":"uint256"},{"name":"totalSupplyLP","type":"uint256","internalType":"uint256"},{"name":"reserve0","type":"uint256","internalType":"uint256"},{"name":"price0_1e18","type":"uint256","internalType":"uint256"},{"name":"decimals0","type":"uint8","internalType":"uint8"},{"name":"reserve1","type":"uint256","internalType":"uint256"},{"name":"price1_1e18","type":"uint256","internalType":"uint256"},{"name":"decimals1","type":"uint8","internalType":"uint8"}],"outputs":[{"name":"value","type":"uint256","internalType":"uint256"}],"stateMutability":"pure"},{"type":"function","name":"getMinAcceptablePrice","inputs":[],"outputs":[{"name":"minPrice","type":"uint256","internalType":"uint256"}],"stateMutability":"view"},{"type":"function","name":"getPriceFeedInfo","inputs":[{"name":"token","type":"address","internalType":"address"}],"outputs":[{"name":"priceFeedAddress_","type":"address","internalType":"address"},{"name":"isFeedAvailable_","type":"bool","internalType":"bool"},{"name":"feedDecimals_","type":"uint8","internalType":"uint8"},{"name":"fallbackPrice_","type":"uint256","internalType":"uint256"},{"name":"fallbackTimestamp_","type":"uint256","internalType":"uint256"}],"stateMutability":"view"},{"type":"function","name":"getStalenessThreshold","inputs":[],"outputs":[{"name":"threshold","type":"uint256","internalType":"uint256"}],"stateMutability":"view"},{"type":"function","name":"getTokenPrice","inputs":[{"name":"token","type":"address","internalType":"address"}],"outputs":[{"name":"price","type":"uint256","internalType":"uint256"},{"name":"isFallback","type":"bool","internalType":"bool"},{"name":"lastUpdatedAt","type":"uint256","internalType":"uint256"}],"stateMutability":"view"},{"type":"function","name":"initialize","inputs":[{"name":"initialOwner_","type":"address","internalType":"address"},{"name":"initialStalenessThreshold_","type":"uint256","internalType":"uint256"}],"outputs":[],"stateMutability":"nonpayable"},{"type":"function","name":"liquidityManagerAddress","inputs":[],"outputs":[{"name":"","type":"address","internalType":"address"}],"stateMutability":"view"},{"type":"function","name":"owner","inputs":[],"outputs":[{"name":"","type":"address","internalType":"address"}],"stateMutability":"view"},{"type":"function","name":"registerLPToken","inputs":[{"name":"lpToken","type":"address","internalType":"address"},{"name":"token0","type":"address","internalType":"address"},{"name":"token1","type":"address","internalType":"address"}],"outputs":[],"stateMutability":"nonpayable"},{"type":"function","name":"renounceOwnership","inputs":[],"outputs":[],"stateMutability":"nonpayable"},{"type":"function","name":"setFallbackPrice","inputs":[{"name":"token","type":"address","internalType":"address"},{"name":"newPrice","type":"uint256","internalType":"uint256"}],"outputs":[],"stateMutability":"nonpayable"},{"type":"function","name":"setLiquidityManagerAddress","inputs":[{"name":"_lmAddress","type":"address","internalType":"address"}],"outputs":[],"stateMutability":"nonpayable"},{"type":"function","name":"setMinAcceptablePrice","inputs":[{"name":"newMinPrice","type":"uint256","internalType":"uint256"}],"outputs":[],"stateMutability":"nonpayable"},{"type":"function","name":"setPriceFeed","inputs":[{"name":"token","type":"address","internalType":"address"},{"name":"priceFeedAggregator","type":"address","internalType":"address"}],"outputs":[],"stateMutability":"nonpayable"},{"type":"function","name":"setStalenessThreshold","inputs":[{"name":"newThreshold","type":"uint256","internalType":"uint256"}],"outputs":[],"stateMutability":"nonpayable"},{"type":"function","name":"transferOwnership","inputs":[{"name":"newOwner","type":"address","internalType":"address"}],"outputs":[],"stateMutability":"nonpayable"},{"type":"function","name":"validatePriceAgainstOracle","inputs":[{"name":"token","type":"address","internalType":"address"},{"name":"priceToValidate","type":"uint256","internalType":"uint256"},{"name":"maxDeviationBps","type":"uint256","internalType":"uint256"}],"outputs":[{"name":"isValid","type":"bool","internalType":"bool"}],"stateMutability":"view"},{"type":"event","name":"FallbackPriceUpdated","inputs":[{"name":"token","type":"address","indexed":true,"internalType":"address"},{"name":"oldPrice","type":"uint256","indexed":false,"internalType":"uint256"},{"name":"newPrice","type":"uint256","indexed":false,"internalType":"uint256"},{"name":"newTimestamp","type":"uint256","indexed":false,"internalType":"uint256"},{"name":"updater","type":"address","indexed":true,"internalType":"address"}],"anonymous":false},{"type":"event","name":"FallbackPriceUsed","inputs":[{"name":"token","type":"address","indexed":true,"internalType":"address"},{"name":"price","type":"uint256","indexed":false,"internalType":"uint256"},{"name":"fallbackTimestamp","type":"uint256","indexed":false,"internalType":"uint256"},{"name":"reason","type":"string","indexed":false,"internalType":"string"}],"anonymous":false},{"type":"event","name":"Initialized","inputs":[{"name":"version","type":"uint8","indexed":false,"internalType":"uint8"}],"anonymous":false},{"type":"event","name":"LPTokenRegistered","inputs":[{"name":"lpToken","type":"address","indexed":true,"internalType":"address"},{"name":"token0","type":"address","indexed":true,"internalType":"address"},{"name":"token1","type":"address","indexed":false,"internalType":"address"},{"name":"registrar","type":"address","indexed":false,"internalType":"address"}],"anonymous":false},{"type":"event","name":"LiquidityManagerAddressSet","inputs":[{"name":"oldLiquidityManager","type":"address","indexed":true,"internalType":"address"},{"name":"newLiquidityManager","type":"address","indexed":true,"internalType":"address"},{"name":"setter","type":"address","indexed":true,"internalType":"address"}],"anonymous":false},{"type":"event","name":"MinAcceptablePriceUpdated","inputs":[{"name":"oldPrice","type":"uint256","indexed":false,"internalType":"uint256"},{"name":"newPrice","type":"uint256","indexed":false,"internalType":"uint256"},{"name":"updater","type":"address","indexed":true,"internalType":"address"}],"anonymous":false},{"type":"event","name":"OracleDataFetched","inputs":[{"name":"token","type":"address","indexed":true,"internalType":"address"},{"name":"roundId","type":"uint80","indexed":false,"internalType":"uint80"},{"name":"answer","type":"int256","indexed":false,"internalType":"int256"},{"name":"updatedAt","type":"uint256","indexed":false,"internalType":"uint256"}],"anonymous":false},{"type":"event","name":"OracleFetchFailedNoViableFallback","inputs":[{"name":"token","type":"address","indexed":true,"internalType":"address"},{"name":"reason","type":"string","indexed":false,"internalType":"string"}],"anonymous":false},{"type":"event","name":"OraclePriceStaleNoViableFallback","inputs":[{"name":"token","type":"address","indexed":true,"internalType":"address"},{"name":"oracleTimestamp","type":"uint256","indexed":false,"internalType":"uint256"},{"name":"stalenessThreshold","type":"uint256","indexed":false,"internalType":"uint256"}],"anonymous":false},{"type":"event","name":"OwnershipTransferred","inputs":[{"name":"previousOwner","type":"address","indexed":true,"internalType":"address"},{"name":"newOwner","type":"address","indexed":true,"internalType":"address"}],"anonymous":false},{"type":"event","name":"PriceFeedUpdated","inputs":[{"name":"token","type":"address","indexed":true,"internalType":"address"},{"name":"newFeed","type":"address","indexed":true,"internalType":"address"},{"name":"feedDecimals","type":"uint8","indexed":false,"internalType":"uint8"},{"name":"updater","type":"address","indexed":true,"internalType":"address"}],"anonymous":false},{"type":"event","name":"PrimaryFeedChangedWithFallbackRetained","inputs":[{"name":"token","type":"address","indexed":true,"internalType":"address"},{"name":"newFeed","type":"address","indexed":true,"internalType":"address"},{"name":"fallbackPrice","type":"uint256","indexed":false,"internalType":"uint256"},{"name":"fallbackTimestamp","type":"uint256","indexed":false,"internalType":"uint256"}],"anonymous":false},{"type":"event","name":"PrimaryFeedRemovedWithFallbackRetained","inputs":[{"name":"token","type":"address","indexed":true,"internalType":"address"},{"name":"fallbackPrice","type":"uint256","indexed":false,"internalType":"uint256"},{"name":"fallbackTimestamp","type":"uint256","indexed":false,"internalType":"uint256"}],"anonymous":false},{"type":"event","name":"StalenessThresholdUpdated","inputs":[{"name":"oldThreshold","type":"uint256","indexed":false,"internalType":"uint256"},{"name":"newThreshold","type":"uint256","indexed":false,"internalType":"uint256"},{"name":"updater","type":"address","indexed":true,"internalType":"address"}],"anonymous":false},{"type":"error","name":"InvalidAmount","inputs":[]},{"type":"error","name":"InvalidDuration","inputs":[]},{"type":"error","name":"NotAContract","inputs":[{"name":"context","type":"string","internalType":"string"}]},{"type":"error","name":"OI_FailedToGetTokenPrices","inputs":[]},{"type":"error","name":"OI_GetDecimalsFailed","inputs":[]},{"type":"error","name":"OI_IncompleteRoundData","inputs":[]},{"type":"error","name":"OI_InvalidDeviationBPS","inputs":[]},{"type":"error","name":"OI_InvalidPriceFeed","inputs":[]},{"type":"error","name":"OI_LPNotRegistered","inputs":[]},{"type":"error","name":"OI_MinAcceptablePriceZero","inputs":[]},{"type":"error","name":"OI_MinPriceNotMet","inputs":[{"name":"price","type":"uint256","internalType":"uint256"},{"name":"min","type":"uint256","internalType":"uint256"}]},{"type":"error","name":"OI_NegativeOrZeroPrice","inputs":[]},{"type":"error","name":"OI_NoPriceSource","inputs":[]},{"type":"error","name":"OI_PriceTooOld","inputs":[]},{"type":"error","name":"OI_StalenessThresholdZero","inputs":[]},{"type":"error","name":"OI_TotalSupplyZero","inputs":[]},{"type":"error","name":"ZeroAddress","inputs":[{"name":"context","type":"string","internalType":"string"}]}],"bytecode":{"object":"0x6080806040523460bd576000549060ff8260081c16606b575060ff808216036031575b60405161255290816100c38239f35b60ff90811916176000557f7f26b83ff96e1f2b6a682f133852f6798a09c465da95921460cefb3847402498602060405160ff8152a1386022565b62461bcd60e51b815260206004820152602760248201527f496e697469616c697a61626c653a20636f6e747261637420697320696e697469604482015266616c697a696e6760c81b6064820152608490fd5b600080fdfe6080604052600436101561001257600080fd5b60003560e01c8063037cac7a14610c965780630842bc6314610c785780631e59232714610c2b57806328b9a50314610bb05780633029c35c14610ac1578063440bbcd014610a095780635b3297f1146109e0578063715018a61461098357806376e11286146109425780637ad503c314610916578063840a2e1e146107075780638da5cb5b146106de578063a5dbceb214610612578063a6c94a73146105f4578063b39fafe5146105bf578063cd6dc68714610407578063d02641a0146103c2578063d9113d711461028c578063f2fde38b146101fd578063fa678394146101c25763fb01e7f21461010357600080fd5b346101bd5760203660031901126101bd5760043561011f61218d565b610127611baa565b8015806101b1575b6101a05760001981141580610194575b61018357609a549080609a5560405191825260208201527fedeb6e6d8dbf1a7ea228a2217ce949ad2dc9e6283e001b64a8f4f2a84d2a95db60403392a26001606555005b637616640160e01b60005260046000fd5b5062093a80811161013f565b6316d9dd1960e11b60005260046000fd5b5060001981141561012f565b600080fd5b346101bd5760a03660031901126101bd5760206101f56101e0610fc2565b60843590606435906044359060243590611a75565b604051908152f35b346101bd5760203660031901126101bd57610216610fc2565b61021e61218d565b6001600160a01b0381161561023857610236906121e5565b005b60405162461bcd60e51b815260206004820152602660248201527f4f776e61626c653a206e6577206f776e657220697320746865207a65726f206160448201526564647265737360d01b6064820152608490fd5b346101bd5760403660031901126101bd576102a5610fc2565b602435906102b161218d565b6102b9611baa565b6001600160a01b0316801561037c57811591821580610371575b610356576000828152609b6020526040902080549082905592156103505760005b82600052609c60205260406000205581600052609c60205260406000205490604051938452602084015260408301527fad67eb20f935a6176cf2e0fbe1a00bc9d8cdf40b4a0235b5255fd82d80a8f7eb60603393a36001606555005b426102f4565b609d5490633dc795d160e01b60005260045260245260446000fd5b50609d5481106102d3565b60405163eac0d38960e01b815260206004820152601860248201527f746f6b656e20666f722066616c6c6261636b20707269636500000000000000006044820152606490fd5b346101bd5760203660031901126101bd576104036103e66103e1610fc2565b611990565b604080519384529115156020840152908201529081906060820190565b0390f35b346101bd5760403660031901126101bd57610420610fc2565b6024356000549160ff8360081c1615928380946105b2575b801561059b575b1561053f5760ff1981166001176000558361052d575b5061047060ff60005460081c1661046b81612247565b612247565b610479336121e5565b61048e60ff60005460081c1661046b81612247565b60016065556001600160a01b038116156104f75781156101a0576104b991609a556001609d556121e5565b6104bf57005b61ff0019600054166000557f7f26b83ff96e1f2b6a682f133852f6798a09c465da95921460cefb3847402498602060405160018152a1005b60405163eac0d38960e01b815260206004820152600d60248201526c696e697469616c4f776e65725f60981b6044820152606490fd5b61ffff19166101011760005583610455565b60405162461bcd60e51b815260206004820152602e60248201527f496e697469616c697a61626c653a20636f6e747261637420697320616c72656160448201526d191e481a5b9a5d1a585b1a5e995960921b6064820152608490fd5b50303b15801561043f5750600160ff82161461043f565b50600160ff821610610438565b346101bd5760603660031901126101bd5760206105ea6105dd610fc2565b604435906024359061183d565b6040519015158152f35b346101bd5760003660031901126101bd576020609a54604051908152f35b346101bd5760203660031901126101bd5761062b610fc2565b61063361218d565b6001600160a01b038116908161068c575b50609e80546001600160a01b0319811683179091553391906001600160a01b03167f0caf1a2a59b5234fdd1dce79ceb1bd2276c98ab385172ea4948cead11d3788db600080a4005b3b156106985781610644565b604051630dd2788360e41b815260206004820152601860248201527f4c69717569646974794d616e61676572206164647265737300000000000000006044820152606490fd5b346101bd5760003660031901126101bd576033546040516001600160a01b039091168152602090f35b346101bd5760603660031901126101bd57610720610fc2565b610728610fd8565b6044356001600160a01b03811692908390036101bd57609e546001600160a01b0316801515908161090c575b5080156108f8575b156108b357610769611baa565b6001600160a01b031690811561087b576001600160a01b031691821561084457801561080d578083146107fc5760008281526099602090815260409182902080546001600160a01b0319908116871782556001909101805490911684179055815192835233908301527faf945bf45a189b263d611690b46cd9a5f20fe006d935ba9cf32dda2869db5c0991a36001606555005b63162908e360e11b60005260046000fd5b60405163eac0d38960e01b815260206004820152600e60248201526d746f6b656e31206164647265737360901b6044820152606490fd5b60405163eac0d38960e01b815260206004820152600e60248201526d746f6b656e30206164647265737360901b6044820152606490fd5b60405163eac0d38960e01b815260206004820152600f60248201526e6c70546f6b656e206164647265737360881b6044820152606490fd5b60405162461bcd60e51b815260206004820152601a60248201527f4f493a2043616c6c6572206e6f74204c4d206f72204f776e65720000000000006044820152606490fd5b506033546001600160a01b0316331461075c565b9050331484610754565b346101bd5760403660031901126101bd5760243560ff811681036101bd576101f56020916004356117df565b346101bd5760403660031901126101bd5761097c61095e610fc2565b610966610fd8565b9061096f61218d565b610977611baa565b61129c565b6001606555005b346101bd5760003660031901126101bd5761099c61218d565b603380546001600160a01b031981169091556000906001600160a01b03167f8be0079c531659141344cd1fd0a4f28419497f9722a3daafe3b4186f6b6457e08280a3005b346101bd5760003660031901126101bd57609e546040516001600160a01b039091168152602090f35b346101bd5760203660031901126101bd576001600160a01b03610a2a610fc2565b168015610a7b5780606091600052609960205260018060a01b036040600020541690600052609960205260018060a01b03600160406000200154169060405191818352602083015215156040820152f35b60405163eac0d38960e01b815260206004820152601a60248201527f6c70546f6b656e20666f72206765744c50546f6b656e496e666f0000000000006044820152606490fd5b346101bd5760203660031901126101bd576001600160a01b03610ae2610fc2565b168015610b6a5760008181526097602052604090205460a0916001600160a01b0390911690811580159190610b615780600052609860205260ff80604060002054165b82600052609b60205260406000205492600052609c60205260406000205493604051958652602086015216604084015260608301526080820152f35b60ff6000610b25565b60405163eac0d38960e01b815260206004820152601a60248201527f746f6b656e20666f7220676574507269636546656564496e666f0000000000006044820152606490fd5b346101bd5760203660031901126101bd57600435610bcc61218d565b610bd4611baa565b8015610c1a57609d549080609d5560405191825260208201527fcf9f7c92ed94e14575ea570ab65e0a596649e30b950fff8db73a92efa84d9b0160403392a26001606555005b638b59a4b760e01b60005260046000fd5b346101bd576101003660031901126101bd5760843560ff811681036101bd5760e4359060ff821682036101bd576020916101f59160c4359060a43590606435604435602435600435611164565b346101bd5760003660031901126101bd576020609d54604051908152f35b346101bd5760203660031901126101bd57610caf610fc2565b610cb7611baa565b600090819081906001600160a01b038116908115610f7157610cd890611ce6565b602090604051610ce88382611020565b86815260808201518794919015610f6857609a546000198114159081610f5b575b81610f45575b50610f3657610d2e8351838a526098865260ff60408b205416906117df565b609d54811015610f24575050604051610d48606082611020565b602b81527f4f7261636c652070726963652062656c6f77206d696e696d756d206163636570848201526a7461626c6520707269636560a81b6040820152935b15610dac575b6001606555604080518781528815156020820152908101869052606090f35b9295509250925080600052609b83526040600020549281600052609c81526040600020549284151580610f18575b15610e375750907fc6bf794b43444f728eda5dbdd000ffa2b0e0ff1195237820ebb59c756c808c6d610403939285610e2b6001988660405194859485528401526060604084015260608301906110d2565b0390a290848080610d8d565b855182870120610e456110a0565b8051908401208103610e995750810151609a5460408051928352928201527f3f83be78965c0ed039930e79369a89c6b57ff05dd93ab909d394b40be30346c29190a25b631195feaf60e11b60005260046000fd5b9050610ea3611042565b82815191012014610eb6575b5050610e88565b60806000805160206124fd83398151915291602d604051918083528201527f4f7261636c652064617461206665746368206661696c656420286e6f2076696160408201526c626c652066616c6c6261636b2960981b6060820152a28080610eaf565b50609d54851015610dda565b84840151909750955093506001610d87565b50610f3f6110a0565b93610d87565b9050610f54858501514261107d565b1189610d0f565b8486015142119150610d09565b50610f3f611042565b60405163eac0d38960e01b815260206004820152602260248201527f746f6b656e20666f72206665746368416e645265706f7274546f6b656e507269604482015261636560f01b6064820152608490fd5b600435906001600160a01b03821682036101bd57565b602435906001600160a01b03821682036101bd57565b60a0810190811067ffffffffffffffff82111761100a57604052565b634e487b7160e01b600052604160045260246000fd5b90601f8019910116810190811067ffffffffffffffff82111761100a57604052565b60405190611051604083611020565b601882527f4f7261636c652064617461206665746368206661696c656400000000000000006020830152565b9190820391821161108a57565b634e487b7160e01b600052601160045260246000fd5b604051906110af604083611020565b60148252734f7261636c652064617461206973207374616c6560601b6020830152565b919082519283825260005b8481106110fe575050826000602080949584010152601f8019910116010190565b806020809284010151828286010152016110dd565b8181029291811591840414171561108a57565b60ff16604d811161108a57600a0a90565b8115611141570490565b634e487b7160e01b600052601260045260246000fd5b9190820180921161108a57565b94919690959296851561128f57861561127e578715948580611275575b8015611263575b6112525760ff81168015908115611247575b506107fc5760ff8316801590811561123c575b506107fc576112119861120c968315159081611233575b5015611228576111da6111e0916111e694611113565b91611126565b90611137565b925b8215158061121f575b15611214576111da6111e09161120694611113565b90611157565b612105565b90565b505050600090611157565b508015156111f1565b5050506000926111e8565b905015386111c4565b601e915011386111ad565b601e9150113861119a565b6373098cc360e01b60005260046000fd5b50841580156111885750831515611188565b50811515611181565b63e04f1bb760e01b60005260046000fd5b5050505050505050600090565b6001600160a01b03168015611794576000818152609760205260409020546001600160a01b0390811692169081156116cd57604051926112db84610fee565b600084526020840160008152604085016000815260608601906000825260006080880152600096604051633fabe5a360e21b815260a0816004818b5afa898a808382958395611691575b506113395763506564cf60e11b8d5260048dfd5b916001600160501b0393929184928e9a9b9c9d9e508a811360001461168a575b87528a5216855216845260405163313ce56760e01b815290946020826004818d5afa909181611669575b506113995763a2d73cff60e01b60005260046000fd5b60ff16801590811561165e575b5061156757511561164e57516001600160501b0316801591821561163b575b8215611627575b505061160d5781511590811561161e575b5061160d57609a546000198114801580611604575b156115ed57508060011b908082046002149015171561108a57610e1081106115e4575b60001981141591826115d9575b826115c4575b50506115b35760405163313ce56760e01b8152602081600481875afa60009181611582575b506114635763a2d73cff60e01b60005260046000fd5b60ff1680158015611578575b611567578260005260976020526040600020846bffffffffffffffffffffffff60a01b82541617905582600052609860205260406000208160ff1982541617905560405190815283837f316d9f94afbf4ab92f11b6287d9ffde000f24faef34eb77f9c7b46f2f3162c5460203394a482811515918261155c575b505080611545575b6114f9575050565b80600052609b6020527f2078096b646d72ca03588169842e92c17c524c428caad98ce44cf1a69121bc7d6040806000205483600052609c602052816000205482519182526020820152a3565b5080600052609b60205260406000205415156114f1565b1415905082386114e9565b63a2d73cff60e01b60005260046000fd5b50601e811161146f565b6115a591925060203d6020116115ac575b61159d8183611020565b81019061222e565b903861144d565b503d611593565b633f9154bd60e11b60005260046000fd5b6115d1919250514261107d565b113880611428565b805142119250611422565b50610e10611415565b1590506115fc57600019611415565b615460611415565b508115156113f2565b63ad012d5760e01b60005260046000fd5b905015386113dd565b516001600160501b031611905038806113cc565b80516001600160501b03161592506113c5565b6248261560e31b60005260046000fd5b601e915011386113a6565b61168391925060203d6020116115ac5761159d8183611020565b9038611383565b5089611359565b9350945050506116b9915060a03d60a0116116c6575b6116b18183611020565b810190611c3f565b9194919392909138611325565b503d6116a7565b9190506116d75750565b600081815260976020908152604080832080546001600160a01b031916905560988252808320805460ff191690555182815233929184917f316d9f94afbf4ab92f11b6287d9ffde000f24faef34eb77f9c7b46f2f3162c549190a480600052609b6020526040600020546117485750565b80600052609b6020527fc709fe90de611a927d7e12574145214c71b2334dccd0f94247a5fabb26979c076040806000205483600052609c602052816000205482519182526020820152a2565b60405163eac0d38960e01b81526020600482015260146024820152731d1bdad95b88199bdc881c1c9a58d9481999595960621b6044820152606490fd5b604d811161108a57600a0a90565b9060ff16601281036117ef575090565b601281101561181c5780156107fc57601203906012821161108a57611816611211926117d1565b90612011565b90601e82116107fc57601119820191821161108a576111e0611211926117d1565b9091906001600160a01b0381161561193e57821561164e57612710821161192d5761186790611990565b5092909182156118d85780936118eb575b50821580806118e1575b6118d857806118cf575b6118b757818082106118bf576118a19161107d565b905b81156118b7576118b291612078565b111590565b505050600190565b906118c99161107d565b906118a3565b5081811461188c565b50505050600090565b5082821415611882565b80935060011c9283159081611923575b81611916575b5061190d575b38611878565b60019250611907565b6001915016151538611901565b80151591506118fb565b63013b9ec960e21b60005260046000fd5b60405163eac0d38960e01b8152602060048201526024808201527f746f6b656e20666f722076616c69646174655072696365416761696e73744f7260448201526361636c6560e01b6064820152608490fd5b6001600160a01b03811691908215611a2f576119ab906122a7565b60808101516119f5575b5081600052609b60205260406000205491600052609c60205260406000205491801515806119e9575b15610e885791600191565b50609d548110156119de565b611a12815184600052609860205260ff60406000205416906117df565b90609d54821015611a2357506119b5565b60200151909250600091565b60405163eac0d38960e01b815260206004820152601760248201527f746f6b656e20666f7220676574546f6b656e50726963650000000000000000006044820152606490fd5b919290916001600160a01b0316908115611b64578215611b5a57831561127e5760009182526099602052604090912080546001909101546001600160a01b0390811695911691908215611b4957611acb83611990565b505095611ad781611990565b50509280151591828093611b41575b8015611b2f575b6112525761121198611b0a611b0461120c98612436565b92612436565b9380611b26575b15611228576111da6111e0916111e694611113565b50801515611b11565b508315158015611aed57508415611aed565b508815611ae6565b635432f4b360e11b60005260046000fd5b5050505050600090565b60405163eac0d38960e01b815260206004820152601b60248201527f6c70546f6b656e20666f72206765744c50546f6b656e56616c756500000000006044820152606490fd5b600260655414611bbb576002606555565b60405162461bcd60e51b815260206004820152601f60248201527f5265656e7472616e637947756172643a207265656e7472616e742063616c6c006044820152606490fd5b60405190611c0d82610fee565b60006080838281528260208201528260408201528260608201520152565b51906001600160501b03821682036101bd57565b908160a09103126101bd57611c5381611c2b565b91602082015191604081015191611211608060608401519301611c2b565b600060443d10611211576040513d600319016004823e8051913d602484011167ffffffffffffffff841117611ce0578282019283519167ffffffffffffffff8311611cd8573d84016003190185840160200111611cd8575061121192910160200190611020565b949350505050565b92915050565b611cee611c00565b50604051611cfb81610fee565b6000815260006020820152600060408201526000606082015260006080820152809160018060a01b03169081600052609760205260018060a01b036040600020541690811561200a575060a060049160405192838092633fabe5a360e21b82525afa6000809282600091600094611fde575b50611f0f57505050506001600060033d11611efd575b6308c379a014611eb4575b611d96575090565b3d15611ead573d67ffffffffffffffff811161100a5760405190611dc4601f8201601f191660200183611020565b81523d6000602083013e5b604051611ddd606082611020565b602681527f4f7261636c652063616c6c206661696c65642077697468206c6f772d6c6576656020820152656c206461746160d01b6040820152905115611e4b575b611e456000805160206124fd833981519152916040519182916020835260208301906110d2565b0390a290565b506000805160206124fd833981519152611e45604051611e6c606082611020565b602681527f4f7261636c652063616c6c206661696c65642077697468206e6f2072657475726020820152656e206461746160d01b6040820152915050611e1e565b6060611dcf565b611ebc611c71565b80611ec8575b50611d8e565b9050816000805160206124fd833981519152611ef46000936040519182916020835260208301906110d2565b0390a238611ec2565b5060046000803e60005160e01c611d83565b909192937f310cb31a0ef375dbdcc6a827500ed5d865406674a47cc2bbcac168ec207ed94f60606001600160501b03604051951694858152876020820152846040820152a26000841380611fd5575b80611fcc575b80611fba575b80611fa7575b611f7c575b5050505090565b6001600160501b03938552602085015260408401521660608201526001608082015238808080611f75565b506001600160501b038316821015611f70565b506001600160501b0383161515611f6a565b50811515611f64565b50801515611f5e565b9250935050611ffc915060a03d60a0116116c6576116b18183611020565b915093929193909238611d6d565b9250505090565b6000198282099180820292838082109103818114611f7557036001111561203b5760019109900390565b60405162461bcd60e51b81526020600482015260156024820152744d6174683a206d756c446976206f766572666c6f7760581b6044820152606490fd5b6000196127108209916127108202918280851094039380850394146120f9578382111561203b5761271082910960018219018216809204600281600302188082026002030280820260020302808202600203028082026002030280820260020302809102600203029360018380600003040190848311900302920304170290565b50906112119250611137565b916000198284099282810292838086109503948086039514612180578483111561203b5782910960018219018216809204600281600302188082026002030280820260020302808202600203028082026002030280820260020302809102600203029360018380600003040190848311900302920304170290565b5050906112119250611137565b6033546001600160a01b031633036121a157565b606460405162461bcd60e51b815260206004820152602060248201527f4f776e61626c653a2063616c6c6572206973206e6f7420746865206f776e65726044820152fd5b603380546001600160a01b039283166001600160a01b0319821681179092559091167f8be0079c531659141344cd1fd0a4f28419497f9722a3daafe3b4186f6b6457e0600080a3565b908160209103126101bd575160ff811681036101bd5790565b1561224e57565b60405162461bcd60e51b815260206004820152602b60248201527f496e697469616c697a61626c653a20636f6e7472616374206973206e6f74206960448201526a6e697469616c697a696e6760a81b6064820152608490fd5b6122af611c00565b506040516122bc81610fee565b6000815260006020820152600060408201526000606082015260006080820152809160018060a01b0316600052609760205260018060a01b0360406000205416908115612430575060a060049160405192838092633fabe5a360e21b82525afa6000808281948294612406575b50612335575050505090565b600082138015906123fe575b80156123ed575b80156123dc575b80156123c1575b611f7557609a5460001981141590816123b6575b816123a3575b50611f75576001600160501b03938492865260208601521660408401521660608201526001608082015238808080611f75565b90506123af854261107d565b1138612370565b90508442119061236a565b506001600160501b0383166001600160501b03821610612356565b506001600160501b0383161561234f565b506001600160501b03811615612348565b508315612341565b9250935050612424915060a03d60a0116116c6576116b18183611020565b90949093915038612329565b91505090565b6001600160a01b039081166000818152609760205260409020549091166124d1575b60206004916040519283809263313ce56760e01b82525afa600091816124b0575b5061248f5763a2d73cff60e01b60005260046000fd5b60ff811680159081156124a5575b506115675790565b601e9150113861249d565b6124ca91925060203d6020116115ac5761159d8183611020565b9038612479565b80600052609860205260ff604060002054161561245857600052609860205260ff604060002054169056fe96e7e4c4b63535b31cfd369920a909a8cb64d86f5f2d7e17db4a2293d3b9f833a26469706673582212203d633d2ee713ebe2f2c22a3c27c492f2d3e9e5183dfe29421914f185a45a845064736f6c634300081c0033","linkReferences":{}},"methodIdentifiers":{"convertToStandardPrecision(uint256,uint8)":"7ad503c3","fetchAndReportTokenPrice(address)":"037cac7a","getLPTokenInfo(address)":"440bbcd0","getLPTokenValue(address,uint256,uint256,uint256,uint256)":"fa678394","getLPTokenValueAlternative(uint256,uint256,uint256,uint256,uint8,uint256,uint256,uint8)":"1e592327","getMinAcceptablePrice()":"0842bc63","getPriceFeedInfo(address)":"3029c35c","getStalenessThreshold()":"a6c94a73","getTokenPrice(address)":"d02641a0","initialize(address,uint256)":"cd6dc687","liquidityManagerAddress()":"5b3297f1","owner()":"8da5cb5b","registerLPToken(address,address,address)":"840a2e1e","renounceOwnership()":"715018a6","setFallbackPrice(address,uint256)":"d9113d71","setLiquidityManagerAddress(address)":"a5dbceb2","setMinAcceptablePrice(uint256)":"28b9a503","setPriceFeed(address,address)":"76e11286","setStalenessThreshold(uint256)":"fb01e7f2","transferOwnership(address)":"f2fde38b","validatePriceAgainstOracle(address,uint256,uint256)":"b39fafe5"},"id":45}