{"abi":[{"type":"constructor","inputs":[],"stateMutability":"nonpayable"},{"type":"function","name":"accessControl","inputs":[],"outputs":[{"name":"","type":"address","internalType":"contract AccessControl"}],"stateMutability":"view"},{"type":"function","name":"addMinter","inputs":[{"name":"minterAddress","type":"address","internalType":"address"}],"outputs":[{"name":"","type":"bool","internalType":"bool"}],"stateMutability":"nonpayable"},{"type":"function","name":"allowance","inputs":[{"name":"ownerAddress","type":"address","internalType":"address"},{"name":"spenderAddress","type":"address","internalType":"address"}],"outputs":[{"name":"","type":"uint256","internalType":"uint256"}],"stateMutability":"view"},{"type":"function","name":"approve","inputs":[{"name":"spender","type":"address","internalType":"address"},{"name":"amount","type":"uint256","internalType":"uint256"}],"outputs":[{"name":"","type":"bool","internalType":"bool"}],"stateMutability":"nonpayable"},{"type":"function","name":"balanceOf","inputs":[{"name":"account","type":"address","internalType":"address"}],"outputs":[{"name":"","type":"uint256","internalType":"uint256"}],"stateMutability":"view"},{"type":"function","name":"blacklist","inputs":[{"name":"account","type":"address","internalType":"address"}],"outputs":[{"name":"","type":"bool","internalType":"bool"}],"stateMutability":"nonpayable"},{"type":"function","name":"burn","inputs":[{"name":"amount","type":"uint256","internalType":"uint256"}],"outputs":[{"name":"","type":"bool","internalType":"bool"}],"stateMutability":"nonpayable"},{"type":"function","name":"burnFrom","inputs":[{"name":"account","type":"address","internalType":"address"},{"name":"amount","type":"uint256","internalType":"uint256"}],"outputs":[{"name":"","type":"bool","internalType":"bool"}],"stateMutability":"nonpayable"},{"type":"function","name":"cancelBlacklistProposal","inputs":[{"name":"account","type":"address","internalType":"address"}],"outputs":[{"name":"successFlag","type":"bool","internalType":"bool"}],"stateMutability":"nonpayable"},{"type":"function","name":"cap","inputs":[],"outputs":[{"name":"currentCap","type":"uint256","internalType":"uint256"}],"stateMutability":"view"},{"type":"function","name":"checkEmergencyStatus","inputs":[{"name":"","type":"bytes4","internalType":"bytes4"}],"outputs":[{"name":"allowed","type":"bool","internalType":"bool"}],"stateMutability":"view"},{"type":"function","name":"decimals","inputs":[],"outputs":[{"name":"","type":"uint8","internalType":"uint8"}],"stateMutability":"view"},{"type":"function","name":"emergencyController","inputs":[],"outputs":[{"name":"","type":"address","internalType":"contract EmergencyController"}],"stateMutability":"view"},{"type":"function","name":"emergencyShutdown","inputs":[{"name":"emergencyLevelInput","type":"uint8","internalType":"uint8"}],"outputs":[{"name":"successFlag","type":"bool","internalType":"bool"}],"stateMutability":"nonpayable"},{"type":"function","name":"executeBlacklist","inputs":[{"name":"account","type":"address","internalType":"address"}],"outputs":[{"name":"successFlag","type":"bool","internalType":"bool"}],"stateMutability":"nonpayable"},{"type":"function","name":"getBlacklistProposal","inputs":[{"name":"account","type":"address","internalType":"address"}],"outputs":[{"name":"proposalExists","type":"bool","internalType":"bool"},{"name":"executeAfterTimestamp","type":"uint256","internalType":"uint256"},{"name":"timeRemainingSec","type":"uint256","internalType":"uint256"}],"stateMutability":"view"},{"type":"function","name":"getBlacklistTimelockDuration","inputs":[],"outputs":[{"name":"durationSeconds","type":"uint256","internalType":"uint256"}],"stateMutability":"view"},{"type":"function","name":"getEmergencyController","inputs":[],"outputs":[{"name":"controllerAddress","type":"address","internalType":"address"}],"stateMutability":"view"},{"type":"function","name":"initialize","inputs":[{"name":"name_","type":"string","internalType":"string"},{"name":"symbol_","type":"string","internalType":"string"},{"name":"decimals_","type":"uint8","internalType":"uint8"},{"name":"initialSupply_","type":"uint256","internalType":"uint256"},{"name":"cap_","type":"uint256","internalType":"uint256"},{"name":"accessControlAddress_","type":"address","internalType":"address"},{"name":"emergencyControllerAddress_","type":"address","internalType":"address"},{"name":"admin_","type":"address","internalType":"address"}],"outputs":[],"stateMutability":"nonpayable"},{"type":"function","name":"isBlacklisted","inputs":[{"name":"account","type":"address","internalType":"address"}],"outputs":[{"name":"isAccBlacklisted","type":"bool","internalType":"bool"}],"stateMutability":"view"},{"type":"function","name":"isEmergencyPaused","inputs":[],"outputs":[{"name":"isPausedStatus","type":"bool","internalType":"bool"}],"stateMutability":"view"},{"type":"function","name":"isMinter","inputs":[{"name":"account","type":"address","internalType":"address"}],"outputs":[{"name":"isAccMinter","type":"bool","internalType":"bool"}],"stateMutability":"view"},{"type":"function","name":"mint","inputs":[{"name":"to","type":"address","internalType":"address"},{"name":"amount","type":"uint256","internalType":"uint256"}],"outputs":[{"name":"","type":"bool","internalType":"bool"}],"stateMutability":"nonpayable"},{"type":"function","name":"name","inputs":[],"outputs":[{"name":"","type":"string","internalType":"string"}],"stateMutability":"view"},{"type":"function","name":"owner","inputs":[],"outputs":[{"name":"","type":"address","internalType":"address"}],"stateMutability":"view"},{"type":"function","name":"pause","inputs":[],"outputs":[{"name":"","type":"bool","internalType":"bool"}],"stateMutability":"nonpayable"},{"type":"function","name":"paused","inputs":[],"outputs":[{"name":"isTokenPaused","type":"bool","internalType":"bool"}],"stateMutability":"view"},{"type":"function","name":"recoverTokens","inputs":[{"name":"tokenAddr","type":"address","internalType":"address"},{"name":"amountVal","type":"uint256","internalType":"uint256"}],"outputs":[{"name":"","type":"bool","internalType":"bool"}],"stateMutability":"nonpayable"},{"type":"function","name":"removeMinter","inputs":[{"name":"minterAddress","type":"address","internalType":"address"}],"outputs":[{"name":"","type":"bool","internalType":"bool"}],"stateMutability":"nonpayable"},{"type":"function","name":"renounceOwnership","inputs":[],"outputs":[],"stateMutability":"view"},{"type":"function","name":"setBlacklistTimelockDuration","inputs":[{"name":"newDurationSeconds","type":"uint256","internalType":"uint256"}],"outputs":[{"name":"successFlag","type":"bool","internalType":"bool"}],"stateMutability":"nonpayable"},{"type":"function","name":"setCap","inputs":[{"name":"newCapAmount","type":"uint256","internalType":"uint256"}],"outputs":[{"name":"","type":"bool","internalType":"bool"}],"stateMutability":"nonpayable"},{"type":"function","name":"setEmergencyController","inputs":[{"name":"controllerAddr","type":"address","internalType":"address"}],"outputs":[{"name":"successFlag","type":"bool","internalType":"bool"}],"stateMutability":"nonpayable"},{"type":"function","name":"symbol","inputs":[],"outputs":[{"name":"","type":"string","internalType":"string"}],"stateMutability":"view"},{"type":"function","name":"totalSupply","inputs":[],"outputs":[{"name":"","type":"uint256","internalType":"uint256"}],"stateMutability":"view"},{"type":"function","name":"transfer","inputs":[{"name":"to","type":"address","internalType":"address"},{"name":"amount","type":"uint256","internalType":"uint256"}],"outputs":[{"name":"","type":"bool","internalType":"bool"}],"stateMutability":"nonpayable"},{"type":"function","name":"transferFrom","inputs":[{"name":"from","type":"address","internalType":"address"},{"name":"to","type":"address","internalType":"address"},{"name":"amount","type":"uint256","internalType":"uint256"}],"outputs":[{"name":"","type":"bool","internalType":"bool"}],"stateMutability":"nonpayable"},{"type":"function","name":"transferOwnership","inputs":[{"name":"newOwner","type":"address","internalType":"address"}],"outputs":[],"stateMutability":"nonpayable"},{"type":"function","name":"transferTokenOwnership","inputs":[{"name":"newOwnerAddress","type":"address","internalType":"address"}],"outputs":[{"name":"successFlag","type":"bool","internalType":"bool"}],"stateMutability":"nonpayable"},{"type":"function","name":"unblacklist","inputs":[{"name":"account","type":"address","internalType":"address"}],"outputs":[{"name":"","type":"bool","internalType":"bool"}],"stateMutability":"nonpayable"},{"type":"function","name":"unpause","inputs":[],"outputs":[{"name":"","type":"bool","internalType":"bool"}],"stateMutability":"nonpayable"},{"type":"event","name":"Approval","inputs":[{"name":"owner","type":"address","indexed":true,"internalType":"address"},{"name":"spender","type":"address","indexed":true,"internalType":"address"},{"name":"value","type":"uint256","indexed":false,"internalType":"uint256"}],"anonymous":false},{"type":"event","name":"BlacklistCancelled","inputs":[{"name":"account","type":"address","indexed":true,"internalType":"address"},{"name":"canceller","type":"address","indexed":true,"internalType":"address"}],"anonymous":false},{"type":"event","name":"BlacklistProposed","inputs":[{"name":"account","type":"address","indexed":true,"internalType":"address"},{"name":"executeAfter","type":"uint256","indexed":false,"internalType":"uint256"},{"name":"proposer","type":"address","indexed":true,"internalType":"address"}],"anonymous":false},{"type":"event","name":"BlacklistStatusChanged","inputs":[{"name":"account","type":"address","indexed":true,"internalType":"address"},{"name":"blacklisted","type":"bool","indexed":false,"internalType":"bool"},{"name":"operator","type":"address","indexed":true,"internalType":"address"}],"anonymous":false},{"type":"event","name":"BlacklistTimelockDurationUpdated","inputs":[{"name":"oldDuration","type":"uint256","indexed":false,"internalType":"uint256"},{"name":"newDuration","type":"uint256","indexed":false,"internalType":"uint256"},{"name":"updater","type":"address","indexed":true,"internalType":"address"}],"anonymous":false},{"type":"event","name":"CapUpdated","inputs":[{"name":"oldCap","type":"uint256","indexed":false,"internalType":"uint256"},{"name":"newCap","type":"uint256","indexed":false,"internalType":"uint256"},{"name":"updater","type":"address","indexed":true,"internalType":"address"}],"anonymous":false},{"type":"event","name":"EmergencyControllerSet","inputs":[{"name":"oldController","type":"address","indexed":true,"internalType":"address"},{"name":"newController","type":"address","indexed":true,"internalType":"address"},{"name":"setter","type":"address","indexed":true,"internalType":"address"}],"anonymous":false},{"type":"event","name":"EmergencyShutdownHandled","inputs":[{"name":"emergencyLevel","type":"uint8","indexed":false,"internalType":"uint8"},{"name":"caller","type":"address","indexed":true,"internalType":"address"}],"anonymous":false},{"type":"event","name":"EmergencyStatusChecked","inputs":[{"name":"emergencyLevel","type":"uint8","indexed":false,"internalType":"uint8"},{"name":"operation","type":"bytes4","indexed":false,"internalType":"bytes4"},{"name":"allowed","type":"bool","indexed":false,"internalType":"bool"}],"anonymous":false},{"type":"event","name":"Initialized","inputs":[{"name":"version","type":"uint8","indexed":false,"internalType":"uint8"}],"anonymous":false},{"type":"event","name":"MinterStatusChanged","inputs":[{"name":"minter","type":"address","indexed":true,"internalType":"address"},{"name":"status","type":"bool","indexed":false,"internalType":"bool"},{"name":"operator","type":"address","indexed":true,"internalType":"address"}],"anonymous":false},{"type":"event","name":"OwnershipTransferred","inputs":[{"name":"previousOwner","type":"address","indexed":true,"internalType":"address"},{"name":"newOwner","type":"address","indexed":true,"internalType":"address"}],"anonymous":false},{"type":"event","name":"Paused","inputs":[{"name":"account","type":"address","indexed":false,"internalType":"address"}],"anonymous":false},{"type":"event","name":"TokenOwnershipTransferred","inputs":[{"name":"previousOwner","type":"address","indexed":true,"internalType":"address"},{"name":"newOwner","type":"address","indexed":true,"internalType":"address"},{"name":"operator","type":"address","indexed":true,"internalType":"address"}],"anonymous":false},{"type":"event","name":"TokenRecovered","inputs":[{"name":"token","type":"address","indexed":true,"internalType":"address"},{"name":"amount","type":"uint256","indexed":false,"internalType":"uint256"},{"name":"recipient","type":"address","indexed":true,"internalType":"address"}],"anonymous":false},{"type":"event","name":"Transfer","inputs":[{"name":"from","type":"address","indexed":true,"internalType":"address"},{"name":"to","type":"address","indexed":true,"internalType":"address"},{"name":"value","type":"uint256","indexed":false,"internalType":"uint256"}],"anonymous":false},{"type":"event","name":"Unpaused","inputs":[{"name":"account","type":"address","indexed":false,"internalType":"address"}],"anonymous":false},{"type":"error","name":"AmountIsZero","inputs":[]},{"type":"error","name":"CapExceeded","inputs":[{"name":"currentSupply","type":"uint256","internalType":"uint256"},{"name":"amount","type":"uint256","internalType":"uint256"},{"name":"cap","type":"uint256","internalType":"uint256"}]},{"type":"error","name":"InsufficientAllowance","inputs":[{"name":"available","type":"uint256","internalType":"uint256"},{"name":"required","type":"uint256","internalType":"uint256"}]},{"type":"error","name":"InsufficientBalance","inputs":[{"name":"available","type":"uint256","internalType":"uint256"},{"name":"required","type":"uint256","internalType":"uint256"}]},{"type":"error","name":"NotAContract","inputs":[{"name":"context","type":"string","internalType":"string"}]},{"type":"error","name":"PREWA_ACZero","inputs":[]},{"type":"error","name":"PREWA_AccountAlreadyBlacklisted","inputs":[{"name":"account","type":"address","internalType":"address"}]},{"type":"error","name":"PREWA_AccountBlacklistZero","inputs":[]},{"type":"error","name":"PREWA_AccountNotBlacklisted","inputs":[{"name":"account","type":"address","internalType":"address"}]},{"type":"error","name":"PREWA_AddressAlreadyMinter","inputs":[{"name":"minter","type":"address","internalType":"address"}]},{"type":"error","name":"PREWA_AddressNotMinter","inputs":[{"name":"minter","type":"address","internalType":"address"}]},{"type":"error","name":"PREWA_BadTokenRecoveryAddress","inputs":[]},{"type":"error","name":"PREWA_BlacklistPropExists","inputs":[{"name":"account","type":"address","internalType":"address"}]},{"type":"error","name":"PREWA_BurnFromZero","inputs":[]},{"type":"error","name":"PREWA_CallerNotEmergencyController","inputs":[]},{"type":"error","name":"PREWA_CannotRecoverSelf","inputs":[]},{"type":"error","name":"PREWA_CapLessThanSupply","inputs":[{"name":"cap","type":"uint256","internalType":"uint256"},{"name":"supply","type":"uint256","internalType":"uint256"}]},{"type":"error","name":"PREWA_DecimalsZero","inputs":[]},{"type":"error","name":"PREWA_ECZero","inputs":[]},{"type":"error","name":"PREWA_MintToZero","inputs":[]},{"type":"error","name":"PREWA_MinterAddressZero","inputs":[]},{"type":"error","name":"PREWA_MustHavePauserRole","inputs":[]},{"type":"error","name":"PREWA_NameEmpty","inputs":[]},{"type":"error","name":"PREWA_NoBlacklistProp","inputs":[{"name":"account","type":"address","internalType":"address"}]},{"type":"error","name":"PREWA_NotMinter","inputs":[]},{"type":"error","name":"PREWA_OwnerBlacklisted","inputs":[{"name":"account","type":"address","internalType":"address"}]},{"type":"error","name":"PREWA_RecipientBlacklisted","inputs":[{"name":"account","type":"address","internalType":"address"}]},{"type":"error","name":"PREWA_SenderBlacklisted","inputs":[{"name":"account","type":"address","internalType":"address"}]},{"type":"error","name":"PREWA_SpenderBlacklisted","inputs":[{"name":"account","type":"address","internalType":"address"}]},{"type":"error","name":"PREWA_SymbolEmpty","inputs":[]},{"type":"error","name":"PREWA_TimelockActive","inputs":[]},{"type":"error","name":"PREWA_TimelockDurationInvalid","inputs":[{"name":"duration","type":"uint256","internalType":"uint256"}]},{"type":"error","name":"PREWA_TransferFromZero","inputs":[]},{"type":"error","name":"PREWA_TransferToZero","inputs":[]},{"type":"error","name":"ZeroAddress","inputs":[{"name":"context","type":"string","internalType":"string"}]}],"bytecode":{"object":"0x6080806040523460bd576000549060ff8260081c16606b575060ff808216036031575b6040516127c090816100c38239f35b60ff90811916176000557f7f26b83ff96e1f2b6a682f133852f6798a09c465da95921460cefb3847402498602060405160ff8152a1386022565b62461bcd60e51b815260206004820152602760248201527f496e697469616c697a61626c653a20636f6e747261637420697320696e697469604482015266616c697a696e6760c81b6064820152608490fd5b600080fdfe6080604052600436101561001257600080fd5b60003560e01c8063069c9fae14611ba957806306fdde0314611b12578063095ea7b3146119bc57806313007d551461199357806313acd718146118ef57806316492ce1146117f757806318160ddd146117d957806321e6b53d1461175357806323b872dd1461170b578063290d10c4146113675780633092afd514611655578063313ce56714611634578063355274ea146116165780633f4ba83a146114a557806340c10f191461144757806342966c681461141a57806347786d371461136c5780635c975abb146113675780636ca7dc89146112dc57806370a08231146112b9578063715018a61461122257806371ef93fd1461116657806375e3661e1461104b57806379cc67901461100b5780637a936beb146105cc5780637d6492f6146109d25780638456cb59146108615780638aed668a1461082a5780638da5cb5b1461080157806395d89b4114610735578063983b2d561461066c5780639ac550791461064e578063a9059cbb14610618578063aa271e1a146105f5578063c993cc9d146105cc578063dd62ed3e14610598578063eb1676c1146104b8578063f2f1461714610480578063f2fde38b146103f1578063f9f92be4146102115763fe575a87146101df57600080fd5b3461020c57602036600319011261020c5760206102026101fd611e1f565b6120c7565b6040519015158152f35b600080fd5b3461020c57602036600319011261020c5761022a611e1f565b6102326120ea565b61023a612142565b6001600160a01b031680156103e0578060005260d060205260ff604060002054166103cc5760d354806102bf57508060005260d06020526040600020600160ff1982541617905560405190600182527f5bd503fb300a28414885b2dab69a07f1aec56d0d995b56ffd4c36e51c261b9e660203393a35b60018055602060405160018152f35b8160005260d260205260ff60026040600020015460a01c166103b7576102e590426120ba565b906040516080810181811067ffffffffffffffff8211176103a15760405242815260208101838152600260408301923384526060810192600184528560005260d2602052604060002091518255516001820155019160018060a01b039051166001600160601b0360a01b83541617825551151581549060ff60a01b9060a01b169060ff60a01b19161790556040519182527f36fd693ec876b39f74dc0f3d1218e5884db84cec669e934aad53e09d7fd6709460203393a36102b0565b634e487b7160e01b600052604160045260246000fd5b50635247035960e01b60005260045260246000fd5b63eaacf9bb60e01b60005260045260246000fd5b637b319eff60e11b60005260046000fd5b3461020c57602036600319011261020c5761040a611e1f565b6104126120ea565b6001600160a01b0381161561042c5761042a90612650565b005b60405162461bcd60e51b815260206004820152602660248201527f4f776e61626c653a206e6577206f776e657220697320746865207a65726f206160448201526564647265737360d01b6064820152608490fd5b3461020c57602036600319011261020c5760606104a361049e611e1f565b61203d565b90604051921515835260208301526040820152f35b3461020c57602036600319011261020c5760043560ff811680910361020c5760d4546001600160a01b031680156105875733036105875760038110158061057a575b610536575b6040519081527f653b015d928c6cff1b70682b7d5afa1bbe5e5aa468f4a35076e9d0141a9cb1bc60203392a2602060405160018152f35b61053e612198565b600160ff1960655416176065557f62e78cea01bee320cd4e420270b5ea74000d11b0c9f74754ebdbfc544b05a2586020604051338152a16104ff565b5060ff60655416156104fa565b637733fcb760e01b60005260046000fd5b3461020c57604036600319011261020c5760206105c46105b6611e1f565b6105be611e35565b90611fea565b604051908152f35b3461020c57600036600319011261020c5760d4546040516001600160a01b039091168152602090f35b3461020c57602036600319011261020c576020610202610613611e1f565b611fc7565b3461020c57604036600319011261020c576102b0610634611e1f565b61063c612142565b610644612198565b6024359033612267565b3461020c57600036600319011261020c57602060d354604051908152f35b3461020c57602036600319011261020c57610685611e1f565b61068d6120ea565b610695612142565b6001600160a01b03168015610724578060005260d160205260ff60406000205416610710578060005260d16020526040600020600160ff1982541617905560405190600182527ffa7bdd1956d75345a2c1e3b1524b8c8e63ba6abe639f184bf0b85bc972ade42460203393a360018055602060405160018152f35b635e2b29c360e01b60005260045260246000fd5b638af4997f60e01b60005260046000fd5b3461020c57600036600319011261020c57604051600060cd5461075781611f34565b80845290600181169081156107dd575060011461078f575b61078b8361077f81850382611eaf565b60405191829182611e4b565b0390f35b91905060cd60005260008051602061272b833981519152916000905b8082106107c35750909150810160200161077f61076f565b9192600181602092548385880101520191019092916107ab565b60ff191660208086019190915291151560051b8401909101915061077f905061076f565b3461020c57600036600319011261020c576097546040516001600160a01b039091168152602090f35b3461020c57602036600319011261020c576004356001600160e01b031981160361020c576020610858611f86565b15604051908152f35b3461020c57600036600319011261020c5760d5546001600160a01b031680156109c15760405163e63ab1e960e01b8152602081600481855afa9081156109815760009161098d575b50604051632474521560e21b815260048101919091523360248201529060209082908180604481015b03915afa90811561098157600091610952575b5015610941576108f3612142565b6108fb612198565b600160ff1960655416176065557f62e78cea01bee320cd4e420270b5ea74000d11b0c9f74754ebdbfc544b05a2586020604051338152a160018055602060405160018152f35b634946310360e01b60005260046000fd5b610974915060203d60201161097a575b61096c8183611eaf565b810190611f6e565b816108e5565b503d610962565b6040513d6000823e3d90fd5b90506020813d6020116109b9575b816109a860209383611eaf565b8101031261020c57516108d26108a9565b3d915061099b565b63ae603ff360e01b60005260046000fd5b3461020c5761010036600319011261020c5760043567ffffffffffffffff811161020c57610a04903690600401611eed565b60243567ffffffffffffffff811161020c57610a24903690600401611eed565b9060443560ff811680910361020c5760a4359260643591906001600160a01b03851680860361020c5760c435926001600160a01b0384169283850361020c5760e435966001600160a01b0388169586890361020c576000549960ff8b60081c16159a8b809c610ffe575b8015610fe7575b15610f8b5760ff1981166001176000558b610f79575b50610af860ff60005460081c16610ac1816125f0565b610aca816125f0565b60018055610ad7816125f0565b610ae0816125f0565b60ff1960655416606555610af3816125f0565b6125f0565b610b0133612650565b8715610f4a5785156109c1578615610f3957825115610f2857835115610f175784158015610f0d575b610efc573b15610ec6573b15610e855780519067ffffffffffffffff82116103a1578190610b5960cc54611f34565b601f8111610e0e575b50602090601f8311600114610d9a57600092610d8f575b50508160011b916000199060031b1c19161760cc555b80519067ffffffffffffffff82116103a1578190610bae60cd54611f34565b601f8111610d18575b50602090601f8311600114610ca457600092610c99575b50508160011b916000199060031b1c19161760cd555b60ff1960ce54161760ce5560843560cf55610bfe85612650565b6001600160601b0360a01b60d554161760d5556001600160601b0360a01b60d454161760d45560005260d16020526040600020600160ff198254161790556201518060d35580610c89575b5050610c5157005b61ff0019600054166000557f7f26b83ff96e1f2b6a682f133852f6798a09c465da95921460cefb3847402498602060405160018152a1005b610c929161237d565b8180610c49565b015190508980610bce565b60cd600090815260008051602061272b8339815191529350601f198516905b818110610d005750908460019594939210610ce7575b505050811b0160cd55610be4565b015160001960f88460031b161c19169055898080610cd9565b92936020600181928786015181550195019301610cc3565b90915060cd600052601f830160051c60008051602061272b833981519152019060208410610d79575b90601f8493920160051c60008051602061272b83398151915201905b818110610d6a5750610bb7565b60008155849350600101610d5d565b60008051602061272b8339815191529150610d41565b015190508a80610b79565b60cc600090815260008051602061276b8339815191529350601f198516905b818110610df65750908460019594939210610ddd575b505050811b0160cc55610b8f565b015160001960f88460031b161c191690558a8080610dcf565b92936020600181928786015181550195019301610db9565b90915060cc600052601f830160051c60008051602061276b833981519152019060208410610e6f575b90601f8493920160051c60008051602061276b83398151915201905b818110610e605750610b62565b60008155849350600101610e53565b60008051602061276b8339815191529150610e37565b604051630dd2788360e41b815260206004820152601360248201527232b6b2b933b2b731bca1b7b73a3937b63632b960691b604482015280606481015b0390fd5b604051630dd2788360e41b815260206004820152600d60248201526c1858d8d95cdcd0dbdb9d1c9bdb609a1b6044820152606490fd5b63f54c7e1f60e01b60005260046000fd5b5060128511610b2a565b631cea91f960e11b60005260046000fd5b63b201c69d60e01b60005260046000fd5b63311640e160e01b60005260046000fd5b60405163eac0d38960e01b815260206004820152600660248201526561646d696e5f60d01b6044820152606490fd5b61ffff1916610101176000558b610aab565b60405162461bcd60e51b815260206004820152602e60248201527f496e697469616c697a61626c653a20636f6e747261637420697320616c72656160448201526d191e481a5b9a5d1a585b1a5e995960921b6064820152608490fd5b50303b158015610a955750600160ff821614610a95565b50600160ff821610610a8e565b3461020c57604036600319011261020c576102b0611027611e1f565b60243590611033612142565b61103b612198565b6110468233836121de565b612447565b3461020c57602036600319011261020c57611064611e1f565b61106c6120ea565b611074612142565b6001600160a01b031680156103e0578060005260d060205260ff6040600020541615611152578060005260d0602052604060002060ff1981541690558060005260d260205260ff60026040600020015460a01c1661110a575b60405190600082527f5bd503fb300a28414885b2dab69a07f1aec56d0d995b56ffd4c36e51c261b9e660203393a360018055602060405160018152f35b8060005260d26020526000600260408220828155826001820155015533817f6117196714fa6c8f146dd872ce98142c35bfb0fd2ae606b664891c9c2fa9a83a600080a36110cd565b637b9125f560e01b60005260045260246000fd5b3461020c57602036600319011261020c5761117f611e1f565b6111876120ea565b61118f612142565b6001600160a01b031680156103e0578060005260d260205260ff60026040600020015460a01c161561120e578060209160005260d28252600060026040822082815582600182015501556040519033907f6117196714fa6c8f146dd872ce98142c35bfb0fd2ae606b664891c9c2fa9a83a600080a36001805560018152f35b6325d01aa560e21b60005260045260246000fd5b3461020c57600036600319011261020c5761123b6120ea565b60405162461bcd60e51b815260206004820152604a60248201527f7052455741546f6b656e3a2072656e6f756e63654f776e65727368697020697360448201527f207065726d616e656e746c792064697361626c656420666f7220736563757269606482015269747920726561736f6e7360b01b608482015260a490fd5b3461020c57602036600319011261020c5760206105c46112d7611e1f565b611fa1565b3461020c57602036600319011261020c576112f5611e1f565b6112fd6120ea565b6001600160a01b038116908115610f39573b15610e855760d480546001600160a01b03198116831790915560405160209290913391906001600160a01b03167ff74ec9978ba2b855629831c18da14f9c37095cf07acc97fcf2842a893d3245ef600080a460018152f35b611e94565b3461020c57602036600319011261020c576004356113886120ea565b611390612142565b60cf549081151580611411575b80611406575b6113eb578060cf5560405191825260208201527fa6dee1866518e7a2d4bf9f921e23e5a11c65562f096e9043f92721372d64267360403392a260018055602060405160018152f35b60cb54906303c224d960e41b60005260045260245260446000fd5b5060cb5481106113a3565b5080151561139d565b3461020c57602036600319011261020c57611433612142565b61143b612198565b6102b060043533612447565b3461020c57604036600319011261020c57611460611e1f565b611468612142565b611470612198565b3360005260d160205260ff6040600020541615611494576102b0906024359061237d565b63eac715cf60e01b60005260046000fd5b3461020c57600036600319011261020c5760d5546001600160a01b031680156109c15760405163e63ab1e960e01b8152602081600481855afa908115610981576000916115e2575b50604051632474521560e21b815260048101919091523360248201529060209082908180604481015b03915afa908115610981576000916115c3575b501561094157611537612142565b61153f611f86565b156115875760ff19606554166065557f5db9ee0a495bf2e6ff9c91a7834c1ba4fdd244a5e8aa4e537bd38aeae4b073aa6020604051338152a160018055602060405160018152f35b60405162461bcd60e51b815260206004820152601460248201527314185d5cd8589b194e881b9bdd081c185d5cd95960621b6044820152606490fd5b6115dc915060203d60201161097a5761096c8183611eaf565b81611529565b90506020813d60201161160e575b816115fd60209383611eaf565b8101031261020c57516115166114ed565b3d91506115f0565b3461020c57600036600319011261020c57602060cf54604051908152f35b3461020c57600036600319011261020c57602060ff60ce5416604051908152f35b3461020c57602036600319011261020c5761166e611e1f565b6116766120ea565b61167e612142565b6001600160a01b03168015610724578060005260d160205260ff60406000205416156116f7578060005260d1602052604060002060ff19815416905560405190600082527ffa7bdd1956d75345a2c1e3b1524b8c8e63ba6abe639f184bf0b85bc972ade42460203393a360018055602060405160018152f35b63791a61af60e11b60005260045260246000fd5b3461020c57606036600319011261020c576102b0611727611e1f565b61172f611e35565b6044359161173b612142565b611743612198565b61174e8333836121de565b612267565b3461020c57602036600319011261020c5761176c611e1f565b611774612142565b6097546001600160a01b03166117886120ea565b6001600160a01b03821690811561042c576117a4602093612650565b6040519133917feafd6a2c512ce4765ca7f72855a24864121f01751fdd18d64d9bb0575d6a681a600080a46001805560018152f35b3461020c57600036600319011261020c57602060cb54604051908152f35b3461020c57602036600319011261020c57611810611e1f565b6118186120ea565b611820612142565b6001600160a01b031680156103e0578060005260d2602052604060002060ff600282015460a01c16156118da576001015442106118c9578060005260d2602052600060026040822082815582600182015501558060005260d06020526040600020600160ff1982541617905560405190600182527f5bd503fb300a28414885b2dab69a07f1aec56d0d995b56ffd4c36e51c261b9e660203393a360018055602060405160018152f35b63f203db2160e01b60005260046000fd5b506325d01aa560e21b60005260045260246000fd5b3461020c57602036600319011261020c5760043561190b6120ea565b611913612142565b8015158061197c575b6119685760d354908060d35560405191825260208201527f1ecba6946af904a04b17e8eaeff76dfec1b0e38b8eb10e48fe672a198c8521f360403392a260018055602060405160018152f35b633cf9b98360e21b60005260045260246000fd5b50610e1081108061191c575062093a80811161191c565b3461020c57600036600319011261020c5760d5546040516001600160a01b039091168152602090f35b3461020c57604036600319011261020c576119d5611e1f565b602435906119e1612142565b3315611adc576001600160a01b0316908115611aa4573360005260d060205260ff60406000205416611a8f578160005260d060205260ff60406000205416611a7a573360005260ca602052604060002082600052602052806040600020556040519081527f8c5be1e5ebec7d5bd14f71427d1e84f3dd0314c0f7b2291e5b200ac8c7c3b92560203392a360018055602060405160018152f35b5063091b1a0160e31b60005260045260246000fd5b637ed7a87f60e01b6000523360045260246000fd5b60405163eac0d38960e01b815260206004820152600f60248201526e1cdc195b99195c905c1c1c9bdd985b608a1b6044820152606490fd5b60405163eac0d38960e01b815260206004820152600d60248201526c1bdddb995c905c1c1c9bdd985b609a1b6044820152606490fd5b3461020c57600036600319011261020c57604051600060cc54611b3481611f34565b80845290600181169081156107dd5750600114611b5b5761078b8361077f81850382611eaf565b91905060cc60005260008051602061276b833981519152916000905b808210611b8f5750909150810160200161077f61076f565b919260018160209254838588010152019101909291611b77565b3461020c57604036600319011261020c57611bc2611e1f565b60243590611bce6120ea565b611bd6612142565b6001600160a01b0316908115611e0e57308214611dfd578015611dec576040516370a0823160e01b8152306004820152602081602481865afa90811561098157600091611dba575b50808211611da3575060018060a01b036097541690611cd4604051602081019363a9059cbb60e01b8552602482015282604482015260448152611c62606482611eaf565b600080604095865193611c758886611eaf565b602085527f5361666545524332303a206c6f772d6c6576656c2063616c6c206661696c65646020860152519082895af13d15611d9b573d90611cb682611ed1565b91611cc387519384611eaf565b82523d6000602084013e5b86612699565b8051908115918215611d81575b505015611d2a576020927f25cf8d26509ef33d03d7d79115a9acdd514856bbe6793a7af3f42f635e1e11248460018060a01b0360975416938551908152a3600180555160018152f35b815162461bcd60e51b815260206004820152602a60248201527f5361666545524332303a204552433230206f7065726174696f6e20646964206e6044820152691bdd081cdd58d8d9595960b21b6064820152608490fd5b611d949250602080918301019101611f6e565b8480611ce1565b606090611cce565b63cf47918160e01b60005260045260245260446000fd5b90506020813d602011611de4575b81611dd560209383611eaf565b8101031261020c575183611c1e565b3d9150611dc8565b6310eb483f60e21b60005260046000fd5b63d8d5b01360e01b60005260046000fd5b630af1735560e41b60005260046000fd5b600435906001600160a01b038216820361020c57565b602435906001600160a01b038216820361020c57565b91909160208152825180602083015260005b818110611e7e575060409293506000838284010152601f8019910116010190565b8060208092870101516040828601015201611e5d565b3461020c57600036600319011261020c576020610202611f86565b90601f8019910116810190811067ffffffffffffffff8211176103a157604052565b67ffffffffffffffff81116103a157601f01601f191660200190565b81601f8201121561020c57803590611f0482611ed1565b92611f126040519485611eaf565b8284526020838301011161020c57816000926020809301838601378301015290565b90600182811c92168015611f64575b6020831014611f4e57565b634e487b7160e01b600052602260045260246000fd5b91607f1691611f43565b9081602091031261020c5751801515810361020c5790565b60ff606554168015611f955790565b50611f9e6124fe565b90565b6001600160a01b03168015611fc15760005260c960205260406000205490565b50600090565b6001600160a01b03168015611fc15760005260d160205260ff6040600020541690565b6001600160a01b03168015801561202c575b6120255760005260ca60205260406000209060018060a01b031660005260205260406000205490565b5050600090565b506001600160a01b03821615611ffc565b6001600160a01b031680156120ae5760005260d260205260406000209060ff600283015460a01c169182156120a357600101549081421060001461209e574282038281116120885790565b634e487b7160e01b600052601160045260246000fd5b600090565b506000915081908190565b50600090600090600090565b9190820180921161208857565b6001600160a01b03168015611fc15760005260d060205260ff6040600020541690565b6097546001600160a01b031633036120fe57565b606460405162461bcd60e51b815260206004820152602060248201527f4f776e61626c653a2063616c6c6572206973206e6f7420746865206f776e65726044820152fd5b600260015414612153576002600155565b60405162461bcd60e51b815260206004820152601f60248201527f5265656e7472616e637947756172643a207265656e7472616e742063616c6c006044820152606490fd5b6121a0611f86565b6121a657565b60405162461bcd60e51b815260206004820152601060248201526f14185d5cd8589b194e881c185d5cd95960821b6044820152606490fd5b6001600160a01b03908116600081815260ca602090815260408083209486168352939052919091205492919060018401612219575b50505050565b82841061224e5760005260ca60205260406000209060018060a01b031660005260205260406000209103905538808080612213565b828463054365bb60e31b60005260045260245260446000fd5b6001600160a01b031690811561236c576001600160a01b031691821561235b578160005260d060205260ff60406000205416612346578260005260d060205260ff60406000205416612331578015612315578160005260c9602052604060002054818110611da3578160008051602061274b833981519152926020928560005260c98452036040600020558460005260c98252604060002061230a8282546120ba565b9055604051908152a3565b5060008051602061274b833981519152602060405160008152a3565b826335aa2e4760e21b60005260045260246000fd5b50631cfdfbcf60e31b60005260045260246000fd5b63296ae05f60e21b60005260046000fd5b6311ebb13760e11b60005260046000fd5b6001600160a01b0316908115612436578160005260d060205260ff60406000205416612421578015611dec5760cf54806123ec575b5060008051602061274b8339815191526020826123d360009460cb546120ba565b60cb5584845260c982526040842061230a8282546120ba565b60cb54816123fa84836120ba565b1161240557506123b2565b8290630cf95ce560e01b60005260045260245260445260646000fd5b506335aa2e4760e21b60005260045260246000fd5b635373049960e11b60005260046000fd5b9091906001600160a01b031680156124ed578060005260d060205260ff604060002054166124d9578215611dec578060005260c96020526040600020548381106124c0576020846000949560008051602061274b8339815191529385875260c984520360408620558060cb540360cb55604051908152a3565b839063cf47918160e01b60005260045260245260446000fd5b631cfdfbcf60e31b60005260045260246000fd5b633664b3f760e21b60005260046000fd5b60d4546001600160a01b03168015611fc157604051631da4712b60e21b81526000918291602081600481855afa600091816125cf575b506125c6575b50602060049160405192838092630743c9d960e51b82525afa8091600091612583575b509061257b575b50811561256f575090565b6003915060ff16101590565b905038612564565b6020813d6020116125be575b8161259c60209383611eaf565b810103126125ba57519060ff821682036125b757503861255d565b80fd5b5080fd5b3d915061258f565b9250602061253a565b6125e991925060203d60201161097a5761096c8183611eaf565b9038612534565b156125f757565b60405162461bcd60e51b815260206004820152602b60248201527f496e697469616c697a61626c653a20636f6e7472616374206973206e6f74206960448201526a6e697469616c697a696e6760a81b6064820152608490fd5b609780546001600160a01b039283166001600160a01b0319821681179092559091167f8be0079c531659141344cd1fd0a4f28419497f9722a3daafe3b4186f6b6457e0600080a3565b919290156126fb57508151156126ad575090565b3b156126b65790565b60405162461bcd60e51b815260206004820152601d60248201527f416464726573733a2063616c6c20746f206e6f6e2d636f6e74726163740000006044820152606490fd5b82519091501561270e5750805190602001fd5b60405162461bcd60e51b8152908190610ec29060048301611e4b56fe83978b4c69c48dd978ab43fe30f077615294f938fb7f936d9eb340e51ea7db2eddf252ad1be2c89b69c2b068fc378daa952ba7f163c4a11628f55a4df523b3ef47197230e1e4b29fc0bd84d7d78966c0925452aff72a2a121538b102457e9ebea2646970667358221220db57d3283e8333d64b14bd5629e37600ee19aa4ff95c300707ff16227230148564736f6c634300081c0033","linkReferences":{}},"methodIdentifiers":{"accessControl()":"13007d55","addMinter(address)":"983b2d56","allowance(address,address)":"dd62ed3e","approve(address,uint256)":"095ea7b3","balanceOf(address)":"70a08231","blacklist(address)":"f9f92be4","burn(uint256)":"42966c68","burnFrom(address,uint256)":"79cc6790","cancelBlacklistProposal(address)":"71ef93fd","cap()":"355274ea","checkEmergencyStatus(bytes4)":"8aed668a","decimals()":"313ce567","emergencyController()":"7a936beb","emergencyShutdown(uint8)":"eb1676c1","executeBlacklist(address)":"16492ce1","getBlacklistProposal(address)":"f2f14617","getBlacklistTimelockDuration()":"9ac55079","getEmergencyController()":"c993cc9d","initialize(string,string,uint8,uint256,uint256,address,address,address)":"7d6492f6","isBlacklisted(address)":"fe575a87","isEmergencyPaused()":"290d10c4","isMinter(address)":"aa271e1a","mint(address,uint256)":"40c10f19","name()":"06fdde03","owner()":"8da5cb5b","pause()":"8456cb59","paused()":"5c975abb","recoverTokens(address,uint256)":"069c9fae","removeMinter(address)":"3092afd5","renounceOwnership()":"715018a6","setBlacklistTimelockDuration(uint256)":"13acd718","setCap(uint256)":"47786d37","setEmergencyController(address)":"6ca7dc89","symbol()":"95d89b41","totalSupply()":"18160ddd","transfer(address,uint256)":"a9059cbb","transferFrom(address,address,uint256)":"23b872dd","transferOwnership(address)":"f2fde38b","transferTokenOwnership(address)":"21e6b53d","unblacklist(address)":"75e3661e","unpause()":"3f4ba83a"},"id":9}