{"abi":[{"type":"constructor","inputs":[],"stateMutability":"nonpayable"},{"type":"function","name":"calculateMinimumOutput","inputs":[{"name":"inputAmount","type":"uint256","internalType":"uint256"},{"name":"price","type":"uint256","internalType":"uint256"},{"name":"slippageBps","type":"uint256","internalType":"uint256"}],"outputs":[{"name":"minOutputAmount","type":"uint256","internalType":"uint256"}],"stateMutability":"pure"},{"type":"function","name":"checkEmergencyStatus","inputs":[{"name":"operation","type":"bytes4","internalType":"bytes4"}],"outputs":[{"name":"finalOperationAllowed","type":"bool","internalType":"bool"}],"stateMutability":"view"},{"type":"function","name":"checkPriceImpact","inputs":[{"name":"token0","type":"address","internalType":"address"},{"name":"token1","type":"address","internalType":"address"},{"name":"expectedPrice","type":"uint256","internalType":"uint256"},{"name":"actualPrice","type":"uint256","internalType":"uint256"}],"outputs":[{"name":"isAcceptable","type":"bool","internalType":"bool"}],"stateMutability":"nonpayable"},{"type":"function","name":"commitmentBlocks","inputs":[{"name":"","type":"bytes32","internalType":"bytes32"}],"outputs":[{"name":"","type":"uint256","internalType":"uint256"}],"stateMutability":"view"},{"type":"function","name":"commitmentCreators","inputs":[{"name":"","type":"bytes32","internalType":"bytes32"}],"outputs":[{"name":"","type":"address","internalType":"address"}],"stateMutability":"view"},{"type":"function","name":"commitments","inputs":[{"name":"","type":"bytes32","internalType":"bytes32"}],"outputs":[{"name":"","type":"bool","internalType":"bool"}],"stateMutability":"view"},{"type":"function","name":"emergencyController","inputs":[],"outputs":[{"name":"","type":"address","internalType":"contract EmergencyController"}],"stateMutability":"view"},{"type":"function","name":"emergencyShutdown","inputs":[{"name":"emergencyLevelInput","type":"uint8","internalType":"uint8"}],"outputs":[{"name":"successFlag","type":"bool","internalType":"bool"}],"stateMutability":"nonpayable"},{"type":"function","name":"getEmergencyController","inputs":[],"outputs":[{"name":"controller","type":"address","internalType":"address"}],"stateMutability":"view"},{"type":"function","name":"getExpectedPrice","inputs":[{"name":"token0","type":"address","internalType":"address"},{"name":"token1","type":"address","internalType":"address"}],"outputs":[{"name":"price","type":"uint256","internalType":"uint256"}],"stateMutability":"view"},{"type":"function","name":"initialize","inputs":[{"name":"initialOwner_","type":"address","internalType":"address"},{"name":"oracleIntegrationAddress_","type":"address","internalType":"address"},{"name":"emergencyControllerAddress_","type":"address","internalType":"address"}],"outputs":[],"stateMutability":"nonpayable"},{"type":"function","name":"isEmergencyPaused","inputs":[],"outputs":[{"name":"isPaused","type":"bool","internalType":"bool"}],"stateMutability":"view"},{"type":"function","name":"maxBlockDelay","inputs":[],"outputs":[{"name":"","type":"uint256","internalType":"uint256"}],"stateMutability":"view"},{"type":"function","name":"maxPriceDeviationEmergency","inputs":[],"outputs":[{"name":"","type":"uint256","internalType":"uint256"}],"stateMutability":"view"},{"type":"function","name":"maxPriceDeviationNormal","inputs":[],"outputs":[{"name":"","type":"uint256","internalType":"uint256"}],"stateMutability":"view"},{"type":"function","name":"maxPriceImpactEmergency","inputs":[],"outputs":[{"name":"","type":"uint256","internalType":"uint256"}],"stateMutability":"view"},{"type":"function","name":"maxPriceImpactNormal","inputs":[],"outputs":[{"name":"","type":"uint256","internalType":"uint256"}],"stateMutability":"view"},{"type":"function","name":"minAcceptablePrice","inputs":[],"outputs":[{"name":"","type":"uint256","internalType":"uint256"}],"stateMutability":"view"},{"type":"function","name":"minBlockDelay","inputs":[],"outputs":[{"name":"","type":"uint256","internalType":"uint256"}],"stateMutability":"view"},{"type":"function","name":"oracleIntegration","inputs":[],"outputs":[{"name":"","type":"address","internalType":"contract OracleIntegration"}],"stateMutability":"view"},{"type":"function","name":"owner","inputs":[],"outputs":[{"name":"","type":"address","internalType":"address"}],"stateMutability":"view"},{"type":"function","name":"preventFrontRunning","inputs":[{"name":"commitHash","type":"bytes32","internalType":"bytes32"},{"name":"operationType","type":"uint8","internalType":"uint8"},{"name":"parameters","type":"bytes","internalType":"bytes"},{"name":"salt","type":"bytes32","internalType":"bytes32"}],"outputs":[{"name":"isValid","type":"bool","internalType":"bool"}],"stateMutability":"view"},{"type":"function","name":"registerCommitment","inputs":[{"name":"commitHash","type":"bytes32","internalType":"bytes32"}],"outputs":[{"name":"success","type":"bool","internalType":"bool"}],"stateMutability":"nonpayable"},{"type":"function","name":"renounceOwnership","inputs":[],"outputs":[],"stateMutability":"nonpayable"},{"type":"function","name":"setCommitRevealParameters","inputs":[{"name":"newMinBlockDelay_","type":"uint256","internalType":"uint256"},{"name":"newMaxBlockDelay_","type":"uint256","internalType":"uint256"}],"outputs":[{"name":"success","type":"bool","internalType":"bool"}],"stateMutability":"nonpayable"},{"type":"function","name":"setEmergencyController","inputs":[{"name":"controller","type":"address","internalType":"address"}],"outputs":[{"name":"success","type":"bool","internalType":"bool"}],"stateMutability":"nonpayable"},{"type":"function","name":"setMinAcceptablePrice","inputs":[{"name":"newMinPrice","type":"uint256","internalType":"uint256"}],"outputs":[{"name":"success","type":"bool","internalType":"bool"}],"stateMutability":"nonpayable"},{"type":"function","name":"setOracleIntegration","inputs":[{"name":"oracleAddress","type":"address","internalType":"address"}],"outputs":[{"name":"success","type":"bool","internalType":"bool"}],"stateMutability":"nonpayable"},{"type":"function","name":"setPriceGuardParameters","inputs":[{"name":"newMaxPriceImpactNormal_","type":"uint256","internalType":"uint256"},{"name":"newMaxPriceImpactEmergency_","type":"uint256","internalType":"uint256"},{"name":"newMaxPriceDeviationNormal_","type":"uint256","internalType":"uint256"},{"name":"newMaxPriceDeviationEmergency_","type":"uint256","internalType":"uint256"}],"outputs":[{"name":"success","type":"bool","internalType":"bool"}],"stateMutability":"nonpayable"},{"type":"function","name":"transferOwnership","inputs":[{"name":"newOwner","type":"address","internalType":"address"}],"outputs":[],"stateMutability":"nonpayable"},{"type":"function","name":"validateSlippage","inputs":[{"name":"expectedAmount","type":"uint256","internalType":"uint256"},{"name":"actualAmount","type":"uint256","internalType":"uint256"},{"name":"slippageBps","type":"uint256","internalType":"uint256"}],"outputs":[{"name":"isWithinTolerance","type":"bool","internalType":"bool"}],"stateMutability":"pure"},{"type":"function","name":"verifyCommitment","inputs":[{"name":"operationType","type":"uint8","internalType":"uint8"},{"name":"parameters","type":"bytes","internalType":"bytes"},{"name":"salt","type":"bytes32","internalType":"bytes32"}],"outputs":[{"name":"isValid","type":"bool","internalType":"bool"}],"stateMutability":"nonpayable"},{"type":"event","name":"CommitRevealParametersUpdated","inputs":[{"name":"oldMinBlockDelay","type":"uint256","indexed":false,"internalType":"uint256"},{"name":"newMinBlockDelay","type":"uint256","indexed":false,"internalType":"uint256"},{"name":"oldMaxBlockDelay","type":"uint256","indexed":false,"internalType":"uint256"},{"name":"newMaxBlockDelay","type":"uint256","indexed":false,"internalType":"uint256"},{"name":"updater","type":"address","indexed":true,"internalType":"address"}],"anonymous":false},{"type":"event","name":"CommitmentRegistered","inputs":[{"name":"commitHash","type":"bytes32","indexed":true,"internalType":"bytes32"},{"name":"committer","type":"address","indexed":true,"internalType":"address"},{"name":"blockNumber","type":"uint256","indexed":false,"internalType":"uint256"}],"anonymous":false},{"type":"event","name":"CommitmentRevealed","inputs":[{"name":"commitHash","type":"bytes32","indexed":true,"internalType":"bytes32"},{"name":"revealer","type":"address","indexed":true,"internalType":"address"},{"name":"operationHash","type":"bytes32","indexed":false,"internalType":"bytes32"},{"name":"blockDelay","type":"uint256","indexed":false,"internalType":"uint256"}],"anonymous":false},{"type":"event","name":"EmergencyControllerSet","inputs":[{"name":"oldController","type":"address","indexed":true,"internalType":"address"},{"name":"newController","type":"address","indexed":true,"internalType":"address"},{"name":"setter","type":"address","indexed":true,"internalType":"address"}],"anonymous":false},{"type":"event","name":"EmergencyShutdownHandled","inputs":[{"name":"emergencyLevel","type":"uint8","indexed":false,"internalType":"uint8"},{"name":"caller","type":"address","indexed":true,"internalType":"address"}],"anonymous":false},{"type":"event","name":"EmergencyStatusChecked","inputs":[{"name":"emergencyLevel","type":"uint8","indexed":false,"internalType":"uint8"},{"name":"operation","type":"bytes4","indexed":false,"internalType":"bytes4"},{"name":"allowed","type":"bool","indexed":false,"internalType":"bool"}],"anonymous":false},{"type":"event","name":"Initialized","inputs":[{"name":"version","type":"uint8","indexed":false,"internalType":"uint8"}],"anonymous":false},{"type":"event","name":"MinAcceptablePriceUpdated","inputs":[{"name":"oldPrice","type":"uint256","indexed":false,"internalType":"uint256"},{"name":"newPrice","type":"uint256","indexed":false,"internalType":"uint256"},{"name":"updater","type":"address","indexed":true,"internalType":"address"}],"anonymous":false},{"type":"event","name":"OracleIntegrationSet","inputs":[{"name":"oldOracle","type":"address","indexed":true,"internalType":"address"},{"name":"newOracle","type":"address","indexed":true,"internalType":"address"},{"name":"setter","type":"address","indexed":true,"internalType":"address"}],"anonymous":false},{"type":"event","name":"OwnershipTransferred","inputs":[{"name":"previousOwner","type":"address","indexed":true,"internalType":"address"},{"name":"newOwner","type":"address","indexed":true,"internalType":"address"}],"anonymous":false},{"type":"event","name":"PriceGuardParametersUpdated","inputs":[{"name":"newMaxPriceImpactNormal","type":"uint256","indexed":false,"internalType":"uint256"},{"name":"newMaxPriceImpactEmergency","type":"uint256","indexed":false,"internalType":"uint256"},{"name":"newMaxPriceDeviationNormal","type":"uint256","indexed":false,"internalType":"uint256"},{"name":"newMaxPriceDeviationEmergency","type":"uint256","indexed":false,"internalType":"uint256"},{"name":"updater","type":"address","indexed":true,"internalType":"address"}],"anonymous":false},{"type":"event","name":"PriceImpactExceeded","inputs":[{"name":"token0","type":"address","indexed":true,"internalType":"address"},{"name":"token1","type":"address","indexed":true,"internalType":"address"},{"name":"expectedPrice","type":"uint256","indexed":false,"internalType":"uint256"},{"name":"actualPrice","type":"uint256","indexed":false,"internalType":"uint256"},{"name":"impactBps","type":"uint256","indexed":false,"internalType":"uint256"}],"anonymous":false},{"type":"error","name":"AmountIsZero","inputs":[]},{"type":"error","name":"InvalidAmount","inputs":[]},{"type":"error","name":"InvalidDuration","inputs":[]},{"type":"error","name":"LM_SlippageInvalid","inputs":[{"name":"tolerance","type":"uint256","internalType":"uint256"}]},{"type":"error","name":"NotAContract","inputs":[{"name":"context","type":"string","internalType":"string"}]},{"type":"error","name":"NotAuthorized","inputs":[{"name":"requiredRole","type":"bytes32","internalType":"bytes32"}]},{"type":"error","name":"OI_MinAcceptablePriceZero","inputs":[]},{"type":"error","name":"OI_MinPriceNotMet","inputs":[{"name":"price","type":"uint256","internalType":"uint256"},{"name":"min","type":"uint256","internalType":"uint256"}]},{"type":"error","name":"PG_FallbackPriceNotAllowed","inputs":[]},{"type":"error","name":"SM_CommitHashZero","inputs":[]},{"type":"error","name":"SM_ControllerZero","inputs":[]},{"type":"error","name":"SM_CooldownNotPositive","inputs":[]},{"type":"error","name":"SM_CooldownTooHigh","inputs":[]},{"type":"error","name":"SM_OracleZero","inputs":[]},{"type":"error","name":"SM_ParamsEmpty","inputs":[]},{"type":"error","name":"SM_PriceNotPositive","inputs":[]},{"type":"error","name":"SM_SaltZero","inputs":[]},{"type":"error","name":"SystemInEmergencyMode","inputs":[]},{"type":"error","name":"ZeroAddress","inputs":[{"name":"context","type":"string","internalType":"string"}]}],"bytecode":{"object":"0x6080806040523460bd576000549060ff8260081c16606b575060ff808216036031575b604051611e2890816100c38239f35b60ff90811916176000557f7f26b83ff96e1f2b6a682f133852f6798a09c465da95921460cefb3847402498602060405160ff8152a1386022565b62461bcd60e51b815260206004820152602760248201527f496e697469616c697a61626c653a20636f6e747261637420697320696e697469604482015266616c697a696e6760c81b6064820152608490fd5b600080fdfe608080604052600436101561001357600080fd5b60003560e01c908163020def581461149c57508063113ed4f21461147b5780631274e810146113ca57806328b9a50314611353578063290d10c4146113385780633ca614bb1461131a5780636ca7dc8914611253578063715018a6146111f657806372615704146111d85780637a936beb146107ee5780638005a5e5146111a4578063803c15df1461118b578063834a742f14610eef578063839df94514610ebe57806388a1eb7814610ea05780638aed668a14610e665780638da5cb5b14610e3d578063965e474914610d445780639c6f117714610d1b578063a936119914610c56578063b82bc4c514610a6c578063c0c53b8b14610835578063c245fa9814610817578063c993cc9d146107ee578063ccb70658146107d0578063d35c4ae11461070a578063d9e314d8146105c6578063e471753b146105a8578063eb1676c114610516578063f1cacf241461023f578063f2fde38b146101b05763ff7144ce1461017f57600080fd5b346101ab5760203660031901126101ab5760043560005260a16020526020604060002054604051908152f35b600080fd5b346101ab5760203660031901126101ab576101c96114d1565b6101d1611a5a565b6001600160a01b038116156101eb576101e990611ab2565b005b60405162461bcd60e51b815260206004820152602660248201527f4f776e61626c653a206e6577206f776e657220697320746865207a65726f206160448201526564647265737360d01b6064820152608490fd5b346101ab5760803660031901126101ab576102586114d1565b6102606114e7565b6044359060643592610270611afb565b604051630a43443160e21b8152602081600481305afa90811561050a576000916104d0575b506104bf576001600160a01b0316908115610479576001600160a01b031690811561043357821561042257831561042257609f5493848410610408578481106103ef57602094508381106103db576102f6846102f18184611996565b611c8d565b905b60985460029060ff906000906001600160a01b03168061037e575b50161061037657609a545b82119485610337575b8686600160655560405190158152f35b7f2ac6d4a2e8fc8f737708312453671652f1ecc7d9cc7ad51d49ff160f62fc265692606092604051928352888301526040820152a38280808080610327565b60995461031e565b8960049160405192838092630743c9d960e51b82525afa600091816103ac575b501561031357905089610313565b6103cd9192508b3d8d116103d4575b6103c5818361150d565b810190611611565b908b61039e565b503d6103bb565b6103e9846102f18382611996565b906102f8565b8490633dc795d160e01b60005260045260245260446000fd5b505050633dc795d160e01b60005260045260245260446000fd5b63032f0ce560e01b60005260046000fd5b60405163eac0d38960e01b815260206004820152601b60248201527f746f6b656e3120666f7220636865636b5072696365496d7061637400000000006044820152606490fd5b60405163eac0d38960e01b815260206004820152601b60248201527f746f6b656e3020666f7220636865636b5072696365496d7061637400000000006044820152606490fd5b63a36c61e760e01b60005260046000fd5b90506020813d602011610502575b816104eb6020938361150d565b810103126101ab576104fc90611604565b85610295565b3d91506104de565b6040513d6000823e3d90fd5b346101ab5760203660031901126101ab5761052f6114fd565b6098546001600160a01b0316801561059757803303610583575060ff604051911681527f653b015d928c6cff1b70682b7d5afa1bbe5e5aa468f4a35076e9d0141a9cb1bc60203392a2602060405160018152f35b6323d6951f60e21b60005260045260246000fd5b6310b3664b60e21b60005260046000fd5b346101ab5760003660031901126101ab576020609d54604051908152f35b346101ab5760203660031901126101ab576004356105e2611afb565b604051630a43443160e21b8152602081600481305afa90811561050a576000916106d0575b506104bf5780156106bf578060005260a060205260ff604060002054166106ae578060005260a06020526040600020600160ff198254161790558060005260a1602052436040600020558060005260a26020526040600020336001600160601b0360a01b825416179055604051904382527f904ad83be12184707748961b680892373fccaf297ba706f5c4812e5c3eeea0bb60203393a36001606555602060405160018152f35b63162908e360e11b60005260046000fd5b634733e53f60e01b60005260046000fd5b90506020813d602011610702575b816106eb6020938361150d565b810103126101ab576106fc90611604565b82610607565b3d91506106de565b346101ab5760803660031901126101ab576004356024359060ff8216918281036101ab5760443567ffffffffffffffff81116101ab5761074e903690600401611545565b906064359383156106bf5782511590816107c6575b506107b55783156107a45761079860209461078a604051938492888401964692338961192d565b03601f19810183528261150d565b51902014604051908152f35b6371cb5abb60e01b60005260046000fd5b630c10297b60e31b60005260046000fd5b9050151585610763565b346101ab5760003660031901126101ab576020609954604051908152f35b346101ab5760003660031901126101ab576098546040516001600160a01b039091168152602090f35b346101ab5760003660031901126101ab576020609f54604051908152f35b346101ab5760603660031901126101ab5761084e6114d1565b6108566114e7565b906044356001600160a01b03811691908290036101ab576000549260ff8460081c161593848095610a5f575b8015610a48575b156109ec5760ff198116600117600055846109da575b506108ba60ff60005460081c166108b581611b51565b611b51565b6108c333611ab2565b6108d860ff60005460081c166108b581611b51565b60016065556001600160a01b038216156109a4576001600160a01b031691821561099357801561059757610955926001600160601b0360a01b60975416176097556001600160601b0360a01b609854161760985560c86099556032609a556101f4609b556064609c556001609d556064609e556001609f55611ab2565b61095b57005b61ff0019600054166000557f7f26b83ff96e1f2b6a682f133852f6798a09c465da95921460cefb3847402498602060405160018152a1005b636cd0058760e01b60005260046000fd5b60405163eac0d38960e01b815260206004820152600d60248201526c696e697469616c4f776e65725f60981b6044820152606490fd5b61ffff1916610101176000558461089f565b60405162461bcd60e51b815260206004820152602e60248201527f496e697469616c697a61626c653a20636f6e747261637420697320616c72656160448201526d191e481a5b9a5d1a585b1a5e995960921b6064820152608490fd5b50303b1580156108895750600160ff821614610889565b50600160ff821610610882565b346101ab5760603660031901126101ab57610a856114fd565b60243567ffffffffffffffff81116101ab57610aa5903690600401611545565b90610aae611afb565b604051630a43443160e21b8152602081600481305afa90811561050a57600091610c1c575b506104bf57604051610af58161078a602082019446908760443591338961192d565b51902080156106bf578060005260a060205260ff60406000205416156106ae578060005260a26020523360018060a01b036040600020541603610c06578060005260a1602052604060002054804311156106ae57610b539043611996565b91609d5483106106ae57609e548015159081610bfc575b506106ae578160005260a0602052604060002060ff1981541690558160005260a1602052600060408120558160005260a260205260406000206001600160601b0360a01b8154169055602081519101209160405192835260208301527f69f3901fa6e91187f9951fcf6a1196005425c59f59ff81e8898b8889fc6477c160403393a36001606555602060405160018152f35b9050831184610b6a565b6323d6951f60e21b600052600060045260246000fd5b90506020813d602011610c4e575b81610c376020938361150d565b810103126101ab57610c4890611604565b83610ad3565b3d9150610c2a565b346101ab5760203660031901126101ab57610c6f6114d1565b610c77611a5a565b6001600160a01b038116908115610993573b15610ce157609780546001600160a01b03198116831790915560405160209290913391906001600160a01b03167f9eab87bfc4657f2647d523442668edbd6d841f5fe42e541dbb5f474431c51372600080a460018152f35b604051630dd2788360e41b815260206004820152601160248201527027b930b1b632a4b73a32b3b930ba34b7b760791b6044820152606490fd5b346101ab5760003660031901126101ab576097546040516001600160a01b039091168152602090f35b346101ab5760403660031901126101ab57600435602435610d63611a5a565b811580610e32575b610e21578015158080610e17575b610e06576103e882119081610dfe575b50610ded57609d8054609e80549285905583905560408051918252602082019490945292830152606082015233907f8dfd1728c7c110d5a4adb7e1a9aac2db6d2b5f42f1b07b192c328e1aff3758ef9080608081015b0390a2602060405160018152f35b630c312dd960e01b60005260046000fd5b905083610d89565b637616640160e01b60005260046000fd5b5082821115610d79565b630e19e35f60e21b60005260046000fd5b50609d541515610d6b565b346101ab5760003660031901126101ab576033546040516001600160a01b039091168152602090f35b346101ab5760203660031901126101ab576004356001600160e01b0319811681036101ab57610e966020916117af565b6040519015158152f35b346101ab5760003660031901126101ab576020609c54604051908152f35b346101ab5760203660031901126101ab5760043560005260a0602052602060ff604060002054166040519015158152f35b346101ab5760403660031901126101ab57610f086114d1565b610f106114e7565b90604051630a43443160e21b8152602081600481305afa90811561050a57600091611151575b506104bf576001600160a01b031690811561110b576001600160a01b031680156110c5576097546001600160a01b03169081156109935760405192630681320d60e51b84526004840152606083602481855afa90811561050a5760009360009261109e575b50606090602460405180958193630681320d60e51b835260048301525afa801561050a576000928391611068575b508115611060575b5061104f57811561042257609f549182821080611046575b61102e57610ff691611bb1565b81811080611025575b61100e57602090604051908152f35b633dc795d160e01b60005260045260245260446000fd5b50801515610fff565b50633dc795d160e01b60005260045260245260446000fd5b50811515610fe9565b6398793b3d60e01b60005260046000fd5b905083610fd1565b905061108d91925060603d606011611097575b611085818361150d565b81019061178d565b5091909184610fc9565b503d61107b565b60608095506110ba9293503d861161109757611085818361150d565b509390939190610f9b565b60405163eac0d38960e01b815260206004820152601b60248201527f746f6b656e3120666f72206765744578706563746564507269636500000000006044820152606490fd5b60405163eac0d38960e01b815260206004820152601b60248201527f746f6b656e3020666f72206765744578706563746564507269636500000000006044820152606490fd5b90506020813d602011611183575b8161116c6020938361150d565b810103126101ab5761117d90611604565b83610f36565b3d915061115f565b346101ab576020610e9661119e366114b7565b9161171c565b346101ab5760203660031901126101ab5760043560005260a2602052602060018060a01b0360406000205416604051908152f35b346101ab5760003660031901126101ab576020609a54604051908152f35b346101ab5760003660031901126101ab5761120f611a5a565b603380546001600160a01b031981169091556000906001600160a01b03167f8be0079c531659141344cd1fd0a4f28419497f9722a3daafe3b4186f6b6457e08280a3005b346101ab5760203660031901126101ab5761126c6114d1565b611274611a5a565b6001600160a01b038116908115610597573b156112de57609880546001600160a01b03198116831790915560405160209290913391906001600160a01b03167ff74ec9978ba2b855629831c18da14f9c37095cf07acc97fcf2842a893d3245ef600080a460018152f35b604051630dd2788360e41b815260206004820152601360248201527222b6b2b933b2b731bca1b7b73a3937b63632b960691b6044820152606490fd5b346101ab5760003660031901126101ab576020609b54604051908152f35b346101ab5760003660031901126101ab576020610e9661162a565b346101ab5760203660031901126101ab5760043561136f611a5a565b80156113b957609f549080609f5560405191825260208201527fcf9f7c92ed94e14575ea570ab65e0a596649e30b950fff8db73a92efa84d9b0160403392a2602060405160018152f35b638b59a4b760e01b60005260046000fd5b346101ab5760803660031901126101ab576004356064356044356024356113ef611a5a565b61138884116106ae576109c481116106ae5761138882116106ae576109c483116106ae578381116106ae578183116106ae57610ddf7f5195855bc4483dac987cea8b53d0d1cf690795bf902f3aeb12a9b08a910c53cf938560995582609a5583609b5580609c556040519384933397859094939260609260808301968352602083015260408201520152565b346101ab57602061149461148e366114b7565b9161159c565b604051908152f35b346101ab5760003660031901126101ab57602090609e548152f35b60609060031901126101ab57600435906024359060443590565b600435906001600160a01b03821682036101ab57565b602435906001600160a01b03821682036101ab57565b6004359060ff821682036101ab57565b90601f8019910116810190811067ffffffffffffffff82111761152f57604052565b634e487b7160e01b600052604160045260246000fd5b81601f820112156101ab5780359067ffffffffffffffff821161152f576040519261157a601f8401601f19166020018561150d565b828452602083830101116101ab57816000926020809301838601378301015290565b80156115dc5781156104225761138883116115c7576115c492916115bf916119b9565b6119df565b90565b82637086c99760e11b60005260045260246000fd5b505050600090565b81156115ee570490565b634e487b7160e01b600052601260045260246000fd5b519081151582036101ab57565b908160209103126101ab575160ff811681036101ab5790565b6098546001600160a01b0316801561171657604051631da4712b60e21b81526000918291602081600481855afa8491816116d6575b506116cd575b50602060049160405192838092630743c9d960e51b82525afa600091816116ac575b506116a4575b508115611698575090565b6003915060ff16101590565b90503861168d565b6116c691925060203d6020116103d4576103c5818361150d565b9038611687565b92506020611665565b9091506020813d60201161170e575b816116f26020938361150d565b8101031261170a5761170390611604565b903861165f565b8480fd5b3d91506116e5565b50600090565b90919080158080611784575b611773578061176b575b61176357611388821161174e5790611749916119df565b111590565b50637086c99760e11b60005260045260246000fd5b505050600190565b508215611732565b6310eb483f60e21b60005260046000fd5b50831515611728565b908160609103126101ab5780519160406117a960208401611604565b92015190565b6098546001600160a01b0316801561192657604051634d12488760e01b81526001600160e01b03199092166004830152600091829190602081602481855afa8391816118e6575b506118de575b50604051631da4712b60e21b8152602081600481855afa600091816118a2575b50611899575b50602060049160405192838092630743c9d960e51b82525afa60009181611878575b5061185c575b50159081611856575090565b90501590565b60ff60039116101561186f575b3861184a565b60019150611869565b61189291925060203d6020116103d4576103c5818361150d565b9038611844565b92506020611822565b9091506020813d6020116118d6575b816118be6020938361150d565b810103126101ab576118cf90611604565b903861181c565b3d91506118b1565b9150386117fc565b9091506020813d60201161191e575b816119026020938361150d565b8101031261191a5761191390611604565b90386117f6565b8380fd5b3d91506118f5565b5050600190565b60609190911b6bffffffffffffffffffffffff1916815260f89190911b6001600160f81b03191660148201528151919493919060005b828110611980575060559495500191601583015260358201520190565b8060208092890101516015828501015201611963565b919082039182116119a357565b634e487b7160e01b600052601160045260246000fd5b90811580156119d7575b6119d0576115c491611d0e565b5050600090565b5080156119c3565b906127108111611a0a5781156119d0576119f99082611d89565b818110156119d0576115c491611996565b60405162461bcd60e51b815260206004820152602260248201527f446563696d616c4d6174683a20736c6970706167652065786365656473203130604482015261302560f01b6064820152608490fd5b6033546001600160a01b03163303611a6e57565b606460405162461bcd60e51b815260206004820152602060248201527f4f776e61626c653a2063616c6c6572206973206e6f7420746865206f776e65726044820152fd5b603380546001600160a01b039283166001600160a01b0319821681179092559091167f8be0079c531659141344cd1fd0a4f28419497f9722a3daafe3b4186f6b6457e0600080a3565b600260655414611b0c576002606555565b60405162461bcd60e51b815260206004820152601f60248201527f5265656e7472616e637947756172643a207265656e7472616e742063616c6c006044820152606490fd5b15611b5857565b60405162461bcd60e51b815260206004820152602b60248201527f496e697469616c697a61626c653a20636f6e7472616374206973206e6f74206960448201526a6e697469616c697a696e6760a81b6064820152608490fd5b600019670de0b6b3a7640000820991670de0b6b3a7640000820291828085109403938085039414611c815783821115611c4457670de0b6b3a764000082910960018219018216809204600281600302188082026002030280820260020302808202600203028082026002030280820260020302809102600203029360018380600003040190848311900302920304170290565b60405162461bcd60e51b81526020600482015260156024820152744d6174683a206d756c446976206f766572666c6f7760581b6044820152606490fd5b50906115c492506115e4565b600019612710820991612710820291828085109403938085039414611c815783821115611c445761271082910960018219018216809204600281600302188082026002030280820260020302808202600203028082026002030280820260020302809102600203029360018380600003040190848311900302920304170290565b60001982820982820291828083109203918083039214611d785781670de0b6b3a76400001115611c44577faccb18165bd6fe31ae1cf318dc5b51eee0e1ba569b88cd74c1773b91fac1066993670de0b6b3a7640000910990828211900360ee1b910360121c170290565b5050670de0b6b3a764000091500490565b60001982820982820291828083109203918083039214611de757816127101115611c44577fbc01a36e2eb1c432ca57a786c226809d495182a9930be0ded288ce703afb7e9193612710910990828211900360fc1b910360041c170290565b50506127109150049056fea2646970667358221220732abc0c9c16992e28ddd76011cc37b1e81ef63f5ec31a4cb0d2579943a6908364736f6c634300081c0033","linkReferences":{}},"methodIdentifiers":{"calculateMinimumOutput(uint256,uint256,uint256)":"113ed4f2","checkEmergencyStatus(bytes4)":"8aed668a","checkPriceImpact(address,address,uint256,uint256)":"f1cacf24","commitmentBlocks(bytes32)":"ff7144ce","commitmentCreators(bytes32)":"8005a5e5","commitments(bytes32)":"839df945","emergencyController()":"7a936beb","emergencyShutdown(uint8)":"eb1676c1","getEmergencyController()":"c993cc9d","getExpectedPrice(address,address)":"834a742f","initialize(address,address,address)":"c0c53b8b","isEmergencyPaused()":"290d10c4","maxBlockDelay()":"020def58","maxPriceDeviationEmergency()":"88a1eb78","maxPriceDeviationNormal()":"3ca614bb","maxPriceImpactEmergency()":"72615704","maxPriceImpactNormal()":"ccb70658","minAcceptablePrice()":"c245fa98","minBlockDelay()":"e471753b","oracleIntegration()":"9c6f1177","owner()":"8da5cb5b","preventFrontRunning(bytes32,uint8,bytes,bytes32)":"d35c4ae1","registerCommitment(bytes32)":"d9e314d8","renounceOwnership()":"715018a6","setCommitRevealParameters(uint256,uint256)":"965e4749","setEmergencyController(address)":"6ca7dc89","setMinAcceptablePrice(uint256)":"28b9a503","setOracleIntegration(address)":"a9361199","setPriceGuardParameters(uint256,uint256,uint256,uint256)":"1274e810","transferOwnership(address)":"f2fde38b","validateSlippage(uint256,uint256,uint256)":"803c15df","verifyCommitment(uint8,bytes,bytes32)":"b82bc4c5"},"id":49}