{"abi":[{"type":"constructor","inputs":[],"stateMutability":"nonpayable"},{"type":"function","name":"accessControl","inputs":[],"outputs":[{"name":"","type":"address","internalType":"contract AccessControl"}],"stateMutability":"view"},{"type":"function","name":"addValidImplementation","inputs":[{"name":"implementationToAdd","type":"address","internalType":"address"}],"outputs":[{"name":"successFlag","type":"bool","internalType":"bool"}],"stateMutability":"nonpayable"},{"type":"function","name":"cancelUpgrade","inputs":[{"name":"proxy","type":"address","internalType":"address"}],"outputs":[{"name":"successFlag","type":"bool","internalType":"bool"}],"stateMutability":"nonpayable"},{"type":"function","name":"changeProxyAdmin","inputs":[{"name":"proxy","type":"address","internalType":"address"},{"name":"newAdmin","type":"address","internalType":"address"}],"outputs":[],"stateMutability":"nonpayable"},{"type":"function","name":"checkEmergencyStatus","inputs":[{"name":"operation","type":"bytes4","internalType":"bytes4"}],"outputs":[{"name":"finalOperationAllowed","type":"bool","internalType":"bool"}],"stateMutability":"view"},{"type":"function","name":"emergencyController","inputs":[],"outputs":[{"name":"","type":"address","internalType":"contract EmergencyController"}],"stateMutability":"view"},{"type":"function","name":"emergencyShutdown","inputs":[{"name":"emergencyLevelInput","type":"uint8","internalType":"uint8"}],"outputs":[{"name":"successFlag","type":"bool","internalType":"bool"}],"stateMutability":"nonpayable"},{"type":"function","name":"executeUpgrade","inputs":[{"name":"proxy","type":"address","internalType":"address"}],"outputs":[],"stateMutability":"payable"},{"type":"function","name":"getEmergencyController","inputs":[],"outputs":[{"name":"controllerAddress","type":"address","internalType":"address"}],"stateMutability":"view"},{"type":"function","name":"getImplementationCount","inputs":[],"outputs":[{"name":"countValue","type":"uint256","internalType":"uint256"}],"stateMutability":"view"},{"type":"function","name":"getProxyAdmin","inputs":[{"name":"proxy","type":"address","internalType":"address"}],"outputs":[{"name":"adminAddress","type":"address","internalType":"address"}],"stateMutability":"view"},{"type":"function","name":"getProxyImplementation","inputs":[{"name":"proxy","type":"address","internalType":"address"}],"outputs":[{"name":"implementationAddress","type":"address","internalType":"address"}],"stateMutability":"view"},{"type":"function","name":"getUpgradeProposal","inputs":[{"name":"proxy","type":"address","internalType":"address"}],"outputs":[{"name":"implOut","type":"address","internalType":"address"},{"name":"propTimeOut","type":"uint256","internalType":"uint256"},{"name":"timeRemOut","type":"uint256","internalType":"uint256"},{"name":"canExecOut","type":"bool","internalType":"bool"},{"name":"verifiedOut","type":"bool","internalType":"bool"},{"name":"proposerOut","type":"address","internalType":"address"}],"stateMutability":"view"},{"type":"function","name":"implementationCount","inputs":[],"outputs":[{"name":"","type":"uint256","internalType":"uint256"}],"stateMutability":"view"},{"type":"function","name":"initialize","inputs":[{"name":"accessControlAddress_","type":"address","internalType":"address"},{"name":"emergencyControllerAddress_","type":"address","internalType":"address"},{"name":"timelockDuration_","type":"uint256","internalType":"uint256"},{"name":"initialAdmin_","type":"address","internalType":"address"}],"outputs":[],"stateMutability":"nonpayable"},{"type":"function","name":"isEmergencyPaused","inputs":[],"outputs":[{"name":"isEffectivelyPaused","type":"bool","internalType":"bool"}],"stateMutability":"view"},{"type":"function","name":"proposeUpgrade","inputs":[{"name":"proxy","type":"address","internalType":"address"},{"name":"newImplementationProposed","type":"address","internalType":"address"}],"outputs":[],"stateMutability":"nonpayable"},{"type":"function","name":"proposeUpgradeAndCall","inputs":[{"name":"proxy","type":"address","internalType":"address"},{"name":"newImplementationProposed","type":"address","internalType":"address"},{"name":"data","type":"bytes","internalType":"bytes"}],"outputs":[],"stateMutability":"nonpayable"},{"type":"function","name":"removeValidImplementation","inputs":[{"name":"implementationToRemove","type":"address","internalType":"address"}],"outputs":[{"name":"successFlag","type":"bool","internalType":"bool"}],"stateMutability":"nonpayable"},{"type":"function","name":"setEmergencyController","inputs":[{"name":"controllerAddr","type":"address","internalType":"address"}],"outputs":[{"name":"successFlag","type":"bool","internalType":"bool"}],"stateMutability":"nonpayable"},{"type":"function","name":"updateTimelock","inputs":[{"name":"newTimelock","type":"uint256","internalType":"uint256"}],"outputs":[],"stateMutability":"nonpayable"},{"type":"function","name":"upgradeProposals","inputs":[{"name":"","type":"address","internalType":"address"}],"outputs":[{"name":"implementation","type":"address","internalType":"address"},{"name":"proposalTime","type":"uint256","internalType":"uint256"},{"name":"data","type":"bytes","internalType":"bytes"},{"name":"useData","type":"bool","internalType":"bool"},{"name":"verified","type":"bool","internalType":"bool"},{"name":"proposer","type":"address","internalType":"address"}],"stateMutability":"view"},{"type":"function","name":"upgradeTimelock","inputs":[],"outputs":[{"name":"","type":"uint256","internalType":"uint256"}],"stateMutability":"view"},{"type":"function","name":"validImplementations","inputs":[{"name":"","type":"address","internalType":"address"}],"outputs":[{"name":"","type":"bool","internalType":"bool"}],"stateMutability":"view"},{"type":"event","name":"EmergencyControllerSet","inputs":[{"name":"oldController","type":"address","indexed":true,"internalType":"address"},{"name":"newController","type":"address","indexed":true,"internalType":"address"},{"name":"setter","type":"address","indexed":true,"internalType":"address"}],"anonymous":false},{"type":"event","name":"EmergencyShutdownHandled","inputs":[{"name":"emergencyLevel","type":"uint8","indexed":false,"internalType":"uint8"},{"name":"caller","type":"address","indexed":true,"internalType":"address"}],"anonymous":false},{"type":"event","name":"EmergencyStatusChecked","inputs":[{"name":"emergencyLevel","type":"uint8","indexed":false,"internalType":"uint8"},{"name":"operation","type":"bytes4","indexed":false,"internalType":"bytes4"},{"name":"allowed","type":"bool","indexed":false,"internalType":"bool"}],"anonymous":false},{"type":"event","name":"Initialized","inputs":[{"name":"version","type":"uint8","indexed":false,"internalType":"uint8"}],"anonymous":false},{"type":"event","name":"TimelockUpdated","inputs":[{"name":"oldTimelock","type":"uint256","indexed":false,"internalType":"uint256"},{"name":"newTimelock","type":"uint256","indexed":false,"internalType":"uint256"},{"name":"updater","type":"address","indexed":true,"internalType":"address"}],"anonymous":false},{"type":"event","name":"UpgradeCancelled","inputs":[{"name":"proxy","type":"address","indexed":true,"internalType":"address"},{"name":"implementation","type":"address","indexed":true,"internalType":"address"},{"name":"canceller","type":"address","indexed":true,"internalType":"address"}],"anonymous":false},{"type":"event","name":"UpgradeExecuted","inputs":[{"name":"proxy","type":"address","indexed":true,"internalType":"address"},{"name":"newImplementation","type":"address","indexed":true,"internalType":"address"},{"name":"executor","type":"address","indexed":true,"internalType":"address"}],"anonymous":false},{"type":"event","name":"UpgradeProposed","inputs":[{"name":"proxy","type":"address","indexed":true,"internalType":"address"},{"name":"newImplementation","type":"address","indexed":true,"internalType":"address"},{"name":"executeAfter","type":"uint256","indexed":false,"internalType":"uint256"},{"name":"proposer","type":"address","indexed":true,"internalType":"address"}],"anonymous":false},{"type":"event","name":"ValidImplementationAdded","inputs":[{"name":"implementation","type":"address","indexed":true,"internalType":"address"},{"name":"adder","type":"address","indexed":true,"internalType":"address"}],"anonymous":false},{"type":"event","name":"ValidImplementationRemoved","inputs":[{"name":"implementation","type":"address","indexed":true,"internalType":"address"},{"name":"remover","type":"address","indexed":true,"internalType":"address"}],"anonymous":false},{"type":"error","name":"NotAContract","inputs":[{"name":"context","type":"string","internalType":"string"}]},{"type":"error","name":"NotAuthorized","inputs":[{"name":"requiredRole","type":"bytes32","internalType":"bytes32"}]},{"type":"error","name":"PA_AccessControlZero","inputs":[]},{"type":"error","name":"PA_AdminChangeFailed","inputs":[{"name":"reason","type":"string","internalType":"string"}]},{"type":"error","name":"PA_CallerNotEC","inputs":[]},{"type":"error","name":"PA_DataEmptyForCall","inputs":[]},{"type":"error","name":"PA_ECNotSet","inputs":[]},{"type":"error","name":"PA_EmergencyControllerZero","inputs":[]},{"type":"error","name":"PA_ExecImplNotAContract","inputs":[]},{"type":"error","name":"PA_GetAdminFailed","inputs":[]},{"type":"error","name":"PA_GetImplFailed","inputs":[]},{"type":"error","name":"PA_ImplAlreadyAdded","inputs":[]},{"type":"error","name":"PA_ImplNotAContract","inputs":[]},{"type":"error","name":"PA_ImplNotAdded","inputs":[]},{"type":"error","name":"PA_ImplNotApproved","inputs":[]},{"type":"error","name":"PA_ImplZero","inputs":[]},{"type":"error","name":"PA_ImplementationNoLongerValidAtExecution","inputs":[]},{"type":"error","name":"PA_InvalidTimelockDuration","inputs":[]},{"type":"error","name":"PA_NewAdminZero","inputs":[]},{"type":"error","name":"PA_NoProposalExists","inputs":[]},{"type":"error","name":"PA_NotAuthorizedToCancel","inputs":[]},{"type":"error","name":"PA_ProxyZero","inputs":[]},{"type":"error","name":"PA_TimelockNotYetExpired","inputs":[]},{"type":"error","name":"PA_UpgradeFailed","inputs":[{"name":"reason","type":"string","internalType":"string"}]},{"type":"error","name":"PA_UpgradePropExists","inputs":[]},{"type":"error","name":"SystemInEmergencyMode","inputs":[]},{"type":"error","name":"ZeroAddress","inputs":[{"name":"context","type":"string","internalType":"string"}]}],"bytecode":{"object":"0x6080806040523460bd576000549060ff8260081c16606b575060ff808216036031575b6040516127a790816100c38239f35b60ff90811916176000557f7f26b83ff96e1f2b6a682f133852f6798a09c465da95921460cefb3847402498602060405160ff8152a1386022565b62461bcd60e51b815260206004820152602760248201527f496e697469616c697a61626c653a20636f6e747261637420697320696e697469604482015266616c697a696e6760c81b6064820152608490fd5b600080fdfe608080604052600436101561001357600080fd5b600090813560e01c908163040a7f91146121185750806313007d55146120ed578063204e1c7a1461206f5780632745ad0214612030578063290d10c4146120155780632aa1bda014611fb9578063394d4bf314611b4b5780633d2d5535146119c65780633d381b44146117e857806345f806ab146117465780635495a8fa14611728578063684bdb2c146112f05780636ca7dc891461111a5780637a936beb146104535780637eff275e14610f01578063887fbd1c14610abb5780638aed668a14610a7f5780638c879fb914610a61578063be203094146106ef578063c44fb8ec1461047c578063c993cc9d14610453578063eb1676c1146103c4578063f3b7dead146103125763fa1ccffd1461012957600080fd5b3461030f57602036600319011261030f5780546004359060101c6001600160a01b03168015610300576040516204179d60ed1b8152602081600481855afa9081156102c25784916102cd575b50604051632474521560e21b81526004810191909152336024820152602081604481855afa9081156102c2578491610293575b50156102165750610e108110801561020a575b6101fb57600554908060055560405191825260208201527fd781030e92e9cd8a3e99deb66eb17e8126bec350891d76eab5afca42fb21fbfd60403392a280f35b63749e9c9f60e01b8252600482fd5b5062093a8081116101bb565b826020600492604051938480926204179d60ed1b82525afa801561028657819061024e575b6323d6951f60e21b825260045260249150fd5b506020823d60201161027e575b81610268602093836121cc565b81010312610279576024915161023b565b600080fd5b3d915061025b565b50604051903d90823e3d90fd5b6102b5915060203d6020116102bb575b6102ad81836121cc565b8101906122f2565b386101a8565b503d6102a3565b6040513d86823e3d90fd5b90506020813d6020116102f8575b816102e8602093836121cc565b8101031261027957516020610175565b3d91506102db565b63f880fc2160e01b8352600483fd5b80fd5b503461030f57602036600319011261030f5761032c612134565b6001600160a01b031680156103b5576020600491604051928380926303e1469160e61b82525afa829181610384575b5061036f57632f768ed960e21b8252600482fd5b6040516001600160a01b039091168152602090f35b6103a791925060203d6020116103ae575b61039f81836121cc565b8101906122d3565b903861035b565b503d610395565b63653c666960e11b8252600482fd5b503461030f57602036600319011261030f576004359060ff821680920361030f576001546001600160a01b0316801561044457330361043557506040519081527f653b015d928c6cff1b70682b7d5afa1bbe5e5aa468f4a35076e9d0141a9cb1bc60203392a2602060405160018152f35b630a895c0360e01b8152600490fd5b63684bd69160e01b8252600482fd5b503461030f578060031936011261030f576001546040516001600160a01b039091168152602090f35b503461030f57602036600319011261030f576001600160a01b0361049e612134565b1680156103b55780825260046020526040822080546001600160a01b03169081156106e057600301543360109190911c6001600160a01b0316148015610616575b8015610540575b156105315791602092828252600484526105026040832061252a565b604051927ff5eff18fc7e2a3a4dc9b716bece6721084abc1a1934a75f38798d3428e7f3828339380a460018152f35b63e00450ed60e01b8352600483fd5b50825460405163f72c0d8b60e01b815260109190911c6001600160a01b031690602081600481855afa90811561060b5785916105d7575b50604051632474521560e21b815260048101919091523360248201529060209082908180604481015b03915afa9081156102c25784916105b8575b506104e6565b6105d1915060203d6020116102bb576102ad81836121cc565b386105b2565b90506020813d602011610603575b816105f2602093836121cc565b8101031261027957516105a0610577565b3d91506105e5565b6040513d87823e3d90fd5b5082546040516204179d60ed1b815260109190911c6001600160a01b031690602081600481855afa90811561060b5785916106ac575b50604051632474521560e21b815260048101919091523360248201529060209082908180604481015b03915afa9081156102c257849161068d575b506104df565b6106a6915060203d6020116102bb576102ad81836121cc565b38610687565b90506020813d6020116106d8575b816106c7602093836121cc565b81010312610279575161067561064c565b3d91506106ba565b634d581cd160e01b8452600484fd5b503461030f57608036600319011261030f57610709612134565b61071161214a565b906064356001600160a01b038116604435818303610a5d5785549460ff8660081c161595868097610a50575b8015610a39575b156109dd5760ff1981166001178855866109cc575b506001600160a01b038516156109bd576001600160a01b0381169283156109ae571561097857610e108210801561096c575b61095d57843b15610927573b156108eb57855462010000600160b01b031916601094851b62010000600160b01b031617808755600180546001600160a01b0319169093179092556005556040516204179d60ed1b815285939190911c6001600160a01b031691602082600481865afa9182156102c25784926108b4575b50823b156108b057604051632f2ff15d60e01b815260048101929092526001600160a01b031660248201529082908290604490829084905af180156108a55761088c575b50506108555780f35b61ff001981541681557f7f26b83ff96e1f2b6a682f133852f6798a09c465da95921460cefb3847402498602060405160018152a180f35b81610896916121cc565b6108a157813861084c565b5080fd5b6040513d84823e3d90fd5b8380fd5b935090506020833d6020116108e3575b816108d1602093836121cc565b81010312610279578492519038610808565b3d91506108c4565b604051630dd2788360e41b815260206004820152601360248201527232b6b2b933b2b731bca1b7b73a3937b63632b960691b6044820152606490fd5b604051630dd2788360e41b815260206004820152600d60248201526c1858d8d95cdcd0dbdb9d1c9bdb609a1b6044820152606490fd5b63749e9c9f60e01b8752600487fd5b5062093a80821161078b565b60405163eac0d38960e01b815260206004820152600d60248201526c696e697469616c41646d696e5f60981b6044820152606490fd5b632611245960e01b8852600488fd5b63f880fc2160e01b8752600487fd5b61ffff191661010117875538610759565b60405162461bcd60e51b815260206004820152602e60248201527f496e697469616c697a61626c653a20636f6e747261637420697320616c72656160448201526d191e481a5b9a5d1a585b1a5e995960921b6064820152608490fd5b50303b1580156107445750600160ff821614610744565b50600160ff82161061073d565b8580fd5b503461030f578060031936011261030f576020600554604051908152f35b503461030f57602036600319011261030f57600435906001600160e01b03198216820361030f576020610ab18361262c565b6040519015158152f35b503461030f57604036600319011261030f57610ad5612134565b610add61214a565b825490919060101c6001600160a01b03168015610ef25760405163f72c0d8b60e01b8152602081600481855afa90811561060b578591610ebf575b50604051632474521560e21b81526004810191909152336024820152602081604481855afa90811561060b578591610ea0575b5015610e685750610b5a612323565b610e59576001600160a01b0316908115610e4a576001600160a01b038116908115610e3b57828452600460205260408420546001600160a01b0316610e2c573b15610e1d578291600354610def575b604051602093610bb985836121cc565b85825260405190610bc98261219a565b84825242868301908152604080840194855260608401898152921515608085019081523360a08601908152878b5260048a52918a20945185546001600160a01b0319166001600160a01b039190911617855591516001850155935180519294939192600283019167ffffffffffffffff8211610ddb57610c498354612160565b601f8111610da2575b5089908b601f8411600114610d2f5793610c9484610cae95600395610cc59995610cea9d9c9b9992610d24575b50508160011b916000199060031b1c19161790565b90555b0194511515859060ff801983541691151516179055565b51835461ff00191690151560081b61ff0016178355565b51815462010000600160b01b03191660109190911b62010000600160b01b0316179055565b7f9d46c424dbb24cb5db0226a1022c4be6afb7410d2c4b320c52a939c9fbeeed46610d1760055442612407565b936040519485523394a480f35b015190503880610c7f565b50838c528a8c209190601f1984168d5b8d828210610d8c57505084600394610cc59894610cea9c9b9a9894610cae9860019510610d74575b505050811b019055610c97565b015160001983881b60f8161c19169055388080610d67565b6001859682939686015181550195019301610d3f565b610dcb90848d528b8d20601f850160051c8101918d8610610dd1575b601f0160051c0190612513565b38610c52565b9091508190610dbe565b634e487b7160e01b8b52604160045260248bfd5b9150808352600260205260ff60408420541615610e0e57600191610ba9565b63ab48422f60e01b8352600483fd5b634e9dd82360e01b8352600483fd5b636afa816360e11b8452600484fd5b63f0e2470760e01b8452600484fd5b63653c666960e11b8352600483fd5b63a36c61e760e01b8352600483fd5b8360206004926040519384809263f72c0d8b60e01b82525afa801561028657819061024e576323d6951f60e21b825260045260249150fd5b610eb9915060203d6020116102bb576102ad81836121cc565b38610b4b565b90506020813d602011610eea575b81610eda602093836121cc565b8101031261027957516020610b18565b3d9150610ecd565b63f880fc2160e01b8452600484fd5b503461030f57604036600319011261030f57610f1b612134565b90610f2461214a565b815490929060101c6001600160a01b03168015610300576040516204179d60ed1b8152602081600481855afa9081156102c25784916110e7575b50604051632474521560e21b81526004810191909152336024820152602081604481855afa9081156102c25784916110c8575b50156102165750610fa0612323565b6110b9576001600160a01b03169182156103b5576001600160a01b03169182156110aa578192813b156110a65782916024839260405195869384926308f2839760e41b845260048401525af19182611091575b505061108e57611001612596565b6308c379a014611052575b60405163058f770560e51b815260206004820152601960248201527f50726f78792061646d696e206368616e6765206661696c6564000000000000006044820152606490fd5b61105a6125b4565b80611065575061100c565b60405163058f770560e51b81526020600482015290819061108a906024830190612292565b0390fd5b80f35b8161109b916121cc565b6108a1578138610ff3565b5050fd5b633c8eb8c560e21b8252600482fd5b63a36c61e760e01b8252600482fd5b6110e1915060203d6020116102bb576102ad81836121cc565b38610f91565b90506020813d602011611112575b81611102602093836121cc565b8101031261027957516020610f5e565b3d91506110f5565b503461030f57602036600319011261030f57611134612134565b815490919060101c6001600160a01b031680156112e1576040516204179d60ed1b8152602081600481855afa9081156112a35783916112ae575b50604051632474521560e21b81526004810191909152336024820152602081604481855afa9081156112a3578391611284575b501561124d57506001600160a01b038216918215610444573b1561121157600180546001600160a01b031981168417909155604051602093909233926001600160a01b0316907ff74ec9978ba2b855629831c18da14f9c37095cf07acc97fcf2842a893d3245ef9080a460018152f35b604051630dd2788360e41b815260206004820152601360248201527222b6b2b933b2b731bca1b7b73a3937b63632b960691b6044820152606490fd5b906020600492604051938480926204179d60ed1b82525afa801561028657819061024e576323d6951f60e21b825260045260249150fd5b61129d915060203d6020116102bb576102ad81836121cc565b386111a1565b6040513d85823e3d90fd5b90506020813d6020116112d9575b816112c9602093836121cc565b810103126102795751602061116e565b3d91506112bc565b63f880fc2160e01b8252600482fd5b503461030f57606036600319011261030f5761130a612134565b61131261214a565b60443567ffffffffffffffff81116108b057366023820112156108b05780600401359267ffffffffffffffff841161172457366024858401011161172457845460101c6001600160a01b031680156117155760405163f72c0d8b60e01b8152602081600481855afa9081156116d75787916116e2575b50604051632474521560e21b81526004810191909152336024820152602081604481855afa9081156116d75787916116b8575b501561168057506113ca612323565b611671576001600160a01b0316928315611662576001600160a01b03831692831561165357811561164457848652600460205260408620546001600160a01b0316611635573b1561162657846003546115fa575b60405161142a8161219a565b8481528660208083019442865280602483601f19601f84011601986114526040519a8b6121cc565b828a520183890137860101526040818101948552600160608301818152931515608084019081523360a08501908152898b526004602052928a20935184546001600160a01b0319166001600160a01b03919091161784559451908301559351805192949392600283019167ffffffffffffffff82116115e6576114d58354612160565b601f81116115b6575b506020908a601f841160011461155c5793610c9484610cae95600395610cc599956115209d9c9b9992610d245750508160011b916000199060031b1c19161790565b61152c60055442612407565b916040519283527f9d46c424dbb24cb5db0226a1022c4be6afb7410d2c4b320c52a939c9fbeeed4660203394a480f35b50838b52818b209190601f1984168c5b81811061159e575084600394610cc598946115209c9b9a9894610cae9860019510610d7457505050811b019055610c97565b9293602060018192878601518155019501930161156c565b6115e090848c5260208c20601f850160051c81019160208610610dd157601f0160051c0190612513565b386114de565b634e487b7160e01b8a52604160045260248afd5b50828552600260205260ff6040862054161561161757600161141e565b63ab48422f60e01b8552600485fd5b634e9dd82360e01b8552600485fd5b636afa816360e11b8652600486fd5b631ce3bae960e31b8652600486fd5b63f0e2470760e01b8652600486fd5b63653c666960e11b8552600485fd5b63a36c61e760e01b8552600485fd5b8560206004926040519384809263f72c0d8b60e01b82525afa801561028657819061024e576323d6951f60e21b825260045260249150fd5b6116d1915060203d6020116102bb576102ad81836121cc565b386113bb565b6040513d89823e3d90fd5b90506020813d60201161170d575b816116fd602093836121cc565b8101031261027957516020611388565b3d91506116f0565b63f880fc2160e01b8652600486fd5b8480fd5b503461030f578060031936011261030f576020600354604051908152f35b503461030f57602036600319011261030f576040906001600160a01b0361176b612134565b16815260046020522060018060a01b038154166001820154916117b76003611795600284016121ee565b920154916040519485948552602085015260c0604085015260c0840190612292565b60ff80831615156060850152600883901c161515608084015260109190911c6001600160a01b031660a08301520390f35b503461030f57602036600319011261030f57611802612134565b815460101c6001600160a01b031680156103005760405163f72c0d8b60e01b8152602081600481855afa9081156102c2578491611993575b50604051632474521560e21b81526004810191909152336024820152602081604481855afa9081156102c2578491611974575b501561193c57506001600160a01b03811690811561192d57818352600260205260ff60408420541661191e573b1561190f57808252600260205260408220805460ff1916600117905560035460001981146118fb5791600160209301600355604051917f64ec448af9164900316f7efa306a8f411c753959e48694101ce92b1b8c5a58d8339280a360018152f35b634e487b7160e01b83526011600452602483fd5b634e9dd82360e01b8252600482fd5b63ed7998ff60e01b8352600483fd5b63f0e2470760e01b8352600483fd5b8260206004926040519384809263f72c0d8b60e01b82525afa801561028657819061024e576323d6951f60e21b825260045260249150fd5b61198d915060203d6020116102bb576102ad81836121cc565b3861186d565b90506020813d6020116119be575b816119ae602093836121cc565b810103126102795751602061183a565b3d91506119a1565b503461030f57602036600319011261030f576119e0612134565b815460101c6001600160a01b031680156103005760405163f72c0d8b60e01b8152602081600481855afa9081156102c2578491611b18575b50604051632474521560e21b81526004810191909152336024820152602081604481855afa9081156102c2578491611af9575b501561193c57506001600160a01b03168015611aea57808252600260205260ff60408320541615611adb57808252600260205260408220805460ff1916905560035480158015611ac8575b60405160209033857f64949d9e99b7276f8978b399fde0f0f6c37b10b0a1e3702bca9d615e4c46b21c8880a360018152f35b6118fb5760001901600355602038611a96565b633610b8cf60e11b8252600482fd5b63f0e2470760e01b8252600482fd5b611b12915060203d6020116102bb576102ad81836121cc565b38611a4b565b90506020813d602011611b43575b81611b33602093836121cc565b8101031261027957516020611a18565b3d9150611b26565b50602036600319011261030f57611b60612134565b815460101c6001600160a01b031680156103005760405163f72c0d8b60e01b8152602081600481855afa9081156102c2578491611f86575b50604051632474521560e21b81526004810191909152336024820152602081604481855afa9081156102c2578491611f67575b5015611efa5750611bda612323565b6110b9576001600160a01b0316908115611eeb5781815260046020526040812080549092906001600160a01b03168015611edc57611c1f600185015460055490612407565b4210611ecd57600384015460ff8160081c1680611eb6575b611ea757813b15611e9857600260ff611c52921695016121ee565b841580611e8f575b611e3d578284526004602052611c726040852061252a565b604051943383857fc26423fcbcaeb742f64b7c9161685690ecbe5d224189344fbcc11952922bf3c58880a415611d9a578394508293923b15611d9657611cdd93839260405180968194829363278f794360e11b84526004840152604060248401526044830190612292565b039134905af19182611d81575b505061108e57611cf8612596565b6308c379a014611d49575b6040516330c0d1eb60e21b815260206004820152601d60248201527f50726f78792075706772616465546f416e6443616c6c206661696c65640000006044820152606490fd5b611d516125b4565b80611d5c5750611d03565b6040516330c0d1eb60e21b81526020600482015290819061108a906024830190612292565b81611d8b916121cc565b6108a1578138611cea565b8280fd5b50813b15611d96576024848480948294631b2ce7f360e11b845260048401525af19182611e2d575b509061108e57611dd0612596565b6308c379a014611e1a575b6040516330c0d1eb60e21b8152602060048201526016602482015275141c9bde1e481d5c19dc985919551bc819985a5b195960521b6044820152606490fd5b611e226125b4565b80611d5c5750611ddb565b81611e37916121cc565b38611dc2565b6040516330c0d1eb60e21b815260206004820152602360248201527f56616c75652073656e7420746f206e6f6e2d70617961626c652075706772616460448201526265546f60e81b6064820152608490fd5b50341515611c5a565b63115596e560e01b8452600484fd5b631d8f661760e11b8452600484fd5b50818452600260205260ff60408520541615611c37565b63fd7bc01160e01b8352600483fd5b634d581cd160e01b8352600483fd5b63653c666960e11b8152600490fd5b8260206004926040519384809263f72c0d8b60e01b82525afa8015610286578190611f32576323d6951f60e21b825260045260249150fd5b50906020813d602011611f5f575b81611f4d602093836121cc565b810103126108a157906024915161023b565b3d9150611f40565b611f80915060203d6020116102bb576102ad81836121cc565b38611bcb565b90506020813d602011611fb1575b81611fa1602093836121cc565b810103126108b057516020611b98565b3d9150611f94565b503461030f57602036600319011261030f5760c0611fdd611fd8612134565b61242a565b604080516001600160a01b039788168152602081019690965285019390935290151560608401521515608083015290911660a0820152f35b503461030f578060031936011261030f576020610ab1612323565b503461030f57602036600319011261030f5760209060ff906040906001600160a01b0361205b612134565b168152600284522054166040519015158152f35b503461030f57602036600319011261030f57612089612134565b6001600160a01b031680156103b557602060049160405192838092635c60da1b60e01b82525afa8291816120cc575b5061036f5763358262b760e11b8252600482fd5b6120e691925060203d6020116103ae5761039f81836121cc565b90386120b8565b503461030f578060031936011261030f575460405160109190911c6001600160a01b03168152602090f35b9050346108a157816003193601126108a1576020906003548152f35b600435906001600160a01b038216820361027957565b602435906001600160a01b038216820361027957565b90600182811c92168015612190575b602083101461217a57565b634e487b7160e01b600052602260045260246000fd5b91607f169161216f565b60c0810190811067ffffffffffffffff8211176121b657604052565b634e487b7160e01b600052604160045260246000fd5b90601f8019910116810190811067ffffffffffffffff8211176121b657604052565b906040519182600082549261220284612160565b80845293600181169081156122705750600114612229575b50612227925003836121cc565b565b90506000929192526020600020906000915b818310612254575050906020612227928201013861221a565b602091935080600191548385890101520191019091849261223b565b90506020925061222794915060ff191682840152151560051b8201013861221a565b919082519283825260005b8481106122be575050826000602080949584010152601f8019910116010190565b8060208092840101518282860101520161229d565b9081602091031261027957516001600160a01b03811681036102795790565b90816020910312610279575180151581036102795790565b90816020910312610279575160ff811681036102795790565b6001546001600160a01b0316801561240157604051631da4712b60e21b81526000918291602081600481855afa600091816123e0575b506123d7575b50602060049160405192838092630743c9d960e51b82525afa600091816123a6575b5061239e575b508115612392575090565b6003915060ff16101590565b905038612387565b6123c991925060203d6020116123d0575b6123c181836121cc565b81019061230a565b9038612381565b503d6123b7565b9250602061235f565b6123fa91925060203d6020116102bb576102ad81836121cc565b9038612359565b50600090565b9190820180921161241457565b634e487b7160e01b600052601160045260246000fd5b6001600160a01b0316801561250257600090815260046020526040902080546001600160a01b031680156124ec5780926003600184015493015460ff60018060a01b038260101c169160081c169061248460055486612407565b9384421094856000146124e457428103908111612414575b94159083159081156124ca575b3b151590826124c2575b50816124bd575092565b905092565b9150386124b3565b809150600052600260205260ff60406000205416906124a9565b50600061249c565b5050600090600090600090600090600090600090565b63653c666960e11b60005260046000fd5b81811061251e575050565b60008155600101612513565b6003600091828155826001820155600281016125468154612160565b9081612553575b50500155565b81601f86931160011461256a5750555b388061254d565b8183526020832061258691601f0160051c810190600101612513565b8082528160208120915555612563565b60009060033d116125a357565b905060046000803e60005160e01c90565b600060443d1061261b576040513d600319016004823e8051913d602484011167ffffffffffffffff841117612626578282019283519167ffffffffffffffff831161261e573d8401600319018584016020011161261e575061261b929101602001906121cc565b90565b949350505050565b92915050565b6001546001600160a01b0316801561276a57604051634d12488760e01b81526001600160e01b03199092166004830152600091829190602081602481855afa60009181612749575b50612741575b50604051631da4712b60e21b8152602081600481855afa60009181612720575b50612717575b50602060049160405192838092630743c9d960e51b82525afa600091816126f6575b506126da575b501590816126d4575090565b90501590565b60ff6003911610156126ed575b386126c8565b600191506126e7565b61271091925060203d6020116123d0576123c181836121cc565b90386126c2565b925060206126a0565b61273a91925060203d6020116102bb576102ad81836121cc565b903861269a565b91503861267a565b61276391925060203d6020116102bb576102ad81836121cc565b9038612674565b505060019056fea2646970667358221220c977ffa5cb7a1a977af0655035a6af2c15a41027a4da5fdd406796f9085883ce64736f6c634300081c0033","linkReferences":{}},"methodIdentifiers":{"accessControl()":"13007d55","addValidImplementation(address)":"3d381b44","cancelUpgrade(address)":"c44fb8ec","changeProxyAdmin(address,address)":"7eff275e","checkEmergencyStatus(bytes4)":"8aed668a","emergencyController()":"7a936beb","emergencyShutdown(uint8)":"eb1676c1","executeUpgrade(address)":"394d4bf3","getEmergencyController()":"c993cc9d","getImplementationCount()":"5495a8fa","getProxyAdmin(address)":"f3b7dead","getProxyImplementation(address)":"204e1c7a","getUpgradeProposal(address)":"2aa1bda0","implementationCount()":"040a7f91","initialize(address,address,uint256,address)":"be203094","isEmergencyPaused()":"290d10c4","proposeUpgrade(address,address)":"887fbd1c","proposeUpgradeAndCall(address,address,bytes)":"684bdb2c","removeValidImplementation(address)":"3d2d5535","setEmergencyController(address)":"6ca7dc89","updateTimelock(uint256)":"fa1ccffd","upgradeProposals(address)":"45f806ab","upgradeTimelock()":"8c879fb9","validImplementations(address)":"2745ad02"},"id":46}