{"abi":[{"type":"constructor","inputs":[],"stateMutability":"nonpayable"},{"type":"function","name":"accessControl","inputs":[],"outputs":[{"name":"","type":"address","internalType":"contract AccessControl"}],"stateMutability":"view"},{"type":"function","name":"checkEmergencyStatus","inputs":[{"name":"operation","type":"bytes4","internalType":"bytes4"}],"outputs":[{"name":"finalOperationAllowed","type":"bool","internalType":"bool"}],"stateMutability":"view"},{"type":"function","name":"currentDailyVolume","inputs":[],"outputs":[{"name":"","type":"uint256","internalType":"uint256"}],"stateMutability":"view"},{"type":"function","name":"emergencyController","inputs":[],"outputs":[{"name":"","type":"address","internalType":"contract EmergencyController"}],"stateMutability":"view"},{"type":"function","name":"emergencyShutdown","inputs":[{"name":"emergencyLevelInput","type":"uint8","internalType":"uint8"}],"outputs":[{"name":"successFlag","type":"bool","internalType":"bool"}],"stateMutability":"nonpayable"},{"type":"function","name":"flashLoanDetectionThresholdBps","inputs":[],"outputs":[{"name":"","type":"uint256","internalType":"uint256"}],"stateMutability":"view"},{"type":"function","name":"getEmergencyController","inputs":[],"outputs":[{"name":"controllerAddress","type":"address","internalType":"address"}],"stateMutability":"view"},{"type":"function","name":"initialize","inputs":[{"name":"accessControlAddr_","type":"address","internalType":"address"},{"name":"emergencyControllerAddress_","type":"address","internalType":"address"},{"name":"oracleIntegrationAddress_","type":"address","internalType":"address"}],"outputs":[],"stateMutability":"nonpayable"},{"type":"function","name":"isEmergencyPaused","inputs":[],"outputs":[{"name":"isPausedStatus","type":"bool","internalType":"bool"}],"stateMutability":"view"},{"type":"function","name":"lastDailyVolume","inputs":[],"outputs":[{"name":"","type":"uint256","internalType":"uint256"}],"stateMutability":"view"},{"type":"function","name":"lastTransactionBlock","inputs":[{"name":"","type":"address","internalType":"address"}],"outputs":[{"name":"","type":"uint256","internalType":"uint256"}],"stateMutability":"view"},{"type":"function","name":"lastTransactionTimestamp","inputs":[{"name":"","type":"address","internalType":"address"}],"outputs":[{"name":"","type":"uint256","internalType":"uint256"}],"stateMutability":"view"},{"type":"function","name":"lastVolumeUpdateTime","inputs":[],"outputs":[{"name":"","type":"uint256","internalType":"uint256"}],"stateMutability":"view"},{"type":"function","name":"maxGasForExternalCalls","inputs":[],"outputs":[{"name":"","type":"uint256","internalType":"uint256"}],"stateMutability":"view"},{"type":"function","name":"monitorVolatility","inputs":[{"name":"","type":"address","internalType":"address"},{"name":"amount","type":"uint256","internalType":"uint256"}],"outputs":[{"name":"isVolumeNormal","type":"bool","internalType":"bool"}],"stateMutability":"nonpayable"},{"type":"function","name":"oracleIntegration","inputs":[],"outputs":[{"name":"","type":"address","internalType":"contract OracleIntegration"}],"stateMutability":"view"},{"type":"function","name":"pauseSecurity","inputs":[],"outputs":[{"name":"successFlag","type":"bool","internalType":"bool"}],"stateMutability":"nonpayable"},{"type":"function","name":"preventFrontRunning","inputs":[{"name":"commitHash","type":"bytes32","internalType":"bytes32"},{"name":"operationType","type":"uint8","internalType":"uint8"},{"name":"parameters","type":"bytes","internalType":"bytes"},{"name":"salt","type":"bytes32","internalType":"bytes32"}],"outputs":[{"name":"isValid","type":"bool","internalType":"bool"}],"stateMutability":"view"},{"type":"function","name":"priceDeviationThresholdBps","inputs":[],"outputs":[{"name":"","type":"uint256","internalType":"uint256"}],"stateMutability":"view"},{"type":"function","name":"resumeSecurity","inputs":[],"outputs":[{"name":"successFlag","type":"bool","internalType":"bool"}],"stateMutability":"nonpayable"},{"type":"function","name":"securityPaused","inputs":[],"outputs":[{"name":"","type":"bool","internalType":"bool"}],"stateMutability":"view"},{"type":"function","name":"setEmergencyController","inputs":[{"name":"controller","type":"address","internalType":"address"}],"outputs":[{"name":"successFlag","type":"bool","internalType":"bool"}],"stateMutability":"nonpayable"},{"type":"function","name":"setMaxGasForExternalCalls","inputs":[{"name":"newLimit","type":"uint256","internalType":"uint256"}],"outputs":[{"name":"successFlag","type":"bool","internalType":"bool"}],"stateMutability":"nonpayable"},{"type":"function","name":"setOracleIntegration","inputs":[{"name":"oracle","type":"address","internalType":"address"}],"outputs":[{"name":"successFlag","type":"bool","internalType":"bool"}],"stateMutability":"nonpayable"},{"type":"function","name":"setSecurityParameters","inputs":[{"name":"newFlashLoanThresholdBps","type":"uint256","internalType":"uint256"},{"name":"newPriceDeviationThresholdBps","type":"uint256","internalType":"uint256"},{"name":"newVolumeAnomalyThresholdBps","type":"uint256","internalType":"uint256"}],"outputs":[{"name":"successFlag","type":"bool","internalType":"bool"}],"stateMutability":"nonpayable"},{"type":"function","name":"setTokenFlashLoanThreshold","inputs":[{"name":"token","type":"address","internalType":"address"},{"name":"thresholdBps","type":"uint256","internalType":"uint256"}],"outputs":[{"name":"successFlag","type":"bool","internalType":"bool"}],"stateMutability":"nonpayable"},{"type":"function","name":"setTransactionCooldownBlocks","inputs":[{"name":"newCooldown","type":"uint256","internalType":"uint256"}],"outputs":[{"name":"successFlag","type":"bool","internalType":"bool"}],"stateMutability":"nonpayable"},{"type":"function","name":"tokenFlashLoanThresholdsBps","inputs":[{"name":"","type":"address","internalType":"address"}],"outputs":[{"name":"","type":"uint256","internalType":"uint256"}],"stateMutability":"view"},{"type":"function","name":"transactionCooldownBlocks","inputs":[],"outputs":[{"name":"","type":"uint256","internalType":"uint256"}],"stateMutability":"view"},{"type":"function","name":"transactionCount","inputs":[{"name":"","type":"address","internalType":"address"}],"outputs":[{"name":"","type":"uint256","internalType":"uint256"}],"stateMutability":"view"},{"type":"function","name":"validatePrice","inputs":[{"name":"token","type":"address","internalType":"address"},{"name":"priceToValidate","type":"uint256","internalType":"uint256"}],"outputs":[{"name":"isValid","type":"bool","internalType":"bool"}],"stateMutability":"nonpayable"},{"type":"function","name":"validateTransactionSequence","inputs":[{"name":"account","type":"address","internalType":"address"},{"name":"token","type":"address","internalType":"address"},{"name":"amount","type":"uint256","internalType":"uint256"}],"outputs":[{"name":"isValid","type":"bool","internalType":"bool"}],"stateMutability":"nonpayable"},{"type":"function","name":"volumeAnomalyThresholdBps","inputs":[],"outputs":[{"name":"","type":"uint256","internalType":"uint256"}],"stateMutability":"view"},{"type":"event","name":"EmergencyControllerSet","inputs":[{"name":"oldController","type":"address","indexed":true,"internalType":"address"},{"name":"newController","type":"address","indexed":true,"internalType":"address"},{"name":"setter","type":"address","indexed":true,"internalType":"address"}],"anonymous":false},{"type":"event","name":"EmergencyShutdownHandled","inputs":[{"name":"emergencyLevel","type":"uint8","indexed":false,"internalType":"uint8"},{"name":"caller","type":"address","indexed":true,"internalType":"address"}],"anonymous":false},{"type":"event","name":"EmergencyStatusChecked","inputs":[{"name":"emergencyLevel","type":"uint8","indexed":false,"internalType":"uint8"},{"name":"operation","type":"bytes4","indexed":false,"internalType":"bytes4"},{"name":"allowed","type":"bool","indexed":false,"internalType":"bool"}],"anonymous":false},{"type":"event","name":"FlashLoanDetected","inputs":[{"name":"user","type":"address","indexed":true,"internalType":"address"},{"name":"token","type":"address","indexed":true,"internalType":"address"},{"name":"amount","type":"uint256","indexed":false,"internalType":"uint256"},{"name":"detectedAtBlock","type":"uint256","indexed":false,"internalType":"uint256"}],"anonymous":false},{"type":"event","name":"Initialized","inputs":[{"name":"version","type":"uint8","indexed":false,"internalType":"uint8"}],"anonymous":false},{"type":"event","name":"MaxGasForExternalCallsUpdated","inputs":[{"name":"oldLimit","type":"uint256","indexed":false,"internalType":"uint256"},{"name":"newLimit","type":"uint256","indexed":false,"internalType":"uint256"},{"name":"setter","type":"address","indexed":true,"internalType":"address"}],"anonymous":false},{"type":"event","name":"OracleFailure","inputs":[{"name":"token","type":"address","indexed":true,"internalType":"address"},{"name":"reason","type":"string","indexed":false,"internalType":"string"}],"anonymous":false},{"type":"event","name":"OracleIntegrationSet","inputs":[{"name":"oldOracle","type":"address","indexed":true,"internalType":"address"},{"name":"newOracle","type":"address","indexed":true,"internalType":"address"},{"name":"setter","type":"address","indexed":true,"internalType":"address"}],"anonymous":false},{"type":"event","name":"PotentialFlashLoanDetected","inputs":[{"name":"account","type":"address","indexed":true,"internalType":"address"},{"name":"token","type":"address","indexed":true,"internalType":"address"},{"name":"previousBalance","type":"uint256","indexed":false,"internalType":"uint256"},{"name":"currentBalance","type":"uint256","indexed":false,"internalType":"uint256"}],"anonymous":false},{"type":"event","name":"PriceAnomalyDetected","inputs":[{"name":"token","type":"address","indexed":true,"internalType":"address"},{"name":"expectedPrice","type":"uint256","indexed":false,"internalType":"uint256"},{"name":"actualPrice","type":"uint256","indexed":false,"internalType":"uint256"},{"name":"detectedAtTime","type":"uint256","indexed":false,"internalType":"uint256"}],"anonymous":false},{"type":"event","name":"SecurityParametersUpdated","inputs":[{"name":"newFlashLoanThresholdBps","type":"uint256","indexed":false,"internalType":"uint256"},{"name":"newPriceDeviationThresholdBps","type":"uint256","indexed":false,"internalType":"uint256"},{"name":"newVolumeAnomalyThresholdBps","type":"uint256","indexed":false,"internalType":"uint256"},{"name":"updater","type":"address","indexed":true,"internalType":"address"}],"anonymous":false},{"type":"event","name":"SecurityPaused","inputs":[{"name":"pauser","type":"address","indexed":true,"internalType":"address"},{"name":"timestamp","type":"uint256","indexed":false,"internalType":"uint256"}],"anonymous":false},{"type":"event","name":"SecurityResumed","inputs":[{"name":"resumer","type":"address","indexed":true,"internalType":"address"},{"name":"timestamp","type":"uint256","indexed":false,"internalType":"uint256"}],"anonymous":false},{"type":"event","name":"StalePriceWarning","inputs":[{"name":"token","type":"address","indexed":true,"internalType":"address"},{"name":"priceTimestamp","type":"uint256","indexed":false,"internalType":"uint256"},{"name":"currentTimestamp","type":"uint256","indexed":false,"internalType":"uint256"}],"anonymous":false},{"type":"event","name":"TokenFlashLoanThresholdSet","inputs":[{"name":"token","type":"address","indexed":true,"internalType":"address"},{"name":"oldThresholdBps","type":"uint256","indexed":false,"internalType":"uint256"},{"name":"newThresholdBps","type":"uint256","indexed":false,"internalType":"uint256"},{"name":"setter","type":"address","indexed":true,"internalType":"address"}],"anonymous":false},{"type":"event","name":"TransactionCooldownUpdated","inputs":[{"name":"oldCooldown","type":"uint256","indexed":false,"internalType":"uint256"},{"name":"newCooldown","type":"uint256","indexed":false,"internalType":"uint256"},{"name":"updater","type":"address","indexed":true,"internalType":"address"}],"anonymous":false},{"type":"event","name":"VolumeAnomalyDetected","inputs":[{"name":"expectedVolume","type":"uint256","indexed":false,"internalType":"uint256"},{"name":"actualVolume","type":"uint256","indexed":false,"internalType":"uint256"},{"name":"detectedAtTime","type":"uint256","indexed":false,"internalType":"uint256"}],"anonymous":false},{"type":"error","name":"EC_AccessControlZero","inputs":[]},{"type":"error","name":"NotAContract","inputs":[{"name":"context","type":"string","internalType":"string"}]},{"type":"error","name":"NotAuthorized","inputs":[{"name":"requiredRole","type":"bytes32","internalType":"bytes32"}]},{"type":"error","name":"SM_AccountZero","inputs":[]},{"type":"error","name":"SM_CommitHashZero","inputs":[]},{"type":"error","name":"SM_ControllerZero","inputs":[]},{"type":"error","name":"SM_CooldownTooHigh","inputs":[]},{"type":"error","name":"SM_GasLimitInvalid","inputs":[]},{"type":"error","name":"SM_OracleZero","inputs":[]},{"type":"error","name":"SM_ParamsEmpty","inputs":[]},{"type":"error","name":"SM_PriceNotPositive","inputs":[]},{"type":"error","name":"SM_SaltZero","inputs":[]},{"type":"error","name":"SM_SecurityNotPaused","inputs":[]},{"type":"error","name":"SM_SecurityPaused","inputs":[]},{"type":"error","name":"SM_ThresholdNotPositive","inputs":[{"name":"thresholdType","type":"string","internalType":"string"}]},{"type":"error","name":"SM_ThresholdTooHigh","inputs":[{"name":"thresholdType","type":"string","internalType":"string"}]},{"type":"error","name":"SM_TokenZero","inputs":[]}],"bytecode":{"object":"0x6080806040523460bd576000549060ff8260081c16606b575060ff808216036031575b604051612b7d90816100c38239f35b60ff90811916176000557f7f26b83ff96e1f2b6a682f133852f6798a09c465da95921460cefb3847402498602060405160ff8152a1386022565b62461bcd60e51b815260206004820152602760248201527f496e697469616c697a61626c653a20636f6e747261637420697320696e697469604482015266616c697a696e6760c81b6064820152608490fd5b600080fdfe6080604052600436101561001257600080fd5b60003560e01c80630c3782781461022257806313007d551461021d57806318f572b414610218578063290d10c41461021357806336b16c681461020e57806337d73a0b14610209578063568999061461020457806356cf37b7146101ff57806359fd438f146101fa5780636bef9ad1146101f55780636ca7dc89146101f05780637a936beb146101b9578063831d2450146101eb5780638aed668a146101e65780639786da4b146101e157806398cb1820146101dc57806399be3375146101d75780639c6f1177146101d2578063a7076038146101cd578063a9361199146101c8578063b5077c96146101c3578063c0c53b8b146101be578063c993cc9d146101b9578063cb18d71a146101b4578063d35c4ae1146101af578063da19e5b7146101aa578063eb1676c1146101a5578063ec536202146101a0578063f01a488f1461019b578063f042b6e314610196578063f81fdaf214610191578063f8c8baad1461018c5763fd45a4331461018757600080fd5b61110a565b6110d0565b6110b2565b610fd7565b610fb9565b610f82565b610e56565b610d86565b610cfb565b610c79565b61092f565b610b72565b610b54565b610a7f565b610a45565b610a1c565b6109e2565b6109c4565b6109a6565b610976565b610958565b61081d565b610706565b61063a565b610600565b6105e2565b6105a5565b610540565b61051b565b6103ef565b6103c6565b346103c15760003660031901126103c157603354610250906001600160a01b03165b6001600160a01b031690565b6001600160a01b038116156103b05760405163e63ab1e960e01b8152602081600481855afa90811561035f576102b391602091600091610393575b50604051632474521560e21b8152600481019190915233602482015291829081906044820190565b0381855afa90811561035f57600091610364575b50156102ee576102ea6102d8611178565b60405190151581529081906020820190565b0390f35b60206004916040519283809263e63ab1e960e01b82525afa801561035f5761032c91600091610330575b506323d6951f60e21b600052600452602490565b6000fd5b610352915060203d602011610358575b61034a8183610cb8565b810190611139565b38610318565b503d610340565b611148565b610386915060203d60201161038c575b61037e8183610cb8565b810190611161565b386102c7565b503d610374565b6103aa9150823d84116103585761034a8183610cb8565b3861028b565b639998045d60e01b60005260046000fd5b600080fd5b346103c15760003660031901126103c1576033546040516001600160a01b039091168152602090f35b346103c15760203660031901126103c157600435603354610418906001600160a01b0316610244565b6001600160a01b038116156103b05760405163691afd6360e01b8152602081600481855afa90811561035f5761047a916020916000916103935750604051632474521560e21b8152600481019190915233602482015291829081906044820190565b0381855afa90811561035f576000916104fc575b50156104a0576102ea6102d8836111cd565b60206004916040519283809263691afd6360e01b82525afa801561035f5761032c916000916104dd57506323d6951f60e21b600052600452602490565b6104f6915060203d6020116103585761034a8183610cb8565b82610318565b610515915060203d60201161038c5761037e8183610cb8565b3861048e565b346103c15760003660031901126103c1576020610536612488565b6040519015158152f35b346103c15760003660031901126103c157602060ff603b54166040519015158152f35b600435906001600160a01b03821682036103c157565b602435906001600160a01b03821682036103c157565b604435906001600160a01b03821682036103c157565b346103c15760403660031901126103c1576105be610563565b5060206105d46024356105cf612572565b61127a565b600180556040519015158152f35b346103c15760003660031901126103c1576020604254604051908152f35b346103c15760203660031901126103c1576001600160a01b03610621610563565b16600052603c6020526020604060002054604051908152f35b346103c15760003660031901126103c157603354610660906001600160a01b0316610244565b6001600160a01b038116156103b05760405163e63ab1e960e01b8152602081600481855afa90811561035f576106c2916020916000916103935750604051632474521560e21b8152600481019190915233602482015291829081906044820190565b0381855afa90811561035f576000916106e7575b50156102ee576102ea6102d86113a9565b610700915060203d60201161038c5761037e8183610cb8565b386106d6565b346103c15760603660031901126103c157600435602435604435603354909190610738906001600160a01b0316610244565b926001600160a01b038416156103b05760405163691afd6360e01b8152602081600481885afa90811561035f5761079b916020916000916103935750604051632474521560e21b8152600481019190915233602482015291829081906044820190565b0381885afa90811561035f576000916107fe575b50156107c357916102d8916102ea93611416565b60405163691afd6360e01b8152602081600481885afa801561035f5761032c916000916104dd57506323d6951f60e21b600052600452602490565b610817915060203d60201161038c5761037e8183610cb8565b386107af565b346103c15760203660031901126103c157610836610563565b60335461084b906001600160a01b0316610244565b6001600160a01b038116156103b05760405163a217fddf60e01b8152602081600481855afa90811561035f576108ad916020916000916103935750604051632474521560e21b8152600481019190915233602482015291829081906044820190565b0381855afa90811561035f57600091610910575b50156108d3576102ea6102d883611637565b60206004916040519283809263a217fddf60e01b82525afa801561035f5761032c916000916104dd57506323d6951f60e21b600052600452602490565b610929915060203d60201161038c5761037e8183610cb8565b386108c1565b346103c15760003660031901126103c1576034546040516001600160a01b039091168152602090f35b346103c15760003660031901126103c1576020603854604051908152f35b346103c15760203660031901126103c1576004356001600160e01b0319811681036103c1576105366020916116f4565b346103c15760003660031901126103c1576020604054604051908152f35b346103c15760003660031901126103c1576020603a54604051908152f35b346103c15760203660031901126103c1576001600160a01b03610a03610563565b16600052603e6020526020604060002054604051908152f35b346103c15760003660031901126103c1576035546040516001600160a01b039091168152602090f35b346103c15760203660031901126103c1576001600160a01b03610a66610563565b16600052603d6020526020604060002054604051908152f35b346103c15760203660031901126103c157610a98610563565b603354610aad906001600160a01b0316610244565b6001600160a01b038116156103b05760405163a217fddf60e01b8152602081600481855afa90811561035f57610b0f916020916000916103935750604051632474521560e21b8152600481019190915233602482015291829081906044820190565b0381855afa90811561035f57600091610b35575b50156108d3576102ea6102d883611872565b610b4e915060203d60201161038c5761037e8183610cb8565b38610b23565b346103c15760003660031901126103c1576020603654604051908152f35b346103c15760603660031901126103c157610b8b610563565b610bed610b96610579565b610b9e61058f565b9060005493610bd1610bbb610bb78760ff9060081c1690565b1590565b80968197610c6b575b8115610c4b575b50611929565b84610be4600160ff196000541617600055565b610c325761198c565b610bf357005b610c0361ff001960005416600055565b604051600181527f7f26b83ff96e1f2b6a682f133852f6798a09c465da95921460cefb384740249890602090a1005b610c4661010061ff00196000541617600055565b61198c565b303b15915081610c5d575b5038610bcb565b60ff16600114905038610c56565b600160ff8216109150610bc4565b346103c15760003660031901126103c1576020604354604051908152f35b60ff8116036103c157565b634e487b7160e01b600052604160045260246000fd5b90601f8019910116810190811067ffffffffffffffff821117610cda57604052565b610ca2565b67ffffffffffffffff8111610cda57601f01601f191660200190565b346103c15760803660031901126103c157602435600435610d1b82610c97565b6044359067ffffffffffffffff82116103c157366023830112156103c157816004013592610d4884610cdf565b90610d566040519283610cb8565b84825236602486860101116103c15760006020866102ea9760246102d89801838701378401015260643592611b5d565b346103c15760203660031901126103c157600435603354610daf906001600160a01b0316610244565b6001600160a01b038116156103b05760405163a217fddf60e01b8152602081600481855afa90811561035f57610e11916020916000916103935750604051632474521560e21b8152600481019190915233602482015291829081906044820190565b0381855afa90811561035f57600091610e37575b50156108d3576102ea6102d883611c15565b610e50915060203d60201161038c5761037e8183610cb8565b38610e25565b346103c15760203660031901126103c157600435610e7381610c97565b603454610e88906001600160a01b0316610244565b6001600160a01b03811615610f71576001600160a01b0316803303610f545750600360ff8216101580610f3f575b610efa575b60405160ff91909116815233907f653b015d928c6cff1b70682b7d5afa1bbe5e5aa468f4a35076e9d0141a9cb1bc90602090a260405160018152602090f35b610f0c600160ff19603b541617603b55565b60405142815233907fc3942831872dd937f822ab2f102fd064072abc8b9241365fbb80a108b5032bf390602090a2610ebb565b50610f4f610bb7603b5460ff1690565b610eb6565b6323d6951f60e21b6000526001600160a01b031660045260246000fd5b6310b3664b60e21b60005260046000fd5b346103c15760603660031901126103c15760206105d4610fa0610563565b610fa8610579565b60443591610fb4612572565b611c98565b346103c15760003660031901126103c1576020603754604051908152f35b346103c15760403660031901126103c157610ff0610563565b603354602435919061100a906001600160a01b0316610244565b6001600160a01b038116156103b05760405163691afd6360e01b8152602081600481855afa90811561035f5761106c916020916000916103935750604051632474521560e21b8152600481019190915233602482015291829081906044820190565b0381855afa90811561035f57600091611093575b50156104a0576102ea6102d88484611ddd565b6110ac915060203d60201161038c5761037e8183610cb8565b38611080565b346103c15760003660031901126103c1576020604154604051908152f35b346103c15760203660031901126103c1576001600160a01b036110f1610563565b1660005260396020526020604060002054604051908152f35b346103c15760403660031901126103c15760206105d4611128610563565b60243590611134612572565b612091565b908160209103126103c1575190565b6040513d6000823e3d90fd5b519081151582036103c157565b908160209103126103c15761117590611154565b90565b603b5460ff8116156111bc5760ff1916603b556040514281527f2870f0308d153075d6391bf2263099b0c56c20ce422a8dc224efe1d4185fcb5060203392a2600190565b637416af1960e11b60005260046000fd5b61025881118061123c575b61122b577fcd2b15c3c2780ee9f2edbf028a2992ae633029ef63db6c34b95e5e5d82d08b08611223603a549280603a5560405191829133958360209093929193604081019481520152565b0390a2600190565b630c312dd960e01b60005260046000fd5b508015156111d8565b634e487b7160e01b600052601160045260246000fd5b9190820180921161126857565b611245565b9190820391821161126857565b611282612488565b6112c85780156112c8576112a061129b8260415461125b565b604155565b620151806112b06042544261126d565b1015611383575060405480151580611378575b6112ce575b50600190565b6112da6042544261126d565b8015611371576112e99161260c565b604154908082116112fb575b506112c8565b8015611369576113148161130f818561126d565b612678565b60385410156112f5577fef61ac65e2fc7ab7bf24fdafbb9e11006b28e45af5b46aef5b007ef9c4b2a653916113616040519283924291846040919493926060820195825260208201520152565b0390a1600090565b600019611314565b5050600190565b5060385415156112c3565b8061129b61139661139b9360415461126d565b604055565b6113a442604255565b600190565b603b5460ff81166113f05760019060ff191617603b556040514281527fc3942831872dd937f822ab2f102fd064072abc8b9241365fbb80a108b5032bf360203392a2600190565b6304bad86b60e41b60005260046000fd5b9081620f42400291620f424083040361126857565b9182158061162c575b6115f55761271083116115bf578115806115b4575b61157857612710821161153d57801580611532575b6114f75762030d4081116114b2577fe31659411b46991c904c933e2f20035afca559892b51c0f4e640a119af6f8f619161148284603655565b61148b81603755565b61149482603855565b60408051948552602085019190915283015233918060608101611223565b604051625ef5c360e71b815260206004820152601c60248201527f766f6c756d6520616e6f6d616c792042505320286d61782032307829000000006044820152606490fd5b604051636474c37f60e01b8152602060048201526012602482015271766f6c756d6520616e6f6d616c792042505360701b6044820152606490fd5b506038541515611449565b604051625ef5c360e71b8152602060048201526013602482015272707269636520646576696174696f6e2042505360681b6044820152606490fd5b604051636474c37f60e01b8152602060048201526013602482015272707269636520646576696174696f6e2042505360681b6044820152606490fd5b506037541515611434565b604051625ef5c360e71b815260206004820152600e60248201526d666c617368206c6f616e2042505360901b6044820152606490fd5b604051636474c37f60e01b815260206004820152600e60248201526d666c617368206c6f616e2042505360901b6044820152606490fd5b50603654151561141f565b6001600160a01b038116908115610f71573b156116a357603480546001600160a01b038381166001600160a01b0319831617909255169033916001600160a01b03167ff74ec9978ba2b855629831c18da14f9c37095cf07acc97fcf2842a893d3245ef600080a4600190565b604051630dd2788360e41b815260206004820152601360248201527222b6b2b933b2b731bca1b7b73a3937b63632b960691b6044820152606490fd5b908160209103126103c1575161117581610c97565b603b5460ff1661186c57603454611713906001600160a01b0316610244565b906001600160a01b0382161561137157604051631da4712b60e21b8152600091908290602081600481885afa6000918161184b575b50611843575b50604051630743c9d960e51b8152602081600481885afa60009181611812575b506117f7575b5015928361178e575b505081611788575090565b90501590565b604051634d12488760e01b81526001600160e01b0319929092166004830152602090829060249082905afa600091816117d6575b506117ce575b8061177d565b9050386117c8565b6117f091925060203d60201161038c5761037e8183610cb8565b90386117c2565b60ff60039116101561180a575b38611774565b506001611804565b61183591925060203d60201161183c575b61182d8183610cb8565b8101906116df565b903861176e565b503d611823565b90503861174e565b61186591925060203d60201161038c5761037e8183610cb8565b9038611748565b50600090565b6001600160a01b038116908115611918573b156118de57603580546001600160a01b038381166001600160a01b0319831617909255169033916001600160a01b03167f9eab87bfc4657f2647d523442668edbd6d841f5fe42e541dbb5f474431c51372600080a4600190565b604051630dd2788360e41b815260206004820152601160248201527027b930b1b632a4b73a32b3b930ba34b7b760791b6044820152606490fd5b636cd0058760e01b60005260046000fd5b1561193057565b60405162461bcd60e51b815260206004820152602e60248201527f496e697469616c697a61626c653a20636f6e747261637420697320616c72656160448201526d191e481a5b9a5d1a585b1a5e995960921b6064820152608490fd5b9091611996612768565b6001600160a01b0382169081156103b0576001600160a01b038416938415610f71576001600160a01b038216938415611918573b15611b04573b15611ac8573b15611a8e57611a3d92611a03611a209260018060a01b03166001600160601b0360a01b6033541617603355565b60018060a01b03166001600160601b0360a01b6034541617603455565b60018060a01b03166001600160601b0360a01b6035541617603555565b611a486103e8603655565b611a536101f4603755565b611a5e610bb8603855565b611a686001603a55565b611a7760ff19603b5416603b55565b611a8042604255565b611a8c620186a0604355565b565b604051630dd2788360e41b815260206004820152601160248201527037b930b1b632a4b73a32b3b930ba34b7b760791b6044820152606490fd5b604051630dd2788360e41b815260206004820152601360248201527232b6b2b933b2b731bca1b7b73a3937b63632b960691b6044820152606490fd5b604051630dd2788360e41b815260206004820152600d60248201526c1858d8d95cdcd0dbdb9d1c9bdb609a1b6044820152606490fd5b60005b838110611b4d5750506000910152565b8181015183820152602001611b3d565b9290918315611c045780511580611bf8575b611be7578115611bd65760406035611bcf92825194859160208301973360601b895260ff60f81b9060f81b166034840152611bb38151809260208787019101611b3a565b8201908382015246605582015203016020810184520182610cb8565b5190201490565b6371cb5abb60e01b60005260046000fd5b630c10297b60e31b60005260046000fd5b5060ff83161515611b6f565b634733e53f60e01b60005260046000fd5b614e2081108015611c7d575b611c6c577fe353380b2e9ea7342c1271672053d052730cd5fe5a3b1d28321b66fc525848bb611223604354928060435560405191829133958360209093929193604081019481520152565b6318636d6f60e11b60005260046000fd5b50620f42408111611c21565b60001981146112685760010190565b9091611ca2612488565b611dd5576001600160a01b03821615611dc4576001600160a01b03831615611db3576001600160a01b0382166000908152603d60209081526040808320805443909155603e9092529091208054611d22939190611cfe90611c89565b90556001600160a01b0384166000908152603c6020526040902042905583856127a7565b9290611d6457611d47611d5e9260018060a01b0316600052603f602052604060002090565b9060018060a01b0316600052602052604060002090565b55600190565b60405162461bcd60e51b815260206004820152602160248201527f416e6f6d616c6f75732062616c616e6365206368616e676520646574656374656044820152601960fa1b6064820152608490fd5b6325ec5e2160e11b60005260046000fd5b6340bfc92960e11b60005260046000fd5b505050600190565b906001600160a01b038216908115611db3576127108111611e7c57611e74817f668dd2f3329b9181d6f34d8da97a5b839429e0b1fa3352770c7e1f52c021b82292611e5a611e3d8760018060a01b03166000526039602052604060002090565b546001600160a01b03909716600090815260396020526040902090565b556040805195865260208601919091523394918291820190565b0390a3600190565b604051625ef5c360e71b8152602060048201526014602482015273746f6b656e20666c617368206c6f616e2042505360601b6044820152606490fd5b908160609103126103c1578051916040611ed460208401611154565b92015190565b3d15611f05573d90611eeb82610cdf565b91611ef96040519384610cb8565b82523d6000602084013e565b606090565b60405190611f19606083610cb8565b60288252671c995d995c9d195960c21b604083600080516020612b2883398151915260208201520152565b60405190611f53608083610cb8565b604b82526a3ab9ba37b69032b93937b960a91b606083600080516020612b2883398151915260208201527f7265766572746564207769746820756e6b6e6f776e206572726f72206f72206360408201520152565b60405190611fb6606083610cb8565b603c82527f726576657274656420776974682050616e69632875696e743235362900000000604083600080516020612b2883398151915260208201520152565b60405190612005606083610cb8565b603b82527f72657665727465642077697468204572726f7228737472696e67290000000000604083600080516020612b2883398151915260208201520152565b604091602082526120658151809281602086015260208686019101611b3a565b601f01601f1916010190565b811561207b570490565b634e487b7160e01b600052601260045260246000fd5b9061209a612488565b611371576001600160a01b038216918215611db3578115612477576035546120ca906001600160a01b0316610244565b906001600160a01b0382161561246e57604354604051630681320d60e51b81526001600160a01b0392909216600483015260009283928392839190606090829060249082908790fa90600082600092600094612437575b5061239a5750505086612132611eda565b61213a611f0a565b9060048151101561230e575b50612166600080516020612b088339815191529160405191829182612045565b0390a25b156123035760206004916040519283809263a6c94a7360e01b82525afa600091816122e2575b506122dd5750610e105b60001981141590816122b7575b5061227a5750818310612267576121c28261130f818661126d565b603754918290612227575b50116121db57505050600190565b7f602c6b4be95ad205dded49e89a7991cf88d958c17b23b3d42f278a714c98fafc9161221f6040519283924291846040919493926060820195825260208201520152565b0390a2600090565b9160011c918215908161225d575b81612250575b50612247575b386121cd565b60019150612241565b600116905015153861223b565b8015159150612235565b6122758261130f858261126d565b6121c2565b604080519182524260208301527f5545f3c71fd84c76fd0911594b4f19239748ab33ba09899f76b4cdcfae1378a49450909250829150810161221f565b905081421190816122ca575b50386121a7565b90506122d6824261126d565b11386122c3565b61219a565b6122fc91925060203d6020116103585761034a8183610cb8565b9038612190565b505050505050600090565b6020015160e01c6001600160e01b03191691505062461bcd60e51b8103612352575086600080516020612b0883398151915261216661234b611ff6565b9150612146565b634e487b7160e01b0361237f5786600080516020612b0883398151915261216661237a611fa7565b61234b565b86600080516020612b0883398151915261216661237a611f44565b93959196928495919515158061242e575b156123be5750505050929091600161216a565b929650935093915086600080516020612b08833981519152604051806124268160809060208152602760208201527f4f7261636c652072657475726e6564207a65726f207072696365206f7220746960408201526606d657374616d760cc1b60608201520190565b0390a261216a565b508715156123ab565b9150925061245d915060603d606011612467575b6124558183610cb8565b810190611eb8565b9190919238612121565b503d61244b565b50505050600190565b63032f0ce560e01b60005260046000fd5b603b5460ff166113a4576034546124a7906001600160a01b0316610244565b6001600160a01b0381161561186c57604051631da4712b60e21b81526000918291602081600481855afa60009181612551575b50612548575b50602060049160405192838092630743c9d960e51b82525afa60009181612527575b5061251f575b508115612513575090565b6003915060ff16101590565b905038612508565b61254191925060203d60201161183c5761182d8183610cb8565b9038612502565b925060206124e0565b61256b91925060203d60201161038c5761037e8183610cb8565b90386124da565b600260015414612583576002600155565b60405162461bcd60e51b815260206004820152601f60248201527f5265656e7472616e637947756172643a207265656e7472616e742063616c6c006044820152606490fd5b156125cf57565b60405162461bcd60e51b81526020600482015260156024820152744d6174683a206d756c446976206f766572666c6f7760581b6044820152606490fd5b6000198282098282029182808310920391808303921461266c577f166054f43e32d21c10aff9ee8dd7cc6bb5aa499388277166054f43e32d21c10b9362015180916126588484116125c8565b0990828211900360f91b910360071c170290565b50620151809250500490565b6000196127108209916127108202918280851094039380850394146126fc5761271082916126a78684116125c8565b0960018219018216809204600281600302188082026002030280820260020302808202600203028082026002030280820260020302809102600203029360018380600003040190848311900302920304170290565b50906111759250612071565b1561270f57565b60405162461bcd60e51b815260206004820152602b60248201527f496e697469616c697a61626c653a20636f6e7472616374206973206e6f74206960448201526a6e697469616c697a696e6760a81b6064820152608490fd5b61278260ff60005460081c1661277d81612708565b612708565b60018055565b604d811161126857600a0a90565b60ff16604d811161126857600a0a90565b909392916127b3612488565b612afa576001600160a01b038216928315611db3576001600160a01b038616928315611dc4576043546040516370a0823160e01b81526001600160a01b03891660048201526020816024818a86fa60009181612ad9575b5061288f57505050505050909150600080516020612b08833981519152604051806128848160809060208152603460208201527f42616c616e6365206665746368206661696c656420696e20646574656374416e6040820152736f6d616c6f757342616c616e63654368616e676560601b60608201520190565b0390a2600190600090565b6001600160a01b039098166000908152603f602052604090206128b3908390611d47565b549086602060129260046040518094819363313ce56760e01b8352fa60009181612ab8575b50612a90575b50886128f66128ef60ff8416612788565b6064900490565b92603a549384151595868097612a7e575b612997575b5050505061291c61292191612796565b611401565b9282612983575b5050612939575b5050505060009190565b8111612945578061292f565b604080519182524360208301527f39c0f6a347b001f31cbbbf5a72927572270b777c861392b9277b7dbee1c7c8db9190819081015b0390a360019190565b61298f9192504361126d565b103880612928565b82151580612a75575b1561290c57826129b0818661126d565b6001600160a01b03831660009081526039602052604090209092905415612a6b576001600160a01b0316600090815260396020526040902054915b8215159384612a60575b5083612a4c575b505050612a0a57808061290c565b6040805191825260208201929092527fbe878d755cd3b75a5e42ccfd1aa79d34c9d52dbe6d04582766e590a149bd27e9965094508493508301915061297a9050565b612a57929350612678565b113882816129fc565b8110159350386129f5565b50603654916129eb565b508284116129a0565b5085612a8a894361126d565b10612907565b60ff81168015159081612aac575b50156128de579050386128de565b601e9150111538612a9e565b612ad291925060203d60201161183c5761182d8183610cb8565b90386128d8565b612af391925060203d6020116103585761034a8183610cb8565b903861280a565b505050905060009060009056fe161dc7c8c4c53842bbc55234737ab771787cd04705e00ab8ed92d90db01e55954f7261636c65496e746567726174696f6e2e676574546f6b656e507269636520a2646970667358221220209ff1a075e406a55394eaba133c0bcaf808bd0db26f16b6f67aef2d176ce77d64736f6c634300081c0033","linkReferences":{}},"methodIdentifiers":{"accessControl()":"13007d55","checkEmergencyStatus(bytes4)":"8aed668a","currentDailyVolume()":"f81fdaf2","emergencyController()":"7a936beb","emergencyShutdown(uint8)":"eb1676c1","flashLoanDetectionThresholdBps()":"b5077c96","getEmergencyController()":"c993cc9d","initialize(address,address,address)":"c0c53b8b","isEmergencyPaused()":"290d10c4","lastDailyVolume()":"9786da4b","lastTransactionBlock(address)":"a7076038","lastTransactionTimestamp(address)":"56cf37b7","lastVolumeUpdateTime()":"56899906","maxGasForExternalCalls()":"cb18d71a","monitorVolatility(address,uint256)":"37d73a0b","oracleIntegration()":"9c6f1177","pauseSecurity()":"59fd438f","preventFrontRunning(bytes32,uint8,bytes,bytes32)":"d35c4ae1","priceDeviationThresholdBps()":"f01a488f","resumeSecurity()":"0c378278","securityPaused()":"36b16c68","setEmergencyController(address)":"6ca7dc89","setMaxGasForExternalCalls(uint256)":"da19e5b7","setOracleIntegration(address)":"a9361199","setSecurityParameters(uint256,uint256,uint256)":"6bef9ad1","setTokenFlashLoanThreshold(address,uint256)":"f042b6e3","setTransactionCooldownBlocks(uint256)":"18f572b4","tokenFlashLoanThresholdsBps(address)":"f8c8baad","transactionCooldownBlocks()":"98cb1820","transactionCount(address)":"99be3375","validatePrice(address,uint256)":"fd45a433","validateTransactionSequence(address,address,uint256)":"ec536202","volumeAnomalyThresholdBps()":"831d2450"},"id":50}