{"abi":[{"type":"constructor","inputs":[],"stateMutability":"nonpayable"},{"type":"function","name":"accessControl","inputs":[],"outputs":[{"name":"","type":"address","internalType":"contract AccessControl"}],"stateMutability":"view"},{"type":"function","name":"addTier","inputs":[{"name":"durationVal","type":"uint256","internalType":"uint256"},{"name":"rewardMultiplierVal","type":"uint256","internalType":"uint256"},{"name":"earlyWithdrawalPenaltyVal","type":"uint256","internalType":"uint256"}],"outputs":[{"name":"tierId","type":"uint256","internalType":"uint256"}],"stateMutability":"nonpayable"},{"type":"function","name":"calculateRewards","inputs":[{"name":"userAddr","type":"address","internalType":"address"},{"name":"positionId","type":"uint256","internalType":"uint256"}],"outputs":[{"name":"rewardsAmount","type":"uint256","internalType":"uint256"}],"stateMutability":"view"},{"type":"function","name":"checkEmergencyStatus","inputs":[{"name":"operation","type":"bytes4","internalType":"bytes4"}],"outputs":[{"name":"allowed","type":"bool","internalType":"bool"}],"stateMutability":"view"},{"type":"function","name":"claimRewards","inputs":[{"name":"positionId","type":"uint256","internalType":"uint256"}],"outputs":[{"name":"amountClaimed","type":"uint256","internalType":"uint256"}],"stateMutability":"nonpayable"},{"type":"function","name":"emergencyController","inputs":[],"outputs":[{"name":"","type":"address","internalType":"contract EmergencyController"}],"stateMutability":"view"},{"type":"function","name":"emergencyShutdown","inputs":[{"name":"emergencyLevelInput","type":"uint8","internalType":"uint8"}],"outputs":[{"name":"successFlag","type":"bool","internalType":"bool"}],"stateMutability":"nonpayable"},{"type":"function","name":"emergencyWithdraw","inputs":[{"name":"positionId","type":"uint256","internalType":"uint256"}],"outputs":[{"name":"amountWithdrawn","type":"uint256","internalType":"uint256"}],"stateMutability":"nonpayable"},{"type":"function","name":"getBaseAnnualPercentageRate","inputs":[],"outputs":[{"name":"aprBps","type":"uint256","internalType":"uint256"}],"stateMutability":"view"},{"type":"function","name":"getEmergencyController","inputs":[],"outputs":[{"name":"controllerAddress","type":"address","internalType":"address"}],"stateMutability":"view"},{"type":"function","name":"getEmergencyWithdrawalSettings","inputs":[],"outputs":[{"name":"isEnabled","type":"bool","internalType":"bool"},{"name":"penaltyBps","type":"uint256","internalType":"uint256"}],"stateMutability":"view"},{"type":"function","name":"getMaxPositionsPerUser","inputs":[],"outputs":[{"name":"maxPositions","type":"uint256","internalType":"uint256"}],"stateMutability":"view"},{"type":"function","name":"getPositionCount","inputs":[{"name":"userAddr","type":"address","internalType":"address"}],"outputs":[{"name":"countVal","type":"uint256","internalType":"uint256"}],"stateMutability":"view"},{"type":"function","name":"getStakingPosition","inputs":[{"name":"userAddr","type":"address","internalType":"address"},{"name":"positionId","type":"uint256","internalType":"uint256"}],"outputs":[{"name":"amountVal","type":"uint256","internalType":"uint256"},{"name":"startTimeVal","type":"uint256","internalType":"uint256"},{"name":"endTimeVal","type":"uint256","internalType":"uint256"},{"name":"lastClaimTimeVal","type":"uint256","internalType":"uint256"},{"name":"tierIdVal","type":"uint256","internalType":"uint256"},{"name":"isActiveFlag","type":"bool","internalType":"bool"}],"stateMutability":"view"},{"type":"function","name":"getStakingTokenAddress","inputs":[],"outputs":[{"name":"","type":"address","internalType":"address"}],"stateMutability":"view"},{"type":"function","name":"getTierInfo","inputs":[{"name":"tierId","type":"uint256","internalType":"uint256"}],"outputs":[{"name":"durationVal","type":"uint256","internalType":"uint256"},{"name":"rewardMultiplierVal","type":"uint256","internalType":"uint256"},{"name":"earlyWithdrawalPenaltyVal","type":"uint256","internalType":"uint256"},{"name":"isActive","type":"bool","internalType":"bool"}],"stateMutability":"view"},{"type":"function","name":"initialize","inputs":[{"name":"stakingTokenAddress_","type":"address","internalType":"address"},{"name":"accessControlAddr_","type":"address","internalType":"address"},{"name":"emergencyControllerAddr_","type":"address","internalType":"address"},{"name":"oracleIntegrationAddr_","type":"address","internalType":"address"},{"name":"initialBaseAPRBps_","type":"uint256","internalType":"uint256"},{"name":"minStakeDurationVal_","type":"uint256","internalType":"uint256"},{"name":"adminAddr_","type":"address","internalType":"address"},{"name":"initialMaxPositionsPerUser_","type":"uint256","internalType":"uint256"}],"outputs":[],"stateMutability":"nonpayable"},{"type":"function","name":"isEmergencyPaused","inputs":[],"outputs":[{"name":"isPausedStatus","type":"bool","internalType":"bool"}],"stateMutability":"view"},{"type":"function","name":"isStakingPaused","inputs":[],"outputs":[{"name":"","type":"bool","internalType":"bool"}],"stateMutability":"view"},{"type":"function","name":"oracleIntegration","inputs":[],"outputs":[{"name":"","type":"address","internalType":"contract OracleIntegration"}],"stateMutability":"view"},{"type":"function","name":"owner","inputs":[],"outputs":[{"name":"","type":"address","internalType":"address"}],"stateMutability":"view"},{"type":"function","name":"pauseStaking","inputs":[],"outputs":[{"name":"successFlag","type":"bool","internalType":"bool"}],"stateMutability":"nonpayable"},{"type":"function","name":"paused","inputs":[],"outputs":[{"name":"","type":"bool","internalType":"bool"}],"stateMutability":"view"},{"type":"function","name":"recoverTokens","inputs":[{"name":"tokenAddrRec","type":"address","internalType":"address"},{"name":"amountVal","type":"uint256","internalType":"uint256"}],"outputs":[{"name":"successFlag","type":"bool","internalType":"bool"}],"stateMutability":"nonpayable"},{"type":"function","name":"renounceOwnership","inputs":[],"outputs":[],"stateMutability":"nonpayable"},{"type":"function","name":"setBaseAnnualPercentageRate","inputs":[{"name":"newBaseAPRBps","type":"uint256","internalType":"uint256"}],"outputs":[{"name":"success","type":"bool","internalType":"bool"}],"stateMutability":"nonpayable"},{"type":"function","name":"setEmergencyController","inputs":[{"name":"controllerAddr","type":"address","internalType":"address"}],"outputs":[{"name":"successFlag","type":"bool","internalType":"bool"}],"stateMutability":"nonpayable"},{"type":"function","name":"setEmergencyWithdrawal","inputs":[{"name":"isEnabled","type":"bool","internalType":"bool"},{"name":"penaltyVal","type":"uint256","internalType":"uint256"}],"outputs":[{"name":"successFlag","type":"bool","internalType":"bool"}],"stateMutability":"nonpayable"},{"type":"function","name":"setMaxPositionsPerUser","inputs":[{"name":"maxPositions","type":"uint256","internalType":"uint256"}],"outputs":[{"name":"successFlag","type":"bool","internalType":"bool"}],"stateMutability":"nonpayable"},{"type":"function","name":"setMinStakeDuration","inputs":[{"name":"durationVal","type":"uint256","internalType":"uint256"}],"outputs":[{"name":"successFlag","type":"bool","internalType":"bool"}],"stateMutability":"nonpayable"},{"type":"function","name":"setOracleIntegration","inputs":[{"name":"oracleAddr","type":"address","internalType":"address"}],"outputs":[{"name":"successFlag","type":"bool","internalType":"bool"}],"stateMutability":"nonpayable"},{"type":"function","name":"stake","inputs":[{"name":"amount","type":"uint256","internalType":"uint256"},{"name":"tierId","type":"uint256","internalType":"uint256"}],"outputs":[{"name":"positionId","type":"uint256","internalType":"uint256"}],"stateMutability":"nonpayable"},{"type":"function","name":"totalStaked","inputs":[],"outputs":[{"name":"totalStakedAmount","type":"uint256","internalType":"uint256"}],"stateMutability":"view"},{"type":"function","name":"transferOwnership","inputs":[{"name":"newOwner","type":"address","internalType":"address"}],"outputs":[],"stateMutability":"nonpayable"},{"type":"function","name":"unpauseStaking","inputs":[],"outputs":[{"name":"successFlag","type":"bool","internalType":"bool"}],"stateMutability":"nonpayable"},{"type":"function","name":"unstake","inputs":[{"name":"positionId","type":"uint256","internalType":"uint256"}],"outputs":[{"name":"amountUnstaked","type":"uint256","internalType":"uint256"}],"stateMutability":"nonpayable"},{"type":"function","name":"updateTier","inputs":[{"name":"tierId","type":"uint256","internalType":"uint256"},{"name":"durationVal","type":"uint256","internalType":"uint256"},{"name":"rewardMultiplierVal","type":"uint256","internalType":"uint256"},{"name":"earlyWithdrawalPenaltyVal","type":"uint256","internalType":"uint256"},{"name":"isActive","type":"bool","internalType":"bool"}],"outputs":[{"name":"successFlag","type":"bool","internalType":"bool"}],"stateMutability":"nonpayable"},{"type":"event","name":"BaseAPRUpdated","inputs":[{"name":"oldBaseAPRBps","type":"uint256","indexed":false,"internalType":"uint256"},{"name":"newBaseAPRBps","type":"uint256","indexed":false,"internalType":"uint256"},{"name":"correspondingScaledRate","type":"uint256","indexed":false,"internalType":"uint256"},{"name":"updater","type":"address","indexed":true,"internalType":"address"}],"anonymous":false},{"type":"event","name":"EmergencyShutdownHandled","inputs":[{"name":"emergencyLevel","type":"uint8","indexed":false,"internalType":"uint8"},{"name":"caller","type":"address","indexed":true,"internalType":"address"}],"anonymous":false},{"type":"event","name":"EmergencyStatusChecked","inputs":[{"name":"emergencyLevel","type":"uint8","indexed":false,"internalType":"uint8"},{"name":"operation","type":"bytes4","indexed":false,"internalType":"bytes4"},{"name":"allowed","type":"bool","indexed":false,"internalType":"bool"}],"anonymous":false},{"type":"event","name":"EmergencyWithdrawalSettingsUpdated","inputs":[{"name":"enabled","type":"bool","indexed":false,"internalType":"bool"},{"name":"penalty","type":"uint256","indexed":false,"internalType":"uint256"},{"name":"updater","type":"address","indexed":true,"internalType":"address"}],"anonymous":false},{"type":"event","name":"Initialized","inputs":[{"name":"version","type":"uint8","indexed":false,"internalType":"uint8"}],"anonymous":false},{"type":"event","name":"MaxPositionsPerUserUpdated","inputs":[{"name":"oldMax","type":"uint256","indexed":false,"internalType":"uint256"},{"name":"newMax","type":"uint256","indexed":false,"internalType":"uint256"},{"name":"updater","type":"address","indexed":true,"internalType":"address"}],"anonymous":false},{"type":"event","name":"MinStakeDurationUpdated","inputs":[{"name":"oldDuration","type":"uint256","indexed":false,"internalType":"uint256"},{"name":"newDuration","type":"uint256","indexed":false,"internalType":"uint256"},{"name":"updater","type":"address","indexed":true,"internalType":"address"}],"anonymous":false},{"type":"event","name":"OwnershipTransferred","inputs":[{"name":"previousOwner","type":"address","indexed":true,"internalType":"address"},{"name":"newOwner","type":"address","indexed":true,"internalType":"address"}],"anonymous":false},{"type":"event","name":"Paused","inputs":[{"name":"account","type":"address","indexed":false,"internalType":"address"}],"anonymous":false},{"type":"event","name":"RewardsClaimed","inputs":[{"name":"user","type":"address","indexed":true,"internalType":"address"},{"name":"amount","type":"uint256","indexed":false,"internalType":"uint256"},{"name":"positionId","type":"uint256","indexed":true,"internalType":"uint256"}],"anonymous":false},{"type":"event","name":"Staked","inputs":[{"name":"user","type":"address","indexed":true,"internalType":"address"},{"name":"amount","type":"uint256","indexed":false,"internalType":"uint256"},{"name":"tierId","type":"uint256","indexed":true,"internalType":"uint256"},{"name":"positionId","type":"uint256","indexed":false,"internalType":"uint256"}],"anonymous":false},{"type":"event","name":"StakingPaused","inputs":[{"name":"account","type":"address","indexed":false,"internalType":"address"}],"anonymous":false},{"type":"event","name":"StakingUnpaused","inputs":[{"name":"account","type":"address","indexed":false,"internalType":"address"}],"anonymous":false},{"type":"event","name":"TierAdded","inputs":[{"name":"tierId","type":"uint256","indexed":true,"internalType":"uint256"},{"name":"duration","type":"uint256","indexed":false,"internalType":"uint256"},{"name":"rewardMultiplier","type":"uint256","indexed":false,"internalType":"uint256"},{"name":"earlyWithdrawalPenalty","type":"uint256","indexed":false,"internalType":"uint256"},{"name":"creator","type":"address","indexed":true,"internalType":"address"}],"anonymous":false},{"type":"event","name":"TierUpdated","inputs":[{"name":"tierId","type":"uint256","indexed":true,"internalType":"uint256"},{"name":"duration","type":"uint256","indexed":false,"internalType":"uint256"},{"name":"rewardMultiplier","type":"uint256","indexed":false,"internalType":"uint256"},{"name":"earlyWithdrawalPenalty","type":"uint256","indexed":false,"internalType":"uint256"},{"name":"active","type":"bool","indexed":false,"internalType":"bool"},{"name":"updater","type":"address","indexed":true,"internalType":"address"}],"anonymous":false},{"type":"event","name":"TokenRecovered","inputs":[{"name":"token","type":"address","indexed":true,"internalType":"address"},{"name":"amount","type":"uint256","indexed":false,"internalType":"uint256"},{"name":"recipient","type":"address","indexed":true,"internalType":"address"}],"anonymous":false},{"type":"event","name":"TokenStakingEmergencyControllerSet","inputs":[{"name":"oldController","type":"address","indexed":true,"internalType":"address"},{"name":"newController","type":"address","indexed":true,"internalType":"address"},{"name":"setter","type":"address","indexed":true,"internalType":"address"}],"anonymous":false},{"type":"event","name":"TokenStakingOracleIntegrationSet","inputs":[{"name":"oldOracle","type":"address","indexed":true,"internalType":"address"},{"name":"newOracle","type":"address","indexed":true,"internalType":"address"},{"name":"setter","type":"address","indexed":true,"internalType":"address"}],"anonymous":false},{"type":"event","name":"Unpaused","inputs":[{"name":"account","type":"address","indexed":false,"internalType":"address"}],"anonymous":false},{"type":"event","name":"Unstaked","inputs":[{"name":"user","type":"address","indexed":true,"internalType":"address"},{"name":"amount","type":"uint256","indexed":false,"internalType":"uint256"},{"name":"positionId","type":"uint256","indexed":true,"internalType":"uint256"},{"name":"penaltyAmount","type":"uint256","indexed":false,"internalType":"uint256"}],"anonymous":false},{"type":"error","name":"AmountIsZero","inputs":[]},{"type":"error","name":"ContractPaused","inputs":[]},{"type":"error","name":"InsufficientBalance","inputs":[{"name":"available","type":"uint256","internalType":"uint256"},{"name":"required","type":"uint256","internalType":"uint256"}]},{"type":"error","name":"LPS_DurationExceedsMax","inputs":[{"name":"duration","type":"uint256","internalType":"uint256"},{"name":"max","type":"uint256","internalType":"uint256"}]},{"type":"error","name":"LPS_DurationLessThanMin","inputs":[{"name":"duration","type":"uint256","internalType":"uint256"},{"name":"min","type":"uint256","internalType":"uint256"}]},{"type":"error","name":"LPS_EMGWDNotEnabled","inputs":[]},{"type":"error","name":"LPS_MaxPositionsMustBePositive","inputs":[]},{"type":"error","name":"LPS_MaxPositionsReached","inputs":[{"name":"current","type":"uint256","internalType":"uint256"},{"name":"max","type":"uint256","internalType":"uint256"}]},{"type":"error","name":"LPS_MultiStakeInBlock","inputs":[]},{"type":"error","name":"LPS_MultiplierTooHigh","inputs":[{"name":"multiplier","type":"uint256","internalType":"uint256"},{"name":"max","type":"uint256","internalType":"uint256"}]},{"type":"error","name":"LPS_MultiplierTooLow","inputs":[{"name":"multiplier","type":"uint256","internalType":"uint256"},{"name":"min","type":"uint256","internalType":"uint256"}]},{"type":"error","name":"LPS_NoRewardsToClaim","inputs":[]},{"type":"error","name":"LPS_PenaltyTooHigh","inputs":[{"name":"penalty","type":"uint256","internalType":"uint256"},{"name":"max","type":"uint256","internalType":"uint256"}]},{"type":"error","name":"LPS_PositionDoesNotExist","inputs":[{"name":"positionId","type":"uint256","internalType":"uint256"}]},{"type":"error","name":"LPS_PositionNotActive","inputs":[{"name":"positionId","type":"uint256","internalType":"uint256"}]},{"type":"error","name":"LPS_TierDoesNotExist","inputs":[{"name":"tierId","type":"uint256","internalType":"uint256"}]},{"type":"error","name":"LPS_TierNotActive","inputs":[{"name":"tierId","type":"uint256","internalType":"uint256"}]},{"type":"error","name":"NotAContract","inputs":[{"name":"context","type":"string","internalType":"string"}]},{"type":"error","name":"NotAuthorized","inputs":[{"name":"requiredRole","type":"bytes32","internalType":"bytes32"}]},{"type":"error","name":"TS_ACZero","inputs":[]},{"type":"error","name":"TS_AdminZero","inputs":[]},{"type":"error","name":"TS_AnnualRateTooHigh","inputs":[{"name":"rate","type":"uint256","internalType":"uint256"}]},{"type":"error","name":"TS_CallerNotEmergencyController","inputs":[]},{"type":"error","name":"TS_CannotUnprotectStakingToken","inputs":[]},{"type":"error","name":"TS_ECZero","inputs":[]},{"type":"error","name":"TS_MinDurLong","inputs":[]},{"type":"error","name":"TS_MinDurShort","inputs":[]},{"type":"error","name":"ZeroAddress","inputs":[{"name":"context","type":"string","internalType":"string"}]}],"bytecode":{"object":"0x6080806040523460bd576000549060ff8260081c16606b575060ff808216036031575b604051612db590816100c38239f35b60ff90811916176000557f7f26b83ff96e1f2b6a682f133852f6798a09c465da95921460cefb3847402498602060405160ff8152a1386022565b62461bcd60e51b815260206004820152602760248201527f496e697469616c697a61626c653a20636f6e747261637420697320696e697469604482015266616c697a696e6760c81b6064820152608490fd5b600080fdfe608080604052600436101561001357600080fd5b60003560e01c9081630234b445146123d657508063069c9fae1461224c5780630962ef791461214b57806313007d55146121215780631ea7ca8914612106578063290d10c414612106578063294558ab146120e85780632e17de7814611f7f57806340d5ee3614611e2f57806340fd9c1514611cb45780635312ea8e14611b885780635c975abb14611b655780635e1e09a114611b3c5780636358ec57146119045780636ca7dc89146118785780636edb9e3c14611618578063715018a6146115bb5780637a36842d1461148b5780637a936beb14610c245780637b0472f0146111fe578063817b1cd2146111e05780638aed668a146111a65780638da5cb5b1461117d57806393f4bcde14610fb357806395bc252c14610f845780639c6f117714610f5a578063a936119914610ec9578063aafc5d4714610d1d578063b8e374a014610cff578063beb8314c14610c4e578063c993cc9d14610c24578063cc9d751914610bb3578063e455aea514610ab8578063eb1676c114610947578063ef335a6314610473578063f2fde38b146103e45763f999c506146101b657600080fd5b3461035857600036600319011261035857610107546001600160a01b031680156103d35760405163e63ab1e960e01b8152602081600481855afa908115610365576000916103a0575b50604051632474521560e21b81526004810191909152336024820152602081604481855afa90811561036557600091610371575b50156102f257610241612625565b60655460ff81166102ba5760019060ff1916176065557f62e78cea01bee320cd4e420270b5ea74000d11b0c9f74754ebdbfc544b05a2586020604051338152a17f809c0580c391547b374416b02a354c8de3682892484414182b5d9fd9ecfa68346020604051338152a160018055602060405160018152f35b60405162461bcd60e51b815260206004820152601060248201526f14185d5cd8589b194e881c185d5cd95960821b6044820152606490fd5b60206004916040519283809263e63ab1e960e01b82525afa9081156103655760009161032e575b506323d6951f60e21b60005260045260246000fd5b90506020813d60201161035d575b8161034960209383612471565b81010312610358575138610319565b600080fd5b3d915061033c565b6040513d6000823e3d90fd5b610393915060203d602011610399575b61038b8183612471565b8101906124ed565b38610233565b503d610381565b90506020813d6020116103cb575b816103bb60209383612471565b81010312610358575160206101ff565b3d91506103ae565b633dd5901560e01b60005260046000fd5b34610358576020366003190112610358576103fd61245b565b6104056125cd565b6001600160a01b0381161561041f5761041d90612a7d565b005b60405162461bcd60e51b815260206004820152602660248201527f4f776e61626c653a206e6577206f776e657220697320746865207a65726f206160448201526564647265737360d01b6064820152608490fd5b34610358576101003660031901126103585761048d61245b565b6024356001600160a01b038116808203610358576044356001600160a01b03811692909190838303610358576064356001600160a01b03811693909290848403610358576084359560c4356001600160a01b03811694909260a43592918685036103585760e435966000549b60ff8d60081c16159c8d809e61093a575b8015610923575b156108c75760ff1981166001176000558d6108b5575b5061057460ff60005460081c1661053d81612ac6565b61054681612ac6565b6001805561055381612ac6565b61055c81612ac6565b60ff196065541660655561056f81612ac6565b612ac6565b61057d33612a7d565b60c954906001600160a01b038216610860576001600160a01b0316908115610808576001600160a01b0319161760c95586156103d35783156107f757156107e65761c3508a116107d1576201518084106107c0576301e1338084116107af57861561079e573b15610768573b1561072c5786151595866106e6575b50610633936001600160601b0360a01b610107541617610107556001600160601b0360a01b610106541617610106558660ca5560cc55612a7d565b60d2556106cb575b506107d060cd5560ff1960ce541660ce5561065581612a5e565b6040519160008352602083015260408201527f9b96bd841eae254366a1c395f048cfed4ec186faec69188ef0ad51bd3feb6bc860603392a261069357005b61ff0019600054166000557f7f26b83ff96e1f2b6a682f133852f6798a09c465da95921460cefb3847402498602060405160018152a1005b6001600160601b0360a01b610108541617610108558261063b565b3b156106f257896105f8565b604051630dd2788360e41b815260206004820152601160248201527037b930b1b632a4b73a32b3b930ba34b7b760791b6044820152606490fd5b604051630dd2788360e41b815260206004820152601360248201527232b6b2b933b2b731bca1b7b73a3937b63632b960691b6044820152606490fd5b604051630dd2788360e41b815260206004820152600d60248201526c1858d8d95cdcd0dbdb9d1c9bdb609a1b6044820152606490fd5b63c3cb8c7f60e01b60005260046000fd5b63e6c0677960e01b60005260046000fd5b6327065bc360e01b60005260046000fd5b89631289ac2160e11b60005260045260246000fd5b635380c96960e11b60005260046000fd5b6335d0e01f60e11b60005260046000fd5b60405162461bcd60e51b815260206004820152602a60248201527f546f6b656e5374616b696e673a205374616b696e6720746f6b656e2063616e6e6044820152696f74206265207a65726f60b01b6064820152608490fd5b60405162461bcd60e51b815260206004820152602760248201527f546f6b656e5374616b696e673a205374616b696e6720746f6b656e20616c726560448201526618591e481cd95d60ca1b6064820152608490fd5b61ffff1916610101176000558d610527565b60405162461bcd60e51b815260206004820152602e60248201527f496e697469616c697a61626c653a20636f6e747261637420697320616c72656160448201526d191e481a5b9a5d1a585b1a5e995960921b6064820152608490fd5b50303b1580156105115750600160ff821614610511565b50600160ff82161061050a565b346103585760203660031901126103585760043560ff811680910361035857610106546001600160a01b031680156107f7573303610aa757600381101580610a9a575b610a2b575b600281101580610a1e575b6109d6575b6040519081527f653b015d928c6cff1b70682b7d5afa1bbe5e5aa468f4a35076e9d0141a9cb1bc60203392a2602060405160018152f35b600160ff1960ce54161760ce5560cd54604051906001825260208201527f4a06a0a9bbd4225948ec0c6b08ef8bfefc9ffc1e8dbbee75c6b8c5825dc1d55f60403392a261099f565b5060ff60ce54161561099a565b60655460ff81166102ba5760019060ff1916176065557f62e78cea01bee320cd4e420270b5ea74000d11b0c9f74754ebdbfc544b05a2586020604051338152a17f809c0580c391547b374416b02a354c8de3682892484414182b5d9fd9ecfa68346020604051338152a161098f565b5060ff606554161561098a565b6357c4244d60e01b60005260046000fd5b3461035857604036600319011261035857610ad161245b565b602435906001600160a01b03168015610b6d578060005260cf602052604060002054821015610b595760c091610b139160005260cf6020526040600020612493565b50805490600181015490600281015460038201549060ff6005600485015494015416936040519586526020860152604085015260608401526080830152151560a0820152f35b5062b25f7360e61b60005260045260246000fd5b60405163eac0d38960e01b815260206004820152601f60248201527f757365724164647220666f72206765745374616b696e67506f736974696f6e006044820152606490fd5b346103585760203660031901126103585760043560d154811015610c1157600090815260d060209081526040918290208054600182015460028301546003909301548551928352938201529283015260ff1615156060820152608090f35b6202915b60e71b60005260045260246000fd5b3461035857600036600319011261035857610106546040516001600160a01b039091168152602090f35b3461035857604036600319011261035857610c6761245b565b602435906001600160a01b03168015610cb9578060005260cf602052604060002054821015610b5957610cab602092610cb19260005260cf84526040600020612493565b506127ab565b604051908152f35b60405163eac0d38960e01b815260206004820152601d60248201527f757365724164647220666f722063616c63756c617465526577617264730000006044820152606490fd5b3461035857600036600319011261035857602060d254604051908152f35b346103585760203660031901126103585761010754600435906001600160a01b031680156103d35760405163691afd6360e01b8152602081600481855afa90811561036557600091610e96575b50604051632474521560e21b81526004810191909152336024820152602081604481855afa90811561036557600091610e77575b5015610e0a5750610dad612625565b6201518081106107c0576301e1338081116107af5760cc54908060cc5560405191825260208201527f5bf8e219167735cb6b7ebb10919f5bf586135df4c384324a380c84a553a037ad60403392a260018055602060405160018152f35b60206004916040519283809263691afd6360e01b82525afa90811561036557600091610e4557506323d6951f60e21b60005260045260246000fd5b90506020813d602011610e6f575b81610e6060209383612471565b81010312610358575181610319565b3d9150610e53565b610e90915060203d6020116103995761038b8183612471565b83610d9e565b90506020813d602011610ec1575b81610eb160209383612471565b8101031261035857516020610d6a565b3d9150610ea4565b3461035857602036600319011261035857610ee261245b565b610eea6125cd565b6001600160a01b0381169081610f4e575b61010880546001600160a01b031981168417909155604051602091339085906001600160a01b03167f05043a65a72561a17888379e7f7c601e0d825855bfd5e4cfc5031658d350e144600080a460018152f35b3b156106f25781610efb565b3461035857600036600319011261035857610108546040516001600160a01b039091168152602090f35b346103585760003660031901126103585760ce5460cd546040805160ff90931615158352602083019190915290f35b3461035857600036600319011261035857610107546001600160a01b031680156103d35760405163e63ab1e960e01b8152602081600481855afa9081156103655760009161114a575b50604051632474521560e21b81526004810191909152336024820152602081604481855afa9081156103655760009161112b575b50156110f05761103e612625565b60655460ff8116156110b45760ff19166065557f5db9ee0a495bf2e6ff9c91a7834c1ba4fdd244a5e8aa4e537bd38aeae4b073aa6020604051338152a17fdae58038ddfb43573b5b8a5475403861921604364de4973375d5c84760cf27776020604051338152a160018055602060405160018152f35b60405162461bcd60e51b815260206004820152601460248201527314185d5cd8589b194e881b9bdd081c185d5cd95960621b6044820152606490fd5b60206004916040519283809263e63ab1e960e01b82525afa90811561036557600091610e4557506323d6951f60e21b60005260045260246000fd5b611144915060203d6020116103995761038b8183612471565b82611030565b90506020813d602011611175575b8161116560209383612471565b8101031261035857516020610ffc565b3d9150611158565b34610358576000366003190112610358576097546040516001600160a01b039091168152602090f35b34610358576020366003190112610358576004356001600160e01b031981168103610358576111d6602091612512565b6040519015158152f35b3461035857600036600319011261035857602060cb54604051908152f35b346103585760403660031901126103585760043560243561121d612625565b60ff60655416801561147d575b61146c57811561145b5760d154811015610c11573360005260cf6020526040600020549060d2548083101561144357508060005260d0602052604060002060ff6003820154161561142e573360005260d360205260406000205443111561141d576112a6903360005260d3602052436040600020555442612505565b9260405160c0810181811067ffffffffffffffff8211176114075760405281815260208101904282526040810195865260608101904282526080810185815260a0820190600182523360005260cf60205260406000208054680100000000000000008110156114075761131e91600182018155612493565b9490946113f1576020996113609660059551875551600187015551600286015551600385015551600484015551151591019060ff801983541691151516179055565b61136c8160cb54612505565b60cb5560c9546040516323b872dd60e01b86820152336024820152306044820152606480820184905281526113b4916001600160a01b03166113af608483612471565b612b26565b60405190815282848201527fb4caaf29adda3eefee3ad552a8e85058589bf834c7466cae4ee58787f70589ed60403392a360018055604051908152f35b634e487b7160e01b600052600060045260246000fd5b634e487b7160e01b600052604160045260246000fd5b636c0653f560e01b60005260046000fd5b50630f0a631b60e01b60005260045260246000fd5b8263e3e2c63d60e01b60005260045260245260446000fd5b6310eb483f60e21b60005260046000fd5b63ab35696f60e01b60005260046000fd5b506114866126b8565b61122a565b346103585760203660031901126103585761010754600435906001600160a01b031680156103d35760405163691afd6360e01b8152602081600481855afa90811561036557600091611588575b50604051632474521560e21b81526004810191909152336024820152602081604481855afa90811561036557600091611569575b5015610e0a575061151b612625565b801561079e5760d254908060d25560405191825260208201527f63a1443ae45a78014fdd48a4ce223c73120e3e0e1a3c767fa7491567ec13f71c60403392a260018055602060405160018152f35b611582915060203d6020116103995761038b8183612471565b8361150c565b90506020813d6020116115b3575b816115a360209383612471565b81010312610358575160206114d8565b3d9150611596565b34610358576000366003190112610358576115d46125cd565b609780546001600160a01b031981169091556000906001600160a01b03167f8be0079c531659141344cd1fd0a4f28419497f9722a3daafe3b4186f6b6457e08280a3005b346103585760a036600319011261035857602435600435606435604435608435801515810361035857610107546001600160a01b031680156103d35760405163691afd6360e01b8152602081600481855afa90811561036557600091611845575b50604051632474521560e21b81526004810191909152336024820152602081604481855afa90811561036557600091611826575b5015610e0a57506116bc612625565b60d1548410156118125760cc548086106117fa57506301e1338085116117dd57606482106117c3576161a882116117a857611388831161178d579061177b7fe9a840875b54a2672a48d4b461406e62df3d199deeaef90c1e102309b2009b9793928560005260d060205261175281600360406000208a8155866001820155876002820155019060ff801983541691151516179055565b604051938493339885926060929594919560808501968552602085015260408401521515910152565b0390a360018055602060405160018152f35b8263464b62f360e11b60005260045261138860245260446000fd5b5063027880f560e51b6000526004526161a860245260446000fd5b5063206dbb7b60e21b600052600452606460245260446000fd5b8463409fbc2f60e11b6000526004526301e1338060245260446000fd5b85635f9723d960e01b60005260045260245260446000fd5b836202915b60e71b60005260045260246000fd5b61183f915060203d6020116103995761038b8183612471565b876116ad565b90506020813d602011611870575b8161186060209383612471565b8101031261035857516020611679565b3d9150611853565b346103585760203660031901126103585761189161245b565b6118996125cd565b6001600160a01b0381169081156107f7573b1561072c5761010680546001600160a01b03198116831790915560405160209290913391906001600160a01b03167f4c54be1543862724b9741bbf9a78b9a9cb7563b8e7df0d3af5c999077e6b19fb600080a460018152f35b3461035857606036600319011261035857610107546044359060243590600435906001600160a01b031680156103d35760405163691afd6360e01b8152602081600481855afa90811561036557600091611b09575b50604051632474521560e21b81526004810191909152336024820152602081604481855afa90811561036557600091611aea575b5015610e0a575061199c612625565b60cc54808210611ad257506301e133808111611ab657606482106117c3576161a882116117a857611388831161178d5760d15491604051608081019080821067ffffffffffffffff83111761140757611a4291604052838152600360208201848152604083018881526060840191600183528860005260d060205260406000209451855551600185015551600284015551151591019060ff801983541691151516179055565b60d1546000198114611aa05760010160d15560408051928352602080840192909252820193909352339082907f7103ed42732bf91bab4c02b490c7e58203f49d3e8fc30f2d8571352e22ad202990606090a360018055604051908152f35b634e487b7160e01b600052601160045260246000fd5b63409fbc2f60e11b6000526004526301e1338060245260446000fd5b90635f9723d960e01b60005260045260245260446000fd5b611b03915060203d6020116103995761038b8183612471565b8561198d565b90506020813d602011611b34575b81611b2460209383612471565b8101031261035857516020611959565b3d9150611b17565b346103585760003660031901126103585760c9546040516001600160a01b039091168152602090f35b3461035857600036600319011261035857602060ff606554166040519015158152f35b3461035857602036600319011261035857600435611ba4612625565b60ff60ce541615611ca3573360005260cf602052604060002054811015611c90573360005260cf602052611bdc816040600020612493565b50600581019081549060ff821615611c7b5760209391611c199154611c0360cd5482612827565b94859260ff191690558060cb540360cb556124e0565b9182611c5d575b60405190838252848201527f204fccf0d92ed8d48f204adb39b2e81e92bad0dedb93f5716ca9478cfb57de0060403392a360018055604051908152f35b60c954611c7690849033906001600160a01b031661267b565b611c20565b836340524ba760e01b60005260045260246000fd5b62b25f7360e61b60005260045260246000fd5b63b9037ff160e01b60005260046000fd5b3461035857604036600319011261035857600435801515808203610358576101075460243591906001600160a01b031680156103d35760405163691afd6360e01b8152602081600481855afa90811561036557600091611dfc575b50604051632474521560e21b81526004810191909152336024820152602081604481855afa90811561036557600091611ddd575b5015610e0a5750611d52612625565b6113888211611dc2577f4a06a0a9bbd4225948ec0c6b08ef8bfefc9ffc1e8dbbee75c6b8c5825dc1d55f91611db09160ff801960ce541691161760ce558060cd55604051918291339583602090939291936040810194151581520152565b0390a260018055602060405160018152f35b5063464b62f360e11b60005260045261138860245260446000fd5b611df6915060203d6020116103995761038b8183612471565b85611d43565b90506020813d602011611e27575b81611e1760209383612471565b8101031261035857516020611d0f565b3d9150611e0a565b346103585760203660031901126103585761010754600435906001600160a01b031680156103d35760405163691afd6360e01b8152602081600481855afa90811561036557600091611f4c575b50604051632474521560e21b81526004810191909152336024820152602081604481855afa90811561036557600091611f2d575b5015610e0a5750611ebf612625565b61c3508111611f19577f9b96bd841eae254366a1c395f048cfed4ec186faec69188ef0ad51bd3feb6bc860ca54918060ca55611efa81612a5e565b6040805194855260208501929092529083015233918060608101611db0565b631289ac2160e11b60005260045260246000fd5b611f46915060203d6020116103995761038b8183612471565b83611eb0565b90506020813d602011611f77575b81611f6760209383612471565b8101031261035857516020611e7c565b3d9150611f5a565b3461035857602036600319011261035857600435611f9b612625565b3360005260cf602052604060002054811015611c90573360005260cf602052611fc8816040600020612493565b506005810180549160ff831615611c7b579280602094600090805490600281015442106120c2575b611ff9816127ab565b9561200484846124e0565b9760ff1916905560034291015560cb540360cb5560405190858252868201527f204fccf0d92ed8d48f204adb39b2e81e92bad0dedb93f5716ca9478cfb57de0060403392a360c9546001600160a01b03169180612085575b50508180612073575b505060018055604051908152f35b61207e91339061267b565b8281612065565b61209081338561267b565b6040519081527fdacbdde355ba930696a362ea6738feb9f8bd52dfb3d81947558fd3217e23e325853392a3838061205c565b9150600482015460005260d087526120e260026040600020015482612827565b91611ff0565b3461035857600036600319011261035857602060ca54604051908152f35b346103585760003660031901126103585760206111d66124c5565b3461035857600036600319011261035857610107546040516001600160a01b039091168152602090f35b3461035857602036600319011261035857600435612167612625565b60ff60655416801561223e575b61146c573360005260cf602052604060002054811015611c90573360005260cf6020526121a5816040600020612493565b509060ff6005830154161561222a576121bd826127ab565b908115612219576020926003429101556121e2823360018060a01b0360c9541661267b565b6040518281527fdacbdde355ba930696a362ea6738feb9f8bd52dfb3d81947558fd3217e23e325843392a360018055604051908152f35b63a593c5a960e01b60005260046000fd5b6340524ba760e01b60005260045260246000fd5b506122476126b8565b612174565b346103585760403660031901126103585761226561245b565b602435906122716125cd565b612279612625565b6001600160a01b031680156123905760c9546001600160a01b0316811461237f57811561145b576040516370a0823160e01b8152306004820152602081602481855afa9081156103655760009161234d575b5080831161233457506097546122ec9083906001600160a01b03168361267b565b6097546040519283526001600160a01b0316917f25cf8d26509ef33d03d7d79115a9acdd514856bbe6793a7af3f42f635e1e112490602090a360018055602060405160018152f35b905063cf47918160e01b60005260045260245260446000fd5b90506020813d602011612377575b8161236860209383612471565b810103126103585751836122cb565b3d915061235b565b63f4d1b7c560e01b60005260046000fd5b60405163eac0d38960e01b815260206004820152601960248201527f746f6b656e4164647252656320666f72207265636f76657279000000000000006044820152606490fd5b34610358576020366003190112610358576001600160a01b036123f761245b565b16908115612418575060005260cf6020526020604060002054604051908152f35b63eac0d38960e01b815260206004820152601d60248201527f757365724164647220666f7220676574506f736974696f6e436f756e740000006044820152606490fd5b600435906001600160a01b038216820361035857565b90601f8019910116810190811067ffffffffffffffff82111761140757604052565b80548210156124af576000526006602060002091020190600090565b634e487b7160e01b600052603260045260246000fd5b60ff6065541680156124d45790565b506124dd6126b8565b90565b91908203918211611aa057565b90816020910312610358575180151581036103585790565b91908201809211611aa057565b60ff6065541680156125bf575b159081806125aa575b612530575090565b61010654604051634d12488760e01b81526001600160e01b03199092166004830152602090829060249082906001600160a01b03165afa60009181612589575b5061257c575050600190565b6125835790565b50600090565b6125a391925060203d6020116103995761038b8183612471565b9038612570565b50610106546001600160a01b03161515612528565b506125c86126b8565b61251f565b6097546001600160a01b031633036125e157565b606460405162461bcd60e51b815260206004820152602060248201527f4f776e61626c653a2063616c6c6572206973206e6f7420746865206f776e65726044820152fd5b600260015414612636576002600155565b60405162461bcd60e51b815260206004820152601f60248201527f5265656e7472616e637947756172643a207265656e7472616e742063616c6c006044820152606490fd5b60405163a9059cbb60e01b60208201526001600160a01b0390921660248301526044808301939093529181526126b6916113af606483612471565b565b610106546001600160a01b0316801561258357604051631da4712b60e21b81526000918291602081600481855afa6000918161278a575b50612781575b50602060049160405192838092630743c9d960e51b82525afa809160009161273e575b5090612736575b50811561272a575090565b6003915060ff16101590565b90503861271f565b6020813d602011612779575b8161275760209383612471565b8101031261277557519060ff82168203612772575038612718565b80fd5b5080fd5b3d915061274a565b925060206126f5565b6127a491925060203d6020116103995761038b8183612471565b90386126ef565b60ff6005820154161561258357600481015460005260d060205260406000206127d560ca54612a5e565b916003810154926002820154938042111561281d578481101561281d5761280b6001916124dd96804211600014612816576124e0565b925493015492612c4b565b50426124e0565b5050505050600090565b600019828209828202918280831092039180830392146128c257816127101115612885577fbc01a36e2eb1c432ca57a786c226809d495182a9930be0ded288ce703afb7e9193612710910990828211900360fc1b910360041c170290565b60405162461bcd60e51b81526020600482015260156024820152744d6174683a206d756c446976206f766572666c6f7760581b6044820152606490fd5b505061271091500490565b6000196402540be4008209906402540be400810291828082109103818114612907570360011115612885576402540be40060019109900390565b50505090565b6000196305f5e1008209906305f5e100810291828082109103818114612907570360011115612885576305f5e10060019109900390565b60001960018209908080831092039180830392146129a8578164496cebb8001115612885577fd18ce2d033892ab6710afe1da5f26d00b43f019695d75c72580c14ab81b64c479164496cebb8006001830990828211900360f51b9103600b1c170290565b64496cebb80091500490565b60001982820991808202928380821091038181146129de5703600111156128855760019109900390565b5050505090565b6000196001820990808083109203918083039214612a4f5781670de0b6b3a76400001115612885577faccb18165bd6fe31ae1cf318dc5b51eee0e1ba569b88cd74c1773b91fac1066991670de0b6b3a76400006001830990828211900360ee1b910360121c170290565b670de0b6b3a764000091500490565b801561258357612a78612a736124dd926128cd565b61290d565b612944565b609780546001600160a01b039283166001600160a01b0319821681179092559091167f8be0079c531659141344cd1fd0a4f28419497f9722a3daafe3b4186f6b6457e0600080a3565b15612acd57565b60405162461bcd60e51b815260206004820152602b60248201527f496e697469616c697a61626c653a20636f6e7472616374206973206e6f74206960448201526a6e697469616c697a696e6760a81b6064820152608490fd5b60018060a01b0316604091600080845192612b418685612471565b602084527f5361666545524332303a206c6f772d6c6576656c2063616c6c206661696c6564602085015260208151910182865af13d15612c3e573d9067ffffffffffffffff8211611407578451612bb7949092612ba8601f8201601f191660200185612471565b83523d6000602085013e612caf565b8051908115918215612c24575b505015612bce5750565b5162461bcd60e51b815260206004820152602a60248201527f5361666545524332303a204552433230206f7065726174696f6e20646964206e6044820152691bdd081cdd58d8d9595960b21b6064820152608490fd5b612c3792506020809183010191016124ed565b3880612bc4565b91612bb792606091612caf565b929183158015612ca7575b8015612c9f575b612c9657612c71612c76926124dd956129b4565b6129b4565b906127108103612c87575b506129e5565b612c9091612827565b38612c81565b50505050600090565b508015612c5d565b508115612c56565b91929015612d115750815115612cc3575090565b3b15612ccc5790565b60405162461bcd60e51b815260206004820152601d60248201527f416464726573733a2063616c6c20746f206e6f6e2d636f6e74726163740000006044820152606490fd5b825190915015612d245750805190602001fd5b6040519062461bcd60e51b8252602060048301528181519182602483015260005b838110612d675750508160006044809484010152601f80199101168101030190fd5b60208282018101516044878401015285935001612d4556fea2646970667358221220c22a7e1efc48e74f552ca1e9dab02307baf8251b85d4c05c6917e0fa01ee1c3864736f6c634300081c0033","linkReferences":{}},"methodIdentifiers":{"accessControl()":"13007d55","addTier(uint256,uint256,uint256)":"6358ec57","calculateRewards(address,uint256)":"beb8314c","checkEmergencyStatus(bytes4)":"8aed668a","claimRewards(uint256)":"0962ef79","emergencyController()":"7a936beb","emergencyShutdown(uint8)":"eb1676c1","emergencyWithdraw(uint256)":"5312ea8e","getBaseAnnualPercentageRate()":"294558ab","getEmergencyController()":"c993cc9d","getEmergencyWithdrawalSettings()":"95bc252c","getMaxPositionsPerUser()":"b8e374a0","getPositionCount(address)":"0234b445","getStakingPosition(address,uint256)":"e455aea5","getStakingTokenAddress()":"5e1e09a1","getTierInfo(uint256)":"cc9d7519","initialize(address,address,address,address,uint256,uint256,address,uint256)":"ef335a63","isEmergencyPaused()":"290d10c4","isStakingPaused()":"1ea7ca89","oracleIntegration()":"9c6f1177","owner()":"8da5cb5b","pauseStaking()":"f999c506","paused()":"5c975abb","recoverTokens(address,uint256)":"069c9fae","renounceOwnership()":"715018a6","setBaseAnnualPercentageRate(uint256)":"40d5ee36","setEmergencyController(address)":"6ca7dc89","setEmergencyWithdrawal(bool,uint256)":"40fd9c15","setMaxPositionsPerUser(uint256)":"7a36842d","setMinStakeDuration(uint256)":"aafc5d47","setOracleIntegration(address)":"a9361199","stake(uint256,uint256)":"7b0472f0","totalStaked()":"817b1cd2","transferOwnership(address)":"f2fde38b","unpauseStaking()":"93f4bcde","unstake(uint256)":"2e17de78","updateTier(uint256,uint256,uint256,uint256,bool)":"6edb9e3c"},"id":6}