{"abi":[{"type":"constructor","inputs":[],"stateMutability":"nonpayable"},{"type":"function","name":"checkEmergencyStatus","inputs":[{"name":"","type":"bytes4","internalType":"bytes4"}],"outputs":[{"name":"allowed","type":"bool","internalType":"bool"}],"stateMutability":"view"},{"type":"function","name":"emergencyController","inputs":[],"outputs":[{"name":"","type":"address","internalType":"contract EmergencyController"}],"stateMutability":"view"},{"type":"function","name":"emergencyShutdown","inputs":[{"name":"emergencyLevel","type":"uint8","internalType":"uint8"}],"outputs":[{"name":"successFlag","type":"bool","internalType":"bool"}],"stateMutability":"nonpayable"},{"type":"function","name":"getEmergencyController","inputs":[],"outputs":[{"name":"controllerAddress","type":"address","internalType":"address"}],"stateMutability":"view"},{"type":"function","name":"getFactoryAddress","inputs":[],"outputs":[{"name":"factoryAddr_","type":"address","internalType":"address"}],"stateMutability":"view"},{"type":"function","name":"getTokenAddress","inputs":[],"outputs":[{"name":"tokenAddr_","type":"address","internalType":"address"}],"stateMutability":"view"},{"type":"function","name":"getVestingSchedule","inputs":[],"outputs":[{"name":"beneficiaryOut","type":"address","internalType":"address"},{"name":"totalAmountOut","type":"uint256","internalType":"uint256"},{"name":"startTimeOut","type":"uint256","internalType":"uint256"},{"name":"cliffDurationOut","type":"uint256","internalType":"uint256"},{"name":"durationOut","type":"uint256","internalType":"uint256"},{"name":"releasedAmountOut","type":"uint256","internalType":"uint256"},{"name":"revocableOut","type":"bool","internalType":"bool"},{"name":"revokedOut","type":"bool","internalType":"bool"}],"stateMutability":"view"},{"type":"function","name":"initialize","inputs":[{"name":"tokenAddress_","type":"address","internalType":"address"},{"name":"beneficiaryAddress_","type":"address","internalType":"address"},{"name":"startTimeValue_","type":"uint256","internalType":"uint256"},{"name":"cliffDurationValue_","type":"uint256","internalType":"uint256"},{"name":"durationValue_","type":"uint256","internalType":"uint256"},{"name":"isRevocable_","type":"bool","internalType":"bool"},{"name":"totalVestingAmount_","type":"uint256","internalType":"uint256"},{"name":"initialOwnerAddress_","type":"address","internalType":"address"}],"outputs":[],"stateMutability":"nonpayable"},{"type":"function","name":"initialize","inputs":[{"name":"tokenAddress_","type":"address","internalType":"address"},{"name":"beneficiaryAddress_","type":"address","internalType":"address"},{"name":"startTimeValue_","type":"uint256","internalType":"uint256"},{"name":"cliffDurationValue_","type":"uint256","internalType":"uint256"},{"name":"durationValue_","type":"uint256","internalType":"uint256"},{"name":"isRevocable_","type":"bool","internalType":"bool"},{"name":"totalVestingAmount_","type":"uint256","internalType":"uint256"},{"name":"initialOwnerAddress_","type":"address","internalType":"address"},{"name":"emergencyControllerAddress_","type":"address","internalType":"address"},{"name":"oracleIntegrationAddress_","type":"address","internalType":"address"}],"outputs":[],"stateMutability":"nonpayable"},{"type":"function","name":"isEmergencyPaused","inputs":[],"outputs":[{"name":"isPausedStatus","type":"bool","internalType":"bool"}],"stateMutability":"view"},{"type":"function","name":"oracleIntegration","inputs":[],"outputs":[{"name":"","type":"address","internalType":"contract OracleIntegration"}],"stateMutability":"view"},{"type":"function","name":"owner","inputs":[],"outputs":[{"name":"","type":"address","internalType":"address"}],"stateMutability":"view"},{"type":"function","name":"releasableAmount","inputs":[],"outputs":[{"name":"releasable","type":"uint256","internalType":"uint256"}],"stateMutability":"view"},{"type":"function","name":"release","inputs":[],"outputs":[{"name":"amountReleased","type":"uint256","internalType":"uint256"}],"stateMutability":"nonpayable"},{"type":"function","name":"revoke","inputs":[],"outputs":[{"name":"amountRefundedToOwner","type":"uint256","internalType":"uint256"}],"stateMutability":"nonpayable"},{"type":"function","name":"setEmergencyController","inputs":[{"name":"controllerAddr","type":"address","internalType":"address"}],"outputs":[{"name":"successFlag","type":"bool","internalType":"bool"}],"stateMutability":"nonpayable"},{"type":"function","name":"setOracleIntegration","inputs":[{"name":"oracleAddr","type":"address","internalType":"address"}],"outputs":[{"name":"successFlag","type":"bool","internalType":"bool"}],"stateMutability":"nonpayable"},{"type":"function","name":"transferOwnership","inputs":[{"name":"newOwner","type":"address","internalType":"address"}],"outputs":[{"name":"successFlag","type":"bool","internalType":"bool"}],"stateMutability":"nonpayable"},{"type":"function","name":"vestedAmount","inputs":[{"name":"timestamp","type":"uint256","internalType":"uint256"}],"outputs":[{"name":"vested","type":"uint256","internalType":"uint256"}],"stateMutability":"view"},{"type":"event","name":"EmergencyControllerSet","inputs":[{"name":"oldController","type":"address","indexed":true,"internalType":"address"},{"name":"newController","type":"address","indexed":true,"internalType":"address"},{"name":"setter","type":"address","indexed":true,"internalType":"address"}],"anonymous":false},{"type":"event","name":"EmergencyShutdownHandled","inputs":[{"name":"emergencyLevel","type":"uint8","indexed":false,"internalType":"uint8"},{"name":"caller","type":"address","indexed":true,"internalType":"address"}],"anonymous":false},{"type":"event","name":"EmergencyStatusChecked","inputs":[{"name":"emergencyLevel","type":"uint8","indexed":false,"internalType":"uint8"},{"name":"operation","type":"bytes4","indexed":false,"internalType":"bytes4"},{"name":"allowed","type":"bool","indexed":false,"internalType":"bool"}],"anonymous":false},{"type":"event","name":"Initialized","inputs":[{"name":"version","type":"uint8","indexed":false,"internalType":"uint8"}],"anonymous":false},{"type":"event","name":"OracleIntegrationSet","inputs":[{"name":"oldOracle","type":"address","indexed":true,"internalType":"address"},{"name":"newOracle","type":"address","indexed":true,"internalType":"address"},{"name":"setter","type":"address","indexed":true,"internalType":"address"}],"anonymous":false},{"type":"event","name":"OwnershipTransferred","inputs":[{"name":"previousOwner","type":"address","indexed":true,"internalType":"address"},{"name":"newOwner","type":"address","indexed":true,"internalType":"address"}],"anonymous":false},{"type":"event","name":"TokensReleased","inputs":[{"name":"beneficiary","type":"address","indexed":true,"internalType":"address"},{"name":"amount","type":"uint256","indexed":false,"internalType":"uint256"}],"anonymous":false},{"type":"event","name":"VestingRevoked","inputs":[{"name":"revoker","type":"address","indexed":true,"internalType":"address"},{"name":"amount","type":"uint256","indexed":false,"internalType":"uint256"}],"anonymous":false},{"type":"error","name":"NotAContract","inputs":[{"name":"context","type":"string","internalType":"string"}]},{"type":"error","name":"NotOwner","inputs":[]},{"type":"error","name":"SystemInEmergencyMode","inputs":[]},{"type":"error","name":"Vesting_AlreadyRevoked","inputs":[]},{"type":"error","name":"Vesting_AmountZeroV","inputs":[]},{"type":"error","name":"Vesting_BeneficiaryZero","inputs":[]},{"type":"error","name":"Vesting_CallerNotEmergencyController","inputs":[]},{"type":"error","name":"Vesting_CliffLongerThanDuration","inputs":[]},{"type":"error","name":"Vesting_DurationZero","inputs":[]},{"type":"error","name":"Vesting_NoTokensDue","inputs":[]},{"type":"error","name":"Vesting_NotRevocable","inputs":[]},{"type":"error","name":"Vesting_OwnerZeroV","inputs":[]},{"type":"error","name":"Vesting_StartTimeInvalid","inputs":[]},{"type":"error","name":"Vesting_TokenZero","inputs":[]},{"type":"error","name":"ZeroAddress","inputs":[{"name":"context","type":"string","internalType":"string"}]}],"bytecode":{"object":"0x6080806040523460bd576000549060ff8260081c16606b575060ff808216036031575b60405161131490816100c38239f35b60ff90811916176000557f7f26b83ff96e1f2b6a682f133852f6798a09c465da95921460cefb3847402498602060405160ff8152a1386022565b62461bcd60e51b815260206004820152602760248201527f496e697469616c697a61626c653a20636f6e747261637420697320696e697469604482015266616c697a696e6760c81b6064820152608490fd5b600080fdfe608080604052600436101561001357600080fd5b60003560e01c90816310fe9ae814610cc4575080631bfce85314610ca6578063290d10c414610c81578063318449be14610b055780633811ddea146107db5780633a05f0d81461076f5780635b9400811461074c5780636ca7dc89146106755780637a936beb1461027a57806386d1a69f146105a35780638aed668a1461056c5780638da5cb5b146105435780639c6f11771461051a578063a936119914610445578063a9c2e36c1461041c578063b6549f75146102a3578063c993cc9d1461027a578063eb1676c1146101cd5763f2fde38b146100f057600080fd5b346101c85760203660031901126101c857610109610ce8565b603c546001600160a01b031633036101b757610123610ffa565b6001600160a01b0316801561018657603c80546001600160a01b03198116831790915560405160209290916001600160a01b03167f8be0079c531659141344cd1fd0a4f28419497f9722a3daafe3b4186f6b6457e0600080a36001805560018152f35b60405163eac0d38960e01b81526020600482015260086024820152673732bba7bbb732b960c11b6044820152606490fd5b6330cd747160e01b60005260046000fd5b600080fd5b346101c85760203660031901126101c85760043560ff81168091036101c857603d546001600160a01b031680158080610265575b6102495715908161025a575b50610249576040519081527f653b015d928c6cff1b70682b7d5afa1bbe5e5aa468f4a35076e9d0141a9cb1bc60203392a2602060405160018152f35b63c6823adb60e01b60005260046000fd5b90503314158261020d565b506034546001600160a01b0316331415610201565b346101c85760003660031901126101c857603d546040516001600160a01b039091168152602090f35b346101c85760003660031901126101c857603c546001600160a01b031633036101b7576102ce610ffa565b603b5460ff81161561040b5760ff8160081c166103fa576020906102f142610d69565b600090603a548082116103e7575b506101006103106036549283610d5c565b61ff001990941617603b55603a556033546001600160a01b03169080610391575b508180610372575b50506040518181527f57c76f5e278bfbd4eeb5207d287aa5a1a9e1113c65f7eefa540e379a2774d13b833392a260018055604051908152f35b603c5461038a926001600160a01b0390911690611050565b8281610339565b6035546103a99082906001600160a01b031684611050565b6035546040519182526001600160a01b0316907fc7798891864187665ac6dd119286e44ec13f014527aeeb2b8eb3fd413df93179908590a283610331565b816103f3929350610d5c565b90846102ff565b634393ba6960e11b60005260046000fd5b63f8222ef760e01b60005260046000fd5b346101c85760003660031901126101c8576034546040516001600160a01b039091168152602090f35b346101c85760203660031901126101c85761045e610ce8565b603c546001600160a01b031633036101b757603e54906001600160a01b03811690816104d4575b506001600160a01b031982168117603e55604051602092909133916001600160a01b03167f9eab87bfc4657f2647d523442668edbd6d841f5fe42e541dbb5f474431c51372600080a460018152f35b3b156104e05782610485565b604051630dd2788360e41b815260206004820152601160248201527037b930b1b632a4b73a32b3b930ba34b7b760791b6044820152606490fd5b346101c85760003660031901126101c857603e546040516001600160a01b039091168152602090f35b346101c85760003660031901126101c857603c546040516001600160a01b039091168152602090f35b346101c85760203660031901126101c8576004356001600160e01b03198116036101c857602061059a610ef2565b15604051908152f35b346101c85760003660031901126101c8576105bc610ffa565b6105c4610ef2565b6106645760ff603b5460081c166103fa576105dd610e53565b801561065357806105f2602092603a54610d39565b603a556033546035546106139183916001600160a01b039081169116611050565b60018060a01b03603554167fc7798891864187665ac6dd119286e44ec13f014527aeeb2b8eb3fd413df9317983604051848152a260018055604051908152f35b634383243b60e11b60005260046000fd5b63a36c61e760e01b60005260046000fd5b346101c85760203660031901126101c85761068e610ce8565b603c546001600160a01b031633036101b757603d54906001600160a01b0381169081610704575b506001600160a01b031982168117603d55604051602092909133916001600160a01b03167ff74ec9978ba2b855629831c18da14f9c37095cf07acc97fcf2842a893d3245ef600080a460018152f35b3b1561071057826106b5565b604051630dd2788360e41b815260206004820152601360248201527232b6b2b933b2b731bca1b7b73a3937b63632b960691b6044820152606490fd5b346101c85760003660031901126101c8576020610767610e53565b604051908152f35b346101c85760003660031901126101c85761010060018060a01b036035541660ff60365460375460385460395490603a5492603b5494604051978852602088015260408701526060860152608085015260a0840152818116151560c084015260081c16151560e0820152f35b346101c8576101403660031901126101c8576107f5610ce8565b6107fd610cfe565b6044359060643560843591610810610d2a565b9360c4359061081d610d14565b92610104356001600160a01b0381168082036101c857610124356001600160a01b038116939092908484036101c8576000549b60ff8d60081c16159c8d809e610af8575b8015610ae1575b61087190610df0565b60ff1981166001176000558d610acf575b5061089d60ff60005460081c16610898816111ae565b6111ae565b600180556001600160a01b0316908115610abe576001600160a01b0316978815610aad576001600160a01b0316908115610a9c578a15610a8b578715610a7a578a8a11610a695742871080610a60575b610a4f576001600160601b0360a01b6033541617603355336001600160601b0360a01b60345416176034556001600160601b0360a01b603c541617603c5581610a2f575b505081610a0f575b505080610a0557506109a142925b600060e0604051986109588a610e85565b838a528560208b01528660408b01528760608b01528860808b01528260a08b01521515988960c0820152015260018060a01b03166001600160601b0360a01b6035541617603555565b6036556037556038556039556000603a55603b805461ffff191660ff929092169190911790556109cd57005b61ff0019600054166000557f7f26b83ff96e1f2b6a682f133852f6798a09c465da95921460cefb3847402498602060405160018152a1005b6109a19092610947565b3b156104e0576001600160601b0360a01b603e541617603e558780610939565b3b15610710576001600160601b0360a01b603d541617603d558980610931565b63a559986960e01b60005260046000fd5b508615156108ed565b630ec0e8ad60e01b60005260046000fd5b6349aed2eb60e01b60005260046000fd5b633e68ddc760e11b60005260046000fd5b637a97efb760e11b60005260046000fd5b634415b0ef60e11b60005260046000fd5b63405cee7b60e11b60005260046000fd5b61ffff1916610101176000558d610882565b50303b158015610868575060ff8116600114610868565b50600160ff821610610861565b346101c8576101003660031901126101c857610b1f610ce8565b610b27610cfe565b6044359060643560843591610b3a610d2a565b9360c43590610b47610d14565b926000549760ff8960081c16159889809a610c74575b8015610c5d575b610b6d90610df0565b60ff19811660011760005589610c4b575b50610b9460ff60005460081c16610898816111ae565b600180556001600160a01b0316908115610abe576001600160a01b0316938415610aad576001600160a01b0316908115610a9c578615610a8b578315610a7a57868611610a695742831080610c42575b610a4f576001600160601b0360a01b6033541617603355336001600160601b0360a01b60345416176034556001600160601b0360a01b603c541617603c558015600014610a0557506109a14292600060e0604051986109588a610e85565b50821515610be4565b61ffff19166101011760005589610b7e565b50303b158015610b64575060ff8116600114610b64565b50600160ff821610610b5d565b346101c85760003660031901126101c8576020610c9c610ef2565b6040519015158152f35b346101c85760203660031901126101c8576020610767600435610d69565b346101c85760003660031901126101c8576033546001600160a01b03168152602090f35b600435906001600160a01b03821682036101c857565b602435906001600160a01b03821682036101c857565b60e435906001600160a01b03821682036101c857565b60a4359081151582036101c857565b91908201809211610d4657565b634e487b7160e01b600052601160045260246000fd5b91908203918211610d4657565b60375490610d7960385483610d39565b8110610de95760395491610d8d8382610d39565b821015610de057610d9d91610d5c565b9060365491808302908382041483151715610d46578115610dca570481811115610dc5575090565b905090565b634e487b7160e01b600052601260045260246000fd5b50505060365490565b5050600090565b15610df757565b60405162461bcd60e51b815260206004820152602e60248201527f496e697469616c697a61626c653a20636f6e747261637420697320616c72656160448201526d191e481a5b9a5d1a585b1a5e995960921b6064820152608490fd5b60ff603b5460081c16610e8057610e6942610d69565b603a5480821115610de957610e7d91610d5c565b90565b600090565b610100810190811067ffffffffffffffff821117610ea257604052565b634e487b7160e01b600052604160045260246000fd5b90601f8019910116810190811067ffffffffffffffff821117610ea257604052565b908160209103126101c8575180151581036101c85790565b603d546001600160a01b03168015610ff457604051631da4712b60e21b81526000918291602081600481855afa60009181610fc3575b50610fba575b50602060049160405192838092630743c9d960e51b82525afa8091600091610f77575b5090610f6f575b508115610f63575090565b6003915060ff16101590565b905038610f58565b6020813d602011610fb2575b81610f9060209383610eb8565b81010312610fae57519060ff82168203610fab575038610f51565b80fd5b5080fd5b3d9150610f83565b92506020610f2e565b610fe691925060203d602011610fed575b610fde8183610eb8565b810190610eda565b9038610f28565b503d610fd4565b50600090565b60026001541461100b576002600155565b60405162461bcd60e51b815260206004820152601f60248201527f5265656e7472616e637947756172643a207265656e7472616e742063616c6c006044820152606490fd5b60405163a9059cbb60e01b602082019081526001600160a01b03909316602482015260448082019490945292835290919061108c606483610eb8565b60018060a01b0316906000806040948551936110a88786610eb8565b602085527f5361666545524332303a206c6f772d6c6576656c2063616c6c206661696c65646020860152519082865af13d156111a1573d9067ffffffffffffffff8211610ea257845161111a94909261110b601f8201601f191660200185610eb8565b83523d6000602085013e61120e565b8051908115918215611187575b5050156111315750565b5162461bcd60e51b815260206004820152602a60248201527f5361666545524332303a204552433230206f7065726174696f6e20646964206e6044820152691bdd081cdd58d8d9595960b21b6064820152608490fd5b61119a9250602080918301019101610eda565b3880611127565b9161111a9260609161120e565b156111b557565b60405162461bcd60e51b815260206004820152602b60248201527f496e697469616c697a61626c653a20636f6e7472616374206973206e6f74206960448201526a6e697469616c697a696e6760a81b6064820152608490fd5b919290156112705750815115611222575090565b3b1561122b5790565b60405162461bcd60e51b815260206004820152601d60248201527f416464726573733a2063616c6c20746f206e6f6e2d636f6e74726163740000006044820152606490fd5b8251909150156112835750805190602001fd5b6040519062461bcd60e51b8252602060048301528181519182602483015260005b8381106112c65750508160006044809484010152601f80199101168101030190fd5b602082820181015160448784010152859350016112a456fea264697066735822122090c13c6d95a575ecf2bd4e6514cdb1812a7b75bb22f73730b40caeb2e2b7cc6964736f6c634300081c0033","linkReferences":{}},"methodIdentifiers":{"checkEmergencyStatus(bytes4)":"8aed668a","emergencyController()":"7a936beb","emergencyShutdown(uint8)":"eb1676c1","getEmergencyController()":"c993cc9d","getFactoryAddress()":"a9c2e36c","getTokenAddress()":"10fe9ae8","getVestingSchedule()":"3a05f0d8","initialize(address,address,uint256,uint256,uint256,bool,uint256,address)":"318449be","initialize(address,address,uint256,uint256,uint256,bool,uint256,address,address,address)":"3811ddea","isEmergencyPaused()":"290d10c4","oracleIntegration()":"9c6f1177","owner()":"8da5cb5b","releasableAmount()":"5b940081","release()":"86d1a69f","revoke()":"b6549f75","setEmergencyController(address)":"6ca7dc89","setOracleIntegration(address)":"a9361199","transferOwnership(address)":"f2fde38b","vestedAmount(uint256)":"1bfce853"},"id":53}