{"abi":[{"type":"constructor","inputs":[],"stateMutability":"nonpayable"},{"type":"function","name":"createVesting","inputs":[{"name":"beneficiary","type":"address","internalType":"address"},{"name":"startTime","type":"uint256","internalType":"uint256"},{"name":"cliffDuration","type":"uint256","internalType":"uint256"},{"name":"duration","type":"uint256","internalType":"uint256"},{"name":"revocable","type":"bool","internalType":"bool"},{"name":"amount","type":"uint256","internalType":"uint256"}],"outputs":[{"name":"vestingAddress","type":"address","internalType":"address"}],"stateMutability":"nonpayable"},{"type":"function","name":"getAllVestingContractsPaginated","inputs":[{"name":"offset","type":"uint256","internalType":"uint256"},{"name":"limit","type":"uint256","internalType":"uint256"}],"outputs":[{"name":"page","type":"address[]","internalType":"address[]"},{"name":"total","type":"uint256","internalType":"uint256"}],"stateMutability":"view"},{"type":"function","name":"getImplementation","inputs":[],"outputs":[{"name":"","type":"address","internalType":"address"}],"stateMutability":"view"},{"type":"function","name":"getTokenAddress","inputs":[],"outputs":[{"name":"","type":"address","internalType":"address"}],"stateMutability":"view"},{"type":"function","name":"getVestingsByBeneficiary","inputs":[{"name":"beneficiary_","type":"address","internalType":"address"}],"outputs":[{"name":"","type":"address[]","internalType":"address[]"}],"stateMutability":"view"},{"type":"function","name":"getVestingsByBeneficiaryPaginated","inputs":[{"name":"beneficiary_","type":"address","internalType":"address"},{"name":"offset","type":"uint256","internalType":"uint256"},{"name":"limit","type":"uint256","internalType":"uint256"}],"outputs":[{"name":"page","type":"address[]","internalType":"address[]"},{"name":"total","type":"uint256","internalType":"uint256"}],"stateMutability":"view"},{"type":"function","name":"getVestingsByOwner","inputs":[{"name":"owner_","type":"address","internalType":"address"}],"outputs":[{"name":"","type":"address[]","internalType":"address[]"}],"stateMutability":"view"},{"type":"function","name":"getVestingsByOwnerPaginated","inputs":[{"name":"owner_param","type":"address","internalType":"address"},{"name":"offset","type":"uint256","internalType":"uint256"},{"name":"limit","type":"uint256","internalType":"uint256"}],"outputs":[{"name":"page","type":"address[]","internalType":"address[]"},{"name":"total","type":"uint256","internalType":"uint256"}],"stateMutability":"view"},{"type":"function","name":"initialize","inputs":[{"name":"initialOwner_","type":"address","internalType":"address"},{"name":"pREWATokenAddress_","type":"address","internalType":"address"},{"name":"initialVestingImplementation_","type":"address","internalType":"address"},{"name":"adminForProxies_","type":"address","internalType":"address"}],"outputs":[],"stateMutability":"nonpayable"},{"type":"function","name":"owner","inputs":[],"outputs":[{"name":"","type":"address","internalType":"address"}],"stateMutability":"view"},{"type":"function","name":"pREWAToken","inputs":[],"outputs":[{"name":"","type":"address","internalType":"contract IERC20Upgradeable"}],"stateMutability":"view"},{"type":"function","name":"proxyAdminAddress","inputs":[],"outputs":[{"name":"","type":"address","internalType":"address"}],"stateMutability":"view"},{"type":"function","name":"renounceOwnership","inputs":[],"outputs":[],"stateMutability":"nonpayable"},{"type":"function","name":"setImplementation","inputs":[{"name":"newVestingImplementation","type":"address","internalType":"address"}],"outputs":[{"name":"success","type":"bool","internalType":"bool"}],"stateMutability":"nonpayable"},{"type":"function","name":"setProxyAdmin","inputs":[{"name":"newProxyAdminAddress","type":"address","internalType":"address"}],"outputs":[{"name":"success","type":"bool","internalType":"bool"}],"stateMutability":"nonpayable"},{"type":"function","name":"transferOwnership","inputs":[{"name":"newOwner","type":"address","internalType":"address"}],"outputs":[],"stateMutability":"nonpayable"},{"type":"function","name":"vestingImplementation","inputs":[],"outputs":[{"name":"","type":"address","internalType":"address"}],"stateMutability":"view"},{"type":"event","name":"ImplementationUpdated","inputs":[{"name":"oldImplementation","type":"address","indexed":true,"internalType":"address"},{"name":"newImplementation","type":"address","indexed":true,"internalType":"address"},{"name":"updater","type":"address","indexed":true,"internalType":"address"}],"anonymous":false},{"type":"event","name":"Initialized","inputs":[{"name":"version","type":"uint8","indexed":false,"internalType":"uint8"}],"anonymous":false},{"type":"event","name":"OwnershipTransferred","inputs":[{"name":"previousOwner","type":"address","indexed":true,"internalType":"address"},{"name":"newOwner","type":"address","indexed":true,"internalType":"address"}],"anonymous":false},{"type":"event","name":"ProxyAdminUpdated","inputs":[{"name":"oldProxyAdmin","type":"address","indexed":true,"internalType":"address"},{"name":"newProxyAdmin","type":"address","indexed":true,"internalType":"address"},{"name":"updater","type":"address","indexed":true,"internalType":"address"}],"anonymous":false},{"type":"event","name":"VestingCreated","inputs":[{"name":"vestingContract","type":"address","indexed":true,"internalType":"address"},{"name":"beneficiary","type":"address","indexed":true,"internalType":"address"},{"name":"amount","type":"uint256","indexed":false,"internalType":"uint256"},{"name":"owner","type":"address","indexed":true,"internalType":"address"}],"anonymous":false},{"type":"error","name":"InvalidDuration","inputs":[]},{"type":"error","name":"NotAContract","inputs":[{"name":"context","type":"string","internalType":"string"}]},{"type":"error","name":"VF_LimitIsZero","inputs":[]},{"type":"error","name":"Vesting_AmountExceedsMax","inputs":[{"name":"amount","type":"uint256","internalType":"uint256"},{"name":"maxAmount","type":"uint256","internalType":"uint256"}]},{"type":"error","name":"Vesting_AmountZeroV","inputs":[]},{"type":"error","name":"Vesting_BeneficiaryZero","inputs":[]},{"type":"error","name":"Vesting_CliffLongerThanDuration","inputs":[]},{"type":"error","name":"Vesting_DurationZero","inputs":[]},{"type":"error","name":"Vesting_StartTimeInvalid","inputs":[]},{"type":"error","name":"Vesting_TokenZero","inputs":[]},{"type":"error","name":"ZeroAddress","inputs":[{"name":"context","type":"string","internalType":"string"}]}],"bytecode":{"object":"0x6080806040523460bd576000549060ff8260081c16606b575060ff808216036031575b6040516125cf90816100c38239f35b60ff90811916176000557f7f26b83ff96e1f2b6a682f133852f6798a09c465da95921460cefb3847402498602060405160ff8152a1386022565b62461bcd60e51b815260206004820152602760248201527f496e697469616c697a61626c653a20636f6e747261637420697320696e697469604482015266616c697a696e6760c81b6064820152608490fd5b600080fdfe608080604052600436101561001357600080fd5b600090813560e01c90816310fe9ae814610e5f5750806315e3589d14610e3657806327ad6cfe14610e1e57806347c0266114610d5d57806358267e3714610ca85780635979e75514610c7f57806363ece94314610bbb578063715018a614610b5e5780638882a2f6146105745780638da5cb5b14610b355780638db18872146105bd5780639f82e2581461059d578063aaf10f4214610574578063d784d42614610461578063d91e60f214610435578063f2fde38b146103a45763f8c8765e146100dc57600080fd5b346103a15760803660031901126103a1576100f5610e88565b6024356001600160a01b0381169081900361039f576044356001600160a01b038116929083900361039b576064356001600160a01b038116908190036103975784549360ff8560081c16159485809661038a575b8015610373575b156103175760ff198116600117875585610306575b5061017f60ff875460081c1661017a81611387565b611387565b6101883361133e565b61019c60ff875460081c1661017a81611387565b60016065556001600160a01b038316156102d05783156102c157801561027b57811561024257610204936001600160601b0360a01b60975416176097556001600160601b0360a01b60985416176098556001600160601b0360a01b609954161760995561133e565b61020b5780f35b61ff001981541681557f7f26b83ff96e1f2b6a682f133852f6798a09c465da95921460cefb3847402498602060405160018152a180f35b60405163eac0d38960e01b815260206004820152601060248201526f61646d696e466f7250726f786965735f60801b6044820152606490fd5b60405163eac0d38960e01b815260206004820152601d60248201527f696e697469616c56657374696e67496d706c656d656e746174696f6e5f0000006044820152606490fd5b63405cee7b60e11b8652600486fd5b60405163eac0d38960e01b815260206004820152600d60248201526c696e697469616c4f776e65725f60981b6044820152606490fd5b61ffff191661010117865538610165565b60405162461bcd60e51b815260206004820152602e60248201527f496e697469616c697a61626c653a20636f6e747261637420697320616c72656160448201526d191e481a5b9a5d1a585b1a5e995960921b6064820152608490fd5b50303b1580156101505750600160ff821614610150565b50600160ff821610610149565b8480fd5b8380fd5b825b80fd5b50346103a15760203660031901126103a1576103be610e88565b6103c66112e6565b6001600160a01b038116156103e1576103de9061133e565b80f35b60405162461bcd60e51b815260206004820152602660248201527f4f776e61626c653a206e6577206f776e657220697320746865207a65726f206160448201526564647265737360d01b6064820152608490fd5b50346103a15761044d61044736610ea3565b91611247565b9061045d60405192839283610f0a565b0390f35b50346103a15760203660031901126103a15761047b610e88565b906104846112e6565b6001600160a01b038216918215610533573b156104ed57609880546001600160a01b031981168417909155604051602093909233926001600160a01b0316907f69ac7086f25179201a0cb39e4ffd8b5dd8224e2c7df939db65cb77311a0c030e9080a460018152f35b604051630dd2788360e41b81526020600482015260186024820152773732bbab32b9ba34b733a4b6b83632b6b2b73a30ba34b7b760411b604482015280606481015b0390fd5b60405163eac0d38960e01b81526020600482015260186024820152773732bbab32b9ba34b733a4b6b83632b6b2b73a30ba34b7b760411b6044820152606490fd5b50346103a157806003193601126103a1576098546040516001600160a01b039091168152602090f35b50346103a15760403660031901126103a15761044d602435600435611170565b50346103a15760c03660031901126103a1576105d7610e88565b6024359160443560643592608435928315158094036103a15760985460a43592906001600160a01b031615610aef576001600160a01b0316928315610ae0578215610ad1576b033b2e3c9fd0803ce80000008311610aae578515610a9f57858111610a905762093a8086108015610a83575b610a7457861594851580610a6b575b610a5c57338352609d6020526040832085845260205260ff6040842054166109f157338352609d602090815260408085208786528252808520805460ff1916600117905560985460995491519299926001600160a01b03928316929091166106c08b83610f26565b86825260405192611119918285019285841067ffffffffffffffff8511176109c557928594928e606093610705966114818939835282015281604082015201906110ee565b039085f09889156109e6576097546040516323b872dd60e01b818c019081523360248301526001600160a01b039c8d166044830181905260648084018b905283529b9c7f5361666545524332303a206c6f772d6c6576656c2063616c6c206661696c65649b938e939116918991829190610780608482610f26565b60409e8f9661079188519889610f26565b808852870152519082855af1903d156109d9573d67ffffffffffffffff81116109c557918e918d6107e195946107d385601f19601f8401160192519283610f26565b81528b81943d92013e6113e7565b80518c81159182156109a1575b505090501561094a5715610944575042925b6097546001600160a01b031693893b15610940578851946318c224df60e11b8652600486015287602486015260448501526064840152608483015260a48201528260c48201523360e4820152818161010481838a5af1801561093657610926575b5090828252609a86526108768585842061112f565b338252609b86526108898585842061112f565b609c54600160401b81101561091257906108ad82600187959401609c55609c610fd8565b81549060031b9088821b9160018060a01b03901b1916179055825190815283867faf7a223eabe61334d444e26a4e003865f3fc4f4752c0b4dd2f98cb4da0e0c9af893394a4338152609d8652209060005283528060002060ff19815416905551908152f35b634e487b7160e01b83526041600452602483fd5b8161093091610f26565b38610861565b85513d84823e3d90fd5b8580fd5b92610800565b885162461bcd60e51b8152600481018c9052602a60248201527f5361666545524332303a204552433230206f7065726174696f6e20646964206e6044820152691bdd081cdd58d8d9595960b21b6064820152608490fd5b83809293500103126109c1578b015180151581036109c157808c386107ee565b8680fd5b634e487b7160e01b8a52604160045260248afd5b6107e192916060916113e7565b6040513d86823e3d90fd5b60405162461bcd60e51b815260206004820152603c60248201527f56657374696e67206372656174696f6e20666f7220746869732062656e65666960448201527f636961727920697320616c726561647920696e2070726f6772657373000000006064820152608490fd5b63a559986960e01b8352600483fd5b50428810610658565b637616640160e01b8252600482fd5b506312cc03008611610649565b630ec0e8ad60e01b8252600482fd5b633e68ddc760e11b8252600482fd5b506044916347d3f79760e01b82526004526b033b2e3c9fd0803ce8000000602452fd5b6349aed2eb60e01b8252600482fd5b634415b0ef60e11b8252600482fd5b60405163eac0d38960e01b815260206004820152601e60248201527f56657374696e6720696d706c656d656e746174696f6e206e6f742073657400006044820152606490fd5b50346103a157806003193601126103a1576033546040516001600160a01b039091168152602090f35b50346103a157806003193601126103a157610b776112e6565b603380546001600160a01b0319811690915581906001600160a01b03167f8be0079c531659141344cd1fd0a4f28419497f9722a3daafe3b4186f6b6457e08280a380f35b50346103a15760203660031901126103a1576001600160a01b03610bdd610e88565b168015610c50578152609b60205260408120604051918260208354918281520192825260208220915b818110610c315761045d85610c1d81870382610f26565b604051918291602083526020830190610ecd565b82546001600160a01b0316845260209093019260019283019201610c06565b60405163eac0d38960e01b81526020600482015260066024820152656f776e65725f60d01b6044820152606490fd5b50346103a157806003193601126103a1576099546040516001600160a01b039091168152602090f35b50346103a15760203660031901126103a1576001600160a01b03610cca610e88565b168015610d29578152609a60205260408120604051918260208354918281520192825260208220915b818110610d0a5761045d85610c1d81870382610f26565b82546001600160a01b0316845260209093019260019283019201610cf3565b60405163eac0d38960e01b815260206004820152600b60248201526a62656e656669636961727960a81b6044820152606490fd5b50346103a15760203660031901126103a157610d77610e88565b610d7f6112e6565b6001600160a01b0316908115610de157609980546001600160a01b031981168417909155604051602093909233926001600160a01b0316907fa168155906b2b985c3682f41b9f3dd829eed0434b89648c4ec95c406df07475a9080a460018152f35b60405163eac0d38960e01b81526020600482015260146024820152736e657750726f787941646d696e4164647265737360601b6044820152606490fd5b50346103a15761044d610e3036610ea3565b9161101a565b50346103a157806003193601126103a1576097546040516001600160a01b039091168152602090f35b905034610e845781600319360112610e84576097546001600160a01b03168152602090f35b5080fd5b600435906001600160a01b0382168203610e9e57565b600080fd5b6060906003190112610e9e576004356001600160a01b0381168103610e9e57906024359060443590565b906020808351928381520192019060005b818110610eeb5750505090565b82516001600160a01b0316845260209384019390920191600101610ede565b929190610f21602091604086526040860190610ecd565b930152565b90601f8019910116810190811067ffffffffffffffff821117610f4857604052565b634e487b7160e01b600052604160045260246000fd5b67ffffffffffffffff8111610f485760051b60200190565b90610f8082610f5e565b610f8d6040519182610f26565b8281528092610f9e601f1991610f5e565b0190602036910137565b91908203918211610fb557565b634e487b7160e01b600052601160045260246000fd5b91908201809211610fb557565b8054821015610ff05760005260206000200190600090565b634e487b7160e01b600052603260045260246000fd5b8051821015610ff05760209160051b010190565b9192916001600160a01b03168015610c505783156110dd57600052609b6020526040600020805493848310156110bf57806110558487610fa8565b10156110b957506110668285610fa8565b905b61107182610f76565b9260005b83811061108457505050509190565b8061109a61109460019385610fcb565b85610fd8565b838060a01b0391549060031b1c166110b28288611006565b5201611075565b90611068565b5050506040516110d0602082610f26565b6000815260003681379190565b63762e4d0760e01b60005260046000fd5b919082519283825260005b84811061111a575050826000602080949584010152601f8019910116010190565b806020809284010151828286010152016110f9565b8054600160401b811015610f485761114c91600182018155610fd8565b81546001600160a01b0393841660039290921b91821b9390911b1916919091179055565b91909182156110dd57609c54928382101561123757806111908386610fa8565b101561123157506111a18184610fa8565b905b6111ac82610f76565b91600091609c54925b8281106111c457505050509190565b6111ce8183610fcb565b60008582101561121d57609c90527faf85b9071dfafeac1409d3f1d19bafc9bc7c37974cde8df0ee6168f0086e539c0154600191906001600160a01b03166112168288611006565b52016111b5565b634e487b7160e01b81526032600452602490fd5b906111a3565b50506040516110d0602082610f26565b9192916001600160a01b03168015610d295783156110dd57600052609a6020526040600020805493848310156110bf57806112828487610fa8565b10156112e057506112938285610fa8565b905b61129e82610f76565b9260005b8381106112b157505050509190565b806112c161109460019385610fcb565b838060a01b0391549060031b1c166112d98288611006565b52016112a2565b90611295565b6033546001600160a01b031633036112fa57565b606460405162461bcd60e51b815260206004820152602060248201527f4f776e61626c653a2063616c6c6572206973206e6f7420746865206f776e65726044820152fd5b603380546001600160a01b039283166001600160a01b0319821681179092559091167f8be0079c531659141344cd1fd0a4f28419497f9722a3daafe3b4186f6b6457e0600080a3565b1561138e57565b60405162461bcd60e51b815260206004820152602b60248201527f496e697469616c697a61626c653a20636f6e7472616374206973206e6f74206960448201526a6e697469616c697a696e6760a81b6064820152608490fd5b9192901561144957508151156113fb575090565b3b156114045790565b60405162461bcd60e51b815260206004820152601d60248201527f416464726573733a2063616c6c20746f206e6f6e2d636f6e74726163740000006044820152606490fd5b82519091501561145c5750805190602001fd5b60405162461bcd60e51b81526020600482015290819061052f9060248301906110ee56fe60806040523461038e576111198038038061001981610393565b928339810160608282031261038e57610031826103ce565b9161003e602082016103ce565b604082015190916001600160401b03821161038e57019180601f8401121561038e5782519261007461006f856103e2565b610393565b9380855260208501926020828401011161038e5782602061009593016103fd565b833b15610333577f360894a13ba1a3210667c828492db98dca3e2076cc3735a920a3ca505d382bbc80546001600160a01b0319166001600160a01b03861690811790915592837fbc7cd75a20ee27fd9adebab32041f755214dbc6bffa90cc0225b39da2e5c2d3b600080a280511580159061032b575b6102a4575b50506000805160206110f983398151915254604080516001600160a01b03808416825290931660208401819052927f7e644d79422f17c01e4894b5f4f588d331ebfa28653d42ae832dc59e38c9798f9190a18115610250576001600160a01b031916176000805160206110f983398151915255156101f4573b1561019d57604051610c2590816104d48239f35b60405162461bcd60e51b815260206004820152602960248201527f5472616e73706172656e7450726f78793a206c6f676963206973206e6f7420616044820152680818dbdb9d1c9858dd60ba1b6064820152608490fd5b60405162461bcd60e51b815260206004820152602e60248201527f5472616e73706172656e7450726f78793a206c6f6769632063616e6e6f74206260448201526d65207a65726f206164647265737360901b6064820152608490fd5b60405162461bcd60e51b815260206004820152602660248201527f455243313936373a206e65772061646d696e20697320746865207a65726f206160448201526564647265737360d01b6064820152608490fd5b60008061031b936102b56060610393565b93602785527f416464726573733a206c6f772d6c6576656c2064656c65676174652063616c6c6020860152660819985a5b195960ca1b60408601525190885af43d15610323573d9061030961006f836103e2565b9182523d6000602084013e5b86610420565b503880610110565b606090610315565b50600061010b565b60405162461bcd60e51b815260206004820152602d60248201527f455243313936373a206e657720696d706c656d656e746174696f6e206973206e60448201526c1bdd08184818dbdb9d1c9858dd609a1b6064820152608490fd5b600080fd5b6040519190601f01601f191682016001600160401b038111838210176103b857604052565b634e487b7160e01b600052604160045260246000fd5b51906001600160a01b038216820361038e57565b6001600160401b0381116103b857601f01601f191660200190565b60005b8381106104105750506000910152565b8181015183820152602001610400565b919290156104825750815115610434575090565b3b1561043d5790565b60405162461bcd60e51b815260206004820152601d60248201527f416464726573733a2063616c6c20746f206e6f6e2d636f6e74726163740000006044820152606490fd5b8251909150156104955750805190602001fd5b6044604051809262461bcd60e51b8252602060048301526104c581518092816024860152602086860191016103fd565b601f01601f19168101030190fdfe60806040526004361015610018575b3661078b5761078b565b60003560e01c80633659cfe6146100885780634f1ef286146100835780635c60da1b1461007e5780637a34c821146100795780638f283970146100745780639ad5c59a1461006f5763f851a4400361000e576103fe565b6103d5565b61031e565b6102f5565b61029d565b6101ba565b34610104576020366003190112610104576101026004356100a881610109565b6100ca60018060a01b03600080516020610bb08339815191525416331461043e565b6100de6001600160a01b0382161515610498565b6100ea813b151561050a565b604051906100f9602083610130565b60008252610571565b005b600080fd5b6001600160a01b0381160361010457565b634e487b7160e01b600052604160045260246000fd5b90601f8019910116810190811067ffffffffffffffff82111761015257604052565b61011a565b67ffffffffffffffff811161015257601f01601f191660200190565b81601f820112156101045780359061018a82610157565b926101986040519485610130565b8284526020838301011161010457816000926020809301838601378301015290565b6040366003190112610104576004356101d281610109565b60243567ffffffffffffffff8111610104576101f2903690600401610173565b61021460018060a01b03600080516020610bb08339815191525416331461043e565b6102286001600160a01b0383161515610498565b805115610244578161023f610102933b151561050a565b610653565b60405162461bcd60e51b815260206004820152602b60248201527f5472616e73706172656e7450726f78793a2063616c6c20646174612063616e6e60448201526a6f7420626520656d70747960a81b6064820152608490fd5b34610104576000366003190112610104576102d060018060a01b03600080516020610bb08339815191525416331461043e565b600080516020610bd0833981519152546040516001600160a01b039091168152602090f35b34610104576000366003190112610104576020604051600080516020610bd08339815191528152f35b346101045760203660031901126101045760043561033b81610109565b61035d60018060a01b03600080516020610bb08339815191525416331461043e565b6001600160a01b0381161561037557610102906106c4565b60405162461bcd60e51b815260206004820152603260248201527f5472616e73706172656e7450726f78793a206e65772061646d696e2063616e6e6044820152716f74206265207a65726f206164647265737360701b6064820152608490fd5b34610104576000366003190112610104576020604051600080516020610bb08339815191528152f35b3461010457600036600319011261010457600080516020610bb0833981519152546020906001600160a01b031661043633821461043e565b604051908152f35b1561044557565b60405162461bcd60e51b815260206004820152602560248201527f5472616e73706172656e7450726f78793a2063616c6c6572206973206e6f742060448201526430b236b4b760d91b6064820152608490fd5b1561049f57565b60405162461bcd60e51b815260206004820152603b60248201527f5472616e73706172656e7450726f78793a206e657720696d706c656d656e746160448201527f74696f6e2063616e6e6f74206265207a65726f206164647265737300000000006064820152608490fd5b1561051157565b60405162461bcd60e51b815260206004820152603260248201527f5472616e73706172656e7450726f78793a20696d706c656d656e746174696f6e604482015271081a5cc81b9bdd08184818dbdb9d1c9858dd60721b6064820152608490fd5b803b156105f857600080516020610bd083398151915280546001600160a01b0319166001600160a01b0383169081179091557fbc7cd75a20ee27fd9adebab32041f755214dbc6bffa90cc0225b39da2e5c2d3b600080a28151158015906105f0575b6105db575050565b6105ed916105e76108b0565b91610a87565b50565b5060006105d3565b60405162461bcd60e51b815260206004820152602d60248201527f455243313936373a206e657720696d706c656d656e746174696f6e206973206e60448201526c1bdd08184818dbdb9d1c9858dd609a1b6064820152608490fd5b803b156105f857600080516020610bd083398151915280546001600160a01b0319166001600160a01b0383169081179091557fbc7cd75a20ee27fd9adebab32041f755214dbc6bffa90cc0225b39da2e5c2d3b600080a28151158015906106bc576105db575050565b5060016105d3565b600080516020610bb083398151915254604080516001600160a01b03808416825290931660208401819052927f7e644d79422f17c01e4894b5f4f588d331ebfa28653d42ae832dc59e38c9798f9190a18115610737576001600160a01b03191617600080516020610bb083398151915255565b60405162461bcd60e51b815260206004820152602660248201527f455243313936373a206e65772061646d696e20697320746865207a65726f206160448201526564647265737360d01b6064820152608490fd5b600080516020610bb0833981519152546001600160a01b031633036108ab576000356001600160e01b031916631b2ce7f360e11b81036107d657506107ce610a53565b602081519101f35b63278f794360e11b81036107f257506107ed610a00565b6107ce565b6308f2839760e41b810361080957506107ed6109c1565b6303e1469160e61b810361082057506107ed610971565b635c60da1b60e01b03610835576107ed610936565b60405162461bcd60e51b815260206004820152604260248201527f5472616e73706172656e745570677261646561626c6550726f78793a2061646d60448201527f696e2063616e6e6f742066616c6c6261636b20746f2070726f78792074617267606482015261195d60f21b608482015260a490fd5b6108fb565b604051906108bf606083610130565b60278252660819985a5b195960ca1b6040837f416464726573733a206c6f772d6c6576656c2064656c65676174652063616c6c60208201520152565b600080516020610bd08339815191525460009081906001600160a01b0316368280378136915af43d6000803e15610931573d6000f35b3d6000fd5b61093e610ace565b60018060a01b03600080516020610bd083398151915254166040519060208201526020815261096e604082610130565b90565b610979610ace565b60018060a01b03600080516020610bb083398151915254166040519060208201526020815261096e604082610130565b60209060031901126101045760043561096e81610109565b6109c9610ace565b36600411610104576109eb6001600160a01b036109e5366109a9565b166106c4565b6040516109f9602082610130565b6000815290565b3660041161010457604036600319011261010457600435610a2081610109565b6024359067ffffffffffffffff821161010457610a446109eb923690600401610173565b906001600160a01b0316610653565b610a5b610ace565b36600411610104576109eb6001600160a01b03610a77366109a9565b16604051906100f9602083610130565b60008061096e9493602081519101845af43d15610ac6573d91610aa983610157565b92610ab76040519485610130565b83523d6000602085013e610b21565b606091610b21565b3461010457565b15610adc57565b60405162461bcd60e51b815260206004820152601d60248201527f416464726573733a2063616c6c20746f206e6f6e2d636f6e74726163740000006044820152606490fd5b91929015610b415750815115610b35575090565b61096e903b1515610ad5565b825190915015610b545750805190602001fd5b6040519062461bcd60e51b8252602060048301528181519182602483015260005b838110610b975750508160006044809484010152601f80199101168101030190fd5b60208282018101516044878401015285935001610b7556feb53127684a568b3173ae13b9f8a6016e243e63b6e8ee1178d6a717850b5d6103360894a13ba1a3210667c828492db98dca3e2076cc3735a920a3ca505d382bbca264697066735822122049a61f4933fd1eb00709f34188b94124b2ff2ed3bf34e642398f6da8d044835b64736f6c634300081c0033b53127684a568b3173ae13b9f8a6016e243e63b6e8ee1178d6a717850b5d6103a26469706673582212203f689813c5df86bbf2871ca3f857eb938db632786b56e6e9cc2bde32868462db64736f6c634300081c0033","linkReferences":{}},"methodIdentifiers":{"createVesting(address,uint256,uint256,uint256,bool,uint256)":"8db18872","getAllVestingContractsPaginated(uint256,uint256)":"9f82e258","getImplementation()":"aaf10f42","getTokenAddress()":"10fe9ae8","getVestingsByBeneficiary(address)":"58267e37","getVestingsByBeneficiaryPaginated(address,uint256,uint256)":"d91e60f2","getVestingsByOwner(address)":"63ece943","getVestingsByOwnerPaginated(address,uint256,uint256)":"27ad6cfe","initialize(address,address,address,address)":"f8c8765e","owner()":"8da5cb5b","pREWAToken()":"15e3589d","proxyAdminAddress()":"5979e755","renounceOwnership()":"715018a6","setImplementation(address)":"d784d426","setProxyAdmin(address)":"47c02661","transferOwnership(address)":"f2fde38b","vestingImplementation()":"8882a2f6"},"id":52}